:100000000C9487000C94B8000C94B8000C94B800C1
:100010000C94B8000C94B8000C94B8000C94B80080
:100020000C94B8000C94B8000C94B8000C94B80070
:100030000C94B8000C94B8000C94B8000C94B80060
:100040000C94B8000C94B8000C94B8000C94B80050
:100050000C94B8000C94B8000C94B8000C94A11C3B
:100060000C94B8000C94D51E0C940B1F0C94B80083
:100070000C94B8000C94B8000C94B8000C94B80020
:100080000C94B8000C94B8000C94B8000C94B80010
:100090000C94B8000C94B8000C94B8000C94B80000
:1000A0000C94B8000C94B8000C94B8000C94B800F0
:1000B0000C94B8000C94B8000C94B8000C94B800E0
:1000C0000C94B8000C94B8000C94B8000C94B800D0
:1000D0000C94B8000C94B8000C94B8000C94B800C0
:1000E0000C94B8000C94721D0C94AF1D0C947E1DE2
:1000F0000C94351F0C94261E0C948C1D0C94A01D82
:100100000C94061E0C943F1F0C947C1F3F1F11245F
:100110001FBECFEFD1E2DEBFCDBF00E00CBF17E0C6
:10012000A0E0B2E0EEEBF6E400E00BBF02C0079007
:100130000D92A631B107D9F72CE0A6E1B7E001C0D6
:100140001D92A836B207E1F710E0C7E8D0E000E062
:1001500006C021970109802FFE010E945523C63851
:10016000D10780E00807A9F70E946D1F0C94DE1FDD
:100170000C9400004F925F926F927F928F929F92A9
:10018000AF92BF92CF92DF92EF92FF920F931F93A5
:10019000CF93DF93CDB7DEB7A0970FB6F894DEBF4D
:1001A0000FBECDBF8C0188E1FE013196DF011D92AB
:1001B0008A95E9F7F801E05FFE4F80809180A28088
:1001C000B38023E531EC4BE05FEBC501B4010E9445
:1001D0006F2087FFA3C421EE34E643E85EE3F80115
:1001E000E453FE4F60817181828193810E946F2070
:1001F00087FF4FC4F801E056FE4FC080D180E280F7
:10020000F3802FEE3FE94FED5EEBC701B6010E9490
:100210006F2087FFB5C328E23DE74BE35FEBF801B2
:10022000E45FFE4F60817181828193810E946F2023
:1002300087FF59C2F801E45BFE4F80809180A28065
:10024000B3802BE634E34EE45FEBC501B4010E94BA
:100250006F2087FFADC12EE333EB4AEB5FEBF80174
:10026000E058FE4F60817181828193810E946F20EE
:1002700087FFCFC02FE039ED46E75FEBF801EC5385
:10028000FE4F60817181828193810E946F2087FF80
:10029000AAC020E93DE746EB5FEBF801E05CFF4FC9
:1002A00060817181828193810E946F2087FF63C08A
:1002B000F801E059FE4F28E531E14CE25FEB608147
:1002C0007181828193810E946F2087FD02C00C940E
:1002D000691485E090E0A0E0B0E0880F991F880FD6
:1002E000991FE1E0F0E0EC0FFD1FE80FF91F81E03E
:1002F00090E0A0E0B0E080839183A283B383FE010D
:10030000319640E050E0BA01C12CD12C76013FEF8C
:100310002FEF8FEF9FEF81909190A190B190C81433
:10032000D904EA04FB042CF475016401342F252F51
:10033000CB014F5F5F4F6F4F7F4F463051056105D7
:10034000710549F7632F722FA0960FB6F894DEBFA0
:100350000FBECDBFDF91CF911F910F91FF90EF9016
:10036000DF90CF90BF90AF909F908F907F906F90D5
:100370005F904F90089526ED37E240E45FE3F80187
:10038000E85EFE4F60817181828193810E946F20BF
:1003900087FD02C00C946F1425E73AE543EB5FEB51
:1003A000F801E05AFF4F60817181828193810E9440
:1003B0006F2087FD02C00C947414F801E858FF4FB9
:1003C00024E73BE449E25FE36081718182819381AC
:1003D0000E946F2087FF02C00C947A1483E090E0A3
:1003E000A0E0B0E07ACFF801E457FF4F2AE335E30D
:1003F00045E75FEB60817181828193810E946F206C
:1004000087FD02C00C94801481E090E0A0E0B0E091
:1004100064CF2EEE36E244EC5EE3F801E456FF4F83
:1004200060817181828193810E946F2087FF9AC0D1
:100430002BE437E646E45FEBF801F39560817181C8
:10044000828193810E946F2087FF76C021EE34EB7A
:100450004CEB5FEBC701B6010E946F2087FF02C023
:100460000C94861421E93EEC48E55FEBF801E05777
:10047000FF4F60817181828193810E946F2087FF8D
:1004800016C0F801E458FF4F26E23AE44EE85EE376
:1004900060817181828193810E946F2087FD02C0FB
:1004A0000C948C1481E090E0A0E0B0E016CF28E737
:1004B00031EA4FE45FEBC501B4010E946F2087FF72
:1004C00025C02AEE3EEC4CE85FE3F801E85AFF4F06
:1004D00060817181828193810E946F2087FF02C0B9
:1004E0000C94921420E43BE442E25FEBF801608953
:1004F0007189828993890E946F2087FD02C00C94C4
:10050000981481E090E0A0E0B0E0E7CEF801E05C74
:10051000FF4F2AEE38EA41E45FEB6081718182810E
:1005200093810E946F2087FD02C00C949E1481E08D
:1005300090E0A0E0B0E0D1CE20EC3BE347E05FEB01
:10054000D801D0966D917D918D919C91D3970E9409
:100550006F2087FD02C00C94A41481E090E0A0E01D
:10056000B0E0BBCE2CE73EE047EB5FEBF801E45791
:10057000FE4F60817181828193810E946F2087FD8F
:1005800002C00C94AA14F801E05AFF4F27E33DE89B
:1005900049E65FEB60817181828193810E946F20C7
:1005A00087FD02C00C94B01480E090E0DC0195CE91
:1005B0002BE434E649E55FE3F801EC5AFE4F608135
:1005C0007181828193810E946F2087FF76C025E828
:1005D0003AEF4CE15FE3F801EC55FE4F6081718129
:1005E000828193810E946F2087FD02C00C94B61413
:1005F0002DEF32E141E75FE3F801E852FF4F608100
:100600007181828193810E946F2087FD02C00C94CA
:10061000BC1428E635E54FE95FEBC701B6010E943F
:100620006F2087FF02C00C94C2142CE536E14BE327
:100630005FEBF80160857185828593850E946F204C
:1006400087FF16C0F801E055FE4F27E23FEB45E576
:100650005FEB60817181828193810E946F2087FDB1
:1006600002C00C94C81484E090E0A0E0B0E035CE65
:100670002DEA36ED46E15FEBF801EC59FF4F608162
:100680007181828193810E946F2087FD02C00C944A
:10069000CE14F801E456FF4F01E0E12C22E337E6E7
:1006A0004DE45EE360817181828193810E946F20BD
:1006B00087FF00E0802F9E2D10CEF801E05CFF4FF9
:1006C00021EF35E043E35FEB6081718182819381AB
:1006D0000E946F2087FD02C00C94D41481E090E04A
:1006E000A0E0B0E0FACD23E93BE045E35FE3F801A9
:1006F000EC58FF4F60817181828193810E946F204D
:1007000087FF02C00C94DA1428EE33EE4DE45EEB62
:10071000D80194966D917D918D919C9197970E94AF
:100720006F2087FF9CC029E93FE343E85FEBF801B6
:10073000EC5BFE4F60817181828193810E946F200A
:1007400087FF02C00C94E01422EE31EF43E15FEB2F
:10075000F80160857185828593850E946F2087FFEF
:1007600047C02BE03EEB41E85FEBC701B6010E94BA
:100770006F2087FF27C027EB39E042E55CEBF801EB
:10078000EC55FF4F60817181828193810E946F20BF
:1007900087FD02C00C94E61422E534EA48E15FEBE1
:1007A000D80198966D917D918D919C919B970E9417
:1007B0006F2087FD02C00C94EC1483E090E0A0E071
:1007C000B0E08BCDF801E45BFE4F2EEA32E04DE461
:1007D0005FEB60817181828193810E946F2087FD30
:1007E00002C00C94F21484E090E0A0E0B0E075CD7B
:1007F00028EC34E943ED5EEBF80160897189828968
:1008000093890E946F2087FF14C029E136E140EEF2
:100810005EE3D8015C966D917D918D919C915F977F
:100820000E946F20881F8827881F91E0892790E009
:1008300054CDF801E45BFE4F20E83AED42E65FEB71
:1008400060817181828193810E946F2087FD02C047
:100850000C94F81484E090E0A0E0B0E03ECD2FE8E6
:100860003EE244E15FEBF801E85DFE4F608171819B
:10087000828193810E946F2087FF16C0F801E055A6
:10088000FE4F20E83AE44EE35FEB608171818281A4
:1008900093810E946F2087FD02C00C94FE1484E0B7
:1008A00090E0A0E0B0E019CD25E43CE042ED5EE34D
:1008B000F801648D758D868D978D0E946F2087FF5E
:1008C0004AC029E037EA49EF5EE3D801D8966D9136
:1008D0007D918D919C91DB970E946F2087FF14C0C2
:1008E0002CE039E74EE65EE3F80164A975A986A914
:1008F00097A90E946F2087FD02C00C94041584E024
:1009000090E0A0E0B0E0E9CC22E13EE34CE55FEB13
:10091000F801E451FE4F60817181828193810E94D0
:100920006F2087FD02C00C940A1524ED39E542E0E2
:100930005FEBD8011C966D917D918D919C911F97D5
:100940000E946F2087FD02C00C94101585E090E096
:10095000A0E0B0E0C2CCF801E45CFE4F26E234E750
:1009600045EB5EE360817181828193810E946F20FB
:1009700087FF02C00C94161580E090E0DC01ADCC3E
:100980002AEA3BE24EE45EEBF801E054FE4F608160
:100990007181828193810E946F2087FF58C02CEF64
:1009A00036E74EE75FEBF801E857FF4F6081718152
:1009B000828193810E946F2087FF02C00C941C15D6
:1009C00025EE3AEF42E55FE3F801EC53FE4F60811C
:1009D0007181828193810E946F2087FD02C00C94F7
:1009E00022152BE234E541EC5EE3F801E456FF4FBB
:1009F00060817181828193810E946F2087FD02C096
:100A00000C94281521E739E14EE85DEBF801E05C34
:100A1000FE4F60817181828193810E946F2087FFE8
:100A200002C00C942E152CE83DED48E25FE3F8017E
:100A300060AD71AD82AD93AD0E946F2087FD02C0A5
:100A40000C94341582E090E0A0E0B0E046CC29ECB4
:100A50003DED42E85EE3C701B6010E946F2087FFCB
:100A600002C00C943A152BE533E949E85EEBD80156
:100A700090966D917D918D919C9193970E946F209E
:100A800087FD02C00C94401582E090E0A0E0B0E049
:100A900024CC28EE3DEC4BE150E4F801EC57FE4F3E
:100AA00060817181828193810E946F2087FD02C0E5
:100AB0000C94461522E03DE947E05EEBF80160AD9D
:100AC00071AD82AD93AD0E946F20F80187FF13C016
:100AD000E058FF4F21E130E246ED5FE36081718134
:100AE000828193810E946F20881F8827881F91E050
:100AF000892790E0F2CBE053FE4F01E0E12C2FEE8E
:100B00003BE149E850E460817181828193810E94D8
:100B10006F2087FF00E0802F9E2DDFCBD801DC9671
:100B2000CD90DD90ED90FC90DF9726EE36EA4EEF0B
:100B30005DEBC701B6010E946F2087FF22C2D8017A
:100B400090968D919D910D90BC91A02D898F9A8F3B
:100B5000AB8FBC8F28EC30EF42EB5EE3BC01CD01E4
:100B60000E946F2087FF5BC023EC34E84BEB5EEB09
:100B7000F801E457FE4F60817181828193810E9468
:100B80006F2087FF27C02CE831E040E85CEBF801DC
:100B9000EC53FE4F60817181828193810E946F20AE
:100BA00087FD02C00C944C15F801E05BFF4F21E675
:100BB00030E049E75EEB60817181828193810E9420
:100BC0006F2087FD02C00C94521585E090E0A0E0F4
:100BD000B0E083CB22E937E94DE85EE3F801EC5C55
:100BE000FE4F60817181828193810E946F2087FD19
:100BF00002C00C945815F801EC58FE4F01E0E12CAE
:100C00002DEB32E948E05FEB608171818281938155
:100C10000E946F2087FF00E0802F9E2D5ECBF801A1
:100C2000E455FE4F40805180628073802DE031ECAE
:100C300042EB5FE3C301B2010E946F2087FF7FC1D7
:100C40002AE439ED47E850E4F801E85DFE4F6081A1
:100C50007181828193810E946F2087FF4BC12FE1B8
:100C600036EE46E35FEBF801E052FE4F60817181A2
:100C7000828193810E946F2087FF16C0F801E8529D
:100C8000FF4F21E635E142E45FE3608171818281BB
:100C900093810E946F2087FD02C00C945E1585E051
:100CA00090E0A0E0B0E019CB25E735E946E85FE346
:100CB000C301B2010E946F2087FFF5C0F801EC5715
:100CC000FF4FC080D180E280F38028EF39E343EA10
:100CD0005EEBC701B6010E946F2087FF11C020EEB6
:100CE00037E64FE55EE3C501B4010E946F2087FD42
:100CF00002C00C94641584E090E0A0E0B0E0EDCA7E
:100D00002AEF32E749EA5EEBF8016481758186815A
:100D100097810E946F2087FF16C0F801E853FF4FAC
:100D200028EA34E84AEB5EEB60817181828193812D
:100D30000E946F2087FD02C00C946A1582E090E04B
:100D4000A0E0B0E0CACA2AEB33EF42E75FE3698D67
:100D50007A8D8B8D9C8D0E946F2087FF58C021ED6E
:100D600033EC4AE05FE3F801EC5DFE4F6081718196
:100D7000828193810E946F2087FF33C02FEB34E87C
:100D800043E45EE3F801E05BFF4F608171818281A3
:100D900093810E946F2087FD02C00C9470152AE297
:100DA0003FE141E95EEBC701B6010E946F2087FD7C
:100DB00002C00C947615F801EC53FE4F27E43AE09C
:100DC00049ED5EEB60817181828193810E946F2089
:100DD00087FD02C00C947C1584E090E0A0E0B0E0B8
:100DE0007CCAF801EC52FE4F2CE532E44EE65FEB94
:100DF00060817181828193810E946F2087FD02C092
:100E00000C94821583E090E0A0E0B0E066CA23EB8A
:100E100039E14BE35EEBF801E058FF4F60817181EF
:100E2000828193810E946F2087FF16C0F801E852EB
:100E3000FE4F2EEB3DE642EF5EEB608171818281D9
:100E400093810E946F2087FD02C00C94881582E078
:100E500090E0A0E0B0E041CA28E931E240EC50E483
:100E6000D80150966D917D918D919C9153970E94E0
:100E70006F2087FF02C00C948E15F801E05BFE4FD7
:100E80002AE33DEC4AE95FE36081718182819381CD
:100E90000E946F2087FD02C00C94941581E090E0C1
:100EA000A0E0B0E01ACA26E430ED4FE95EE3F801B5
:100EB000E055FF4F60817181828193810E946F2094
:100EC00087FD02C00C949A15F801EC51FE4F25E9FC
:100ED00036EA48E55EEB60817181828193810E94F0
:100EE0006F2087FD02C00C94A01584E090E0A0E084
:100EF000B0E0F3C921E03CE040EA50E4F801608151
:100F00007181828193810E946F2087FD02C00C94C1
:100F1000A615F801EC56FF4F21EF30E449E150EC03
:100F200060817181828193810E946F2087FD02C060
:100F30000C94AC1581E090E0A0E0B0E0CEC922EFC7
:100F40003BE940EE5EEBC701B6010E946F2087FDD2
:100F500002C00C94B215F801EC53FF4F20E832E4C4
:100F600040E45AE360817181828193810E946F2005
:100F700087FD02C00C94B71585E090E0A0E0B0E0DA
:100F8000ACC9F801E057FE4F80819181A281B38105
:100F9000898F9A8FAB8FBC8F21E834E44AE55EE3FA
:100FA000BC01CD010E946F20F80187FD02C00C94A6
:100FB0009111E457FF4F408051806280738021EF90
:100FC00034E241E65FEBC301B2010E946F2087FF6C
:100FD00040C12AEB3DE247E95FEBF801E05CFF4FDF
:100FE00060817181828193810E946F2087FF3AC066
:100FF00023EC35E546E45FEBD80198966D917D9141
:101000008D919C919B970E946F20F80187FF15C0DE
:10101000E455FE4F25E53FE541EA5FEB60817181D4
:10102000828193810E946F2087FD02C00C94BD15C0
:1010300081E090E0A0E0B0E050C9E456FE4F2FE31D
:1010400039E847E45FE360817181828193810E9486
:101050006F2087FD02C00C94C31585E090E0A0E0EE
:10106000B0E03BC92BEB3BE147E85EE3F801EC5D08
:10107000FE4F60817181828193810E946F2087FF82
:10108000C1C02CE237E845E15EEBF801EC51FE4FC0
:1010900060817181828193810E946F2087FF9EC051
:1010A0002BE636E749E15FEBF801E05EFE4F608139
:1010B0007181828193810E946F20F80187FF15C0A2
:1010C000E052FF4F26E539E442E85FEB6081718131
:1010D000828193810E946F2087FD02C00C94C91504
:1010E00085E090E0A0E0B0E0F8C8F395C080D18042
:1010F000E280F38020E933EF4CE15FEBC701B601FA
:101100000E946F2087FF02C00C94CF1528E235EAB9
:101110004CE25FEBF801EC5FFE4F608171818281F0
:1011200093810E946F2087FF02C00C94D51523EF96
:101130003EEC41E95EE3F801E458FF4F60817181C4
:10114000828193810E946F2087FF27C027E431E4CA
:101150004EE85EE3F801E45AFE4F608171818281BE
:1011600093810E946F2087FD02C00C94DB15F8016B
:10117000E856FF4F27E336EC45E05FE3608171817D
:10118000828193810E946F2087FD02C00C94E1153B
:1011900084E090E0A0E0B0E0A0C828E53BEB4EE1A1
:1011A0005FE3C701B6010E946F2087FD02C00C9467
:1011B000E715F801EC52FE4F29E73CEF4AE55FE303
:1011C00060817181828193810E946F2087FD02C0BE
:1011D0000C94ED1580E090E0DC017FC82DE937E745
:1011E00042E45DEBF80164A975A986A997A90E945C
:1011F0006F2087FD02C00C94F31584E090E0A0E01E
:10120000B0E06BC823E734ED47E05FE3F801EC5F43
:10121000FE4F60817181828193810E946F2087FFE0
:1012200002C00C94F815F801E052FF4F24E935E2B2
:101230004FE05FEB60817181828193810E946F201A
:1012400087FD02C00C94FE1585E090E0A0E0B0E0C0
:1012500044C827EE33E141EA5EE3F801E85CFE4F63
:1012600060817181828193810E946F2087FF17C501
:101270002EEE38E444E95DE3C701B6010E946F2019
:1012800087FF35C128E039E34CEC5DEBF801E45C05
:10129000FE4F60817181828193810E946F2087FF60
:1012A00063C025EF34E040ED5EEBF801E051FE4F06
:1012B00060817181828193810E946F2087FF17C0B6
:1012C000F801E457FE4F2BE832E249E45FEB60811E
:1012D0007181828193810E946F2087FD02C00C94EE
:1012E000041685E090E0A0E0B0E00C946D0128E5E4
:1012F0003DE544E75EEBF801E45AFE4F6081718101
:10130000828193810E946F2087FF17C024E835EA0D
:101310004FEB5DEBD80198966D917D918D919C91ED
:101320009B970E946F2087FD02C00C940A1683E0F1
:1013300090E0A0E0B0E00C946D01F801E05CFF4F9C
:101340002FEC3AE84DE85FEB6081718182819381F7
:101350000E946F2087FD02C00C94101684E090E07C
:10136000A0E0B0E00C946D012EED37E74FE15EEBAD
:10137000F801E855FE4F60817181828193810E945E
:101380006F2087FF8CC026E03FE048E35FE3F80171
:1013900064897589868997890E946F2087FF68C054
:1013A00029E53CEC46E25CEBF801EC53FF4F608131
:1013B0007181828193810E946F2087FF42C020ED5E
:1013C0003BE042EE5DEBC701B6010E946F2087FF54
:1013D00017C028E834E748EA5EEBD801D4966D914F
:1013E0007D918D919C91D7970E946F2087FD02C0BF
:1013F0000C94151682E090E0A0E0B0E00C946D0132
:101400002CE83BED4AE65EEBC501B4010E946F207B
:1014100087FF02C00C941B1626E436E249E35FEB1B
:10142000F80160817181828193810E946F2087FD24
:1014300002C00C94211682E090E0A0E0B0E00C9491
:101440006D0123EC33EC46EA5EEBD801D8966D9142
:101450007D918D919C91DB970E946F2087FD02C04A
:101460000C94271685E090E0A0E0B0E00C946D01AC
:10147000F801E053FE4F2FE43CE542E05FEB608172
:101480007181828193810E946F2087FD02C00C943C
:101490002D1682E090E0A0E0B0E00C946D0127E60C
:1014A0003EE441E45EEBF801E856FE4F6081718155
:1014B000828193810E946F2087FF02C00C943316B3
:1014C000F801E05CFF4F22EF31EA4BE85DE3608119
:1014D0007181828193810E946F2087FD02C00C94EC
:1014E000391685E090E0A0E0B0E00C946D012CE8A6
:1014F00033EE49E75EE3F801E05DFE4F6081718104
:10150000828193810E946F2087FFABC2F801E45D66
:10151000FE4F80819181A281B3818D8F9E8FAF8F8D
:10152000B8A326E930E440EE5EEBBC01CD010E9499
:101530006F2087FF39C028EC36EA4DE35EE3F801FF
:10154000E456FE4F60817181828193810E946F20F9
:1015500087FF02C00C943F162FE538E540E25FEBB1
:10156000D80118966D917D918D919C911B970E9449
:101570006F2087FF02C00C944516F801EC5AFF4F0C
:1015800025E135E146E35FE36081718182819381EA
:101590000E946F2087FD02C00C944B1682E090E001
:1015A000A0E0B0E00C946D0126E037EF4DE05FE382
:1015B000F801E858FF4F60817181828193810E9418
:1015C0006F2087FFDDC12EE035E241EA5EE3F801DE
:1015D000EC57FF4F60817181828193810E946F205F
:1015E00087FFB7C129ED3BE543E25FE3F801E4582B
:1015F000FE4F60817181828193810E946F2087FFFD
:1016000091C121EC31EE42E25FEBC301B2010E94D5
:101610006F2087FF26C02EEC38E04FEF5DEBF8011E
:10162000EC5BFE4F60817181828193810E946F200B
:1016300087FF02C00C945116F801E85BFF4F2BECBA
:1016400035EE42E15FEB60817181828193810E947E
:101650006F20881F8827881F91E0892790E00C94CD
:101660006D0126ED3EEA45E95EE3F80160A971A946
:1016700082A993A90E946F2087FF3DC129EE37E818
:1016800041E65FE3F801E05CFF4F60817181828198
:1016900093810E946F2087FD02C00C94571627EAA1
:1016A00031E644E55FE3F801EC5AFF4F6081718158
:1016B000828193810E946F2087FD02C00C945D1689
:1016C00025E031E248ED5EEB6D8D7E8D8F8D98A12A
:1016D0000E946F2087FF17C0F801EC5CFE4F24EAE0
:1016E00031E343E95EE360817181828193810E94ED
:1016F0006F2087FD02C00C94631685E090E0A0E0A7
:10170000B0E00C946D0124E832EB4FE95EE3C501D3
:10171000B4010E946F2087FFD7C02CE339E849EF5E
:101720005BEBF801EC55FF4F608171818281938101
:101730000E946F2087FFA0C02DED3AEC41E45DE3ED
:10174000F801E45EFE4F60817181828193810E9485
:101750006F2087FF16C0F801EC5CFE4F2EE939E8D8
:1017600040E15EEB60817181828193810E946F20F4
:1017700087FD02C00C94691680E090E0DC010C94B7
:101780006D0129E932E24DEF5EE3F801EC56FF4FBF
:1017900060817181828193810E946F2087FF4CC09C
:1017A00021EE30EC45E05FE3D801D4966D917D9158
:1017B0008D919C91D7970E946F2087FF26C027E9C3
:1017C0003EEE4FE25FEBF80164857585868597856F
:1017D0000E946F2087FD02C00C946F162FE33FE23A
:1017E0004CE15FEBD80150966D917D918D919C916C
:1017F00053970E946F2087FD02C00C94751683E0FA
:1018000090E0A0E0B0E00C946D01F801E05EFE4FC6
:101810002CE835E34DE35EEB608171818281938139
:101820000E946F2087FD02C00C947B1683E090E03D
:10183000A0E0B0E00C946D0120E73DEF4AE25EE3EA
:10184000C701B6010E946F2087FD02C00C9481166B
:101850002FE130EB45E95EEB698D7A8D8B8D9C8DA8
:101860000E946F2087FD02C00C94871684E090E0F0
:10187000A0E0B0E00C946D012EE536EE41E35EEBA6
:10188000F801E45FFE4F60817181828193810E9443
:101890006F2087FD02C00C948D16F801E851FE4FB1
:1018A00024E93AE24BEA5EEB6081718182819381A7
:1018B0000E946F2087FD02C00C94931685E090E093
:1018C000A0E0B0E00C946D01F801E857FE4F27E06E
:1018D0003EE64EED5EEB60817181828193810E94D4
:1018E0006F2087FD02C00C94991683E090E0A0E081
:1018F000B0E00C946D01F801E45EFE4F27E13AE997
:1019000043EF5DE360817181828193810E946F204A
:1019100087FD02C00C949E1683E090E0A0E0B0E04A
:101920000C946D01F801E45BFE4F2FE731ED48E3C5
:101930005FEB60817181828193810E946F2087FDBE
:1019400002C00C94A41683E090E0A0E0B0E00C94F8
:101950006D01F801EC5DFE4F24EE31E142E15EEBFA
:1019600060817181828193810E946F2087FD02C016
:101970000C94A91682E090E0A0E0B0E00C946D0118
:1019800027EB36E347E55EE3F801EC5CFE4F608150
:101990007181828193810E946F2087FF14C027E5A7
:1019A00039E54EEE5DE3F80164A175A186A197A12A
:1019B0000E946F2087FD02C00C94AF1680E090E07B
:1019C000DC010C946D0128EE32EB4AE95EEBD801A4
:1019D000D0966D917D918D919C91D3970E946F20AF
:1019E00087FF17C0F801E453FE4F28E23BEF42E0C7
:1019F0005FEB60817181828193810E946F2087FDFE
:101A000002C00C94B51683E090E0A0E0B0E00C9426
:101A10006D0128E433E748E85FEBF801E05AFF4F37
:101A200060817181828193810E946F2087FD02C055
:101A30000C94BA16F801E852FF4F29EF3BE841E851
:101A40005FE360817181828193810E946F2087FDB5
:101A500002C00C94C01684E090E0A0E0B0E00C94CA
:101A60006D0122E930EF48ED5EE3F801E856FF4FE3
:101A700060817181828193810E946F2087FFE7C01E
:101A80002BE737E842E25DEBF801E059FF4F608158
:101A90007181828193810E946F2087FFB0C0F8011D
:101AA000E451FF4FC080D180E280F3802AE731E02B
:101AB0004BE45FEBC701B6010E946F2087FF25C092
:101AC000F801EC5BFF4FC080D180E280F38023E718
:101AD0003EEA49E05EEBC701B6010E946F2087FD38
:101AE00002C00C94C61626E533E140E85EEBC70160
:101AF000B6010E946F2087FD02C00C94CC1684E0D2
:101B000090E0A0E0B0E00C946D012FEA34EB4FE2DE
:101B10005EEBC701B6010E946F2087FF5CC027E51E
:101B20003AEE4CE45EEBF801608971898289938911
:101B30000E946F2087FF02C00C94D2162CE639E475
:101B400043EC5EE3D80194966D917D918D919C91CB
:101B500097970E946F2087FF28C02CE335E843E366
:101B60005EEBF801E454FF4F6081718182819381C3
:101B70000E946F2087FD02C00C94D816F801EC5B20
:101B8000FE4F2CEC3CE042ED5EEB60817181828186
:101B900093810E946F2087FD02C00C94DD1685E0C2
:101BA00090E0A0E0B0E00C946D01F801EC52FF4F22
:101BB00023E530EA42EA5EE36081718182819381AC
:101BC0000E946F2087FD02C00C94E21680E090E036
:101BD000DC010C946D012FE43FEC4EE35FEBF80168
:101BE00064A975A986A997A90E946F2087FD02C0E4
:101BF0000C94E81680E090E0DC010C946D0129ED76
:101C00003DED4CEA5FE3F801EC5BFF4F60817181D1
:101C1000828193810E946F2087FD02C00C94EE1692
:101C2000F801E05BFE4F2CEE31EC44E15FE36081B4
:101C30007181828193810E946F2087FF02C00C9482
:101C4000F41682E090E0A0E0B0E00C946D0122E494
:101C500037ED48E55FEBF801E05AFE4F6081718196
:101C6000828193810E946F2087FD02C00C94FA1636
:101C7000F801E45AFE4F25EC32EF49E15FE3608161
:101C80007181828193810E946F2087FD02C00C9434
:101C9000001784E090E0A0E0B0E00C946D012CEA25
:101CA0003AE546E75EEBD8019C966D917D918D916A
:101CB0009C919F970E946F2087FF28C225EB3FE6EB
:101CC0004CEE5CE3F801EC59FF4F60817181828139
:101CD00093810E946F2087FF06C2F801E05CFE4FEF
:101CE000C080D180E280F3802AEA39E441E55FEBED
:101CF000C701B6010E946F2087FF61C120EE37EC5B
:101D000049E15FEBF80160A571A582A593A50E944A
:101D10006F2087FFAAC02FE936E94BE35FEBF8019C
:101D2000E451FE4F60817181828193810E946F2016
:101D300087FF84C02AEB3FEC48EA5FEBC701B6019E
:101D40000E946F2087FF02C00C9406172FE836EA26
:101D500047E55FE3F801EC5EFE4F608171818281AF
:101D600093810E946F2087FD02C00C940C172EE710
:101D700038E34AE15EEBF801E05DFE4F608171817E
:101D8000828193810E946F2087FD02C00C941217FC
:101D900029E532EA47E35FEBD8011C966D917D910E
:101DA0008D919C911F970E946F2087FF02C00C9419
:101DB0001717F801E45BFF4FC080D180E280F38009
:101DC00021E131EE43E65FEBC701B6010E946F20CF
:101DD00087FF02C00C941D1729E430E149E25DEB56
:101DE000F80164A175A186A197A10E946F2087FDCB
:101DF00002C00C9423172BEB38E140E65FEBC701E0
:101E0000B6010E946F2087FD02C00C942917F801CB
:101E1000E85FFE4F2DE034E545E25FEB60817181C4
:101E2000828193810E946F2087FD02C00C942F173E
:101E300083E090E0A0E0B0E00C946D012DE730E489
:101E400040E15FE3D80154966D917D918D919C9115
:101E500057970E946F2087FD02C00C94351783E0CE
:101E600090E0A0E0B0E00C946D0126E13AEF44EC84
:101E70005EEBF801E45DFE4F6081718182819381A8
:101E80000E946F2087FF64C020E43EEE4AEE5EEBC6
:101E9000F801E45BFF4F60817181828193810E9430
:101EA0006F2087FFE7C72FE935E140E05FEBF801DE
:101EB00060A971A982A993A90E946F2087FF15C00C
:101EC000F801E05EFE4F25E434E242EF5EEB608114
:101ED0007181828193810E946F2087FFD0C785E046
:101EE00090E0A0E0B0E00C946D012FEF37EF4FE7EA
:101EF0005EEBF801E05DFE4F60817181828193812C
:101F00000E946F2087FFC1C72AE33CE940E05FE3FE
:101F1000F801E858FF4F60817181828193810E94AE
:101F20006F2087FFB8C7F801E058FE4F22E53BEC71
:101F300049E65FEB60817181828193810E946F200D
:101F400087FFAFC783E090E0A0E0B0E00C946D01A4
:101F50002BE93DE946E95EEBD801D0966D917D9184
:101F60008D919C91D3970E946F2087FF13C02CEB1B
:101F700031E048E85EEBF8016089718982899389D4
:101F80000E946F2087FF93C783E090E0A0E0B0E05D
:101F90000C946D01F801E05DFE4F20E834E549E165
:101FA0005BE360817181828193810E946F2087FF52
:101FB00084C785E090E0A0E0B0E00C946D0126E1DC
:101FC0003FE14EE35FEBC301B2010E946F2087FD4A
:101FD00079C72CE733ED43E05FE3F801E85EFE4F9D
:101FE00060817181828193810E946F2087FF48C048
:101FF00023EB3AE541E05EE3D80194966D917D9143
:102000008D919C9197970E946F2087FF24C023E3B6
:102010003EE543E55EEBF801E051FE4F60817181E2
:10202000828193810E946F2087FD52C7F801E85B8F
:10203000FF4F25EA30EB4BE55FE3608171818281E0
:1020400093810E946F2087FF49C782E090E0A0E063
:10205000B0E00C946D01F801E859FE4F20EE32ED2E
:1020600041E35FEB60817181828193810E946F20E7
:1020700087FF3AC785E090E0A0E0B0E00C946D01E6
:1020800027E63EE040E25FEBF801E859FF4F608150
:102090007181828193810E946F2087FD2BC72AE284
:1020A00030EC4EEB5EE3F801EC54FE4F6081718141
:1020B000828193810E946F2087FF21C7F801E85B2E
:1020C000FE4F24E334E84FEB5EE36081718182814F
:1020D00093810E946F2087FF18C782E090E0A0E004
:1020E000B0E00C946D0123EE3CE24DE95EEBF801AB
:1020F00064817581868197810E946F2087FF0BC75D
:1021000082E090E0A0E0B0E00C946D0128E13EE3B5
:1021100041EB5EE3C701B6010E946F2087FFC1C09B
:1021200027E037E64CE65DE3F801EC5AFF4F6081AB
:102130007181828193810E946F2087FF15C0F80111
:10214000E859FF4F2AE13CE449EE5EE3608171818A
:10215000828193810E946F2087FFE3C682E090E036
:10216000A0E0B0E00C946D0127E73AE047E85DEBB2
:10217000F801E85DFE4F60817181828193810E9448
:102180006F2087FFD4C62EE535E948E45FE3F80108
:10219000E856FE4F60817181828193810E946F2099
:1021A00087FF6AC023EB34E340EC5EEBD801149662
:1021B0006D917D918D919C9117970E946F2087FF63
:1021C00015C0F801EC56FF4F22E43DE041EB5EE321
:1021D00060817181828193810E946F2087FFADC6EB
:1021E00083E090E0A0E0B0E00C946D012BE039E1D9
:1021F00040ED5EEBF801E45FFE4F6081718182810A
:1022000093810E946F2087FF13C020ED3BE547EBD1
:102210005CEBF80160817181828193810E946F2063
:1022200087FF91C685E090E0A0E0B0E00C946D01DE
:102230002AE23FE843E55EEBD80198966D917D91E7
:102240008D919C919B970E946F2087FF82C6F80119
:10225000EC59FF4F25E633E84DE05FEB608171817B
:10226000828193810E946F2087FF79C685E090E08C
:10227000A0E0B0E00C946D01F801E852FE4F2CE5AF
:1022800035E646E35FE360817181828193810E943C
:102290006F2087FF6AC684E090E0A0E0B0E00C9475
:1022A0006D0126E73DE74DE15FE3F80160AD71ADFB
:1022B00082AD93AD0E946F2087FF5DC62CE63CE89F
:1022C0004CEF5EE3F801EC59FF4F60817181828130
:1022D00093810E946F2087FF54C622E43EE24DE6C0
:1022E0005EEBF801EC5FFE4F60817181828193812A
:1022F0000E946F2087FD4BC6F801EC55FF4F26EE7C
:102300003EE847E35CEB60817181828193810E94AA
:102310006F2087FF41C683E090E0A0E0B0E00C941E
:102320006D01E459FF4FC080D180E280F38029E243
:1023300035E04EE85FE3C701B6010E946F2087FFDA
:1023400088C229EA35EF45E45FE3F801EC5EFE4F11
:1023500060817181828193810E946F2087FF58C2C2
:1023600026EE38E24BE45FE3698D7A8D8B8D9C8D90
:102370000E946F2087FFD3C12CE030E649E05EE386
:10238000F801E859FF4F60817181828193810E9439
:102390006F2087FF4DC121EB34E94DE65EEBF8017C
:1023A000E051FE4F60817181828193810E946F2094
:1023B00087FF61C025EC38E848E85EEBF801EC5F88
:1023C000FE4F60817181828193810E946F2087FF1F
:1023D00024C024E73AEA4CEF5EEBF801E451FE4FEB
:1023E00060817181828193810E946F2087FFDAC5AD
:1023F000F801E051FF4F2AE032E943E15FEB6081F1
:102400007181828193810E946F2087FFD0C584E013
:1024100090E0A0E0B0E00C946D012CEA35E947E1D2
:102420005FEBC701B6010E946F2087FDC6C52BED8B
:102430003FE348E150E4D80114966D917D918D9170
:102440009C9117970E946F2087FFBDC5F801E85443
:10245000FE4F27E733E145E45FE3608171818281CC
:1024600093810E946F2087FFB3C583E090E0A0E0D6
:10247000B0E00C946D0124E439ED4CE05FEBF80121
:10248000E454FE4F60817181828193810E946F20AC
:1024900087FF14C0F801EC52FF4F29ED36EB44E3FF
:1024A0005EEB60817181828193810E946F2087FF42
:1024B00094C580E090E0DC010C946D0123E933E5E4
:1024C0004BE95FE3F801EC56FE4F60817181828138
:1024D00093810E946F2087FF86C525E93FE34FE186
:1024E0005EEBF801E057FF4F60817181828193813B
:1024F0000E946F2087FD7DC52CE835E143E85EEB47
:10250000F801E458FE4F60817181828193810E94BD
:102510006F2087FF24C026E83CEA4DEE5EEBF80111
:10252000E05AFF4F60817181828193810E946F2008
:1025300087FD65C5F801E452FF4F2EE43DE04AE710
:102540005EEB60817181828193810E946F2087FFA1
:102550005CC585E090E0A0E0B0E00C946D012EEF4A
:1025600037EB4BE85DEBF801E055FF4F608171817F
:10257000828193810E946F2087FF14C0F801EC577D
:10258000FE4F21EC35E346E95EEB6081718182818B
:1025900093810E946F2087FF3DC580E090E0DC01C1
:1025A0000C946D012CE730E645ED5EE3F801E05A4E
:1025B000FF4F60817181828193810E946F2087FF2C
:1025C00023C022EF3EEA47EA5EEBF801E053FF4FFB
:1025D00060817181828193810E946F2087FF20C575
:1025E000F801E059FF4F20EF3AEB4EE25DEB6081DE
:1025F0007181828193810E946F2087FF16C580E0E0
:1026000090E0DC010C946D01F801E85EFE4F27EFCD
:1026100032E046E65FEB60817181828193810E94A6
:102620006F2087FF08C580E090E0DC010C946D010D
:102630002DE137E840E05FE3F801E05BFE4F6081A9
:102640007181828193810E946F2087FF45C028EAB3
:1026500031E644E55FE3F801EC55FE4F608171819E
:10266000828193810E946F2087FF22C02CE539EA86
:102670004CEB5CEBF801EC53FF4F60817181828180
:1026800093810E946F2087FDDCC423E832E44DEA89
:102690005DE3F80164A175A186A197A10E946F2056
:1026A00087FFD4C484E090E0A0E0B0E00C946D011A
:1026B00026EC36E141E05FEBD80158966D917D91B3
:1026C0008D919C915B970E946F2087FFC5C480E02D
:1026D00090E0DC010C946D0120E932EE48E25BEB06
:1026E000F801EC59FF4F60817181828193810E94D2
:1026F0006F2087FFB7C4F801E056FF4F25EE38EE94
:1027000046E85EE360817181828193810E946F203F
:1027100087FFAEC480E090E0DC010C946D012AEFED
:1027200030E744E15FE3F801E457FE4F60817181D7
:10273000828193810E946F2087FF24C02CE031E1C9
:102740004EE85DE3F801E052FF4F608171818281C4
:1027500093810E946F2087FF91C4F801E858FE4FD3
:1027600022EC31E148EB5EE36081718182819381EB
:102770000E946F2087FF88C485E090E0A0E0B0E071
:102780000C946D012AEC3AEE45E75EE3F801E05364
:10279000FE4F60817181828193810E946F2087FF4B
:1027A00014C0F801E052FF4F2BEC3EEC40E35FE336
:1027B00060817181828193810E946F2087FF6AC44A
:1027C00080E090E0DC010C946D012EEE3AE242E5EF
:1027D0005FE3F801E055FE4F608171818281938152
:1027E0000E946F2087FF5CC4F801E05CFE4F24E587
:1027F00033E744E85FE360817181828193810E94C5
:102800006F2087FF52C480E090E0DC010C946D01E2
:10281000F801E05DFE4FC080D180E280F38027E8C0
:1028200032EE4AE15FE3C701B6010E946F2087FFE5
:1028300042C42CED38E74EEF5CE3C701B6010E94BD
:102840006F2087FF3EC482E090E0A0E0B0E00C94EF
:102850006D0126E035E34DED5FEBF801EC56FE4FE0
:1028600060817181828193810E946F2087FF2FC4D4
:1028700022EC3FE84EE05FE3F801608D718D828DC0
:10288000938D0E946F2087FD28C425EA3DEB40E42C
:1028900050E4F801E851FE4F60817181828193819B
:1028A0000E946F2087FF1EC4F801E450FF4F2DE9FE
:1028B00034E446E25EEB60817181828193810E9403
:1028C0006F2087FF15C482E090E0A0E0B0E00C9498
:1028D0006D0181E090E0A0E0B0E00C946D0180E03B
:1028E00090E0DC010C946D0182E090E0A0E0B0E0AB
:1028F0000C946D0184E090E0A0E0B0E00C946D01D8
:1029000082E090E0A0E0B0E00C946D0181E090E006
:10291000A0E0B0E00C946D0182E090E0A0E0B0E0B7
:102920000C946D0182E090E0A0E0B0E00C946D01A9
:1029300082E090E0A0E0B0E00C946D0182E090E0D5
:10294000A0E0B0E00C946D0184E090E0A0E0B0E085
:102950000C946D0181E090E0A0E0B0E00C946D017A
:1029600082E090E0A0E0B0E00C946D0182E090E0A5
:10297000A0E0B0E00C946D0182E090E0A0E0B0E057
:102980000C946D0182E090E0A0E0B0E00C946D0149
:1029900081E090E0A0E0B0E00C946D0181E090E077
:1029A000A0E0B0E00C946D0182E090E0A0E0B0E027
:1029B0000C946D0181E090E0A0E0B0E00C946D011A
:1029C00085E090E0A0E0B0E00C946D0182E090E042
:1029D000A0E0B0E00C946D0185E090E0A0E0B0E0F4
:1029E0000C946D0185E090E0A0E0B0E00C946D01E6
:1029F00083E090E0A0E0B0E00C946D0185E090E011
:102A0000A0E0B0E00C946D0185E090E0A0E0B0E0C3
:102A10000C946D0183E090E0A0E0B0E00C946D01B7
:102A200084E090E0A0E0B0E00C946D0183E090E0E1
:102A3000A0E0B0E00C946D0184E090E0A0E0B0E094
:102A40000C946D0181E090E0A0E0B0E00C946D0189
:102A500084E090E0A0E0B0E00C946D0182E090E0B2
:102A6000A0E0B0E00C946D0181E090E0A0E0B0E067
:102A70000C946D0181E090E0A0E0B0E00C946D0159
:102A800084E090E0A0E0B0E00C946D0182E090E082
:102A9000A0E0B0E00C946D0181E090E0A0E0B0E037
:102AA0000C946D0184E090E0A0E0B0E00C946D0126
:102AB00083E090E0A0E0B0E00C946D0183E090E052
:102AC000A0E0B0E00C946D0182E090E0A0E0B0E006
:102AD0000C946D0184E090E0A0E0B0E00C946D01F6
:102AE00082E090E0A0E0B0E00C946D0184E090E022
:102AF000A0E0B0E00C946D0182E090E0A0E0B0E0D6
:102B00000C946D0181E090E0A0E0B0E00C946D01C8
:102B100084E090E0A0E0B0E00C946D0184E090E0EF
:102B2000A0E0B0E00C946D0184E090E0A0E0B0E0A3
:102B30000C946D0184E090E0A0E0B0E00C946D0195
:102B400082E090E0A0E0B0E00C946D0184E090E0C1
:102B5000A0E0B0E00C946D0183E090E0A0E0B0E074
:102B60000C946D0180E090E0DC010C946D0184E038
:102B700090E0A0E0B0E00C946D0183E090E0A0E074
:102B8000B0E00C946D0183E090E0A0E0B0E00C9424
:102B90006D0181E090E0A0E0B0E00C946D0181E077
:102BA00090E0A0E0B0E00C946D0183E090E0A0E044
:102BB000B0E00C946D0184E090E0A0E0B0E00C94F3
:102BC0006D0182E090E0A0E0B0E00C946D0184E043
:102BD00090E0A0E0B0E00C946D0183E090E0A0E014
:102BE000B0E00C946D0180E090E0DC010C946D018C
:102BF00083E090E0A0E0B0E00C946D0184E090E010
:102C0000A0E0B0E00C946D0183E090E0A0E0B0E0C3
:102C10000C946D0181E090E0A0E0B0E00C946D01B7
:102C200080E090E0DC010C946D0184E090E0A0E095
:102C3000B0E00C946D0182E090E0A0E0B0E00C9474
:102C40006D0184E090E0A0E0B0E00C946D0181E0C3
:102C500090E0A0E0B0E00C946D0184E090E0A0E092
:102C6000B0E00C946D0183E090E0A0E0B0E00C9443
:102C70006D0184E090E0A0E0B0E00C946D0185E08F
:102C800090E0A0E0B0E00C946D0184E090E0A0E062
:102C9000B0E00C946D0183E090E0A0E0B0E00C9413
:102CA0006D0184E090E0A0E0B0E00C946D0182E062
:102CB00090E0A0E0B0E00C946D0185E090E0A0E031
:102CC000B0E00C946D0183E090E0A0E0B0E00C94E3
:102CD0006D0183E090E0A0E0B0E00C946D0183E032
:102CE00090E0A0E0B0E00C946D0185E090E0A0E001
:102CF000B0E00C946D0184E090E0A0E0B0E00C94B2
:102D00006D0183E090E0A0E0B0E00C946D0185E0FF
:102D100090E0A0E0B0E00C946D0183E090E0A0E0D2
:102D2000B0E00C946D0181E090E0A0E0B0E00C9484
:102D30006D0180E090E0DC010C946D0185E090E095
:102D4000A0E0B0E00C946D0180E090E0DC010C9418
:102D50006D0181E090E0A0E0B0E00C946D0183E0B3
:102D600090E0A0E0B0E00C946D0180E090E0DC0128
:102D70000C946D0185E090E0A0E0B0E00C946D0152
:102D800081E090E0A0E0B0E00C946D0183E090E081
:102D9000A0E0B0E00C946D0185E090E0A0E0B0E030
:102DA0000C946D0183E090E0A0E0B0E00C946D0124
:102DB00080E090E0DC010C946D0180E090E0DC01AB
:102DC0000C946D0183E090E0A0E0B0E00C946D0104
:102DD00083E090E0A0E0B0E00C946D0181E090E031
:102DE000A0E0B0E00C946D0183E090E0A0E0B0E0E2
:102DF0000C946D0185E090E0A0E0B0E00C946D01D2
:102E000083E090E0A0E0B0E00C946D0185E090E0FC
:102E1000A0E0B0E00C946D0184E090E0A0E0B0E0B0
:102E20000C946D0180E090E0DC010C946D0185E074
:102E300090E0A0E0B0E00C946D0185E090E0A0E0AF
:102E4000B0E00C946D0185E090E0A0E0B0E00C945F
:102E50006D0183E090E0A0E0B0E00C946D0185E0AE
:102E600090E0A0E0B0E00C946D0180E090E0DC0127
:102E70000C946D0180E090E0DC010C946D0183E026
:102E800090E0A0E0B0E00C946D0183E090E0A0E061
:102E9000B0E00C946D0185E090E0A0E0B0E00C940F
:102EA0006D0185E090E0A0E0B0E00C946D0185E05C
:102EB00090E0A0E0B0E00C946D0180E090E0DC01D7
:102EC0000C946D0184E090E0A0E0B0E00C946D0102
:102ED00083E090E0A0E0B0E00C946D0181E090E030
:102EE000A0E0B0E00C946D0183E090E0A0E0B0E0E1
:102EF0000C946D0180E090E0DC010C946D0185E0A4
:102F000090E0A0E0B0E00C946D0181E090E0A0E0E2
:102F1000B0E00C946D0181E090E0A0E0B0E00C9492
:102F20006D0181E090E0A0E0B0E00C946D0183E0E1
:102F300090E0A0E0B0E00C946D0182E090E0A0E0B1
:102F4000B0E00C946D0184E090E0A0E0B0E00C945F
:102F50006D0185E090E0A0E0B0E00C946D0183E0AD
:102F600090E0A0E0B0E00C946D0185E090E0A0E07E
:102F7000B0E00C946D0184E090E0A0E0B0E00C942F
:102F80006D0181E090E0A0E0B0E00C946D0180E084
:102F900090E0DC010C946D0182E090E0A0E0B0E0F4
:102FA0000C946D0180E090E0DC010C946D0183E0F5
:102FB00090E0A0E0B0E00C946D0185E090E0A0E02E
:102FC000B0E00C946D0180E090E0DC010C946D01A8
:102FD00080E090E0DC010C946D0183E090E0A0E0E3
:102FE000B0E00C946D0184E090E0A0E0B0E00C94BF
:102FF0006D0183E090E0A0E0B0E00C946D0183E00F
:1030000090E0A0E0B0E00C946D0180E090E0DC0185
:103010000C946D0183E090E0A0E0B0E00C946D01B1
:1030200080E090E0DC010C946D0183E090E0A0E092
:10303000B0E00C946D0184E090E0A0E0B0E00C946E
:103040006D0180E090E0DC010C946D0183E090E084
:10305000A0E0B0E00C946D0182E090E0A0E0B0E070
:103060000C946D0181E090E0A0E0B0E00C946D0163
:1030700084E090E0A0E0B0E00C946D0182E090E08C
:10308000A0E0B0E00C946D0183E090E0A0E0B0E03F
:103090000C946D0183E090E0A0E0B0E00C946D0131
:1030A00080E090E0DC010C946D0183E090E0A0E012
:1030B000B0E00C946D0184E090E0A0E0B0E00C94EE
:1030C0006D0181E090E0A0E0B0E00C946D0181E042
:1030D00090E0A0E0B0E00C946D0180E090E0DC01B5
:1030E0000C946D0184E090E0A0E0B0E00C946D01E0
:1030F00081E090E0A0E0B0E00C946D0140E850E089
:1031000060E070E080E799E00E94BA007093710B74
:103110006093700B0895E0911D09F0911E09E15E26
:10312000F64F853251F410828FE199E00E94381CED
:1031300010921E0910921D090895808380911D0927
:1031400090911E098035910550F480911D09909150
:103150001E09019690931E0980931D09089580E52C
:1031600090E0F8CF0E942E1C0E94831C80E092E029
:103170009F938F930E94FE1B81E0809318078EE03F
:1031800092E09F938F930E94FE1B0F900F900F90E1
:103190000F900895AF92BF92CF92DF92EF92FF927D
:1031A0000F931F93CF93DF93EC018B010E943C1C84
:1031B0001F930F9388E192E09F938F930E94FE1BD1
:1031C0000F900F900F900F900150110918F00E946E
:1031D0007E18FACF8CE292E09F938F930E94FE1BA1
:1031E000DF93CF938CE392E09F938F930E94FE1B1B
:1031F0000E94EB1CD62EC72EB82EA92E0F900F9032
:103200000F900F900F900F90219718F00E947E184A
:10321000FBCF0E94EB1C162F072FF82EE92EAF9242
:10322000BF92CF92DF92CFE4D2E0DF93CF930E94A0
:10323000FE1BEF92FF920F931F93DF93CF930E9499
:10324000FE1B8EE592E09F938F930E94FE1B8DB72D
:103250009EB70E960FB6F8949EBF0FBE8DBFDF913E
:10326000CF911F910F91FF90EF90DF90CF90BF9083
:10327000AF900C94621C0F931F93FC0160E070E010
:10328000CB014191442391F197FD30C050ED540F93
:103290005A30A8F4042E000C550B405351098A01F2
:1032A000550F220B330B44E0660F771F881F991FC1
:1032B0004A95D1F7600F711F821F931FE2CF5FE91C
:1032C000540F563030F4042E000C550B475551095D
:1032D000E6CF5FEB540F563030F4042E000C550B44
:1032E00047535109DCCF6FEF7FEFCB011F910F9157
:1032F00008956F927F928F929F92AF92BF92CF92DA
:10330000DF92EF92FF920F931F93CF93DF9300D042
:10331000CDB7DEB740E550E06DE672E00E94EE1FEB
:10332000892B09F0F8C060E772E090E080E00E942D
:10333000E11F8C0182E792E001151105A1F040E543
:1033400050E06BE972E0C8010E94EE1F892B09F082
:1033500045C060E772E090E080E00E94E11F0097C6
:1033600049F480EA92E09F938F930E94FE1B0F9096
:103370000F9024C00E94C01F90931C0780931B07CE
:10338000009719F480ED92E0EECF10921A07109298
:103390001907813022E09207A0F022E02F931F92BC
:1033A0009F938F9389EF92E09F938F930E94FE1BD0
:1033B0000F900F900F900F900F900F9090E080E083
:1033C000ACC09F938F9388E293E09F938F930E946A
:1033D000FE1B0F900F900F900F90F0CF40E550E044
:1033E00061E473E0C8010E94EE1F892B09F053C00D
:1033F0008DE1E82E87E0F82E10E000E097E4C92E7A
:1034000093E0D92E21E5A22E23E0B22E37E9832EB8
:1034100033E0932E4FE4642E43E0742EC80187708E
:10342000992720911B0730911C070217130768F595
:10343000892B31F4DF92CF920E94FE1B0F900F90E8
:10344000F70181917F011F928F93BF92AF920E94EB
:10345000FE1B0F5F1F4FC801877099270F900F90B9
:103460000F900F90892B39F080911B0790911C07CA
:103470000817190739F49F928F920E94FE1B0F9034
:103480000F90CCCF7F926F92F8CF892B09F496CF13
:1034900087E993E068CF60E570E0C8010E943A1CBC
:1034A0006C0186E593E0C0FC5ECF1B8280901B0719
:1034B00090901C077801CE0101965C01C701801B2A
:1034C000910B8C159D0508F079CFF70180818983D8
:1034D00081818A83C5010E943B1997FF05C0BF9275
:1034E000AF928DE793E071CF2091190730911A07C1
:1034F000F901E35EF84F6083C901019690931A07C2
:1035000080931907F2E0EF0EF11C88159905B1F6CA
:103510008AE993E028CF81E090E00F900F900F9020
:10352000DF91CF911F910F91FF90EF90DF90CF909F
:10353000BF90AF909F908F907F906F900895CF93A2
:10354000DF93EC0140E550E068EA73E00E94EE1F73
:10355000892B09F580EB93E09F938F9381EC93E0A7
:103560009F938F930E94FE1B82ED93E09F938F9316
:103570008AED93E09F938F930E94FE1B8DB79EB7B9
:1035800008960FB6F8949EBF0FBE8DBF90E080E006
:10359000DF91CF91089540E550E069EE73E0CE01F0
:1035A0000E94EE1F892B71F41F9284E08F938FEE9F
:1035B00093E09F938F930E94FE1B0F900F900F90AC
:1035C0000F90E4CF40E550E06EEF73E0CE010E9433
:1035D000EE1F892B09F05BC080EB93E09F938F93E4
:1035E00083E094E09F938F930E94FE1B87E993E012
:1035F0009F938F930E94FE1B88E094E09F938F938C
:103600000E94FE1B80E394E09F938F930E94FE1B19
:103610008EE594E09F938F930E94FE1B84E894E0D4
:103620009F938F930E94FE1B86EB94E09F938F9352
:103630000E94FE1B8DEE94E09F938F930E94FE1BD1
:1036400083E295E09F938F930E94FE1B8FE395E0AA
:103650009F938F930E94FE1B8FE695E09F938F931D
:103660000E94FE1B86EB95E09F938F930E94FE1BAA
:1036700085EE95E09F938F930E94FE1B8DB79EB7BA
:103680004C960FB6F8949EBF0FBE8DBF7FCFCE0174
:103690000E947919892B09F479CF40E550E069E15E
:1036A00076E0CE010E94EE1F892BA1F560E772E063
:1036B00090E080E00E94E11F009701F10E94C01F8E
:1036C000181619064CF08FE196E09F938F930E9495
:1036D000FE1B0F900F905ACFD82FC92F60E772E0D2
:1036E00090E080E00E94E11F009789F00E94C01FD7
:1036F000BC0197FF07C085E496E0E7CF6AE070E081
:10370000D1E0C0E08D2F9C2F0E94CA183FCF6AE005
:1037100070E0F8CF40E550E068E676E0CE010E9428
:10372000EE1F892B19F40E94621C30CF81E090E0DB
:103730002FCFCF93DF9320911807222349F160E721
:1037400072E00E94E11FEC0140E550E060E776E0A6
:103750000E94EE1F892BF9F482ED93E09F938F93E3
:1037600085E796E09F938F9389E796E09F938F93E9
:103770000E94FE1B0F900F900F900F900F900F90D4
:103780008EE092E09F938F930E94FE1B0F900F900C
:10379000DF91CF91089540E550E06AE876E0CE01F0
:1037A0000E94EE1F892B19F40E941B1CE9CFCE0149
:1037B0000E949F1A892B21F3DF93CF9384E996E02F
:1037C0009F938F930E94FE1B0F900F900F900F906E
:1037D000D7CFCF93DF93C0911907D0911A076C17F9
:1037E0007D0708F4EB01009729F0AE016DE177E069
:1037F0000E94E51FCE01DF91CF910895CF93DF9313
:10380000CDB7DEB79E012A5F3F4FF901419151913B
:103810009F0160E570E082E79BE00E943620181669
:10382000190634F462E77BE08BEC9BE00E94B81F42
:10383000DF91CF9108950E94EB1C9F938F937F930C
:103840006F938FE492E09F938F930E94FE1B0F90E3
:103850000F900F900F900F900F9008958EEA96E0C2
:103860009F938F930E94FE1B0F900F900C941B1C34
:103870000C94991B0C94FC1FCF93DF9360E072E0D3
:1038800080E799E00E94E91BEC0192500497B0F0A8
:103890001F9280E88F93CE01969587959695879590
:1038A0009F938F938DEC96E09F938F930E94FE1BC6
:1038B0000F900F900F900F900F900F90CE01DF910F
:1038C000CF91089585EF96E09F938F930E94FE1B02
:1038D0008091710B8F938091700B8F9381E097E0B3
:1038E0009F938F930E94FE1B86E993E09F938F9393
:1038F0000E94FE1B8DB79EB708960FB6F8949EBF28
:103900000FBE8DBF089508958BEC9BE00E948C1D27
:10391000089526E040E052EC61E070E08BEC9BE023
:103920000E94731E0C94B2188BEC9BE00E94721DD7
:10393000181619062CF40E94841C0E948B18F4CFD0
:1039400008951F920F920FB60F9211242F933F9359
:103950008F939F93AF93BF938091C30B9091C40BB0
:10396000A091C50BB091C60B3091C20B23E0230F81
:103970002D3758F50196A11DB11D2093C20B8093E0
:10398000C30B9093C40BA093C50BB093C60B80914F
:10399000C70B9091C80BA091C90BB091CA0B0196AF
:1039A000A11DB11D8093C70B9093C80BA093C90BA9
:1039B000B093CA0BBF91AF919F918F913F912F917F
:1039C0000F900FBE0F901F90189526E8230F0296B8
:1039D000A11DB11DD2CF3FB7F8948091C70B909134
:1039E000C80BA091C90BB091CA0B26B5A89B05C006
:1039F0002F3F19F00196A11DB11D3FBFBA2FA92F6E
:103A0000982F8827BC01CD01620F711D811D911D6A
:103A100042E0660F771F881F991F4A95D1F70895D6
:103A2000789484B5826084BD84B5816084BD85B599
:103A3000826085BD85B5816085BDEEE6F0E0808160
:103A400081608083E1E8F0E0108280818260808381
:103A5000808181608083E0E8F0E080818160808304
:103A6000E1EBF0E0808184608083E0EBF0E0808136
:103A700081608083E1E9F0E08081826080838081E1
:103A800081608083E0E9F0E0808181608083E1EA09
:103A9000F0E0808182608083808181608083E0EAC1
:103AA000F0E0808181608083E1E2F1E080818260EA
:103AB0008083808181608083E0E2F1E080818160A9
:103AC0008083EAE7F0E08081846080838081826087
:103AD0008083808181608083808180688083109270
:103AE000C1000895FC01918D228D892F90E0805CAA
:103AF0009F4F821B91098F7399270895FC01918D27
:103B0000828D981731F0828DE80FF11D858D90E040
:103B100008958FEF9FEF0895FC01918D828D981786
:103B200061F0A28DAE0FBF2FB11D5D968C91928D6D
:103B30009F5F9F73928F90E008958FEF9FEF08959E
:103B4000FC01538D448D252F30E0842F90E0821BA3
:103B5000930B541710F0CF9608950197089585E3BD
:103B60009FE1892B49F080E090E0892B29F00E94A9
:103B7000351F81110E94000080E090E0892B49F000
:103B800080E090E0892B29F00E94000081110E94C2
:103B9000000080E090E0892B49F080E090E0892BE4
:103BA00029F00E94000081110E94000080E090E056
:103BB000892B49F080E090E0892B29F00E940000D9
:103BC00081110C9400000895FC01A48DA80FB92F59
:103BD000B11DA35ABF4F2C91848D90E001968F7335
:103BE0009927848FA689B7892C93A089B1898C9154
:103BF000837080648C93938D848D981306C00288A3
:103C0000F389E02D80818F7D80830895CF93DF93AA
:103C1000EC01888D8823B9F0AA89BB89E889F989E4
:103C20008C9185FD03C0808186FD0DC00FB607FC19
:103C3000F7CF8C9185FFF2CF808185FFEDCFCE014C
:103C40000E94E41DE9CFDF91CF910895EF92FF929A
:103C50000F931F93CF93DF93EC0181E0888F9B8DAF
:103C60008C8D98131AC0E889F989808185FF15C069
:103C70009FB7F894EE89FF896083E889F98980818C
:103C80008370806480839FBF81E090E0DF91CF915B
:103C90001F910F91FF90EF900895F62E0B8D10E07D
:103CA0000F5F1F4F0F731127E02E8C8D8E110CC0EC
:103CB0000FB607FCFACFE889F989808185FFF5CF37
:103CC000CE010E94E41DF1CFEB8DEC0FFD2FF11D15
:103CD000E35AFF4FF0829FB7F8940B8FEA89FB8974
:103CE00080818062CFCFCF92DF92EF92FF921F93BD
:103CF000CF93DF93EC016A017B01122FE889F989E8
:103D000082E08083C11481EED806E104F104A1F0C1
:103D100060E079E08DE390E0A70196010E943323F3
:103D200021503109410951095695479537952795F5
:103D3000211580E1380798F0E889F989108260E858
:103D400074E88EE190E0A70196010E943323215090
:103D50003109410951095695479537952795EC85C5
:103D6000FD853083EE85FF852083188EEC89FD89E3
:103D70001083EA89FB89808180618083EA89FB89DD
:103D8000808188608083EA89FB8980818068808364
:103D9000EA89FB8980818F7D8083DF91CF911F919C
:103DA000FF90EF90DF90CF9008951F920F920FB683
:103DB0000F9211240BB60F922F938F939F93EF9333
:103DC000FF93E091DB0BF091DC0B8081E091E10B44
:103DD000F091E20B82FD1DC090818091E40B8F5F1A
:103DE0008F732091E50B821741F0E091E40BF0E036
:103DF000E553F44F958F8093E40BFF91EF919F91E2
:103E00008F912F910F900BBE0F900FBE0F901F90B0
:103E100018958081F2CF1F920F920FB60F92112446
:103E20000BB60F922F933F934F935F936F937F93B4
:103E30008F939F93AF93BF93EF93FF938BEC9BE094
:103E40000E94E41DFF91EF91BF91AF919F918F91DF
:103E50007F916F915F914F913F912F910F900BBE8A
:103E60000F900FBE0F901F9018958BEC9BE00E9457
:103E7000721D21E0892B09F420E0822F0895EBECDC
:103E8000FBE01382128288EE93E0A0E0B0E084832E
:103E90009583A683B78388E097E09183808385EC40
:103EA00090E09587848784EC90E09787868780EC04
:103EB00090E0918B808B81EC90E0938B828B82ECF5
:103EC00090E0958B848B86EC90E0978B868B118E9F
:103ED000128E138E148E089508950E94101D0E9454
:103EE0006C1F0E94891CCFEADDE10E94941C209780
:103EF000E1F30E94AF1DF9CFAF92BF92CF92DF9254
:103F0000EF92FF920F931F93CF93DF936C017B018E
:103F10008B01040F151FEB015E01AE18BF08C0171F
:103F2000D10759F06991D601ED91FC910190F08192
:103F3000E02DC6011995892B79F7C501DF91CF9145
:103F40001F910F91FF90EF90DF90CF90BF90AF90B7
:103F50000895FB0101900020E9F73197AF01461B5E
:103F6000570BDC01ED91FC910280F381E02D199457
:103F70006115710511F00C94A91F90E080E008957F
:103F8000FC0188279927E89421912032E9F3293010
:103F900010F02E30C8F32B3241F02D3239F46894F2
:103FA00004C00E942E20820F911D219120532A309F
:103FB000C0F31EF4909581959F4F0895F8940C944A
:103FC0005D2346E157E00C940720FB01DC0102C0B1
:103FD00001900D9241505040D8F70895FB01DC014B
:103FE0004150504030F08D910190801919F400201B
:103FF000B9F7881B990B0895FC016150704001903E
:104000000110D8F7809590958E0F9F1F0895FA01A3
:10401000A191B081009719F41097E1F0CD01DC0176
:10402000CD010D90002011F4C00113C0FB012191BE
:10403000222319F02015D9F7F3CFFB012191201588
:1040400019F41E92119606C02223C1F70D9000208C
:10405000A1F7D001FA01A193B08308957AE0979F68
:10406000902D879F802D910D112408950F931F93FC
:10407000CF93DF93CDB7DEB72E970FB6F894DEBFA0
:104080000FBECDBF8C01FA0186E08C831A830983B1
:1040900077FF02C060E070E8615071097E836D8334
:1040A000A901BF01CE0101960E9498204D815E8139
:1040B00057FD0AC02F813885421753070CF49A0127
:1040C000020F131FF80110822E960FB6F894DEBF70
:1040D0000FBECDBFDF91CF911F910F9108950E9428
:1040E000742008F481E00895990F0008550FAA0B79
:1040F000E0E8FEEF16161706E807F907C0F01216FB
:104100001306E407F50798F0621B730B840B950BFD
:1041100039F40A2661F0232B242B252B21F4089552
:104120000A2609F4A140A6958FEF811D811D0895EF
:104130002F923F924F925F926F927F928F929F92B7
:10414000AF92BF92CF92DF92EF92FF920F931F93A5
:10415000CF93DF9300D000D000D01F921F92CDB735
:10416000DEB77C013B018A01FC0117821682838144
:1041700081FFDDC1CE0101965C01F7019381F3015E
:1041800093FD859193FF81913F01882309F453C1E9
:10419000853239F493FD859193FF81913F018532FA
:1041A00029F4B70190E00E94A522E7CF912C212CA1
:1041B000312CFFE1F31538F08B3211F190F480329D
:1041C00009F1833229F137FC3CC020ED280F2A3059
:1041D00050F536FE20C08AE0989E200D1124922EC4
:1041E00006C08D3291F0803371F7689430F8F30196
:1041F00093FD859193FF81913F018111DACF21C019
:10420000689431F8689432F8F2CF689433F8EFCFBD
:10421000689434F8ECCFEAE02E9E200D1124222E73
:10422000689435F8E4CF8E3229F436FC04C16894E2
:1042300036F8DDCF8C3619F4689437F8D8CF883645
:10424000B1F2982F9F7D95549330E0F08336A1F121
:104250008337C1F1833509F063C02801F2E04F0EC6
:10426000511CF801C080D180692D70E036FC02C07D
:104270006FEF7FEFC6010E949A224C01689437F8D5
:1042800082010AC00C5F1F4FFFE3F98388248394E7
:10429000912C6501E89437F833FE2DC0522C81141F
:1042A000910471F5552009F468CFB70180E290E0E0
:1042B0000E94A5225A94F6CFF801808189830E5F6F
:1042C0001F4FE4CF2801F2E04F0E511CF801C080CF
:1042D000D180692D70E036FC02C06FEF7FEFC60120
:1042E0000E94FC1F4C018201D5CFB70180E290E013
:1042F0000E94A5222A942814190409F0B0F7CECF01
:10430000F60137FC859137FE81916F01B70190E08E
:104310000E94A52251105A94F1E08F1A9108BFCF44
:10432000843619F0893609F077C0F80137FE6BC082
:1043300060817181828193810C5F1F4FF32DFF7625
:104340003F2E97FF09C090958095709561957F4F9E
:104350008F4F9F4F689437F82AE030E0A5010E9404
:10436000D522C82ECA188C2C432C36FE0CC0E894DB
:1043700040F8C91440F434FE05C032FC03C0F32DEC
:10438000FE7E4F2E892C44FEAAC0FE01EC0DF11DCD
:104390008081803309F09CC0242D297E422E842DFB
:1043A0008870582E43FCAAC040FEA4C09C2C8214E6
:1043B00018F42C0C922C981844FEA6C0B70180E388
:1043C00090E00E94A52242FE09C088E790E041FEED
:1043D00002C088E590E0B7010E94A522C91408F444
:1043E0009FC0CA94D12C9FEFC91AD90ACA0CDB1CF2
:1043F000F60182916F01B70190E00E94A522AC14F2
:10440000BD04B1F74FCF60817181072E000C880B7E
:10441000990B0E5F1F4F92CFD32CE894D4F82AE06B
:1044200030E08537E1F1232D297FD22E8F36A9F197
:10443000F0F4883551F1F701868197812B960FB6FC
:10444000F894DEBF0FBECDBFDF91CF911F910F91CA
:10445000FF90EF90DF90CF90BF90AF909F908F90A4
:104460007F906F905F904F903F902F90089580378E
:1044700049F0883701F7D4FE02C06894D2F820E1F1
:1044800030E00DC06894D4F8F6CF34FE03C0822F1C
:104490008660D82E20E132E002C028E030E0F8014A
:1044A000D7FE0FC060817181828193810C5F1F4FA5
:1044B000A5010E94D522C82ECA183D2CE89437F8D1
:1044C00052CF6081718190E080E00E5F1F4FF0CF8E
:1044D00042FC02C0839463CF8394839460CF842D85
:1044E000867809F45CCFF6CFB70180E290E00E94B5
:1044F000A52283948214C0F3512C5ECF522C5818FD
:10450000821408F459CFF8CF842D867809F466CF49
:104510008BE241FE80E247FC8DE2B70190E05CCF88
:10452000B70180E390E00E94A5229A9457CF8FEFC5
:104530009FEF84CFFC010590615070400110D8F7C7
:10454000809590958E0F9F1F08950F931F93CF9383
:10455000DF93182F092FEB018B8181FD09C01FEF1D
:104560000FEF812F902FDF91CF911F910F91089521
:1045700082FF14C02E813F818C819D8128173907CD
:104580003CF4E881F981CF010196998388831083F7
:104590008E819F8101969F838E83E3CFE885F98585
:1045A000812F1995892BA1F3DACFFA01AA27283098
:1045B00051F1203181F1E8946F936E7F6E5F7F4FF0
:1045C0008F4F9F4FAF4FB1E03ED0B4E03CD0670F6C
:1045D000781F891F9A1FA11D680F791F8A1F911DBF
:1045E000A11D6A0F711D811D911DA11D20D009F40F
:1045F00068943F912AE0269F11243019305D319351
:10460000DEF6CF010895462F4770405D4193B3E039
:104610000FD0C9F7F6CF462F4F70405D4A3318F0E0
:10462000495D31FD4052419302D0A9F7EACFB4E091
:10463000A6959795879577956795BA95C9F7009749
:104640006105710508959B01AC010A2E06945795EA
:10465000479537952795BA95C9F7620F731F841F41
:10466000951FA01D0895A1E21A2EAA1BBB1BFD01D8
:104670000DC0AA1FBB1FEE1FFF1FA217B307E40741
:10468000F50720F0A21BB30BE40BF50B661F771F99
:10469000881F991F1A9469F7609570958095909579
:1046A0009B01AC01BD01CF010895EE0FFF1F881FD4
:0E46B0008BBF0790F691E02D1994F894FFCF80
:1046BE006D2D696E69742D646F6E650D0A006D2D1A
:1046CE0072656164790D0A006D2D7761726D75707A
:1046DE002D73746172742D25640D0A006D2D776132
:1046EE00726D75702D646F6E650D0A006D2D696E9D
:1046FE006665722D73746172742D25640D0A006DDA
:10470E002D6C61702D75732D256C750D0A006D2D38
:10471E00696E6665722D646F6E650D0A00646200C7
:10472E002000652D5B436F6D6D616E6420276462A2
:10473E0027207265717569726573206120737562C9
:10474E00636F6D6D616E645D0D0A006C6F61640068
:10475E00652D5B436F6D6D616E6420276462206C06
:10476E006F61642720726571756972657320746854
:10477E00652023206F662062797465735D0D0A00D3
:10478E00652D5B436F6D6D616E6420276462206CD6
:10479E006F616427206D757374206265203E302032
:1047AE0062797465735D0D0A00537570706C69657E
:1047BE0064206275666665722073697A6520256469
:1047CE002065786365656473206D6178696D756DBC
:1047DE00206F662025640A006D2D5B457870656339
:1047EE0074696E672025642062797465735D0D0AA5
:1047FE00007072696E74006D2D6275666665722D3D
:10480E00002530327800652D5B496E7375666669DA
:10481E0063656E74206E756D626572206F662068BA
:10482E006578206469676974735D0D0A00652D5B98
:10483E00496E76616C696420686578206469676981
:10484E007420272573275D0D0A006D2D6C6F616432
:10485E002D646F6E650D0A0070726F66696C65006F
:10486E004D4C4D61726B496E6F2056302E302E318D
:10487E00006D2D70726F66696C652D5B25735D0D15
:10488E000A00656D6C6561726E006D2D6D6F6465ED
:10489E006C2D5B25735D0D0A006673697A65006D7C
:1048AE002D6673697A652D5B25645D0D0A0068655A
:1048BE006C700025730D0A0068656C702020202036
:1048CE0020202020203A205072696E74207468696E
:1048DE007320696E666F726D6174696F6E0D0A007A
:1048EE006E616D652020202020202020203A20504F
:1048FE0072696E7420746865206E616D65206F66D6
:10490E0020746865206465766963650D0A007469B4
:10491E006D65737473616D702020203A2047656E4B
:10492E00657261746520612074696D657473616D63
:10493E00700D0A00646220535542434D44202020DE
:10494E00203A204D616E6970756C6174652061202E
:10495E0067656E657269632062797465206275663B
:10496E006665720D0A0020206C6F6164204E202057
:10497E002020203A20416C6C6F63617465204E20BC
:10498E00627974657320616E6420736574206C6F38
:10499E00616420636F756E7465720D0A0020206469
:1049AE00622048485B48485D2A203A204C6F61647B
:1049BE0020382D62697420686578206279746528C4
:1049CE00732920756E74696C204E2062797465733C
:1049DE000D0A0020207072696E74205B4E3D3136D8
:1049EE005D205B6F66667365743D305D0D0A002059
:1049FE002020202020202020202020203A2050720D
:104A0E00696E74204E206279746573206174206F14
:104A1E006666736574206173206865780D0A006997
:104A2E006E666572204E205B573D305D3A204C6FAE
:104A3E00616420696E7075742C2065786563757479
:104A4E0065204E20696E666572656E6365732061C2
:104A5E00667465722057207761726D7570206C6F69
:104A6E006F70730D0A00726573756C74732020205D
:104A7E002020203A2052657475726E20746865206D
:104A8E00726573756C74206670333220766563744C
:104A9E006F720D0A006673697A652020202020202F
:104AAE0020203A2052657475726E20696E7075748E
:104ABE0020666561747572652073697A6520696E0A
:104ACE002062797465730D0A00696E666572006501
:104ADE002D5B496E666572656E63652069746572DD
:104AEE006174696F6E73206D757374206265203EFC
:104AFE00305D0D0A00652D5B496E666572656E63ED
:104B0E0065207761726D7570206D757374206265A6
:104B1E00203E3D305D0D0A00726573756C74730036
:104B2E006E616D6500647574006D2D6E616D652D21
:104B3E0025732D5B25735D0D0A0074696D657374A5
:104B4E00616D7000652D5B556E6B6E6F776E2063B9
:104B5E006F6D6D616E643A2025735D0D0A006D2DCB
:104B6E0074696D657374616D702D6D6F64652D70F4
:104B7E006572666F726D616E63650D0A00496E70C7
:104B8E0075742064622068617320256420656C65ED
:104B9E006D656E7465642C206578706563746564EC
:104BAE002025640A006D2D726573756C74732D5B10
:104BBE000025640000000000261E7C1FA01D061E9E
:064BCE00721D8C1D7E1D0E
:00000001FF
