:0200000280007C
:1000000000800820853F0A00A1450A00A1450A009A
:10001000A1450A00A1450A00A1450A000000000010
:10002000000000000000000000000000A3450A00DE
:10003000A1450A0000000000A7450A00AB450A00E0
:10004000A1450A00A1450A00A1450A00A1450A00F0
:10005000A1450A00A1450A00A1450A00A1450A00E0
:1000600011400A00A1450A0000000000A1450A0055
:10007000A1450A00A1450A00A1450A0000000000B0
:100080000000000025400A0031400A00A1450A0096
:100090003D400A00A1450A00A1450A00A1450A0009
:1000A000A1450A0000000000A1450A00A1450A0080
:1000B000A1450A00A1450A00A1450A00A1450A0080
:1000C000A1450A00A1450A00A1450A00A1450A0070
:1000D000A1450A00A1450A00A1450A00A1450A0060
:1000E000FD3F0A00A1450A00A1450A00A1450A00FA
:1000F000A1450A0010B5054C237833B9044B13B160
:100100000448AFF300800123237010BD10090720BD
:10011000000000009CD60A0008B5064B1BB106483B
:100120000649AFF300800648036813B1054B03B1DD
:10013000984708BD000000009CD60A00140907205B
:100140009CD60A00000000002DE9F04FD1F800A075
:100150000E468FB000235046A7490C93ADF83430BB
:1001600026F0C6F93269B7680292D6F80C80D6F844
:100170002890002800F01C841046A04926F0B8F909
:10018000D6F804B0002800F04183384625F034FD4D
:1001900075A3D3E9002304460D4625F0FDFF002892
:1001A00000F01D824046964926F0A2F9002800F092
:1001B0003B81706B934926F09BF960B3F46A20464B
:1001C00025F01AFD6AA3D3E9002325F0E5FF0028F6
:1001D0004FD0584625F010FD67A3D3E9002325F042
:1001E000DBFF002800F030835846874926F080F96D
:1001F000002836D0B06B25F0FFFC61A3D3E90023C3
:1002000025F0CAFF002831D0F069804926F070F946
:1002100038B301F0DDB8D6F81C80404625F0ECFC80
:1002200059A3D3E9002325F0B7FF002859D1484648
:1002300025F0E2FC56A3D3E9002325F0ADFF00280A
:1002400060D14046724926F053F9002877D1204604
:10025000294651A3D3E9002325F09EFF002800F092
:10026000F38201238DF8333001F07DBA706A694959
:100270008EE2F06925F0C0FC49A3D3E9002325F004
:100280008BFFA0B1484625F0B7FC47A3D3E9002374
:1002900025F082FF002800F0D78258465E4926F0FC
:1002A00027F9002800F0D082306B5C49AEE7504659
:1002B00025F0A2FC3EA3D3E9002325F06DFF002822
:1002C00040F0C2824046564926F012F910B120464D
:1002D00054495DE2B06925F08FFC37A3D3E90023D0
:1002E000C6E02046294636A3D3E9002325F054FF73
:1002F000002841F06D80706925F07EFC32A3D3E9BF
:100300000023D4E0504625F077FC31A3D3E9002345
:1003100004460D4625F040FF002840F09582204617
:1003200029462DA3D3E9002325F036FF002898D1D4
:10033000F06A25F061FC2AA3D3E9002310E0706A7B
:1003400025F05AFC28A3D3E9002325F025FF002837
:1003500041F03E80B06B25F04FFC25A3D3E900238C
:1003600025F01AFF16E200BF00000090E5F8D73F25
:100370000000003031A1D9BF000000D030FCD83FD0
:100380000000001064B7C83F00000070E265DCBFE9
:10039000000000D0C8BFD1BF000000940E0FC7BF3F
:1003A000000000B01485DDBF000000B0C595CE3F51
:1003B000000000D03D1203C0000000307F6EEA3F15
:1003C000000000904DDDF2BF000000541CEAF03F39
:1003D000000000F09EF001C0000000900130F5BF69
:1003E000000000185024CABF000000309865BF3FCD
:1003F00000000090615BD43F0640533F7BB0463F16
:10040000A0E1D2BD71F98E3E0059A4BF2CF3853E08
:100410007243313FAA9896BB586C1E3ED37AEF3E8A
:100420001735D1BF30BCA13DD6F81480984940465D
:1004300026F05EF800286BD0D6F81880404625F0EC
:10044000DBFB75A3D3E9002325F0A6FE98B1504647
:1004500025F0D2FB72A3D3E9002325F09DFE0028EE
:1004600040F0F281584625F0C7FB6FA3D3E9002383
:1004700025F092FECCE6204629466DA3D3E9002361
:1004800025F08AFEF8B1F06925F0B6FB6AA3D3E93E
:10049000002325F081FE80B140467E4926F028F8F1
:1004A00040B1504625F0A8FB65A3D3E9002325F011
:1004B00073FE60E002987849A8E62046294662A3C8
:1004C000D3E90023C8E6584625F096FB60A3D3E99C
:1004D000002325F061FE68B1504625F08DFB5EA338
:1004E000D3E9002325F058FE002800F07187706BD7
:1004F0006A498BE6306B6A4925F0FAFF002840F024
:10050000A381F06A25F078FB55A3D3E9002327E700
:100510003846644925F0ECFF002844D0484662493B
:1005200025F0E6FF98B1706A604925F0E1FF0028E8
:1005300000F08A8140465E4925F0DAFF10B1B069CB
:100540005C4925E150465C4925F0D2FFBBE14046BD
:1005500025F052FB44A3D3E9002325F01DFE78B11A
:10056000F069564925F0C4FF002800F06D81306A1B
:10057000534925F0BDFF002840F0668100F028BFF8
:10058000F06925F039FB3AA3D3E9002325F004FEF6
:1005900030B1484625F030FB37A3D3E9002367E7A5
:1005A000306B484932E6584625F026FB34A3D3E9A0
:1005B000002325F0F1FD002800F046815046424915
:1005C00025F096FF00287FF44CAE50463F4925F0B9
:1005D0008FFF00283FF445AEB0693D4916E650460E
:1005E0003C4925F085FF00287AD0F06A25F004FB0D
:1005F00025A3D3E9002325F0CFFD002800F02481B6
:100600005846354925F074FF002800F01D81484602
:10061000324925F06DFF21E600000050E3E8DDBF20
:10062000000000D0FFE806C0000000D05692F4BFE2
:100630000000002AA2C0703F000000F0DE42E03F50
:10064000000000683D6001C0000000306483FCBF12
:10065000000000303639F2BF000000902582F4BF60
:10066000000080404A32C33F0000001051F5F33FC4
:10067000000000502622DDBF000000F002EDCF3F59
:100680000000008C3878E53F000000685012D03F31
:1006900086F8583D03F55E3EFB53593EE733833EF3
:1006A00078A31F3C91B817BD5B52BABEB0F4373F78
:1006B000066C863DFBBD6BBED2131BC08276BE3E70
:1006C0001EB7EF3D7E5D7EBED9E5B3BF3BFD72BF79
:1006D00073D7D23BD1F005C09A0D9A3F2A2FC23D65
:1006E000584625F089FA7EA3D3E9002325F054FD6E
:1006F000002800F0A98050469F4925F0F9FE50B32C
:10070000F06A25F079FA78A3D3E9002325F044FDB7
:10071000A0B17069994925F0EBFE002840F0588699
:10072000029825F069FA72A3D3E9002325F034FD7D
:1007300000283FF496AD0298914929E020462946C9
:100740006DA3D3E9002325F027FD00287FF489ADB0
:1007500050468C491CE0404625F04EFA68A3D3E988
:10076000002325F019FD78B3484625F045FA66A325
:10077000D3E9002325F010FDC0B1706A25F03CFAE2
:1007800063A3D3E9002325F007FD40B1F06A7E4959
:1007900025F0AEFE00287FF464AD00F019BEB06B0A
:1007A00025F02AFA5CA3D3E9002361E6B06B774910
:1007B00025F09EFE00283FF454AD706925F01CFA28
:1007C00057A3D3E9002353E6306A714925F090FE20
:1007D00068B1F0696F4925F08BFE00283FF441AD08
:1007E000B06925F009FA50A3D3E9002340E6706907
:1007F00025F002FA4EA3D3E9002325F0CDFC10B179
:100800005846654902E5B0696449FFE4384625F079
:10081000F3F949A3D3E9002325F0BEFC002855D005
:1008200058465F4925F064FE98B902985D4925F065
:100830005FFE002834D0F06A25F0DEF940A3D3E94A
:10084000002325F0A9FCB8B101238DF8353000F064
:100850008ABF504625F0D0F93BA3D3E900230446D4
:100860000D4625F099FC002800F0B2852046294667
:1008700037A3D3E9002324E058464B4925F038FE3E
:1008800000287FF4EEAC0298484925F031FE00289C
:10089000DAD0584625F0B0F92FA3D3E90023DBE4E2
:1008A000484625F0A9F92EA3D3E9002304460D46B6
:1008B00025F072FC0028C7D0204629462AA3D3E998
:1008C000002325F069FC0028BED1CAE4584625F073
:1008D00093F927A3D3E90023BEE400BFAFF3008060
:1008E000000000B87C70F63F000000704E13D63F49
:1008F00000000010AE8FD33F000000B0308EED3FFF
:10090000000000F09CD5E13F000000B0036AC7BFC3
:10091000000000706BD4D1BF000000F058CDD9BFEB
:10092000000000506A69F83F0000005095B7D8BF3A
:1009300000000024F1F5A1BF000000F07091FB3F22
:10094000000000100832A83F000000CC2ADEE3BF00
:10095000000000D0779104C000000048E535F13F69
:10096000000000F0CCBDBDBF00000090323EBEBF15
:10097000000000303C3BEF3F63BBA4BF9075F2BE6C
:100980003B139B3EA75DBFBFE2E91FBE3A9A8F3E75
:1009900026D3683E125AE9BD7EC8E0BFEFCB27BE22
:1009A0000FA9763E195E7B3F3144363F9EDE573FAE
:1009B000029825F021F994A3D3E90023CDE90001A1
:1009C00025F0EAFB002800F0D584D6F820B0584680
:1009D00025F012F98EA3D3E9002304460D4625F035
:1009E000DBFB002800F05A824846B54925F080FD1F
:1009F000002800F0B3803846B24925F079FD68B18F
:100A00005046B14925F074FD002840F07986B06960
:100A100025F0F2F880A3D3E900235EE3D6F834B0E2
:100A2000AA49584625F064FD002846D0B06925F053
:100A3000E3F87BA3D3E9002325F0AEFBE0B1706AB5
:100A4000A34925F055FD28B12046294676A3D3E9D0
:100A500000230BE048469F4925F04AFD002840F05E
:100A6000E6832046294672A3D3E9002325F094FBB0
:100A7000002840F04586DAE3204629466EA3D3E9F4
:100A8000002325F089FB68B14046934925F030FDED
:100A9000002800F03586706A25F0AEF868A3D3E927
:100AA0000023BFE340468D4925F022FD002840F099
:100AB000BE8358468A4900F01DBD706A25F09CF837
:100AC00061A3D3E9002325F067FB40B3DDE9000112
:100AD0005FA3D3E9002325F05FFB90B1B0698149A2
:100AE00025F006FD30B1384625F086F85AA3D3E943
:100AF0000023BBE7B06B25F07FF859A3D3E90023AF
:100B0000EBE24046784925F0F3FC002840F08F8363
:100B1000F06A25F071F854A3D3E900239CE2306B0E
:100B200025F06AF852A3D3E9002325F035FB00280D
:100B300040F07D8340466D4925F0DAFC38B13846F7
:100B400025F05AF84CA3D3E9002300F0EABDB069C0
:100B500025F052F84AA3D3E90023BEE2F06A6449C3
:100B600025F0C6FC002800F005817068614925F079
:100B7000BFFC002800F0C280D6F830B0584625F0FF
:100B80003BF841A3D3E9002325F006FB48B35846C0
:100B9000594925F0ADFC88B1484625F02DF83CA315
:100BA000D3E9002325F0F8FA002840F0A985504643
:100BB00025F022F838A3D3E900238EE2404625F041
:100BC0001BF837A3D3E9002304460D4625F0E4FAC9
:100BD000002840F02C832046294633A3D3E9002384
:100BE0007BE22046294632A3D3E9002325F0D4FA3C
:100BF000002800F03682384624F0FEFF2EA3D3E909
:100C0000002333E7AFF30080000000900E45E23F81
:100C100000000010807F67BF000000585B0DCB3FD5
:100C2000000000F0530EAC3F000000D03063EBBF7B
:100C3000000000F09B40C0BF000000F0307CBEBF51
:100C4000000000F03435B43F000000706812D43F5B
:100C500000000030BCB1BABF000000D8C3D2D0BF82
:100C60000000009006CAC9BF00000010ADCAD53F01
:100C7000000000709B64D6BF000000F004D8C1BF24
:100C800000000010D4BDED3F000000F091F0D03F17
:100C900000000070165BD73F000000D060FCFB3FF7
:100CA00000000090E73EC6BF000000D02FF7E33FF2
:100CB000000000F009CACDBF0000200C9317D0BF80
:100CC000E7ADA6BDFDB544BF04C20340AA9857BE18
:100CD0000DEF87BE29B7C0BE72A375BE566DBEBEEE
:100CE000A202C2BEA509E13E25093EBE73B4DABE2A
:100CF00034CBABBEA0D3F23D6495853A306BB64998
:100D000025F0F6FBB8B1706BB44925F0F1FB002873
:100D100000F0F684F06924F06FFF85A3D3E9002387
:100D200025F03AFA002840F0EB84B069AC4925F090
:100D3000DFFB00F0F8BC7069AA4925F0D9FB90B13F
:100D4000B06924F059FF7CA3D3E9002325F024FAED
:100D5000002840F06C82B06B24F04EFF78A3D3E9FA
:100D6000002300F0DEBC404624F046FF76A3D3E922
:100D7000002357E238469C4925F0BAFB00283AD0B8
:100D800070689A4925F0B4FB00B30298984925F0A1
:100D9000AFFB68B1404624F02FFF6DA3D3E90023D9
:100DA00025F0FAF9002800F0AB84706A9149CBE194
:100DB0000298914925F09CFB002840F0388240467B
:100DC00024F01AFF64A3D3E900232BE2706B8B4954
:100DD00025F08EFB002840F09384706A24F00CFF0D
:100DE0005FA3D3E9002325F0D7F9002800F0888419
:100DF000306B8349A8E1706A24F0FEFE5AA3D3E960
:100E0000002304460D4625F0C7F918B3306B7D4921
:100E100025F06EFBC0B1384624F0EEFE54A3D3E9B2
:100E2000002325F0B9F938B1706B24F0E5FE52A328
:100E3000D3E9002300F075BC404624F0DDFE50A34A
:100E4000D3E9002300F06DBC204629464EA3D3E928
:100E5000002389E2504624F0CFFE4DA3D3E90023BE
:100E600025F09AF968B13846674925F041FB00281A
:100E700040F04684484624F0BFFE47A3D3E9002350
:100E80002BE10298614925F033FB002840F0CF8127
:100E90002046294642A3D3E90023C3E1504624F06B
:100EA000ABFE41A3D3E90023CDE9040125F074F999
:100EB000002800F06F814046554925F019FB0028B5
:100EC00000F0F8804046534925F012FB002800F05E
:100ED000B880404624F090FE35A3D3E9002325F0E6
:100EE0005BF9002800F09880384624F085FE32A394
:100EF000D3E9002325F050F928B1DDE9000130A342
:100F0000D3E90023B2E5706824F076FE2EA3D3E97E
:100F1000002325F041F9002840F08981706B24F00E
:100F20006BFE2BA3D3E90023A0E500BFAFF3008045
:100F3000000000B03C37B33F00000090CFBFEFBFD0
:100F4000000000500545D4BF00000034956AD4BFAE
:100F5000000000902AB6D9BF000000D0A836CFBF4D
:100F6000000000D0C61B8DBF000000107D47ADBF44
:100F700000000010F8EAD63F000000B02B08E23F66
:100F80000000003008A8BB3F000000B8A496E3BFF3
:100F9000000000D06729FF3F000000D0721BC43F53
:100FA000000000E8442890BF000000B0FE19024095
:100FB000000000102CD1E7BF000000F00BA3E1BF40
:100FC00000000090E395B23F000000306D0EEC3F52
:100FD0000000001CEDE6D3BF64265CBE1C250E3F5E
:100FE000FCA5133F6CF78B3F8854373EE0750E3FEE
:100FF000B8A53F3E3675BA3C56EA413ECE6EBCBE01
:10100000177CE83E6A93BA3E3A6B9B3FC109CC3CE1
:101010005E6795BDC4E1B2BEF06AB74925F068FAD3
:10102000002800F00481706A24F0E6FD86A3D3E96D
:10103000002325F0B1F8002840F0F9807068AF492E
:1010400082E04846AE4925F053FA70B1384624F0A4
:10105000D3FD7FA3D3E9002325F09EF8002800F0FC
:10106000E68001238DF832307DE3404624F0C4FD54
:1010700079A3D3E9002325F08FF860B17068A14906
:1010800025F036FA0028ECD1306B24F0B5FD74A3BE
:10109000D3E9002321E0706A24F0AEFD72A3D3E906
:1010A000002325F079F810B102989749B6E17069EC
:1010B0009649C4E2F06A964925F01AFA38B34846D0
:1010C00024F09AFD6AA3D3E9002325F065F838B12E
:1010D000DDE9040168A3D3E9002325F05DF80BE204
:1010E000F0698C4925F004FA0028BAD0DDE9040142
:1010F00063A3D3E9002325F04FF8002840F00083D4
:10110000706B24F079FD60A3D3E9002309E3D6F8DE
:1011100034908149484625F0EBF940B3F06924F05A
:101120006BFD5BA3D3E9002325F036F878B1B069F5
:1011300024F062FD58A3D3E9002325F02DF8002800
:1011400040F0DE827549404625F0D2F96CE0204639
:10115000294653A3D3E9002325F01EF8002880D1A7
:10116000B06B24F049FD50A3D3E90023FCE04846CE
:101170006B4925F0BDF930B1706A24F03DFD4CA3F8
:10118000D3E90023F0E0706A24F036FD4AA3D3E9E6
:101190000023E9E0404624F02FFD49A3D3E90023D2
:1011A00024F0FAFF00B3706A5E4925F0A1F9002827
:1011B0007FF457AFF06A24F01FFD43A3D3E9002367
:1011C00024F0EAFF002832D0484624F015FD40A361
:1011D000D3E9002324F0E0FF68B3384624F00CFD87
:1011E0003DA3D3E9002337E738464F4925F080F97E
:1011F000002840F09D80DDE9000139A3D3E90023F8
:1012000024F0CAFF002800F07B825846474925F0A9
:101210006FF9002800F09B80706824F0EDFC32A389
:10122000D3E9002324F0B8FF002800F069820123ED
:101230008DF8313097E2706824F0DEFC2CA3D3E9FE
:10124000002309E7AFF30080000000CC112982BF22
:10125000000000F07E87E53F000000709F6FD3BF65
:101260000000D41A5925D83F0000005048BDD23F95
:10127000000000104988CB3F0000007048C6F43FD2
:101280000000001015510140000000F05E21DBBF9E
:10129000000000B07E36B53F000000305A19C7BFCD
:1012A00000000090EE0F643F0000001006D4DEBF87
:1012B000000000505E09E03F000000900B6AD63F3E
:1012C00000000070ED40C8BF000000703ED6D3BFE4
:1012D000000000902E0494BF00000068E90EC6BF15
:1012E000000000700329E23F000000701C3AE63F56
:1012F0000000005028E3D23FFFEBAA3D3105083F34
:1013000044E5AABE6C947C3E182994BFD00DBD3F25
:10131000362CB2BDE250863EAF9A46BE20E83C3F36
:101320008B85DB3EA6711ABFE25B6ABF4E4659BA97
:10133000B06B9D4925F0DCF830B1B06924F05CFC5D
:101340007BA3D3E9002387E602989849D2E0584668
:10135000974925F0CDF800283FF483AE706824F05B
:101360004BFC75A3D3E9002324F016FF00287FF47B
:1013700078AEC5E150468F4925F0BAF8002800F054
:101380003981404624F038FC6DA3D3E9002304469C
:101390000D4624F001FF00286CD0D6F83080864935
:1013A000404625F0A5F800283BD0706824F024FCC6
:1013B00065A3D3E9002324F0EFFE68B12046294657
:1013C00063A3D3E9002324F0E7FE002800F098810E
:1013D00001238DF83430C6E13846784925F088F885
:1013E00030B1F06924F008FC5BA3D3E9002319E7CE
:1013F0004046734925F07CF810B1384671490DE03C
:10140000B46B204624F0F8FB55A3D3E9002324F065
:10141000C3FE00287FF40BAF6B49204625F068F827
:101420001CE6504624F0E8FB4FA3D3E9002324F048
:10143000B3FE00283FF415AEB06924F0DDFB4CA3E9
:10144000D3E9002324F0A8FE68B1F06924F0D4FBAE
:1014500049A3D3E9002324F09FFE002800F0508127
:1014600002985A49DAE7706924F0C6FB44A3D3E92D
:10147000002356E1D6F824905549484625F038F81F
:10148000F8B12046294640A3D3E9002324F084FE86
:1014900010B1B0694F494AE4484624F0ADFB3CA383
:1014A000D3E9002324F078FE00287FF4DAAD484623
:1014B000494925F01DF800283FF4D3AD029847496B
:1014C000BDE07068464925F013F8C8B1706B454916
:1014D00025F00EF800287FF4AAAE306B24F08CFBC8
:1014E0002DA3D3E9002324F057FE002800F0088143
:1014F00002983D4924F0FCFF002840F00181B0E54E
:1015000040463A4924F0F4FF00283FF4AAAD306A7F
:10151000374924F0EDFF00287FF489AEB06B24F04A
:101520006BFB1FA3D3E90023FFF7A0BAAFF3008042
:10153000000000F0E498CBBF000000B0EF84E63F6D
:10154000000000D0B11DCDBF000000A846B6D0BF3E
:10155000000000B0FCA7FEBF00000030D75EC53F12
:10156000000000B02ABCB53F000000D0819E0240C0
:10157000000000B06618C83F000000E4D204B43F89
:1015800000000088718CDDBF00000050EF5FABBF32
:10159000000000507DA4B03F000000086565D0BF8A
:1015A0000000003447B1B8BFA377513D039BEC3E28
:1015B00001CC823DE0411F408462373E1D916FBFE8
:1015C000A8030EBF10DE6F3E9035B73D4D34133F7C
:1015D00016ED4B3E34971BBF12D6FD3D05A3373F9A
:1015E0005AA76B3EF917E0BEEB33293FA677B53E0D
:1015F000A44DC2BC346BB249204624F079FF0028C8
:1016000058D0DDE900018AA3D3E9002324F0C4FD0A
:10161000E8B1706A24F0F0FA87A3D3E9002324F03C
:10162000BBFD00283FF403AE306A24F0E5FA84A342
:10163000D3E9002324F0B0FD28B17068A14924F05B
:1016400057FFFFF715BA40469F49FFF770BB40466A
:101650009E4924F04DFFD0B1384624F0CDFA7AA34C
:10166000D3E9002324F098FD68B17069984924F00B
:101670003FFF00287FF4DBADB06B24F0BDFA74A30C
:10168000D3E900234DE0306A9249FFF750BBF06A7E
:1016900024F0B2FA70A3D3E9002304460D4624F0E7
:1016A0007BFD00283FF4DDAC204629466CA3D3E93E
:1016B0000023D1E4484624F09FFA6BA3D3E900232A
:1016C00024F06AFD00287FF4B2AD384624F094FA85
:1016D00067A3D3E9002324F05FFD40B3204624F044
:1016E0008BFA65A3D3E9002324F056FD98B1706B03
:1016F00024F082FA62A3D3E9002324F04DFD18B14F
:1017000001238DF830302EE0306A24F075FA5EA3A4
:10171000D3E9002305E0B06B24F06EFA5CA3D3E9B3
:10172000002324F039FD00287FF481AD99E4706A2C
:10173000694924F0DDFE00287FF493AC2046674918
:1017400024F0D6FE00283FF48CACB069644924F044
:10175000CFFE00283FF485AC706824F04DFA4EA30C
:10176000D3E900235EE5029824F046FA4CA3D3E9BE
:101770000023CDE9000124F00FFD002800F0918640
:10178000D6F828905749484624F0B2FED6F804808F
:10179000002800F08A81DDE9000143A3D3E900239A
:1017A00024F0FAFC9DF830B0002800F0E3804046B9
:1017B0004D4924F09DFE002800F03C87306B4B49DA
:1017C00024F096FE002800F09B804846484924F00B
:1017D0008FFEB0B1B068474924F08AFE40B1404660
:1017E00024F00AFA32A3D3E9002324F0D5FCECE07C
:1017F0004046414924F07CFE002840F0738700F009
:1018000066BCB06B24F0F8F92BA3D3E9002324F0D5
:10181000C3FC002800F05B844046384924F068FE91
:10182000002800F0548400F059BE00BFAFF30080E0
:1018300000000050A0B0E53F000000B0659ED83F1A
:1018400000000028F054B1BF000000305A7ADABF1F
:10185000000000F07ECFC13F000000B06FC0C7BFE6
:101860000000009071BACEBF000000706C82E1BF32
:10187000000000902D48E8BF000000682C29E03FE0
:101880000000003064E3C9BF0000005872B4CDBF4F
:1018900000000099817ACDBF000000B02B7BDF3FB4
:1018A000000000B07F5FF03F000000507EE4C2BF48
:1018B000000000489C5DD23F00000018A788BD3F93
:1018C0006149C83DACD0F23E49037CBE6AA38DBEDF
:1018D000E48299BE1050473E277FB3BEDD232C3EE5
:1018E000E880BDBD8ADEF8BE3CF5B53F8E008BBEFC
:1018F000B16B18BFD83FE63E8C5C843D8F73BDBE94
:10190000306A24F079F9A2A3D3E9002324F044FC3F
:10191000002840F0E385484624F06EF99EA3D3E901
:10192000002324F039FCC0B1B06924F065F99CA310
:10193000D3E9002324F030FC002800F0C88350468F
:1019400024F05AF998A3D3E9002324F025FC0028B9
:1019500040F0C8865046B64971E3706924F04CF9EE
:1019600093A3D3E9002324F017FC002840F0B685A8
:1019700000F0DEBE3846AF4924F0BAFD68B3B06966
:1019800024F03AF98CA3D3E9002324F005FC18B124
:10199000706BA94900F082BD4046A84924F0A8FD1B
:1019A000B8B1384624F028F985A3D3E9002324F000
:1019B000F3FB30B1B06B24F01FF983A3D3E900230C
:1019C0000AE302989E4924F093FD002840F08A869D
:1019D0005AE0706A9B4900F07EBC404624F00CF946
:1019E0007BA3D3E9002304460D4624F0D5FB58B36E
:1019F000F06A24F001F978A3D3E9002324F0CCFBAA
:101A000018B15046904900F0FBBD706924F0F4F81D
:101A100073A3D3E9002324F0BFFB002800F0628603
:101A200038468A4924F064FD002800F05B86384679
:101A300024F0E2F86CA3D3E9002324F0ADFB0028E6
:101A400040F0508600F074BE4846814924F050FDB5
:101A500018B138467F4900F049BD706B7E4924F0CB
:101A600047FDB8B1384624F0C7F861A3D3E9002395
:101A700024F092FB002800F0DD85F068774924F01F
:101A800037FD002840F054860BF1010B8DF830B083
:101A900000F05BBE2046294657A3D3E9002324F07B
:101AA0007BFB002800F0C68511E3404624F0A4F833
:101AB00053A3D3E90023CDE9040124F06DFB0028F2
:101AC00000F08D82B768384624F096F84EA3D3E92B
:101AD000002304460D4624F05FFB002800F06D81D2
:101AE000F4695F49204624F003FD002800F0FB80E4
:101AF000D6F818B0584624F07FF845A3D3E9002360
:101B000024F04AFB002800F0BB80F46A55492046C7
:101B100024F0EEFCA0B14046534924F0E9FC002833
:101B200040F0DC84F06824F067F83BA3D3E900239D
:101B300024F032FB002840F0D18440464B497EE23D
:101B400058464B4924F0D4FC78B1F068494924F058
:101B5000CFFC002840F0C2844046474924F0C8FC2E
:101B6000002840F0BB8400F02DBC4846434924F0D7
:101B7000BFFC30B1706A24F03FF829A3D3E90023F9
:101B80002AE2204624F038F827A3D3E90023CBE348
:101B9000000000C8E45DE2BF000000109515E0BF42
:101BA000000000980270E33F000000307091F3BF26
:101BB000000000F8F908C7BF00000090D885D5BF25
:101BC0000000003084A9F1BF000000107530D43F40
:101BD000000000305690DB3F000000302A53C6BFA3
:101BE000000000500E4FD8BF000000D8E1E4C43F11
:101BF000000000F0C762E13F000000F8FB09F03F81
:101C0000000000F0DD52DEBF000000509C00D83F15
:101C100000000090F982D93F00000030CE8BBBBF9E
:101C2000000000F01A89DF3F000000F0B0B8DC3F90
:101C30000C4C91BFD29C03BF5FD8C23E1F536C3E79
:101C4000CEEAE93EE9FC17BEEB1B8A3F56C5983E3B
:101C500048062FBF9D54B43D14F3703D7E02703E84
:101C60004F79833E753E543E401EACBFC9D7A6BFD8
:101C7000A609AEBDCD09B7BF6B2015BF2D2E9D3E69
:101C8000204623F0B9FF86A3D3E9002304460D467E
:101C900024F082FA002840F02585504623F0ACFF5E
:101CA00081A3D3E9002324F077FA70B1306AA84900
:101CB00024F01EFC30B1B06B23F09EFF7CA3D3E96F
:101CC000002389E14046A349B9E13846A24924F0FE
:101CD0000FFC28B12046294677A3D3E900237BE1F6
:101CE00058469E49ABE1F768384623F085FF74A358
:101CF000D3E9002304460D4624F04EFAD8B1B06B68
:101D000023F07AFF70A3D3E9002324F045FA0028DA
:101D100040F0E483DDE904016DA3D3E9002324F05E
:101D20003BFA002800F0DE84484623F065FF6AA3F2
:101D3000D3E90023F8E22046294669A3D3E900232A
:101D400024F02AFA28B3746A204623F055FF66A3CC
:101D5000D3E9002324F020FA48B1B06B804924F085
:101D6000C7FB002800F0BE8420467E4967E1706B07
:101D700023F042FF5EA3D3E9002324F00DFA0028EC
:101D800000F0AC83B06923F037FF5BA3D3E90023F5
:101D900022E15046744924F0ABFB002840F0A284B5
:101DA000DDE9000156A3D3E9002324F0F5F900286A
:101DB00000F0988438466D49FAE02046294652A33F
:101DC000D3E9002324F0E8F9002800F08B8448468A
:101DD000674924F08DFB002836D0706B654924F0EC
:101DE00087FBC0B1F06923F007FF49A3D3E90023C3
:101DF00024F0D2F9002800F07183504623F0FCFE55
:101E000045A3D3E9002324F0C7F9002840F06A84F1
:101E10007069594913E1306B23F0EEFE40A3D3E91A
:101E2000002324F0B9F910B1B0695449C0E0DDE9EC
:101E300000013DA3D3E9002324F0AEF9002800F00F
:101E40005184706A4E49B3E0776B384623F0D4FE74
:101E500037A3D3E9002304460D4624F09DF900285A
:101E600000F09480504623F0C7FE33A3D3E900234B
:101E700024F092F910B170694249E0E02046294609
:101E80002FA3D3E9002324F087F928B1DDE9040169
:101E90002DA3D3E900239FE0306A3B49CFE000BF88
:101EA0000000003076A6E1BF0000005071EBEDBFEE
:101EB00000000070E68BC9BF000000503E8BC53F9C
:101EC000000000B070B3F9BF00000050B5FDD7BFEF
:101ED000000000B06DAFF9BF000000180D8BBD3FD2
:101EE000000000B02462E5BF00000070BB41C9BF24
:101EF0000000003085FFDDBF00000034CDB4B2BF6C
:101F000000000010E93C913F00000050A275FE3F28
:101F1000000000B0C967D03F000000107396F5BF05
:101F2000000000D03EB6D5BF00000048ABD1F1BFE5
:101F3000000000B00BE9B23F00000010E165F4BF03
:101F400000000050305DB9BF000000309729E7BFA6
:101F50008567BA3ED86085BF7F1CE2BE8E66713F42
:101F6000A0B3003E4A14A4BEEE2F9EBF327B15BF25
:101F70009B1BDBBDB78CEDBD04B395BEBC5487BEC7
:101F80007623C63D5ADA97BE66CA113F706AB649D3
:101F900024F0AEFA78B1484623F02EFE8CA3D3E9A4
:101FA000002324F0F9F8002800F09C83AF4938465C
:101FB00024F09EFABAE1706923F01EFE86A3D3E9ED
:101FC000002324F0E9F8002800F08C83F06823F067
:101FD00013FE83A3D3E9002324F0DEF831E0746A12
:101FE000204623F009FE80A3D3E90023CDE90601B2
:101FF00024F0D2F8002800F07D81F5689C4928463D
:1020000024F076FA002832D050469A4924F070FA2B
:10201000002840F00F83DDE9040175A3D3E9002314
:1020200024F0BAF8002858D0504623F0E5FD72A3FA
:10203000D3E9002324F0B0F838B1B0698E4924F018
:1020400057FA002840F04A824CE3306A23F0D4FD6E
:102050006BA3D3E9002324F09FF8002840F0B2815D
:10206000F06923F0C9FD68A3D3E90023EDE2776BA3
:102070008249384624F03CFA002800F08480B56993
:10208000284623F0B9FD62A3D3E9002324F084F8A5
:1020900000284CD140467A4924F02AFA00286FD013
:1020A000306B23F0A9FD5CA3D3E9002304460D4661
:1020B00024F072F8002800F085812046294658A3B4
:1020C000D3E9002324F068F8002840F07B819DF8D4
:1020D000323001338DF8323037E32846694924F035
:1020E00007FA90B1B06823F087FD4FA3D3E900232E
:1020F00024F052F810B128466349CFE1306A23F04A
:102100007BFD4BA3D3E900239FE270695F4924F074
:10211000EFF930B1306B23F06FFD47A3D3E9002313
:1021200093E2DDE9000146A3D3E900237BE1F06AF5
:1021300023F062FD44A3D3E9002324F02DF848B135
:10214000B068534924F0D4F9002840F0738228463F
:10215000504932E12046504924F0CAF940B1306A72
:1021600023F04AFD3AA3D3E9002324F015F803E055
:10217000F0694A4924F0BCF9002840F0238159E273
:1021800070694749A7E0306A23F036FD32A3D3E9EE
:10219000002304460D4623F0FFFF002800F0868050
:1021A000F069404924F0A4F9002840F043825046E9
:1021B0003D4924F09DF9002840F03C82384623F048
:1021C0001BFD27A3D3E900237CE700BFAFF300800A
:1021D00000000050388DB4BF00000070AA55C6BF83
:1021E000000000B0DBE6E33F000000B0B7F2C43F00
:1021F00000000070B637C1BF0000004B67F2E33F3C
:10220000000000F060FFC4BF00000050F515C03FA3
:10221000000000706B36E43F00000030EC6C773F4C
:1022200000000070480394BF000000907866E4BF8F
:102230000000001073B8E63F000000908A128E3F45
:10224000000000F057ACDFBF000000D0AA37D03F3D
:102250000000005070C0C83F000000B0EA24CCBFAE
:10226000000000B035ADE03F24643BBC8B11D43D91
:102270000E0527BE376428BF864E183E154F7F3D9A
:10228000C2046F3EE85DB7BE2C6855BF61DB013EFE
:102290009A8009BDBB7C113EA7C9973DC3B77E3E5E
:1022A000AF68673F32ED1EBF256824BFDDE904013A
:1022B00091A3D3E9002323F06FFF80B1B06823F02E
:1022C0009BFC8FA3D3E9002323F066FF002840F096
:1022D000B181F069B04924F00BF9FFF7E2BB204669
:1022E000294689A3D3E9002323F056FF002840F0B4
:1022F000A181ECE6504623F07FFC85A3D3E90023BF
:1023000004460D4623F048FF002830D0DDE90001E7
:1023100081A3D3E9002323F03FFF58B1F06A23F0F3
:102320006BFC7FA3D3E9002323F036FF002800F0E5
:10233000D580D7E1F06823F05FFC7BA3D3E90023CD
:1023400023F02AFF002800F07581B069934924F03A
:10235000CFF8002840F0C681DDE9040174A3D3E979
:10236000002323F019FF002840F0B88062E1DDE986
:10237000000171A3D3E9002323F00EFF002867D0EA
:10238000204629466EA3D3E9002323F005FF002849
:1023900037D0306A23F030FC6BA3D3E9002323F05D
:1023A000FBFEE0B1484623F027FC69A3D3E90023F4
:1023B00023F0F2FE60B1F068794924F099F8002822
:1023C0007FF485AE9DF8303001338DF83030BCE1BC
:1023D000B06823F011FC60A3D3E9002323E0B069C7
:1023E000704924F085F800283FF471AEDDE906015C
:1023F0005BA3D3E9002323F0CFFE002840F09881AF
:10240000E0E7306A684924F073F878B140466749DC
:1024100024F06EF8002800F08B81B06823F0ECFB0C
:1024200051A3D3E9002323F0B7FE32E050466049C0
:1024300024F05EF800283FF44AAEDDE904014CA325
:10244000D3E9002323F0A8FE00287FF440AE6FE11B
:10245000B468204623F0D0FB47A3D3E9002323F040
:102460009BFE10B14046534911E0B069524924F037
:102470003FF888B1706923F0BFFB41A3D3E9002383
:1024800023F08AFE002800F05381306A4B4924F083
:102490002FF8002896D14BE14949204624F028F82E
:1024A000D5E0376B384623F0A7FB37A3D3E90023E9
:1024B00023F072FE002800F0E380706823F09CFB9C
:1024C00033A3D3E9002304460D4623F065FE00281C
:1024D0007CD038463B4924F00BF828B19DF83430C5
:1024E00001338DF8343030E10298374924F000F898
:1024F000002840F01D81F5E000000050B56DF73F69
:10250000000000D0AB27F2BF000000D01941E73F28
:10251000000000F0EB45C0BF000000507634F8BF6B
:102520000000886DB4CCC1BF000000B0A6F2E7BFC8
:10253000000000DF5484E53F000000B0356FE33F4A
:1025400000000090098C0140000000901801CB3F72
:10255000000000703295DCBF00000070BAEFF33F5E
:1025600000000030B9CCD43F000000D0B228BFBF7B
:10257000000000D023C4F33F000000F0205CF0BF57
:1025800000000030C48BD33F000000F01607D53F99
:10259000000000E8EC91C23FEFA0153F33C395BEA9
:1025A000918F3A3FE0D25A3FC67AB83DF8F3933F55
:1025B000012A3E401D3E973E3FC3FD3E215280BE54
:1025C000123D30BE856091BE25CE863FF069A4499C
:1025D00023F08EFF00283DD02046294682A3D3E970
:1025E000002323F0D9FD78B12046294680A3D3E902
:1025F000002323F0D1FD00283FF469ADB06A99496A
:1026000023F076FFFFF71BBAB06B23F0F5FA7AA33D
:10261000D3E9002304460D4623F0BEFD00283FF415
:1026200056AD504623F0E8FA75A3D3E9002323F012
:10263000B3FD28B19DF8353001338DF8353084E095
:102640002046294670A3D3E9002323F0A5FD0028E6
:102650006ED13CE5B06B844923F04AFF0028E9D1F4
:10266000B06A824923F044FF0028E3D0DDE900018D
:1026700067A3D3E9002323F08FFD0028DAD157E0C8
:10268000B06A23F0B9FA64A3D3E9002323F084FDF0
:10269000002836D0F06923F0AFFA61A3D3E9002314
:1026A00023F07AFD78B10298714923F021FF0028C8
:1026B0007FF40DADB06B23F09FFA5BA3D3E9002349
:1026C00023F06AFD0CE0306A23F096FA58A3D3E9B0
:1026D000002323F061FD58B95046664923F008FFF6
:1026E0000028A7D19DF8333001338DF833302CE02A
:1026F0007069614923F0FCFE00289BD070685F4937
:102700001EE0746A5E49204623F0F2FEB0B1F06A22
:1027100023F072FA48A3D3E9002323F03DFD0028FB
:102720007FF4D5AC706B574923F0E2FE002881D0CE
:102730009DF8313001338DF8313006E052492046A2
:1027400023F0D6FE0028CDD174E7D6F804B04F4967
:10275000584623F0CDFED6F81480B76A002800F062
:10276000BC8338464A4923F0C3FE002800F0F180BC
:10277000B06823F041FA32A3D3E9002304460D46A2
:1027800023F00AFD002800F08B805046414923F0D9
:10279000AFFEC0B1706B23F02FFA2BA3D3E9002357
:1027A00023F0FAFC002840F0A784404623F024FAE6
:1027B00027A3D3E9002323F0EFFC002801F0738066
:1027C0005846354986E3404623F016FA22A3D3E95A
:1027D000002323F0E1FC002800F08E8458462F49A6
:1027E00070E300BFAFF30080000000709170EA3F1B
:1027F00000000050C3F1E13F000000B090CDE13F88
:1028000000000088D701F23F000000282131D0BF2E
:1028100000000050BF33F13F0000007059ABA6BF6D
:10282000000000902CDFDCBF000000F80904C13F6D
:10283000000000D01BA8E43F00000018B428D6BF59
:102840000000003050FBE2BF000000706D0CC7BFFD
:1028500000000034F03CD3BF000000D8A050E0BF1F
:10286000F3F6FF3DECAEE4BE5689363D2E07C4BEFE
:102870000B77953FFB8A6FBFC131943F19CBD73F90
:10288000E48C7B3FB697E7BE403DE33F7C28CDBE5E
:10289000D712B4BEA06774BFE6C6CDBF0DA1F3BF0B
:1028A000DDE9000182A3D3E9002323F075FCF0B138
:1028B000504623F0A1F980A3D3E9002323F06CFC58
:1028C000002800F019843846934923F011FE0028AF
:1028D00000F01284F06923F08FF979A3D3E9002383
:1028E00023F05AFC002840F0078400F0DCBF50467B
:1028F0008A4923F0FDFD10B34046894923F0F8FDD5
:10290000D0B15046874923F0F3FD002840F0CB8733
:10291000F069854923F0ECFD002840F0ED83204666
:10292000294669A3D3E9002323F036FC002800F0F0
:10293000BA87306A7D49C5E202987D49CAE25046AD
:102940007C4923F0D5FD002800F0AD87B06B7A49B3
:10295000C0E2F06A23F050F95DA3D3E900230446F6
:102960000D4623F019FC002800F0DD81504623F0CD
:1029700043F959A3D3E90023CDE9040123F00CFC6A
:10298000002800F0FB8040466C4923F0B1FD58B3AD
:10299000DDE9000152A3D3E9002323F0FDFBC0B120
:1029A000706A23F029F950A3D3E9002323F0F4FB44
:1029B000002840F0A183B06B23F01EF94CA3D3E9AB
:1029C000002323F0E9FB002840F0968338465C4959
:1029D00080E2B46B5B49204623F08AFD002800F0BA
:1029E0006287204658496DE25046584923F080FDE1
:1029F00018B32046294640A3D3E9002323F0CCFB9B
:102A0000002800F07983346A5149204623F070FD94
:102A100048B120464F4923F06BFD002840F0438722
:102A2000F0694D494EE2B0684C4923F061FD002841
:102A300000F0398740464A494CE23846494923F07C
:102A400057FDB8B1F06923F0D7F82DA3D3E90023DF
:102A500023F0A2FB002840F04F83DDE900012AA308
:102A6000D3E9002323F098FB002800F01C87706A4C
:102A70003D492FE2306A3D4923F03AFD70B1B46917
:102A8000204623F0B9F822A3D3E9002323F084FBE6
:102A9000002840F031832046354913E2B0693549BA
:102AA00023F026FD002840F027835046324911E2EA
:102AB00000000030D76FF3BF000000F85015F0BFE2
:102AC00000000030C716CDBF000000B0897FDD3F99
:102AD000000000500D31D33F000000300D9BF3BFCC
:102AE000000000B044BED5BF000000384E0FBF3F0D
:102AF000000000F8195AC0BF000000F0A2F5D13F55
:102B000000000050F6DDD0BF000000305D91F5BF41
:102B1000000000106AC1D6BF4619D1BEA85631BF09
:102B20004E93C03F4E3299BF448E1FBF66A45ABE1B
:102B3000283F6ABD53D021BF75AC763F281ED1BE59
:102B4000A43565BE222439BD34BADDBEF86FA5BFF9
:102B500027B6183F89A3BB3EC547CE3B595E2A3FE7
:102B600082BFDB3E720B56BEB9EC39BE640E703EBE
:102B70005849BD3E6793CEBD9D1FA2BFDDE9000150
:102B800087A3D3E9002323F007FB002800F0B580DA
:102B9000B068AB4923F0ACFC00285CD0306B23F06C
:102BA0002BF881A3D3E9002304460D4623F0F4FA61
:102BB00058B3F06923F020F87DA3D3E9002323F074
:102BC000EBFA60B1B0699F4923F092FC002840F015
:102BD00093822046294678A3D3E900238AE0306A0D
:102BE00023F00AF876A3D3E9002323F0D5FA28B11D
:102BF000DDE9040174A3D3E900236CE2404622F02E
:102C0000FBFF73A3D3E9002374E0DDE9000172A3A5
:102C1000D3E9002323F0C0FA98B1DDE9040170A3E1
:102C2000D3E9002323F0B8FA30B1404622F0E4FFA4
:102C30006DA3D3E9002353E65046834923F058FCA3
:102C4000A6E05846814923F053FC002840F0548206
:102C5000F0687F493EE1746B204622F0CDFF64A30B
:102C6000D3E9002323F098FA80B35846794923F03A
:102C70003FFCB0B1404622F0BFFF5FA3D3E9002381
:102C800023F08AFA30B1B06922F0B6FF5CA3D3E931
:102C900000232FE0384622F0AFFF5BA3D3E90023E7
:102CA0001EE602986C4923F023FC30B1B06B22F091
:102CB000A3FF57A3D3E9002312E62046674923F078
:102CC00017FC002840F0498600F0EDBDF06964492A
:102CD00023F00EFC002800F0E6850298614923F0FD
:102CE00007FC002800F0DF85306B22F085FF4AA347
:102CF000D3E9002323F050FAE6E0F06822F07CFFED
:102D000047A3D3E9002323F047FA48B1B0695649F5
:102D100023F0EEFB002800F0C685706B5349D9E024
:102D2000F0695349CEE0F06822F066FF3EA3D3E994
:102D3000002304460D4623F02FFA002800F0C88037
:102D4000B0684C4923F0D4FB002800F0AC8538462D
:102D500022F052FF36A3D3E9002323F01DFA002806
:102D600000F08E80B06B444923F0C2FB002800F0D5
:102D7000F485306B414923F0BBFB002840F0BC8157
:102D8000584622F039FF2CA3D3E9002323F004FA9C
:102D9000002840F0B18100F0E0BD00BFAFF300803B
:102DA00000000030944DE33F000000F032B0C0BF9F
:102DB000000000309B2AB93F00000050147DD3BFB3
:102DC000000000D0238FD13F000000781072E83F50
:102DD00000000070DCA9DBBF000000F021D1C63F7D
:102DE000000000D0E613F0BF00000070FEBBCD3F36
:102DF0000000003052D3C73F00000030A929A2BF15
:102E0000000000303ABFE2BF00000050F7E4E13FAD
:102E1000000000104C07C63F000000984DC1D3BF12
:102E2000000000E8D5D1F1BF000000D80C77F03FDA
:102E300000000070AE40D23F000000103D8BEABFA2
:102E400069BEBE3EF311813E51F7503FDCC003C066
:102E5000B9B5AA3D6A18A2BF8791D8BE4A53B6BE7B
:102E60002B95213E1B555DBF4FB4CE3E7086F8BCFE
:102E700068962F3FC1B5F23F13D6243FDF40233F72
:102E8000706A22F0B9FEA0A3D3E9002323F084F9ED
:102E9000002800F03181504622F0AEFE9CA3D3E919
:102EA000002323F079F9002840F0268120462946A6
:102EB00099A3D3E9002323F06FF9002800F01C81C7
:102EC000B549584623F014FB002840F0EC8413E188
:102ED000706AB24923F00CFB04E5504622F08CFEE8
:102EE0008FA3D3E90023CDE9040123F055F9D6F8E7
:102EF0001890002800F0B0804846A94923F0F8FA5D
:102F0000002834D04046A74923F0F2FA30B13846C1
:102F100022F072FE84A3D3E9002340E0404622F071
:102F20006BFE83A3D3E9002323F036F9A8B15846FA
:102F30009D4923F0DDFA10B138469C4985E0B06B1D
:102F400022F05AFE7CA3D3E9002323F025F90028C0
:102F500040F0D8845846964977E0B068954923F008
:102F6000C7FA002840F0CE84F06993496DE05046DE
:102F7000924923F0BDFA00283CD05846904923F0EE
:102F8000B7FA002840F08F8450468E4923F0B0FAFB
:102F900040B1384622F030FE69A3D3E9002323F084
:102FA000FBF854E0B06822F027FE67A3D3E90023C2
:102FB00023F0F2F8D8B1484622F01EFE64A3D3E90C
:102FC000002323F0E9F8002800F09C84306A22F006
:102FD00013FE61A3D3E9002323F0DEF8002840F0BC
:102FE00091845846784923F083FA00F089BC706ACE
:102FF00076492AE0384622F0FFFD59A3D3E90023A1
:1030000023F0CAF8002840F04E845046704923F05F
:103010006FFAC0B1F06822F0EFFD53A3D3E90023AB
:1030200023F0BAF8002800F03E84484622F0E4FD80
:103030004FA3D3E9002323F0AFF8002840F06284C7
:103040004846644901E06449384623F051FA0028B3
:1030500040F0298400F056BCDDE9000146A3D3E925
:10306000002323F099F8B568F468002800F0E8829E
:1030700050465A4923F03CFA002800F0AD815846EA
:10308000574923F035FA002800F0FD8020465549C5
:1030900023F02EFA002800F0BF80756B52492846B5
:1030A00023F026FA002800F0A38058464F4923F069
:1030B0001FFAB8B1284622F09FFD31A3D3E90023BF
:1030C00023F06AF8002840F04884F06922F094FD6B
:1030D0002DA3D3E9002323F05FF8002840F0E38319
:1030E00000F03BBCDDE9040129A3D3E9002323F070
:1030F00053F8002800F0F0809DF8343001338DF84B
:10310000343000F043BC00BF000000301E64D33FE9
:10311000000000902F2AE8BF000000D087F4E1BF34
:10312000000000F0F13ADCBF000000D02D58D2BF03
:10313000000000302BD4A0BF000000901389D63FC0
:10314000000000D0E0D2EABF00000010ACA0FB3FBE
:10315000000000F02124CDBF00000090F9B9CEBFDF
:1031600000000090D5FDE5BF000000F0AF2799BF3B
:10317000000000D0C85DF43F000000500CF9DA3FB9
:1031800000000098A089BABF00000050FAAFDF3FEE
:10319000000080F3DBF1DB3F76B873BFD1CA663E37
:1031A0009BF8C3BEEBF51EBFE501483FD529B53DF1
:1031B000102E963F85E1B13D06883D3FC62F03C0E6
:1031C000FC6FC73E3C2417C045C4883F8839DE3CAD
:1031D000452E24BF6885AC3F0483F23ED81A1240C6
:1031E00035C4DB3DE566EBBE54ECC33EA03107BE03
:1031F0002046A34923F07CF9002800F0AE83404626
:10320000A04923F075F900283FF476AF9DF83230DD
:1032100001338DF83230B9E3F06A22F0EDFC7CA383
:10322000D3E9002322F0B8FFA0B1706B22F0E4FCD8
:1032300079A3D3E9002322F0AFFF002840F08D836B
:103240005046914923F054F9002840F086832846DF
:103250008E499DE0706A8E4923F04AF9002841D0DA
:10326000384622F0C9FC6EA3D3E9002322F094FF74
:1032700010B1F06987496BE3B06B22F0BDFC6AA323
:10328000D3E90023FAE2384622F0B6FC68A3D3E97A
:103290000023CDE9040122F07FFF00285AD0DDE9A8
:1032A000040165A3D3E9002322F076FF002835D07E
:1032B0004046794923F01CF908BB706A22F09CFC57
:1032C0005FA3D3E9002322F067FF28B97349504672
:1032D00023F00EF9002899D19DF8313001338DF893
:1032E000313053E350466E4923F002F9002840F094
:1032F0003483DDE9040154A3D3E900237FE0F069BE
:10330000684923F0F5F810B14846674997E25846F6
:1033100022F072FC4EA3D3E90023AFE24846634992
:1033200023F0E6F860B1F069614923F0E1F820B1DB
:10333000706A604923F0DCF863E020465E49F9E7F3
:1033400028465E4923F0D4F800287FF45FAF384662
:103350005B49BDE7484622F04FFC3FA3D3E9002379
:1033600022F01AFF18B3284622F046FC3CA3D3E90A
:10337000002322F011FF88B1584622F03DFC3AA309
:10338000D3E9002322F008FF0028A5D0306A4D4978
:1033900023F0AEF8002840F0E08237E758464A496B
:1033A00023F0A6F8002897D048464849C2E72046AF
:1033B000474923F09DF800288ED1706A454923F0D3
:1033C00097F810B140464449C2E2B06B22F014FCB9
:1033D00027A3D3E900231BE22846404923F088F8BD
:1033E000002800F09F8020463D4923F081F8002806
:1033F00078D0404622F000FC1FA3D3E9002322F03E
:10340000CBFE00287FF468AFA7E200BFAFF30080D7
:10341000000000D087CFD0BF00000050C986C8BFD1
:10342000000000D0114BCB3F000000D87F97C7BFF2
:10343000000000F0F96FCCBF000000305F16DDBF68
:1034400000000030D680C1BF00000090FF7DFD3F2E
:10345000000000C82828E43F0000005070D0E23F80
:1034600000000090D742C63F00000030ED34F03F2E
:1034700000000010C523B5BF0000009AF003D2BFC2
:10348000003515BF0BA2163E5373B63F871BE8BE2F
:10349000FC9D75BEB717E53D0ABF0E3E45ACF13F3A
:1034A0008B1AEB3FC0C98A3E51F2913E6950243FCE
:1034B000C068C8BA8C80593E94D0DCBEDCAD13BD68
:1034C000AB2EADBE73BA043F09F49B3E08723EBDFD
:1034D000F7FCC1BE9B42183E4D9CE53E376C2FBFAA
:1034E0001E9C9FBD4046B64923F002F800287FF499
:1034F0008DAE484622F080FB8BA3D3E9002322F057
:103500004BFE002840F02982706BAE4922F0F0FF9C
:10351000002840F02282F06A22F06EFB84A3D3E9F7
:10352000002347E0706B22F067FB83A3D3E90023FD
:10353000CDE9040122F030FE00283ED0204622F0E2
:103540005BFB7FA3D3E90023CDE9040122F024FE35
:10355000C8B1384622F050FB7BA3D3E9002322F008
:103560001BFE00287FF452AEDDE9000178A3D3E909
:10357000002322F011FE00283FF4AEAE58469249D7
:1035800022F0B6FF7CE1484622F036FB72A3D3E975
:10359000002322F001FE00283FF438AE28468B4974
:1035A00022F0A6FF00283FF497AEDDE904016CA3EA
:1035B000D3E9002322F0F0FDCCE12046844922F03B
:1035C00097FFE8B1404622F017FB67A3D3E9002339
:1035D00004460D4622F0E0FD00283FF47DAEF06A7F
:1035E00022F00AFB62A3D3E9002322F0D5FD0028D4
:1035F0003FF472AE204629465FA3D3E90023BFE122
:103600002046744922F074FF60B15846724922F096
:103610006FFF00283FF4FAADDDE9040158A3D3E9B8
:103620000023F5E0484622F0E7FA57A3D3E9002348
:1036300022F0B2FD002840F09081306A6749A7E689
:10364000736B1846049322F0D7FA51A3D3E90023F1
:1036500022F0A2FD002800F0DE802046604922F022
:1036600047FFF0B1306B5F4922F042FF002800F0C5
:103670001A81B06B5C4922F03BFF30B1584622F012
:10368000BBFA45A3D3E90023F8E0584622F0B4FA88
:1036900043A3D3E9002322F07FFD002840F05D81A1
:1036A00030E15046514922F023FFF8B102985049C9
:1036B00022F01EFF00283FF4A9AD48464D4922F0F4
:1036C00017FF002840F04981706A22F095FA36A36E
:1036D000D3E9002322F060FD00287FF4FDAD5846B9
:1036E00022F08AFA32A3D3E90023C7E0B06B424943
:1036F00022F0FEFE002800F0858004983F4922F069
:10370000F7FE00287FF4E8AD20463D4922F0F0FEA8
:1037100000283FF47BAD706A22F06EFA26A3D3E94D
:10372000002322F039FDD5E5000000D8BCA8A9BFD0
:103730000000005CE1B2C2BF000000F0D4F5D4BFCD
:10374000000000783DD6D03F000000C8F0D6D0BFC2
:1037500000000070F407AABF00000014E3B7D43FD4
:10376000000000F09EA9E63F000000903182CF3FAC
:10377000000000886B27D3BF000000D00A2CB43FA4
:1037800000000050C09B723F00000098DE7CB13FFB
:10379000000000305AEDBEBF000000989DFBBBBF8B
:1037A0000000009EE988FB3F000000683F19C0BF91
:1037B00000000030EED6D13F000000B8350BBD3F11
:1037C000F6103BBF899C0EBEA7452B3F42CAAD3EBB
:1037D000BE8CB4BE0397883F9FDB983E2A2B2ABE3F
:1037E000B4D4E2BE4870273FA1F7993E632104405C
:1037F000BAE62D3F7063BABEFAAA1C3E0787FFBE29
:10380000A6D5DE3D484622F0F7F997A3D3E9002379
:1038100022F0C2FCBEE52846B34922F069FE00282A
:1038200031D04046B14922F063FE58B12846B04934
:1038300022F05EFE00287FF4E9ACF069AD4922F089
:1038400057FE9FE0F069AC4922F052FE00287FF459
:10385000DDAC0298A94922F04BFE10B13846A849C8
:1038600076E02046A74922F043FE00283FF4CEAC84
:10387000484622F0C1F97EA3D3E9002322F08CFC54
:1038800000286AD128E5F06A22F0B6F97AA3D3E9D4
:10389000002322F081FC60B1306B9B4922F028FEAE
:1038A00000287FF4B3AC9DF8333001338DF833300A
:1038B0006CE02046954922F01BFE002836D0504689
:1038C000934922F015FE18B3284622F095F96CA30F
:1038D000D3E9002322F060FC50B1204622F08CF99D
:1038E00069A3D3E9002322F057FC0028DBD1F3E4DD
:1038F000404622F081F966A3D3E9002322F04CFC74
:103900000028D0D09DF8353001338DF835303DE0BA
:10391000306B804922F0ECFD00287FF4DDAC2046BE
:1039200022F06AF95CA3D3E9002329E0584622F08B
:1039300063F95BA3D3E9002322F02EFC98B1B06BAE
:10394000754922F0D5FD00283FF460AC706A7349D8
:1039500022F0CEFD00287FF459AC9DF830300133C1
:103960008DF8303012E050466D4922F0C1FD00283C
:103970003FF44CAC204622F03FF94BA3D3E900239F
:1039800022F00AFC00287FF4A7AC3FE4F26910465D
:10399000069222F031F946A3D3E90023CDE90401D0
:1039A00022F0FAFB002801F0DE80504622F024F9D4
:1039B00041A3D3E900238046894622F0EDFB00288D
:1039C00000F0B483F468204622F016F93CA3D3E952
:1039D000002322F0E1FB002800F0528106985149B3
:1039E00022F086FD002800F0B38058464E4922F0B0
:1039F0007FFD002800F09E80584622F0FDF832A39B
:103A0000D3E9002322F0C8FBF8B1B069474922F09E
:103A10006FFD002840F0E685706A22F0EDF82CA3D7
:103A2000D3E9002322F0B8FB002840F0DB85F06AE0
:103A300022F0E2F828A3D3E9002322F0ADFB00280E
:103A400000F0C98606983A4909E1B06822F0D4F836
:103A500023A3D3E9002322F09FFB002800F0BB86BC
:103A600000F0BFBEAFF30080000000D3AE338CBFC8
:103A7000000000501E2AE7BF000000902B51E6BF57
:103A8000000000707963F93F000000900C2EFBBF2E
:103A9000000000587336E4BF00000070F47BF1BFF3
:103AA000000000D0F2E1B4BF00000070E6E8C43FBF
:103AB00000000030364DE43F000000106D1BE53F74
:103AC000000000B8A307B03F000000B0C40BF3BF74
:103AD000000000487A34C0BF000000D03C58BCBF92
:103AE0000000005251DCE2BFF31271BFFAD025BFD3
:103AF000B2D987BFD7C732BE43F1BFBE2FF7383F19
:103B0000A6DEDCBE3040543D936A1E3F2917C0BE7E
:103B100088B22340DD232C3EAC808D3E7E7BBBBD36
:103B200094AAF23FA3DEDFBED6F2273FD5DCEB3E00
:103B3000A8B708BFB06822F05FF88DA3D3E90023CF
:103B400022F02AFB002840F04C867069B04921E041
:103B50005046B04922F0CCFCF8B1B06A22F04CF8E3
:103B600085A3D3E9002322F017FB30B1306B22F09C
:103B700043F883A3D3E900236DE7706A22F03CF891
:103B800081A3D3E9002322F007FB002800F0298657
:103B9000A149504622F0ACFC5FE774699F4920467A
:103BA00022F0A6FCF0B1706A9D4922F0A1FC002829
:103BB00000F01786B06822F01FF875A3D3E9002340
:103BC00022F0EAFA58B1306B964922F091FC0028B5
:103BD00040F00885306A944922F08AFCA8E120462A
:103BE0009249D7E7B068924922F082FC68B3B46981
:103BF0009049204622F07CFCA0B1706B8E4922F0E7
:103C000077FC10B1B06A8D4929E0B06A21F0F4FF69
:103C100061A3D3E9002322F0BFFA002840F0DB853E
:103C200000F0E0BC204621F0E7FF5DA3D3E90023CC
:103C300022F0B2FA002800F0CE85706B21F0DCFF94
:103C400059A3D3E9002300F0C8BCDDE9000158A363
:103C5000D3E9002322F0A0FA20B1B06A784922F01B
:103C600047FCDAE7306A774922F042FC002800F08E
:103C7000B2854046494650A3D3E9002300F0ADBCCD
:103C8000DDE900014EA3D3E9002322F085FA0028E4
:103C900000F08E81B06821F0AFFF4BA3D3E9002381
:103CA00022F07AFA002800F0F680746B204621F0AA
:103CB000A3FF47A3D3E90023CDE9080122F06CFA62
:103CC00000282FD05046604922F012FC002840F016
:103CD0008885F06A5D4922F00BFC80B1DDE90001C6
:103CE0003DA3D3E9002322F057FA10B1306A5849B6
:103CF000B5E7404649463AA3D3E900238BE750464F
:103D0000544922F0F5FB30B1584621F075FF36A337
:103D1000D3E9002394E1DDE9080135A3D3E90023C9
:103D200000F05BBC306A21F067FF33A3D3E90023C6
:103D300022F032FA002800F091804046494630A334
:103D4000D3E9002322F028FA002840F04A85B06B1E
:103D5000414922F0CDFB002840F03D85F06A21F07A
:103D60004BFF29A3D3E9002355E700BFAFF3008041
:103D700000000010ACA0FB3F000000B02E14E8BF14
:103D8000000000F86CB8E1BF00000010A5D2D3BF5E
:103D900000000030644AFF3F000000305A96E2BF46
:103DA000000000708D5DEB3F00000030E2B6A93FDF
:103DB0000000005034B4E23F000000584BF2D0BF86
:103DC000000000302062E83F00000090AC2FB7BF39
:103DD000000000902300B7BF00000010AF4ED6BF18
:103DE000000000B0F63AF5BF000000481582F73F2A
:103DF000000000F0E047CCBF000000F00BF1BBBFBB
:103E000000000068521201C0000000081015B3BF86
:103E10008ECBC9BEAD08D3BF020B0EC0476280BEB9
:103E20004C169D3FA121373F721DE4BD943609BF5A
:103E30000E58B43F32D23D3E31CF22BDE9C363BEFE
:103E4000CB70FA3E4C3E01BF15592DC018BD0FBEB8
:103E5000B4B0E63E583AB4BF79A0603EB06AA64915
:103E600022F046FB28B14046494677A3D3E9002318
:103E7000F1E52046A14922F03BFB28B140464946E6
:103E800073A3D3E9002351E0B06B21F0B5FE72A318
:103E9000D3E90023A1E3B069994922F029FB30B3AB
:103EA000706921F0A9FE6EA3D3E9002322F074F912
:103EB000002840F09684306A924922F019FB10B134
:103EC000306B9149CBE6746B9049204622F010FB91
:103ED00030B1204621F090FE63A3D3E900239AE697
:103EE000B06A21F089FE62A3D3E9002393E650462D
:103EF000874922F0FDFA00282FD0DDE904015EA3F6
:103F0000D3E9002322F048F9B0B12046814922F0DC
:103F1000EFFA30B1F06A21F06FFE59A3D3E9002324
:103F200079E64046494658A3D3E9002322F034F904
:103F3000002840F0568455E34046494654A3D3E94F
:103F4000002322F029F9002840F04B84B06A21F0C8
:103F500053FE51A3D3E900235DE606986E4922F093
:103F6000C7FA88B1706921F047FE4DA3D3E9002359
:103F700022F012F9002800F02E84706B21F03CFE34
:103F800049A3D3E9002328E3584621F035FE48A38E
:103F9000D3E9002322F000F928B1DDE9040146A3AA
:103FA000D3E9002319E3706A5C4922F0A1FA16E311
:103FB00002985B4922F09CFAE8B1B069594922F0B5
:103FC00097FA30B1584621F017FE3DA3D3E90023FC
:103FD00036E0584621F010FE3BA3D3E9002322F03F
:103FE000DBF8002800F0FD83706921F005FE38A39E
:103FF000D3E900232FE550464B4922F079FAD0B19E
:104000004046494634A3D3E9002322F0C5F80028EE
:1040100040F0E783DDE9040131A3D3E9002322F076
:10402000BBF8002840F0DD83B06A21F0E5FD2EA347
:10403000D3E9002304E0404649462DA3D3E90023F9
:1040400022F0AAF8C6E300BF00000050E30403C05A
:104050000000002843E502C00000009054B1D4BF26
:10406000000000D09C05E4BF000000107BA0DFBF73
:10407000000000B01CDC8F3F000000F04C49D5BFB1
:1040800000000048DB80D33F000000084DA302C0C1
:10409000000000B0FC6003C000000030C79DE13F9D
:1040A00000000050D1E0EB3F00000090B356D03F3D
:1040B000000000702DA9FFBF000000B0245AD23FBD
:1040C000000000B054B0DC3F000000480951F03F50
:1040D0000000007C87A5D5BF000000D0345D05C07E
:1040E0000000005075B2E5BF000000706F6DDCBFCE
:1040F000000000D0EF5AE4BF0F07C9BE492FCF3EE2
:10410000386CECBE81A326BF29338F3DDD7DE4BE34
:10411000F623A6BFAF15053F307D22BDBB5517BFA7
:1041200070D0693FD29E0EBF9372F2BF404649469F
:1041300075A3D3E9002322F02FF8002800F057835D
:10414000746A9B49204622F0D3F9002800F0DC81F4
:10415000B06921F051FD6EA3D3E90023CDE9080138
:1041600022F01AF8002800F03B812046914922F005
:10417000BFF9002863D0DDE9080167A3D3E9002374
:1041800022F00AF870B3F06821F036FD64A3D3E999
:10419000002304460D4621F0FFFF68B158468649CA
:1041A00022F0A6F9002840F0EA81306B21F024FDCE
:1041B0005DA3D3E90023D8E2706B21F01DFD5CA361
:1041C000D3E9002321F0E8FF30B1F06A21F014FDBB
:1041D00059A3D3E90023EDE22046294658A3D3E9A9
:1041E0000023C2E2B06A21F007FD57A3D3E9002300
:1041F00021F0D2FF98B1F06821F0FEFC54A3D3E97E
:10420000002321F0C9FF10B1B0686C498AE3B06B9C
:1042100021F0F2FC50A3D3E9002300F09EBC7069AA
:10422000674922F065F938B1204621F0E5FC4CA33E
:10423000D3E9002300F02CBC5846624972E3B5680C
:104240006149284622F054F958B3B06A21F0D4FCF1
:1042500045A3D3E9002321F09FFF68B1B06B5B4910
:1042600022F046F910B128465949F1E2306A59491D
:1042700022F03EF900F073BCF068574922F038F99B
:1042800040B1706921F0B8FC39A3D3E9002321F0D3
:1042900083FF49E3306A21F0AFFC37A3D3E9002361
:1042A00088E220464D4922F023F9A8B1DDE9080152
:1042B00033A3D3E9002321F06FFF30B1306A21F03E
:1042C0009BFC31A3D3E900234FE2584621F094FC34
:1042D0002FA3D3E900236DE2584621F08DFC2EA3D5
:1042E000D3E9002321F058FF30B1284621F084FCA7
:1042F0002BA3D3E900235DE2284621F07DFC2AA30D
:10430000D3E9002356E200BF000000B09F980240AE
:10431000000000D037CBD13F00000010593ACBBF8E
:104320000000000C1258B63F000000D0CBFDDB3F70
:104330000000009067DC93BF00000098BE2BB23FE6
:10434000000000F8CF2CD73F00000050EB35A4BF91
:104350000000005043E4CBBF000000D00D82CABF74
:1043600000000008AFC5D1BF00000030012AA4BF83
:10437000000000308BB8C5BF000000E88D0AE13FA7
:10438000000000F043D6C43F00000030730BE43F50
:10439000000000689755C13F000000B01689C93F72
:1043A000000000F04291E73F000000503BEFCF3F9C
:1043B0001401EB3D1F7B61BEF027443F79C52ABF46
:1043C00041939CBE36F95B3DCC1A313D836B193F5E
:1043D00004935ABFF265663E6BAC99BEBCA810BC94
:1043E000306A21F009FC88A3D3E9002321F0D4FE30
:1043F000002847D0706BB24922F07AF818B3F568FC
:10440000284621F0F9FB82A3D3E9002321F0C4FE62
:1044100068B14046494680A3D3E9002321F0BCFEA1
:1044200010B1B068A74913E20298A74910E22046EC
:10443000A64922F05DF8002800F06C82A4492846C5
:1044400022F056F826E3B46BA249204622F050F839
:1044500088B1B06A21F0D0FB71A3D3E9002321F029
:104460009BFE10B120469C49EAE7DDE900016EA3FE
:10447000D3E900239EE1B06A21F0BEFB6CA3D3E92F
:10448000002372E1DDE900016BA3D3E9002321F0F1
:1044900083FE90B1B06B21F0AFFB69A3D3E9002399
:1044A00021F07AFE30B1706921F0A6FB66A3D3E952
:1044B000002352E3B06A8949C2E7584621F09CFBC9
:1044C00063A3D3E9002321F067FE60B1F06884495B
:1044D00022F00EF8002852D1706B21F08DFB5EA304
:1044E000D3E9002339E3F06821F086FB5CA3D3E92C
:1044F000002321F051FE002800F03C81DDE9080195
:1045000059A3D3E90023C2E6356A7649284621F04B
:10451000EFFF002800F0EE800298734921F0E8FFD9
:10452000002832D0706B21F067FB51A3D3E9002340
:1045300021F032FEC0B128466C4921F0D9FF002895
:1045400040F0E881706921F057FB4BA3D3E90023C9
:1045500021F022FE002840F00D81584621F04CFB4E
:1045600047A3D3E90023F8E2B06921F045FB46A355
:10457000D3E9002321F010FE002800F0CB819DF844
:10458000313001338DF83130F5E3706921F034FBBF
:104590003FA3D3E9002321F0FFFD48B3F06A21F0E7
:1045A0002BFB3DA3D3E9002321F0F6FD78B1DDE933
:1045B00000013BA3D3E9002321F0EEFD0028DED06B
:1045C000306B21F019FB38A3D3E9002360E2B06817
:1045D00021F012FB36A3D3E9002321F0DDFD0028F2
:1045E00000F0F9809DF8343001338DF83430C2E3A7
:1045F00006983F4921F07CFF0028C0D1DDE9040185
:104600002DA3D3E90023D5E0000000B05F0EB4BFB6
:10461000000000B0D62BB7BF00000030AFF3004061
:10462000000000507AE7C73F00000050059BC93FDB
:10463000000000700B8ED1BF000000B09661F3BF88
:104640000000003874BEBC3F000000102AAB9EBFC3
:10465000000000D0E96ACB3F00000078AE03C6BF7F
:1046600000000090E193D5BF000000B0338BD23F33
:1046700000000090032BE83F000000B0FA1CEBBFE5
:1046800000000010EAA1E43F00000088F2D7C43F18
:10469000000000F0315CC83F000000905415E23F7C
:1046A00000000010A995E93F0000008899FCD4BFE4
:1046B000000000F0A795E0BF0000002809CFD03F20
:1046C00071C8973DB150E7BE3435193FBDBA01BF3F
:1046D0001E6D593F2AF97F3E6B76EC3C02A0213DCE
:1046E00036A2DCBE619DBA3D3D10133F8EED40BE4B
:1046F0004920423EDDE900018DA3D3E9002321F0EA
:104700004BFD08B32846B44921F0F2FE002854D0EE
:10471000204621F071FA88A3D3E9002321F03CFD63
:1047200070B3706B21F068FA85A3D3E9002321F000
:1047300033FD30B1B06A21F05FFA83A3D3E90023DF
:1047400018E75046A54990E0B468204621F054FA95
:104750007FA3D3E9002321F01FFD002836D0F068A5
:1047600021F04AFA7CA3D3E9002321F015FD0028AB
:104770007FF405AF9DF8323001338DF83230FAE224
:10478000F06821F039FA76A3D3E9002321F004FD83
:1047900050B1DDE9000174A3D3E9002321F0FCFC52
:1047A00000287FF41FAFEAE6584621F025FA70A3EF
:1047B000D3E9002321F0F0FC4CE07069884921F036
:1047C00097FE0028D6D1B0688649ABE020468649DE
:1047D00021F08EFE28B19DF8333001338DF833304F
:1047E000C9E29DF8353001338DF83530C3E2F06809
:1047F00021F002FA60A3D3E90023CDE9080121F0FA
:10480000CBFC002860D0706A21F0F6F95CA3D3E9F4
:10481000002304460D4621F0BFFC0028AAD1DDE9A3
:10482000000159A3D3E9002321F0B6FC00B3706B5B
:1048300021F0E2F956A3D3E9002321F0ADFC0028D2
:1048400098D0306A694921F053FE30B1B0686849A8
:1048500021F04EFE00285DD191E65846654921F0D1
:1048600047FE002886D16449504621F041FE7EE78C
:10487000F06A624921F03CFE88B1706921F0BCF910
:1048800045A3D3E9002321F087FC00283FF477AE4D
:10489000306B21F0B1F942A3D3E9002365E7B06B97
:1048A00021F0AAF940A3D3E9002321F075FC28B137
:1048B000DDE908013EA3D3E9002356E72046294657
:1048C0003DA3D3E9002350E7404649463CA3D3E942
:1048D000002321F061FC002800F0F180746B48494E
:1048E000204621F005FE002800F08E80584621F079
:1048F00083F935A3D3E9002321F04EFC00283FF4CF
:104900003EAEF06A21F078F931A3D3E9002321F01B
:1049100043FC28B19DF8303001338DF830302AE265
:10492000B06B384921F0E4FD00287FF423AF26E680
:104930000000009093C6E43F000000B06A1ED63F1E
:1049400000000050581BC33F00000024FF006DBF53
:1049500000000008DA1F0140000000F816C6DB3F27
:10496000000000A87905E0BF000000506F2EEABFEC
:1049700000000010E624F03F000000703782D4BF32
:10498000000000F07BE3E6BF000000F0ADBBEB3FB2
:10499000000000500E84DF3F000000D65134D23FAB
:1049A00000000054D010D4BF000000B811FDC23F79
:1049B000000000F02206E1BF00000008B032BCBFDA
:1049C000000000F0B386054000000088680DE13F5C
:1049D000000000D86216E0BF3697193FE79BCD3F35
:1049E000FD351A3EF0E133BC6799454011733A3FFB
:1049F000A2A160BF7E83693F49FA4A402072D4BEBB
:104A0000FA98DCBE6D57393EB06921F0F5F890A3F5
:104A1000D3E9002321F0C0FB30B32046B24921F096
:104A200067FD80B12046B14921F062FD20B15046BA
:104A3000AF4921F05DFD9FE5706A21F0DDF886A3A6
:104A4000D3E9002324E0B06821F0D6F884A3D3E9A9
:104A5000002321F0A1FB00287FF45CAF40464946CB
:104A600081A3D3E9002380E6B068A24921F040FD8C
:104A7000D0B1B06B21F0C0F87DA3D3E9002321F0C1
:104A80008BFB58B1706A21F0B7F87BA3D3E9002300
:104A900021F082FB00287FF46DAE3BE7DDE90801E1
:104AA00077A3D3E9002360E65846934921F020FD1F
:104AB00000283FF45FAE20469049FFF7D9BB306A2B
:104AC00021F09AF870A3D3E9002304460D4621F0A3
:104AD00063FB30B302988A4921F00AFD00283FF4B5
:104AE00019AFB769384621F087F869A3D3E90023E5
:104AF00004460D4621F050FB00283FF43BAE3846FB
:104B0000804921F0F5FC30B1706A21F075F862A39C
:104B1000D3E90023BCE72046294661A3D3E900235B
:104B200028E5706A21F068F85FA3D3E9002321F03B
:104B300033FB68B1DDE908015DA3D3E9002321F06F
:104B40002BFB00283FF416AE58466F49FFF790BB89
:104B50002046294658A3D3E9002321F01DFB002855
:104B60007FF4D8AE06E6504621F046F854A3D3E9C8
:104B7000002304460D4621F00FFB20B35046634945
:104B800021F0B6FC98B1706B21F036F84EA3D3E952
:104B9000002321F001FB80B1B0695D4921F0A8FC40
:104BA00058B19DF8333001338DF83330D9E0F06AD5
:104BB000584921F09DFC0028F3D09DF83530013391
:104BC0008DF83530CDE02046294641A3D3E90023B6
:104BD00021F0E2FAD8B1306B21F00EF83EA3D3E910
:104BE000002321F0D9FA28B19DF8343001338DF833
:104BF0003430B6E0306A484921F07AFC0028F3D01E
:104C0000F068464921F074FC0028CAD1ECE7B0688E
:104C1000434921F06DFC002800F09780B06920F036
:104C2000EBFF2FA3D3E9002321F0B6FA002800F010
:104C30009380376B3B49384621F05AFC002873D0EB
:104C40009DF8313001338DF831308AE0AFF30080C8
:104C500000000030FFD5C43F00000006C99F73BFAD
:104C6000000000B8C061F0BF0000001029C9024078
:104C700000000010568E9A3F00000070C9B6D23F67
:104C800000000018C240B1BF00000050E524C03F42
:104C9000000000700FBBC23F000000103F08C33F80
:104CA000000000689724A0BF000000F05B0FE53F04
:104CB0000000008801BF933F00000068F623E23F38
:104CC000000000E828A1D8BF000000701039D9BF4B
:104CD0000000005851CEEB3F000000581CC4DABF62
:104CE00000000030C0A8D93FC498AB3ED6EBF43DDD
:104CF000118229404253EDBE66B3093E6162C13D57
:104D000064863A3F9331E4BD9A7AD23E48CFBEBF23
:104D10001A79C2BE846455BE7892A3BEA7E663BF6B
:104D2000CC91153F6DC3D9BE384620F065FF8EA3E8
:104D3000D3E9002321F030FA00283FF432AF9DF888
:104D4000303001338DF830300BE0F068B24921F09B
:104D5000CFFB00287FF474AF9DF8323001338DF81B
:104D60003230DDE9040182A3D3E9002321F014FAF3
:104D7000002801F03D82746A204620F03DFF7EA3AA
:104D8000D3E900238046894621F006FA002800F086
:104D90004E85F568284620F02FFF79A3D3E900233C
:104DA000CDE9080121F0F8F9002800F02882B76861
:104DB000384620F021FF74A3D3E9002380468946BA
:104DC00021F0EAF9002800F09380DDE9080170A3E2
:104DD000D3E9002321F0E0F9002842D0B06A20F0A6
:104DE0000BFF6DA3D3E9002321F0D6F9002801F0D1
:104DF000D682B46B8949204621F07AFBF8B120466F
:104E0000874921F075FB002801F08682706B854987
:104E100021F06EFB58B1DDE9000161A3D3E9002365
:104E200021F0BAF9002801F0F48101F075BA306A76
:104E300020F0E2FE5CA3D3E9002300F062BF7069BA
:104E400020F0DAFE5AA3D3E9002321F0A5F90028C7
:104E500041F062824046494657A3D3E9002300F05F
:104E600050BF306A704921F043FBC8B1504620F072
:104E7000C3FE53A3D3E9002304460D4621F08CF969
:104E8000002841F0C681204629464FA3D3E90023DC
:104E900021F082F9002801F05482306B634952E11D
:104EA000DDE904014AA3D3E9002321F075F918B123
:104EB000306B5F4900F06FBF706B20F09DFE46A322
:104EC000D3E900238046894621F066F910B158469F
:104ED0005849D8E12046584921F00AFB002841F002
:104EE0001B82404649463EA3D3E9002300F022BE80
:104EF000DDE904013CA3D3E9002321F04DF90028AA
:104F000000F0BA80504620F077FE39A3D3E90023A1
:104F100004460D4621F040F990B14046494636A37B
:104F2000D3E9002321F038F918B1B06A434900F001
:104F3000F9BD306B20F060FE31A3D3E90023FCE023
:104F40002046294630A3D3E9002321F025F9002883
:104F500076D0B06A20F050FE2DA3D3E9002300F0F4
:104F6000E4BE00BFAFF30080000000B03C59D2BFE8
:104F700000000030364DE43F00000010ECF1C13F6E
:104F80000000005090ECCDBF000000D0C8BBEBBFCC
:104F9000000000F08C13EABF00000018B52BE03FC2
:104FA000000000687856F03F00000018805ED1BF16
:104FB000000000504B0FCDBF00000090B4A3F3BF22
:104FC0000000001446C9EDBF00000014FBC4EB3F15
:104FD0000000009025B9E2BF000000707AFEB83FE3
:104FE000000000B0E115BD3F000000708326DFBF68
:104FF000000000308682FFBF000000904E3EFA3F66
:105000000000805AF84AD33F000000102210F2BF7F
:1050100000000018EFF4C73FC032BD3B0F2FAE3E7B
:10502000FD3B3DBC3BEDD43E625D2DBF09879C3D01
:10503000C4FE92BCCC9E2EBFD7ED89BEF99B39BF72
:10504000DDE9040192A3D3E9002321F0A5F878B1AA
:10505000306A20F0D1FD90A3D3E9002321F09CF821
:10506000002841F0D6803846B14921F041FA55E098
:105070003846B04901F064B8346BAF49204621F09E
:1050800037FA002863D0706B20F0B6FD84A3D3E913
:1050900000238046894621F07FF828B33846A74987
:1050A00021F026FA68B15046A54921F021FA0028DE
:1050B00001F03881584620F09FFD7BA3D3E90023FF
:1050C000AEE6706920F098FD79A3D3E9002321F0C2
:1050D00063F8002801F06381B06B20F08DFD76A3AA
:1050E000D3E9002300F00DBE3846964921F000FABE
:1050F000C8B12846944921F0FBF938B1504620F058
:105100007BFD6FA3D3E9002301F003B9706920F0A0
:1051100073FD6DA3D3E9002321F03EF8002801F0D0
:10512000FB8001F020B9F06A884921F0E1F940B133
:105130004046494666A3D3E9002321F02DF801F04B
:105140002BB98349504621F0D3F900F0F5BC5846FD
:10515000804921F0CDF928B3B06B7F4921F0C8F91F
:1051600090B1B06A20F048FD5BA3D3E9002321F0A1
:1051700013F8002841F01381706B20F03DFD58A317
:10518000D3E9002300F0BDBD4046494656A3D3E90C
:10519000002321F001F8002801F00181706B6F49B4
:1051A00000F0D9BDDDE9040151A3D3E9002320F0CB
:1051B000F3FFC8B158466A4921F09AF938B1706BCB
:1051C00020F01AFD4CA3D3E9002300F085BF7069DD
:1051D00020F012FD4AA3D3E9002320F0DDFF0028D0
:1051E00001F0A08001F015B820465E4921F080F959
:1051F000002841F00E8058465B4900F093BC376AA6
:10520000384620F0F9FC40A3D3E90023CDE90A0198
:1052100020F0C2FF002800F05382DDE90A013CA320
:10522000D3E9002320F0B8FF002800F03081B468F3
:10523000204620F0E1FC38A3D3E90023CDE90001AA
:1052400020F0AAFF002800F0DA80F06A474921F038
:105250004FF9002800F0A880DDE9000130A3D3E970
:10526000002320F099FF002800F08480504620F0B1
:10527000C3FC2DA3D3E9002320F08EFF002840F0CB
:10528000C8873B49504621F033F900F0EABD00BF22
:1052900000000050C867E3BF00000023C814DABF55
:1052A00000000050C7FDC43F00000078FC1EF03F26
:1052B00000000018B1EAA5BF000000304173B63FFE
:1052C0000000004B6B6CE43F000000B8CA1BB53F08
:1052D00000000070E90BC53F000000F0BF40D5BFE3
:1052E000000000502E81D23F0000009006D1D73F31
:1052F000000000303D23D83F000000F0AF20B13F58
:1053000000000030786DB83F0000003096B1DB3F00
:10531000000000F0C7DECEBF00000070FF21D83FC4
:105320000000003065B5D3BF00000008108F00C03A
:10533000C0FB22BF00BB14BCA434303E9472B53F06
:10534000E4C6033F11C43E3F13D707BF5DCCB43E54
:105350002DE579BF3E7306BEB75D9C3CF0C465BDCC
:105360004640CA3F5C8B133FC9DD8D3FE62A6EBEC7
:10537000D2BEF33E3846B04921F0BAF858B14046A3
:10538000494687A3D3E9002320F006FF002840F018
:10539000408700F0D6BFB06920F02EFC82A3D3E98D
:1053A000002320F0F9FEBDE1B069A44921F0A0F886
:1053B000B8B1DDE904017EA3D3E9002320F0ECFEBF
:1053C00060B1504620F018FC7BA3D3E9002320F005
:1053D000E3FE002840F01D8700F09EBF5846984924
:1053E000DEE14046494676A3D3E9002320F0D4FE0F
:1053F000002840F0B8872046924900F0FEBC58468D
:1054000020F0FAFB70A3D3E9002304460D4620F0F8
:10541000C3FEB0B1706B8C4921F06AF870B170694D
:1054200020F0EAFB6AA3D3E9002320F0B5FE0028B0
:1054300000F0B587B06B854900F08DBCB069844938
:1054400081E6504620F0D8FB63A3D3E9002320F087
:10545000A3FE28B1DDE9080161A3D3E900236CE6CE
:105460002046294660A3D3E9002320F095FE30B101
:10547000404649465EA3D3E9002300F07CBE706B32
:1054800020F0BAFB5CA3D3E9002300F025BEB06A8C
:10549000704921F02DF800283DD0B469204620F055
:1054A000ABFB57A3D3E9002320F076FE40B3B068EE
:1054B00020F0A2FB54A3D3E9002320F06DFEB8B185
:1054C000B06B20F099FB52A3D3E9002320F064FED7
:1054D00010B15846604925E3404649464EA3D3E9FA
:1054E000002320F059FE002840F03D8700F057BF10
:1054F000F06A20F081FB4AA3D3E9002300F015BC39
:105500002046564920F0F4FF002800F02C87B068B0
:10551000534900F040BC7069524920F0E9FFF8B1EE
:105520000298514920F0E4FF78B106984F4920F0E5
:10553000DFFF002840F06D8650464D4920F0D8FF2F
:10554000002840F0E98600F00EBF5046494920F09F
:10555000CFFF002800F007875046474900F01BBCEA
:105560004046494630A3D3E9002320F015FE002829
:1055700000F088802846414920F0BAFF28B1706BBE
:105580003F4920F0B5FF00F0A9BD584620F034FB9C
:1055900027A3D3E9002320F0FFFD8CE0AFF30080C8
:1055A000000000F0B90BAABF000000109039D53FF1
:1055B00000000070C5D2D5BF00000098226000C076
:1055C000000000BAD2E69B3F000000D0A929DBBF53
:1055D0000000003037B5963F000000F09600FEBF97
:1055E0000000003037B6F03F00000010ED3CC73F30
:1055F000000000B0AFD4D7BF000000504F00A8BFDC
:10560000000000709DFED53F000000F0C797C6BFA8
:10561000000000D0CA2BCE3F00008018133EB03FE0
:10562000000000D01725DB3F00000090CC58DABF07
:105630000000009033CBEB3F9828DFBEBC2C3C3FF2
:10564000A729AB3FA0307B3B24147B3E7063713BAA
:10565000BB40AF3EC5F7D4BEF8DF8B3C014AFE3EEF
:1056600064144DBFC1B1DDBEE8599FBE470D32BEC7
:10567000CFA5A83E003C7B3E69E617C0707C763E15
:1056800035093A3DDDE9000193A3D3E9002320F079
:1056900083FD60B1B06B20F0AFFA91A3D3E9002392
:1056A00020F07AFD002800F05E8600F078BEF06AF7
:1056B000AB4920F01DFF002840F0558600F0A9BD41
:1056C0002046A84920F014FF002830D0306B20F08D
:1056D00093FA85A3D3E9002320F05EFDF0B1706B4F
:1056E000A14920F005FF002840F01C86B0689F49C2
:1056F00020F0FEFE002840F08C85DDE904017CA34B
:10570000D3E9002320F048FD002840F02C86DDE995
:10571000000179A3D3E9002300F010BE944950465C
:1057200020F0E6FE002840F0748500F01CBE3846EC
:10573000904920F0DDFE002848D0584620F05CFA61
:105740006FA3D3E9002320F027FDD8B120468A4972
:1057500020F0CEFE60B15046884920F0C9FE0028F6
:1057600040F01D86DDE9080167A3D3E90023C8E204
:10577000B06A834920F0BCFE002840F010865846ED
:105780008049E8E2706B804920F0B2FE78B1F06A9F
:105790007E4920F0ADFE002800F0C485B06B7C4946
:1057A00020F0A6FE002840F0CC8500F032BDF06A63
:1057B00020F022FA56A3D3E9002320F0EDFC10B12B
:1057C000B06A7449ACE7B06A734929E0504673493E
:1057D00020F08EFE80B1DDE904014FA3D3E9002360
:1057E00020F0DAFC002800F01485504620F004FA7E
:1057F0004BA3D3E900239DE1B46B6949204620F017
:1058000077FE002800F0AF85DDE9080146A3D3E963
:10581000002320F0C1FC002840F0A5856149204606
:1058200020F066FE002840F09E8500F07BBD5046CB
:105830005D4920F05DFE002800F0B182DDE9040141
:105840003BA3D3E9002320F0A7FC002800F0FE8052
:105850000698564920F04CFEE8B1706920F0CCF96A
:1058600035A3D3E9002320F097FC68B1306A20F01B
:10587000C3F933A3D3E9002320F08EFC002840F0C5
:10588000C884F0684A4986E2584620F0B5F92EA34C
:10589000D3E9002349E2DDE900012DA3D3E9002388
:1058A00020F07AFC002800F08B80706B20F0A4F9C7
:1058B00029A3D3E9002320F06FFC48B1B0693D492A
:1058C00020F016FE002800F0A48450463A493AE43D
:1058D00050463A495FE200BF000000900415EA3FDD
:1058E000000000F06E09E53F00000008404FA3BF34
:1058F0000000005002A9A8BF000000F0B1D5EEBF23
:105900000000005823D6AABF000000D0F343E13FB7
:10591000000000F04F66D03F000000B89710D53F60
:10592000000000909F47F8BF00000050BD45E93FD0
:10593000000000906CC2D8BF000000904B29F43FDB
:10594000000000D8C559D03F000000701D52F43F40
:10595000000000D00B89CDBF00000050431CC1BF28
:105960006B910ABF09D088BEF41529BF134B43BF02
:1059700076FA75BFA8CE1C3F97D39EBC40A2CBBF82
:10598000291A87BEF18DF5BF3FD1A1BEBA547E3E24
:105990006C90BF3C6358DEBE7B15A13EB8CB9EBD6C
:1059A000BDD51CBE8E432FBED2922D3F14A61EBF66
:1059B000FA45473EBE6083BE65C7C8BF8C9885BFA9
:1059C000B068B74920F094FDF8B1F06820F014F900
:1059D00085A3D3E9002304460D4620F0DDFB28B162
:1059E0002046294682A3D3E90023A3E0346AAD49C7
:1059F000204620F07DFD002840F00B84204620F05A
:105A0000FBF87DA3D3E900237BE1306B20F0F4F8B1
:105A10007BA3D3E9002320F0BFFB002840F0F983EB
:105A2000F06A20F0E9F878A3D3E9002320F0B4FB72
:105A300028B1DDE9000176A3D3E9002375E1DDE9B2
:105A4000040175A3D3E90023FFF777BB02989649B9
:105A500020F04EFD002800F08B80B46A9349204668
:105A600020F046FD00283DD0504620F0C5F86CA33C
:105A7000D3E9002320F090FB68B1B0698C4920F095
:105A800037FD002800F0C583306B20F0B5F866A321
:105A9000D3E9002349E1204620F0AEF864A3D3E91E
:105AA000002304460D4620F077FB50B1F068814991
:105AB00020F01EFD002840F07284B0687E49FFF798
:105AC00042BB584620F098F85BA3D3E9002320F0AE
:105AD00063FB002840F063842046294658A3D3E99D
