:100000000C94B4000C94E5000C94E5000C94E5000D
:100010000C94E5000C94E5000C94E5000C94E500CC
:100020000C94E5000C94E5000C94E5000C94E500BC
:100030000C94E5000C94E5000C94E5000C94E500AC
:100040000C94E5000C94E5000C94E5000C94E5009C
:100050000C94E5000C94E5000C94E5000C94D30698
:100060000C94E5000C9407090C943D090C94E500F0
:100070000C94E5000C94E5000C94E5000C94E5006C
:100080000C94E5000C94E5000C94E5000C94E5005C
:100090000C94E5000C94E5000C94E5000C94E5004C
:1000A0000C94E5000C94E5000C94E5000C94E5003C
:1000B0000C94E5000C94E5000C94E5000C94E5002C
:1000C0000C94E5000C94E5000C94E5000C94E5001C
:1000D0000C94E5000C94E5000C94E5000C94E5000C
:1000E0000C94E50008000000BE922449123EABAA21
:1000F000AA2ABECDCCCC4C3E00000080BEABAAAA42
:10010000AA3E00000000BF000000803F0000000089
:1001100000084178D3BB4387D1133D190E3CC3BDC2
:100120004282AD2B3E68EC8276BED98FE1A93E4C6F
:1001300080EFFFBE01C4FF7F3F00000000000C9471
:10014000BE070C94D2070C94E1070C94A4070C94FE
:10015000B0070C9458080C9467090C9471090C941E
:1001600038080C94AE09710911241FBECFEFD1E2FB
:10017000DEBFCDBF00E00CBF17E0A0E0B2E0E2EED2
:10018000FFE100E00BBF02C007900D92AA31B1075A
:10019000D9F72CE0AAE1B7E001C01D92AD33B20758
:1001A000E1F710E0C4EBD0E000E006C021970109C0
:1001B000802FFE010E94E70FC33BD10780E00807B4
:1001C000A9F70E949F090C94100A0C9400002F922A
:1001D0003F924F925F926F927F928F929F92AF92D7
:1001E000BF92CF92DF92EF92FF920F931F93CF9324
:1001F000DF9300D01F92CDB7DEB73C832B838B01FA
:100200001A01B901605F7F4F7A836983C12CD12CB9
:10021000E12CF12CEB81FC8181909190A190B19027
:10022000FC83EB83C501B4010E94440C9601A70135
:100230000E94A20A2B013C01F80161917191819108
:1002400091918F01F10121913191419151911F01C2
:100250000E94A10A6B017C0120E030E0A9010E940C
:10026000370C181624F0F7FAF094F7F8F094A5017B
:100270009401C701B6010E94130BA30192010E94D1
:10028000A20A562F472F382F292FC62ED72EE82EF9
:10029000F92E6B817C8189819A816817790709F031
:1002A000B9CF652F742F832F922F0F900F900F903F
:1002B0000F90DF91CF911F910F91FF90EF90DF9002
:1002C000CF90BF90AF909F908F907F906F905F90F6
:1002D0004F903F902F9008956F927F928F929F92B0
:1002E000AF92BF92CF92DF92EF92FF920F931F9344
:1002F000CF93DF93CDB7DEB7A0970FB6F894DEBFEC
:100300000FBECDBF6C015B0180EF93E0AFE9B0E4BD
:10031000898B9A8BAB8BBC8B89EB91E9ABE5B0E415
:100320008D8B9E8BAF8BB88F81EA97E1AAEBBFE3F1
:10033000898F9A8FAB8FBC8F87E99FE6A9E7BEE3D1
:100340008D8F9E8FAF8FB8A383E69FE1AAEFBDE3A9
:1003500089839A83AB83BC8387EE9AECA6E1BEE3E4
:100360008D839E83AF83B8878DE998EEA1E0BDE3CE
:1003700089879A87AB87BC878DE491E5A6E2BCE3C9
:100380008D879E87AF87B88B9E012F5F3F4FAE0151
:100390004F5E5F4FC6010E94E7009B01AC0165E222
:1003A00079E482EB9EE30E94A10A7B018C0184E741
:1003B0009FE9ADEBB0E4898B9A8BAB8BBC8B85E569
:1003C0009AE1A2E3B0E48D8B9E8BAF8BB88F8CE467
:1003D00094EFA7E8B0E4898F9A8FAB8FBC8F83E24C
:1003E00098E9A8EABFE38D8F9E8FAF8FB8A388E40A
:1003F00090E7A8E8BEE389839A83AB83BC8381E856
:1004000095EBAFECBDE38D839E83AF83B8878AE124
:100410009CE7A2E4BEE389879A87AB87BC8785E522
:100420009DE9ABE1BDE38D879E87AF87B88B9E01C9
:100430002F5F3F4FAE014F5E5F4FB501C6010E9477
:10044000E7009B01AC0160E070E080EA9EE30E945F
:10045000A10A3B014C0188EE96E9A0EDB0E4898B3E
:100460009A8BAB8BBC8B8FE79FECADE3B0E48D8BAD
:100470009E8BAF8BB88F88E199E6AFEAB0E4898FA5
:100480009A8FAB8FBC8F80E090E0A0E0B0E48D8FBE
:100490009E8FAF8FB8A38BE792EAA0ECBEE389836F
:1004A0009A83AB83BC838CE29BE4A6EABDE38D8395
:1004B0009E83AF83B88781E39DE0AFE8BEE3898781
:1004C0009A87AB87BC8786E69CE0ABE8BDE38D8767
:1004D0009E87AF87B88B9E012F5F3F4FAE014F5E67
:1004E0005F4FB501C6010E94E7009B01AC016BEDB7
:1004F00076EB8DEA9EE30E94A10A5B016C019301F9
:10050000A401B701C8010E940E0B87FF25C073012B
:100510008401992493949701A801C601B5010E9412
:10052000370C181614F482E0982E892D90E0A096CE
:100530000FB6F894DEBF0FBECDBFDF91CF911F91F4
:100540000F91FF90EF90DF90CF90BF90AF909F9072
:100550008F907F906F900895912CDDCFE0913107BF
:10056000F0913207ED5CF84F853251F4108283E34D
:1005700097E00E946A0610923207109231070895A0
:10058000808380913107909132078035910550F436
:1005900080913107909132070196909332078093B2
:1005A0003107089580E590E0F8CF0E9460060E9430
:1005B000B50680E092E09F938F930E94300681E021
:1005C00080931C078EE092E09F938F930E943006E9
:1005D0000F900F900F900F900895AF92BF92CF920F
:1005E000DF92EF92FF920F931F93CF93DF93EC0173
:1005F0008B010E946E061F930F9388E192E09F93F8
:100600008F930E9430060F900F900F900F90015023
:10061000110958F065E877E084E897E00E946C01E2
:100620009093960780939507F2CF8CE292E09F9388
:100630008F930E943006DF93CF938CE392E09F93D9
:100640008F930E9430060E941D07D62EC72EB82E0B
:10065000A92E0F900F900F900F900F900F90219751
:1006600058F065E877E084E897E00E946C01909389
:10067000960780939507F3CF0E941D07162F072F2B
:10068000F82EE92EAF92BF92CF92DF92CFE4D2E064
:10069000DF93CF930E943006EF92FF920F931F9348
:1006A000DF93CF930E9430068EE592E09F938F9365
:1006B0000E9430068DB79EB70E960FB6F8949EBF77
:1006C0000FBE8DBFDF91CF911F910F91FF90EF90E3
:1006D000DF90CF90BF90AF900C9494060F931F9330
:1006E000FC0160E070E0CB014191442391F197FD62
:1006F00030C050ED540F5A30A8F4042E000C550BA6
:10070000405351098A01550F220B330B44E0660F09
:10071000771F881F991F4A95D1F7600F711F821F9D
:10072000931FE2CF5FE9540F563030F4042E000CD3
:10073000550B47555109E6CF5FEB540F563030F457
:10074000042E000C550B47535109DCCF6FEF7FEFA0
:10075000CB011F910F9108956F927F928F929F927C
:10076000AF92BF92CF92DF92EF92FF920F931F93BF
:10077000CF93DF9300D0CDB7DEB740E550E06DE614
:1007800072E00E94200A892B09F0F7C060E772E04E
:1007900090E080E00E94130A8C0182E792E001154C
:1007A0001105A1F040E550E06BE972E0C8010E943C
:1007B000200A892B09F044C060E772E090E080E0F5
:1007C0000E94130A009749F480EA92E09F938F9366
:1007D0000E9430060F900F9023C00E94F209909360
:1007E000200780931F07009719F480ED92E0EECF69
:1007F00010921E0710921D0781319105A0F01F92E3
:1008000020E12F939F938F9389EF92E09F938F9393
:100810000E9430060F900F900F900F900F900F9046
:1008200090E080E0ACC09F938F9388E293E09F9329
:100830008F930E9430060F900F900F900F90F0CF83
:1008400040E550E061E473E0C8010E94200A892B72
:1008500009F053C081E2E82E87E0F82E10E000E0B6
:1008600097E4C92E93E0D92E21E5A22E23E0B22EE3
:1008700037E9832E33E0932E4FE4642E43E0742E49
:10088000C8018770992720911F0730912007021710
:10089000130768F5892B31F4DF92CF920E9430065E
:1008A0000F900F90F70181917F011F928F93BF925C
:1008B000AF920E9430060F5F1F4FC80187709927C3
:1008C0000F900F900F900F90892B39F080911F0798
:1008D000909120070817190739F49F928F920E9470
:1008E00030060F900F90CCCF7F926F92F8CF892B6C
:1008F00009F496CF87E993E069CF60E570E0C8011D
:100900000E946C066C0186E593E0C0FC5FCF1B8201
:1009100080901F07909020077801CE0101965C011E
:10092000C701801B910B8C159D0508F079CFF7014D
:100930008081898381818A83C5010E946E0397FF2C
:1009400005C0BF92AF928DE793E071CF20911D0754
:1009500030911E07F901EF5DF84F6083C9010196E0
:1009600090931E0780931D07F2E0EF0EF11C88158F
:100970009905B1F68AE993E029CF81E090E00F90E4
:100980000F900F90DF91CF911F910F91FF90EF90FB
:10099000DF90CF90BF90AF909F908F907F906F909F
:1009A0000895CF93DF93EC0140E550E068EA73E0EF
:1009B0000E94200A892B09F580EB93E09F938F9387
:1009C00081EC93E09F938F930E94300682ED93E039
:1009D0009F938F938DED93E09F938F930E943006AA
:1009E0008DB79EB708960FB6F8949EBF0FBE8DBF09
:1009F00090E080E0DF91CF91089540E550E06CEE0B
:100A000073E0CE010E94200A892B71F41F9284E0CA
:100A10008F9382EF93E09F938F930E9430060F9005
:100A20000F900F900F90E4CF40E550E061E074E04C
:100A3000CE010E94200A892B09F05BC080EB93E075
:100A40009F938F9386E094E09F938F930E9430064C
:100A500087E993E09F938F930E9430068BE094E0A8
:100A60009F938F930E94300683E394E09F938F932C
:100A70000E94300681E694E09F938F930E94300697
:100A800087E894E09F938F930E94300689EB94E06F
:100A90009F938F930E94300680EF94E09F938F93F3
:100AA0000E94300686E295E09F938F930E94300665
:100AB00082E495E09F938F930E94300682E795E051
:100AC0009F938F930E94300689EB95E09F938F93BD
:100AD0000E94300688EE95E09F938F930E94300627
:100AE0008DB79EB74C960FB6F8949EBF0FBE8DBFC4
:100AF0007FCFCE010E94AC03892B09F479CF40E56A
:100B000050E06CE176E0CE010E94200A892BA1F52D
:100B100060E772E090E080E00E94130A009701F124
:100B20000E94F209181619064CF082E296E09F9393
:100B30008F930E9430060F900F905ACFD82FC92F55
:100B400060E772E090E080E00E94130A009789F06D
:100B50000E94F209BC0197FF07C088E496E0E7CF46
:100B60006AE070E0D1E0C0E08D2F9C2F0E94ED0282
:100B70003FCF6AE070E0F8CF40E550E06BE676E00A
:100B8000CE010E94200A892B19F40E94940630CFCE
:100B900081E090E02FCFCF93DF9320911C07222399
:100BA00049F160E772E00E94130AEC0140E550E071
:100BB00063E776E00E94200A892BF9F482ED93E046
:100BC0009F938F9388E796E09F938F938CE796E0AF
:100BD0009F938F930E9430060F900F900F900F906D
:100BE0000F900F908EE092E09F938F930E943006BB
:100BF0000F900F90DF91CF91089540E550E06DE8A0
:100C000076E0CE010E94200A892B19F40E944D063D
:100C1000E9CFCE010E94D104892B21F3DF93CF933A
:100C200087E996E09F938F930E9430060F900F9074
:100C30000F900F90D7CFCF93DF93C0911D07D09126
:100C40001E076C177D0708F4EB01009729F0AE0131
:100C500061E277E00E94170ACE01DF91CF910895FB
:100C6000CF93DF93CDB7DEB79E012A5F3F4FF901E7
:100C7000419151919F0160E074E087E997E00E9403
:100C8000680A1816190634F467E977E080EA9BE0F1
:100C90000E94EA09DF91CF9108950E941D079F935A
:100CA0008F937F936F938FE492E09F938F930E9433
:100CB00030060F900F900F900F900F900F900895A7
:100CC00081EB96E09F938F930E9430060F900F90D8
:100CD0000C944D060C94CB050C942E0ACF93DF9305
:100CE00060E170E085E897E00E941B06EC01409708
:100CF0000497B0F01F9284E08F93CE01969587956C
:100D0000969587959F938F9380ED96E09F938F9311
:100D10000E9430060F900F900F900F900F900F9041
:100D2000CE01DF91CF91089588EF96E09F938F9346
:100D30000E943006809196078F93809195078F933C
:100D400084E097E09F938F930E94300686E993E0BA
:100D50009F938F930E9430068DB79EB708960FB66B
:100D6000F8949EBF0FBE8DBF0895089580EA9BE062
:100D70000E94BE07089526E040E855E260E070E07A
:100D800080EA9BE00E94A5080C94D50280EA9BE0D3
:100D90000E94A407181619062CF40E94B6060E9499
:100DA000AE02F4CF08951F920F920FB60F92112446
:100DB0002F933F938F939F93AF93BF938091980B03
:100DC0009091990BA0919A0BB0919B0B3091970B3E
:100DD00023E0230F2D3758F50196A11DB11D209357
:100DE000970B8093980B9093990BA0939A0BB093C9
:100DF0009B0B80919C0B90919D0BA0919E0BB091B1
:100E00009F0B0196A11DB11D80939C0B90939D0B90
:100E1000A0939E0BB0939F0BBF91AF919F918F9129
:100E20003F912F910F900FBE0F901F90189526E8BD
:100E3000230F0296A11DB11DD2CF3FB7F894809128
:100E40009C0B90919D0BA0919E0BB0919F0B26B592
:100E5000A89B05C02F3F19F00196A11DB11D3FBFF2
:100E6000BA2FA92F982F8827BC01CD01620F711DC1
:100E7000811D911D42E0660F771F881F991F4A95BB
:100E8000D1F70895789484B5826084BD84B581607B
:100E900084BD85B5826085BD85B5816085BDEEE682
:100EA000F0E0808181608083E1E8F0E01082808161
:100EB00082608083808181608083E0E8F0E08081CF
:100EC00081608083E1EBF0E0808184608083E0EBEF
:100ED000F0E0808181608083E1E9F0E080818260E0
:100EE0008083808181608083E0E9F0E0808181609F
:100EF0008083E1EAF0E0808182608083808181608C
:100F00008083E0EAF0E0808181608083E1E2F1E0CB
:100F1000808182608083808181608083E0E2F1E073
:100F2000808181608083EAE7F0E080818460808353
:100F300080818260808380818160808380818068FD
:100F400080831092C1000895FC01918D228D892F1C
:100F500090E0805C9F4F821B91098F7399270895C1
:100F6000FC01918D828D981731F0828DE80FF11D73
:100F7000858D90E008958FEF9FEF0895FC01918D8E
:100F8000828D981761F0A28DAE0FBF2FB11D5D96B7
:100F90008C91928D9F5F9F73928F90E008958FEF59
:100FA0009FEF0895FC01538D448D252F30E0842F51
:100FB00090E0821B930B541710F0CF960895019781
:100FC000089587E699E0892B49F080E090E0892B2D
:100FD00029F00E94670981110E94000080E090E0E2
:100FE000892B49F080E090E0892B29F00E940000D5
:100FF00081110E94000080E090E0892B49F080E0A0
:1010000090E0892B29F00E94000081110E940000CD
:1010100080E090E0892B49F080E090E0892B29F076
:101020000E94000081110C9400000895FC01A48D21
:10103000A80FB92FB11DA35ABF4F2C91848D90E0FA
:1010400001968F739927848FA689B7892C93A089DD
:10105000B1898C91837080648C93938D848D981367
:1010600006C00288F389E02D80818F7D80830895FA
:10107000CF93DF93EC01888D8823B9F0AA89BB89CF
:10108000E889F9898C9185FD03C0808186FD0DC0BA
:101090000FB607FCF7CF8C9185FFF2CF808185FFDB
:1010A000EDCFCE010E941608E9CFDF91CF910895D0
:1010B000EF92FF920F931F93CF93DF93EC0181E0A8
:1010C000888F9B8D8C8D98131AC0E889F98980814F
:1010D00085FF15C09FB7F894EE89FF896083E88982
:1010E000F98980818370806480839FBF81E090E074
:1010F000DF91CF911F910F91FF90EF900895F62E01
:101100000B8D10E00F5F1F4F0F731127E02E8C8D9A
:101110008E110CC00FB607FCFACFE889F9898081DF
:1011200085FFF5CFCE010E941608F1CFEB8DEC0FB5
:10113000FD2FF11DE35AFF4FF0829FB7F8940B8FFC
:10114000EA89FB8980818062CFCFCF92DF92EF92D4
:10115000FF921F93CF93DF93EC016A017B01122F63
:10116000E889F98982E08083C11481EED806E10420
:10117000F104A1F060E079E08DE390E0A701960131
:101180000E94C50F215031094109510956954795D3
:1011900037952795211580E1380798F0E889F98976
:1011A000108260E874E88EE190E0A70196010E9449
:1011B000C50F215031094109510956954795379579
:1011C0002795EC85FD853083EE85FF852083188E7D
:1011D000EC89FD891083EA89FB89808180618083A5
:1011E000EA89FB89808188608083EA89FB89808124
:1011F00080688083EA89FB8980818F7D8083DF918D
:10120000CF911F91FF90EF90DF90CF9008951F92A4
:101210000F920FB60F9211240BB60F922F938F934C
:101220009F93EF93FF93E091B00BF091B10B80810E
:10123000E091B60BF091B70B82FD1DC090818091BB
:10124000B90B8F5F8F732091BA0B821741F0E09139
:10125000B90BF0E0E056F44F958F8093B90BFF91F6
:10126000EF919F918F912F910F900BBE0F900FBE1A
:101270000F901F9018958081F2CF1F920F920FB69A
:101280000F9211240BB60F922F933F934F935F93BE
:101290006F937F938F939F93AF93BF93EF93FF933E
:1012A00080EA9BE00E941608FF91EF91BF91AF91F9
:1012B0009F918F917F916F915F914F913F912F916E
:1012C0000F900BBE0F900FBE0F901F90189580EAE5
:1012D0009BE00E94A40721E0892B09F420E0822FE3
:1012E0000895E0EAFBE01382128288EE93E0A0E02A
:1012F000B0E084839583A683B7838BE097E09183E6
:10130000808385EC90E09587848784EC90E09787D4
:10131000868780EC90E0918B808B81EC90E0938BC2
:10132000828B82EC90E0958B848B86EC90E0978B9F
:10133000868B118E128E138E148E089508950E943E
:1013400042070E949E090E94BB06C1EED7E00E94A0
:10135000C6062097E1F30E94E107F9CFAF92BF9252
:10136000CF92DF92EF92FF920F931F93CF93DF9371
:101370006C017B018B01040F151FEB015E01AE18A0
:10138000BF08C017D10759F06991D601ED91FC91C2
:101390000190F081E02DC6011995892B79F7C501DF
:1013A000DF91CF911F910F91FF90EF90DF90CF9041
:1013B000BF90AF900895FB0101900020E9F73197AD
:1013C000AF01461B570BDC01ED91FC910280F381CC
:1013D000E02D19946115710511F00C94DB0990E072
:1013E00080E00895FC0188279927E8942191203214
:1013F000E9F3293010F02E30C8F32B3241F02D32B2
:1014000039F4689404C00E94600A820F911D2191F2
:1014100020532A30C0F31EF4909581959F4F089574
:10142000F8940C94EF0F4AE157E00C94390AFB0151
:10143000DC0102C001900D9241505040D8F7089550
:10144000FB01DC014150504030F08D91019080193A
:1014500019F40020B9F7881B990B0895FC0161501D
:10146000704001900110D8F7809590958E0F9F1FC6
:101470000895FA01A191B081009719F41097E1F055
:10148000CD01DC01CD010D90002011F4C00113C08D
:10149000FB012191222319F02015D9F7F3CFFB018D
:1014A0002191201519F41E92119606C02223C1F72E
:1014B0000D900020A1F7D001FA01A193B083089507
:1014C0007AE0979F902D879F802D910D112408958C
:1014D0000F931F93CF93DF93CDB7DEB72E970FB641
:1014E000F894DEBF0FBECDBF8C01FA0186E08C837D
:1014F0001A83098377FF02C060E070E861507109C8
:101500007E836D83A901BF01CE0101960E94F50C77
:101510004D815E8157FD0AC02F81388542175307E0
:101520000CF49A01020F131FF80110822E960FB6C9
:10153000F894DEBF0FBECDBFDF91CF911F910F9109
:1015400008955058BB27AA270E94B90A0C94FD0B96
:101550000E94EF0B38F00E94F60B20F039F49F3F09
:1015600019F426F40C94EC0B0EF4E095E7FB0C94C4
:10157000E60BE92F0E940E0C58F3BA1762077307A7
:101580008407950720F079F4A6F50C94300C0EF43E
:10159000E0950B2EBA2FA02D0B01B90190010C0183
:1015A000CA01A0011124FF27591B99F0593F50F49B
:1015B000503E68F11A16F040A22F232F342F4427F3
:1015C000585FF3CF469537952795A795F0405395EB
:1015D000C9F77EF41F16BA0B620B730B840BBAF0BB
:1015E0009150A1F0FF0FBB1F661F771F881FC2F726
:1015F0000EC0BA0F621F731F841F48F4879577953A
:101600006795B795F7959E3F08F0B0CF9395880FF3
:1016100008F09927EE0F9795879508950E94C20BC1
:1016200008F481E008950E94270B0C94FD0B0E94A2
:10163000F60B58F00E94EF0B40F029F45F3F29F0C1
:101640000C94E60B51110C94310C0C94EC0B0E9491
:101650000E0C68F39923B1F3552391F3951B550BA9
:10166000BB27AA2762177307840738F09F5F5F4F75
:10167000220F331F441FAA1FA9F335D00E2E3AF0B4
:10168000E0E832D091505040E695001CCAF72BD0CC
:10169000FE2F29D0660F771F881FBB1F261737071D
:1016A0004807AB07B0E809F0BB0B802DBF01FF274F
:1016B00093585F4F3AF09E3F510578F00C94E60B3B
:1016C0000C94310C5F3FE4F3983ED4F38695779504
:1016D0006795B795F7959F5FC9F7880F911D969508
:1016E000879597F90895E1E0660F771F881FBB1F64
:1016F000621773078407BA0720F0621B730B840B11
:10170000BA0BEE1F88F7E0950895E89409C097FB9F
:101710003EF490958095709561957F4F8F4F9F4FC8
:101720009923A9F0F92F96E9BB279395F69587950C
:1017300077956795B795F111F8CFFAF4BB0F11F4CF
:1017400060FF1BC06F5F7F4F8F4F9F4F16C0882376
:1017500011F096E911C0772321F09EE8872F762FAC
:1017600005C0662371F096E8862F70E060E02AF0ED
:101770009A95660F771F881FDAF7880F96958795D9
:1017800097F90895990F0008550FAA0BE0E8FEEFAE
:1017900016161706E807F907C0F012161306E40735
:1017A000F50798F0621B730B840B950B39F40A262E
:1017B00061F0232B242B252B21F408950A2609F40C
:1017C000A140A6958FEF811D811D089597F99F6710
:1017D00080E870E060E008959FEF80EC08950024B9
:1017E0000A941616170618060906089500240A9486
:1017F00012161306140605060895092E0394000C0C
:1018000011F4882352F0BB0F40F4BF2B11F460FF9A
:1018100004C06F5F7F4F8F4F9F4F089557FD9058C3
:10182000440F551F59F05F3F71F04795880F97FBA4
:10183000991F61F09F3F79F087950895121613065E
:101840001406551FF2CF4695F1DF08C0161617068D
:101850001806991FF1CF86957105610508940895C2
:10186000E894BB2766277727CB0197F908950E9454
:10187000C20B08F48FEF089516F00C94900F0C949F
:10188000EC0B68940C94E60B0E94160CA8F39923B9
:10189000C1F3AEF3DF93CF931F930F93FF92C92F42
:1018A000DD2788232AF02197660F771F881FDAF734
:1018B00020E030E040E85FEB9FE3883920F0803E95
:1018C00038F021968F770E94A20AE4EEF0E004C07F
:1018D0000E94A20AE1E1F1E00E949E0F8B01BE018D
:1018E000EC01FB2E6F5771097595771F880B990BCB
:1018F0000E94870B28E132E741E35FE30E949B0CE3
:10190000AF2D9801AE01FF900F911F91CF91DF9104
:101910000E94B90A0C94FD0B0E94EF0B38F00E9454
:10192000F60B20F0952311F00C94E60B0C94EC0BC5
:1019300011240C94310C0E940E0C70F3959FC1F38E
:10194000950F50E0551F629FF001729FBB27F00D6D
:10195000B11D639FAA27F00DB11DAA1F649F6627C2
:10196000B00DA11D661F829F2227B00DA11D621F11
:10197000739FB00DA11D621F839FA00D611D221FCB
:10198000749F3327A00D611D231F849F600D211DAF
:10199000822F762F6A2F11249F5750409AF0F1F032
:1019A00088234AF0EE0FFF1FBB1F661F771F881F9B
:1019B00091505040A9F79E3F510580F00C94E60BE2
:1019C0000C94310C5F3FE4F3983ED4F38695779501
:1019D0006795B795F795E7959F5FC1F7FE2B880F41
:1019E000911D9695879597F908952F923F924F9262
:1019F0005F926F927F928F929F92AF92BF92CF929F
:101A0000DF92EF92FF920F931F93CF93DF9300D05B
:101A100000D000D01F921F92CDB7DEB77C013B01F2
:101A20008A01FC0117821682838181FFDDC1CE010C
:101A300001965C01F7019381F30193FD859193FF7A
:101A400081913F01882309F453C1853239F493FD14
:101A5000859193FF81913F01853229F4B70190E090
:101A60000E94020FE7CF912C212C312CFFE1F315BE
:101A700038F08B3211F190F4803209F1833229F180
:101A800037FC3CC020ED280F2A3050F536FE20C030
:101A90008AE0989E200D1124922E06C08D3291F07E
:101AA000803371F7689430F8F30193FD859193FFCB
:101AB00081913F018111DACF21C0689431F8689497
:101AC00032F8F2CF689433F8EFCF689434F8ECCF63
:101AD000EAE02E9E200D1124222E689435F8E4CFE2
:101AE0008E3229F436FC04C1689436F8DDCF8C368A
:101AF00019F4689437F8D8CF8836B1F2982F9F7DC3
:101B000095549330E0F08336A1F18337C1F18335EA
:101B100009F063C02801F2E04F0E511CF801C080AB
:101B2000D180692D70E036FC02C06FEF7FEFC601F7
:101B30000E94F70E4C01689437F882010AC00C5FCE
:101B40001F4FFFE3F98388248394912C6501E89467
:101B500037F833FE2DC0522C8114910471F55520B5
:101B600009F468CFB70180E290E00E94020F5A9416
:101B7000F6CFF801808189830E5F1F4FE4CF2801E3
:101B8000F2E04F0E511CF801C080D180692D70E049
:101B900036FC02C06FEF7FEFC6010E942E0A4C0197
:101BA0008201D5CFB70180E290E00E94020F2A9413
:101BB0002814190409F0B0F7CECFF60137FC85914F
:101BC00037FE81916F01B70190E00E94020F511022
:101BD0005A94F1E08F1A9108BFCF843619F08936F4
:101BE00009F077C0F80137FE6BC060817181828196
:101BF00093810C5F1F4FF32DFF763F2E97FF09C097
:101C000090958095709561957F4F8F4F9F4F689409
:101C100037F82AE030E0A5010E94320FC82ECA181A
:101C20008C2C432C36FE0CC0E89440F8C91440F4C8
:101C300034FE05C032FC03C0F32DFE7E4F2E892CEE
:101C400044FEAAC0FE01EC0DF11D8081803309F035
:101C50009CC0242D297E422E842D8870582E43FC52
:101C6000AAC040FEA4C09C2C821418F42C0C922C08
:101C7000981844FEA6C0B70180E390E00E94020FCE
:101C800042FE09C088E790E041FE02C088E590E08E
:101C9000B7010E94020FC91408F49FC0CA94D12C46
:101CA0009FEFC91AD90ACA0CDB1CF60182916F0199
:101CB000B70190E00E94020FAC14BD04B1F74FCF02
:101CC00060817181072E000C880B990B0E5F1F4FEE
:101CD00092CFD32CE894D4F82AE030E08537E1F1B4
:101CE000232D297FD22E8F36A9F1F0F4883551F1BA
:101CF000F701868197812B960FB6F894DEBF0FBE51
:101D0000CDBFDF91CF911F910F91FF90EF90DF90AA
:101D1000CF90BF90AF909F908F907F906F905F908B
:101D20004F903F902F900895803749F0883701F702
:101D3000D4FE02C06894D2F820E130E00DC068946F
:101D4000D4F8F6CF34FE03C0822F8660D82E20E16F
:101D500032E002C028E030E0F801D7FE0FC0608119
:101D60007181828193810C5F1F4FA5010E94320F08
:101D7000C82ECA183D2CE89437F852CF6081718183
:101D800090E080E00E5F1F4FF0CF42FC02C08394D2
:101D900063CF8394839460CF842D867809F45CCFDD
:101DA000F6CFB70180E290E00E94020F8394821484
:101DB000C0F3512C5ECF522C5818821408F459CF1E
:101DC000F8CF842D867809F466CF8BE241FE80E25D
:101DD00047FC8DE2B70190E05CCFB70180E390E073
:101DE0000E94020F9A9457CF8FEF9FEF84CFFC0190
:101DF0000590615070400110D8F7809590958E0F36
:101E00009F1F08950F931F93CF93DF93182F092FD0
:101E1000EB018B8181FD09C01FEF0FEF812F902F08
:101E2000DF91CF911F910F91089582FF14C02E81F1
:101E30003F818C819D81281739073CF4E881F98125
:101E4000CF0101969983888310838E819F810196AB
:101E50009F838E83E3CFE885F985812F1995892BA0
:101E6000A1F3DACFFA01AA27283051F1203181F10C
:101E7000E8946F936E7F6E5F7F4F8F4F9F4FAF4F92
:101E8000B1E03ED0B4E03CD0670F781F891F9A1FA5
:101E9000A11D680F791F8A1F911DA11D6A0F711D59
:101EA000811D911DA11D20D009F468943F912AE065
:101EB000269F11243019305D3193DEF6CF0108954D
:101EC000462F4770405D4193B3E00FD0C9F7F6CF7E
:101ED000462F4F70405D4A3318F0495D31FD405246
:101EE000419302D0A9F7EACFB4E0A69597958795DC
:101EF00077956795BA95C9F70097610571050895BB
:101F00009B01AC010A2E0694579547953795279566
:101F1000BA95C9F7620F731F841F951FA01D0895FE
:101F20009F3F31F0915020F4879577956795B7954D
:101F3000880F911D9695879597F90895DF93CF9314
:101F40001F930F93FF92EF92DF927B018C016894B5
:101F500006C0DA2EEF010E949B0CFE01E894A591C9
:101F60002591359145915591A6F3EF010E94B90A4B
:101F7000FE019701A801DA9469F7DF90EF90FF90D6
:101F80000F911F91CF91DF910895A1E21A2EAA1B04
:101F9000BB1BFD010DC0AA1FBB1FEE1FFF1FA21719
:101FA000B307E407F50720F0A21BB30BE40BF50B16
:101FB000661F771F881F991F1A9469F7609570959F
:101FC000809590959B01AC01BD01CF010895EE0F66
:101FD000FF1F881F8BBF0790F691E02D1994F8948E
:021FE000FFCF31
:101FE2006D2D696E69742D646F6E650D0A006D2D1D
:101FF20072656164790D0A006D2D7761726D75707D
:102002002D73746172742D25640D0A006D2D776134
:10201200726D75702D646F6E650D0A006D2D696E9F
:102022006665722D73746172742D25640D0A006DDC
:102032002D6C61702D75732D256C750D0A006D2D3B
:10204200696E6665722D646F6E650D0A00646200CA
:102052002000652D5B436F6D6D616E6420276462A5
:1020620027207265717569726573206120737562CC
:10207200636F6D6D616E645D0D0A006C6F6164006B
:10208200652D5B436F6D6D616E6420276462206C09
:102092006F61642720726571756972657320746857
:1020A200652023206F662062797465735D0D0A00D6
:1020B200652D5B436F6D6D616E6420276462206CD9
:1020C2006F616427206D757374206265203E302035
:1020D20062797465735D0D0A00537570706C696581
:1020E20064206275666665722073697A652025646C
:1020F2002065786365656473206D6178696D756DBF
:10210200206F662025640A006D2D5B45787065633B
:1021120074696E672025642062797465735D0D0AA7
:10212200007072696E74006D2D6275666665722D3F
:10213200002530327800652D5B496E7375666669DD
:1021420063656E74206E756D626572206F662068BD
:102152006578206469676974735D0D0A00652D5B9B
:10216200496E76616C696420686578206469676984
:102172007420272573275D0D0A006D2D6C6F616435
:102182002D646F6E650D0A0070726F66696C650072
:102192004D4C4D61726B496E6F2056302E302E3190
:1021A200006D2D70726F66696C652D5B25735D0D18
:1021B2000A006D6963726F6D6C67656E006D2D6DDF
:1021C2006F64656C2D5B25735D0D0A006673697A19
:1021D20065006D2D6673697A652D5B25645D0D0A58
:1021E2000068656C700025730D0A0068656C7020CC
:1021F20020202020202020203A205072696E742056
:102202007468697320696E666F726D6174696F6E4E
:102212000D0A006E616D65202020202020202020E4
:102222003A205072696E7420746865206E616D6523
:10223200206F6620746865206465766963650D0A9F
:102242000074696D65737473616D702020203A208B
:1022520047656E657261746520612074696D65748D
:1022620073616D700D0A00646220535542434D4400
:10227200202020203A204D616E6970756C61746572
:1022820020612067656E65726963206279746520DA
:102292006275666665720D0A0020206C6F616420AB
:1022A2004E20202020203A20416C6C6F63617465BF
:1022B200204E20627974657320616E6420736574A8
:1022C200206C6F616420636F756E7465720D0A0015
:1022D200202064622048485B48485D2A203A204C0E
:1022E2006F616420382D6269742068657820627994
:1022F200746528732920756E74696C204E2062798A
:102302007465730D0A0020207072696E74205B4E32
:102312003D31365D205B6F66667365743D305D0DE1
:102322000A00202020202020202020202020203AC7
:10233200205072696E74204E206279746573206138
:1023420074206F6666736574206173206865780D0A
:102352000A00696E666572204E205B573D305D3A19
:10236200204C6F616420696E7075742C20657865ED
:1023720063757465204E20696E666572656E63656D
:10238200732061667465722057207761726D757073
:10239200206C6F6F70730D0A00726573756C7473C5
:1023A2002020202020203A2052657475726E2074FD
:1023B200686520726573756C74206670333220769E
:1023C2006563746F720D0A006673697A6520202056
:1023D20020202020203A2052657475726E20696E8A
:1023E20070757420666561747572652073697A65AB
:1023F20020696E2062797465730D0A00696E6665E4
:102402007200652D5B496E666572656E6365206953
:102412007465726174696F6E73206D757374206276
:1024220065203E305D0D0A00652D5B496E66657262
:10243200656E6365207761726D7570206D7573745A
:10244200206265203E3D305D0D0A00726573756C39
:102452007473006E616D6500647574006D2D6E613C
:102462006D652D25732D5B25735D0D0A0074696DF5
:10247200657374616D7000652D5B556E6B6E6F7761
:102482006E20636F6D6D616E643A2025735D0D0A77
:10249200006D2D74696D657374616D702D6D6F645F
:1024A200652D706572666F726D616E63650D0A00EF
:1024B200496E7075742064622068617320256420FF
:1024C200656C656D656E7465642C206578706563F6
:1024D2007465642025640A006D2D726573756C74D1
:1024E200732D5B00256400000000005808AE09D27D
:0A24F200073808A407BE07B0070072
:00000001FF
