:100000000C9487000C94B8000C94B8000C94B800C1
:100010000C94B8000C94B8000C94B8000C94B80080
:100020000C94B8000C94B8000C94B8000C94B80070
:100030000C94B8000C94B8000C94B8000C94B80060
:100040000C94B8000C94B8000C94B8000C94B80050
:100050000C94B8000C94B8000C94B8000C94B8053B
:100060000C94B8000C94EC070C9422080C94B80083
:100070000C94B8000C94B8000C94B8000C94B80020
:100080000C94B8000C94B8000C94B8000C94B80010
:100090000C94B8000C94B8000C94B8000C94B80000
:1000A0000C94B8000C94B8000C94B8000C94B800F0
:1000B0000C94B8000C94B8000C94B8000C94B800E0
:1000C0000C94B8000C94B8000C94B8000C94B800D0
:1000D0000C94B8000C94B8000C94B8000C94B800C0
:1000E0000C94B8000C9456080C9489060C94950650
:1000F0000C944C080C94C6060C94A3060C943D0773
:100100000C941D070C9493080C94B7065608112400
:100110001FBECFEFD1E2DEBFCDBF00E00CBF17E0C6
:10012000A0E0B2E0ECEEF8E100E00BBF02C0079007
:100130000D92A831B107D9F728E0A8E1B7E001C0D6
:100140001D92A639B207E1F710E0C7E8D0E000E061
:1001500006C021970109802FFE010E946C0CC63851
:10016000D10780E00807A9F70E9484080C94F508DD
:100170000C9400008F929F92AF92BF92CF92DF9229
:10018000EF92FF920F931F93CF93DF938C01EB01BC
:10019000FC01C084D184E284F3842DEC3CEC4CE17E
:1001A00050E4C701B6010E94860918160CF063C01E
:1001B000F80184849584A684B78420E030E048E97F
:1001C00050E4C701B6010E9486091816A4F024E382
:1001D00033E343ED5FE3C501B4010E9486091816BD
:1001E00064F180E090E0DC0140E050E060E87FE313
:1001F0008C019D0149C020E030E040EE5FE3C50185
:10020000B4010E948609181614F127E636E64EE975
:1002100050E4C701B6010E948609181614F727E6B4
:1002200036E646EC5FE3C501B4010E94860926E686
:1002300036E64EED50E41816C4F080E090E0A0E8F9
:10024000BFE340E050E0BA018A019B011DC024E3F6
:1002500033E34BE950E4C701B6010E948609181642
:1002600064F327E636E64EEB50E4F80160817181D5
:1002700082819381B2CF80E090E0DC01AC01BD01CE
:1002800000E010E020E83FE3088319832A833B83E2
:100290004C835D836E837F8388879987AA87BB871A
:1002A000DF91CF911F910F91FF90EF90DF90CF9052
:1002B000BF90AF909F908F90089562E977E082E8B9
:1002C00097E00E94BA0020E030E040E85FE36091F0
:1002D00092077091930780919407909195070E94DF
:1002E0008609882339F120E030E040E85FE360913F
:1002F00096077091970780919807909199070E94AF
:1003000086098823D1F020E030E040E85FE3609187
:100310009A0770919B0780919C0790919D070E947E
:100320008609811106C082E090E090939F07809338
:100330009E07089590E080E0F8CF81E090E0F5CF4F
:10034000E0912F07F0913007EF5CF84F853251F4C0
:10035000108281E397E00E944E05109230071092C0
:100360002F070895808380912F0790913007803563
:10037000910550F480912F0790913007019690934A
:10038000300780932F07089580E590E0F8CF0E9412
:1003900044050E94990580E092E09F938F930E940C
:1003A000140581E080931A078EE092E09F938F936B
:1003B0000E9414050F900F900F900F900895AF9228
:1003C000BF92CF92DF92EF92FF920F931F93CF9342
:1003D000DF93EC018B010E9452050E949A051F9346
:1003E0000F9388E192E09F938F930E9414050F90E2
:1003F0000F900F900F900150110918F00E945D01AD
:10040000FACF8CE292E09F938F930E941405DF93C2
:10041000CF938CE392E09F938F930E9414050E94E8
:100420000206D62EC72EB82EA92E0F900F900F9031
:100430000F900F900F90219718F00E945D01FBCF55
:100440000E940206162F072FF82EE92EAF92BF92B8
:10045000CF92DF92CFE4D2E0DF93CF930E941405D6
:10046000EF92FF920F931F93DF93CF930E94140597
:100470008EE592E09F938F930E9414058DB79EB7EF
:100480000E960FB6F8949EBF0FBE8DBFDF91CF9131
:100490001F910F91FF90EF90DF90CF90BF90AF90A2
:1004A0000C9478050F931F93FC0160E070E0CB0182
:1004B0004191442391F197FD30C050ED540F5A30D3
:1004C000A8F4042E000C550B405351098A01550F16
:1004D000220B330B44E0660F771F881F991F4A9544
:1004E000D1F7600F711F821F931FE2CF5FE9540F96
:1004F000563030F4042E000C550B47555109E6CF09
:100500005FEB540F563030F4042E000C550B47535C
:100510005109DCCF6FEF7FEFCB011F910F91089551
:100520006F927F928F929F92AF92BF92CF92DF9203
:10053000EF92FF920F931F93CF93DF9300D0CDB72D
:10054000DEB740E550E06DE672E00E940509892BB8
:1005500009F0F7C060E772E090E080E00E94F808E0
:100560008C0182E792E001151105A1F040E550E011
:100570006BE972E0C8010E940509892B09F044C0AB
:1005800060E772E090E080E00E94F808009749F48C
:1005900080EA92E09F938F930E9414050F900F9032
:1005A00023C00E94D70890931E0780931D070097D1
:1005B00019F480ED92E0EECF10921C0710921B0709
:1005C00081319105A0F01F9220E12F939F938F938B
:1005D00089EF92E09F938F930E9414050F900F90E4
:1005E0000F900F900F900F9090E080E0ACC09F9321
:1005F0008F9388E293E09F938F930E9414050F904E
:100600000F900F900F90F0CF40E550E061E473E061
:10061000C8010E940509892B09F053C08FE1E82E1B
:1006200087E0F82E10E000E097E4C92E93E0D92E81
:1006300021E5A22E23E0B22E37E9832E33E0932E5C
:100640004FE4642E43E0742EC801877099272091EF
:100650001D0730911E070217130768F5892B31F427
:10066000DF92CF920E9414050F900F90F7018191B5
:100670007F011F928F93BF92AF920E9414050F5F6C
:100680001F4FC801877099270F900F900F900F9000
:10069000892B39F080911D0790911E0708171907C3
:1006A00039F49F928F920E9414050F900F90CCCF37
:1006B0007F926F92F8CF892B09F496CF87E993E068
:1006C00069CF60E570E0C8010E9450056C0186E5C5
:1006D00093E0C0FC5FCF1B8280901D0790901E07A7
:1006E0007801CE0101965C01C701801B910B8C152E
:1006F0009D0508F079CFF7018081898381818A8304
:10070000C5010E94520297FF05C0BF92AF928DE7CC
:1007100093E071CF20911B0730911C07F901E15E36
:10072000F84F6083C901019690931C0780931B07C3
:10073000F2E0EF0EF11C88159905B1F68AE993E015
:1007400029CF81E090E00F900F900F90DF91CF9133
:100750001F910F91FF90EF90DF90CF90BF90AF90DF
:100760009F908F907F906F900895CF93DF93EC01CF
:1007700040E550E068EA73E00E940509892B09F51D
:1007800080EB93E09F938F9383EC93E09F938F9301
:100790000E94140584ED93E09F938F938BED93E07B
:1007A0009F938F930E9414058DB79EB708960FB63E
:1007B000F8949EBF0FBE8DBF90E080E0DF91CF9197
:1007C000089540E550E06AEE73E0CE010E9405090D
:1007D000892B71F41F9284E08F9380EF93E09F93B5
:1007E0008F930E9414050F900F900F900F90E4CFFD
:1007F00040E550E06FEF73E0CE010E940509892BC0
:1008000009F05BC080EB93E09F938F9384E094E0CA
:100810009F938F930E94140587E993E09F938F9392
:100820000E94140589E094E09F938F930E94140521
:1008300081E394E09F938F930E9414058FE594E0E9
:100840009F938F930E94140585E894E09F938F9364
:100850000E94140587EB94E09F938F930E941405E8
:100860008EEE94E09F938F930E94140584E295E0AE
:100870009F938F930E94140580E495E09F938F933C
:100880000E94140580E795E09F938F930E941405C2
:1008900087EB95E09F938F930E94140586EE95E079
:1008A0009F938F930E9414058DB79EB74C960FB6F9
:1008B000F8949EBF0FBE8DBF7FCFCE010E949002E5
:1008C000892B09F479CF40E550E06AE176E0CE016A
:1008D0000E940509892BA1F560E772E090E080E0B5
:1008E0000E94F808009701F10E94D708181619060F
:1008F0004CF080E296E09F938F930E9414050F9036
:100900000F905ACFD82FC92F60E772E090E080E0B7
:100910000E94F808009789F00E94D708BC0197FF51
:1009200007C086E496E0E7CF6AE070E0D1E0C0E07F
:100930008D2F9C2F0E94DF013FCF6AE070E0F8CF3F
:1009400040E550E069E676E0CE010E940509892B7A
:1009500019F40E94780530CF81E090E02FCFCF933B
:10096000DF9320911A07222349F160E772E00E9489
:10097000F808EC0140E550E061E776E00E940509E7
:10098000892BF9F484ED93E09F938F9386E796E0AB
:100990009F938F938AE796E09F938F930E9414050D
:1009A0000F900F900F900F900F900F908EE092E0AD
:1009B0009F938F930E9414050F900F90DF91CF911A
:1009C000089540E550E06BE876E0CE010E9405090D
:1009D000892B19F40E943105E9CFCE010E94B5039D
:1009E000892B21F3DF93CF9385E996E09F938F9333
:1009F0000E9414050F900F900F900F90D7CFCF93B8
:100A0000DF93C0911B07D0911C076C177D0708F47A
:100A1000EB01009729F0AE016FE177E00E94FC083E
:100A2000CE01DF91CF910895CF93DF93CDB7DEB79D
:100A30009E012A5F3F4FF901419151919F0160E56D
:100A400070E080EA97E00E944D091816190634F408
:100A500060EA77E089EF97E00E94CF08DF91CF91BD
:100A600008950E9402069F938F937F936F938FE464
:100A700092E09F938F930E9414050F900F900F9018
:100A80000F900F900F9008958FEA96E09F938F93A9
:100A90000E9414050F900F900C9431050C94AF0434
:100AA0000C941309CF93DF9360E170E082E897E044
:100AB0000E94FF04EC0140970497B0F01F9284E07D
:100AC0008F93CE0196958795969587959F938F9353
:100AD0008EEC96E09F938F930E9414050F900F90D9
:100AE0000F900F900F900F90CE01DF91CF9108954E
:100AF00086EF96E09F938F930E94140580919F0745
:100B00008F9380919E078F9382E097E09F938F93BE
:100B10000E94140586E993E09F938F930E94140529
:100B20008DB79EB708960FB6F8949EBF0FBE8DBFC7
:100B300008950895089589EF97E00E94A306089507
:100B400026E040E052EC61E070E089EF97E00E941F
:100B50008A070C94C70189EF97E00E94890618164E
:100B600019062CF40E949B050E94A001F4CF089561
:100B70001F920F920FB60F9211242F933F938F93D2
:100B80009F93AF93BF938091F1079091F207A0914B
:100B9000F307B091F4073091F00723E0230F2D37CE
:100BA00058F50196A11DB11D2093F0078093F10720
:100BB0009093F207A093F307B093F4078091F507A1
:100BC0009091F607A091F707B091F8070196A11D43
:100BD000B11D8093F5079093F607A093F707B093A4
:100BE000F807BF91AF919F918F913F912F910F90F7
:100BF0000FBE0F901F90189526E8230F0296A11D97
:100C0000B11DD2CF3FB7F8948091F5079091F607C8
:100C1000A091F707B091F80726B5A89B05C02F3F14
:100C200019F00196A11DB11D3FBFBA2FA92F982F12
:100C30008827BC01CD01620F711D811D911D42E00D
:100C4000660F771F881F991F4A95D1F708957894EA
:100C500084B5826084BD84B5816084BD85B58260C1
:100C600085BD85B5816085BDEEE6F0E0808181605F
:100C70008083E1E8F0E0108280818260808380815F
:100C800081608083E0E8F0E0808181608083E1EB37
:100C9000F0E0808184608083E0EBF0E0808181601F
:100CA0008083E1E9F0E080818260808380818160DF
:100CB0008083E0E9F0E0808181608083E1EAF0E018
:100CC000808182608083808181608083E0EAF0E0BF
:100CD000808181608083E1E2F1E0808182608083B5
:100CE000808181608083E0E2F1E0808181608083A7
:100CF000EAE7F0E080818460808380818260808385
:100D00008081816080838081806880831092C100AF
:100D10000895FC01918D228D892F90E0805C9F4F7A
:100D2000821B91098F7399270895FC01918D828D03
:100D3000981731F0828DE80FF11D858D90E00895B0
:100D40008FEF9FEF0895FC01918D828D981761F0D0
:100D5000A28DAE0FBF2FB11D5D968C91928D9F5FBE
:100D60009F73928F90E008958FEF9FEF0895FC019D
:100D7000538D448D252F30E0842F90E0821B930B00
:100D8000541710F0CF960895019708958CE498E0D9
:100D9000892B49F080E090E0892B29F00E944C08D3
:100DA00081110E94000080E090E0892B49F080E0F2
:100DB00090E0892B29F00E94000081110E94000020
:100DC00080E090E0892B49F080E090E0892B29F0C9
:100DD0000E94000081110E94000080E090E0892BB9
:100DE00049F080E090E0892B29F00E9400008111F9
:100DF0000C9400000895FC01A48DA80FB92FB11D1B
:100E0000A35ABF4F2C91848D90E001968F73992740
:100E1000848FA689B7892C93A089B1898C9183701E
:100E200080648C93938D848D981306C00288F38917
:100E3000E02D80818F7D80830895CF93DF93EC0137
:100E4000888D8823B9F0AA89BB89E889F9898C91B2
:100E500085FD03C0808186FD0DC00FB607FCF7CF6E
:100E60008C9185FFF2CF808185FFEDCFCE010E946E
:100E7000FB06E9CFDF91CF910895EF92FF920F9398
:100E80001F93CF93DF93EC0181E0888F9B8D8C8D36
:100E900098131AC0E889F989808185FF15C09FB72A
:100EA000F894EE89FF896083E889F98980818370ED
:100EB000806480839FBF81E090E0DF91CF911F919C
:100EC0000F91FF90EF900895F62E0B8D10E00F5FBD
:100ED0001F4F0F731127E02E8C8D8E110CC00FB693
:100EE00007FCFACFE889F989808185FFF5CFCE012B
:100EF0000E94FB06F1CFEB8DEC0FFD2FF11DE35AA5
:100F0000FF4FF0829FB7F8940B8FEA89FB898081AD
:100F10008062CFCFCF92DF92EF92FF921F93CF9359
:100F2000DF93EC016A017B01122FE889F98982E0E5
:100F30008083C11481EED806E104F104A1F060E0E1
:100F400079E08DE390E0A70196010E944A0C2150C0
:100F5000310941095109569547953795279521152E
:100F600080E1380798F0E889F989108260E874E830
:100F70008EE190E0A70196010E944A0C21503109B0
:100F8000410951095695479537952795EC85FD857B
:100F90003083EE85FF852083188EEC89FD891083D0
:100FA000EA89FB89808180618083EA89FB8980816D
:100FB00088608083EA89FB89808180688083EA89F0
:100FC000FB8980818F7D8083DF91CF911F91FF907E
:100FD000EF90DF90CF9008951F920F920FB60F926F
:100FE00011240BB60F922F938F939F93EF93FF9340
:100FF000E0910908F0910A088081E0910F08F091D2
:10100000100882FD1DC09081809112088F5F8F7340
:1010100020911308821741F0E0911208F0E0E750A8
:10102000F84F958F80931208FF91EF919F918F91C8
:101030002F910F900BBE0F900FBE0F901F90189521
:101040008081F2CF1F920F920FB60F9211240BB630
:101050000F922F933F934F935F936F937F938F9351
:101060009F93AF93BF93EF93FF9389EF97E00E9415
:10107000FB06FF91EF91BF91AF919F918F917F916F
:101080006F915F914F913F912F910F900BBE0F90F9
:101090000FBE0F901F90189589EF97E00E94890668
:1010A00021E0892B09F420E0822F0895E9EFF7E091
:1010B0001382128288EE93E0A0E0B0E084839583EF
:1010C000A683B78389E097E09183808385EC90E0E5
:1010D0009587848784EC90E09787868780EC90E002
:1010E000918B808B81EC90E0938B828B82EC90E0F3
:1010F000958B848B86EC90E0978B868B118E128E6D
:10110000138E148E089508950E9427060E94830866
:101110000E94A005C6ECD6E00E94AB052097E1F343
:101120000E94C606F9CFAF92BF92CF92DF92EF92A4
:10113000FF920F931F93CF93DF936C017B018B0181
:10114000040F151FEB015E01AE18BF08C017D107D1
:1011500059F06991D601ED91FC910190F081E02D5B
:10116000C6011995892B79F7C501DF91CF911F91A0
:101170000F91FF90EF90DF90CF90BF90AF900895C8
:10118000FB0101900020E9F73197AF01461B570B97
:10119000DC01ED91FC910280F381E02D1994611541
:1011A000710511F00C94C00890E080E00895FC01F6
:1011B00088279927E89421912032E9F3293010F00B
:1011C0002E30C8F32B3241F02D3239F4689404C02C
:1011D0000E944509820F911D219120532A30C0F3AE
:1011E0001EF4909581959F4F0895F8940C94740C7B
:1011F00048E157E00C941E09FB01DC0102C001909C
:101200000D9241505040D8F70895FB01DC01415048
:10121000504030F08D910190801919F40020B9F7F9
:10122000881B990B0895FC016150704001900110DA
:10123000D8F7809590958E0F9F1F0895FA01A19180
:10124000B081009719F41097E1F0CD01DC01CD01D8
:101250000D90002011F4C00113C0FB012191222345
:1012600019F02015D9F7F3CFFB012191201519F4BE
:101270001E92119606C02223C1F70D900020A1F7FF
:10128000D001FA01A193B08308957AE0979F902D41
:10129000879F802D910D112408950F931F93CF9355
:1012A000DF93CDB7DEB72E970FB6F894DEBF0FBE33
:1012B000CDBF8C01FA0186E08C831A83098377FF06
:1012C00002C060E070E8615071097E836D83A901FE
:1012D000BF01CE0101960E94AF094D815E8157FD8D
:1012E0000AC02F813885421753070CF49A01020F68
:1012F000131FF80110822E960FB6F894DEBF0FBEB2
:10130000CDBFDF91CF911F910F9108950E948B095E
:1013100008F481E00895990F0008550FAA0BE0E842
:10132000FEEF16161706E807F907C0F012161306A7
:10133000E407F50798F0621B730B840B950B39F4E7
:101340000A2661F0232B242B252B21F408950A264D
:1013500009F4A140A6958FEF811D811D08952F925C
:101360003F924F925F926F927F928F929F92AF9235
:10137000BF92CF92DF92EF92FF920F931F93CF9382
:10138000DF9300D000D000D01F921F92CDB7DEB700
:101390007C013B018A01FC0117821682838181FF57
:1013A000DDC1CE0101965C01F7019381F30193FD4C
:1013B000859193FF81913F01882309F453C18532C0
:1013C00039F493FD859193FF81913F01853229F492
:1013D000B70190E00E94BC0BE7CF912C212C312C5F
:1013E000FFE1F31538F08B3211F190F4803209F1FE
:1013F000833229F137FC3CC020ED280F2A3050F50C
:1014000036FE20C08AE0989E200D1124922E06C040
:101410008D3291F0803371F7689430F8F30193FDC9
:10142000859193FF81913F018111DACF21C06894AA
:1014300031F8689432F8F2CF689433F8EFCF6894BB
:1014400034F8ECCFEAE02E9E200D1124222E689471
:1014500035F8E4CF8E3229F436FC04C1689436F8AE
:10146000DDCF8C3619F4689437F8D8CF8836B1F2CE
:10147000982F9F7D95549330E0F08336A1F1833708
:10148000C1F1833509F063C02801F2E04F0E511C11
:10149000F801C080D180692D70E036FC02C06FEF8A
:1014A0007FEFC6010E94B10B4C01689437F88201AE
:1014B0000AC00C5F1F4FFFE3F98388248394912CAB
:1014C0006501E89437F833FE2DC0522C8114910445
:1014D00071F5552009F468CFB70180E290E00E94D1
:1014E000BC0B5A94F6CFF801808189830E5F1F4FA1
:1014F000E4CF2801F2E04F0E511CF801C080D180EA
:10150000692D70E036FC02C06FEF7FEFC6010E94CC
:1015100013094C018201D5CFB70180E290E00E940F
:10152000BC0B2A942814190409F0B0F7CECFF601A9
:1015300037FC859137FE81916F01B70190E00E94E1
:10154000BC0B51105A94F1E08F1A9108BFCF84362A
:1015500019F0893609F077C0F80137FE6BC0608159
:101560007181828193810C5F1F4FF32DFF763F2E97
:1015700097FF09C090958095709561957F4F8F4F2B
:101580009F4F689437F82AE030E0A5010E94EC0BE9
:10159000C82ECA188C2C432C36FE0CC0E89440F898
:1015A000C91440F434FE05C032FC03C0F32DFE7EA6
:1015B0004F2E892C44FEAAC0FE01EC0DF11D808146
:1015C000803309F09CC0242D297E422E842D887002
:1015D000582E43FCAAC040FEA4C09C2C821418F4D0
:1015E0002C0C922C981844FEA6C0B70180E390E022
:1015F0000E94BC0B42FE09C088E790E041FE02C099
:1016000088E590E0B7010E94BC0BC91408F49FC0A4
:10161000CA94D12C9FEFC91AD90ACA0CDB1CF60157
:1016200082916F01B70190E00E94BC0BAC14BD0425
:10163000B1F74FCF60817181072E000C880B990B99
:101640000E5F1F4F92CFD32CE894D4F82AE030E0FD
:101650008537E1F1232D297FD22E8F36A9F1F0F4C1
:10166000883551F1F701868197812B960FB6F89452
:10167000DEBF0FBECDBFDF91CF911F910F91FF90C5
:10168000EF90DF90CF90BF90AF909F908F907F9022
:101690006F905F904F903F902F900895803749F062
:1016A000883701F7D4FE02C06894D2F820E130E018
:1016B0000DC06894D4F8F6CF34FE03C0822F866044
:1016C000D82E20E132E002C028E030E0F801D7FE59
:1016D0000FC060817181828193810C5F1F4FA501D2
:1016E0000E94EC0BC82ECA183D2CE89437F852CF54
:1016F0006081718190E080E00E5F1F4FF0CF42FC6F
:1017000002C0839463CF8394839460CF842D8678C2
:1017100009F45CCFF6CFB70180E290E00E94BC0BE9
:1017200083948214C0F3512C5ECF522C581882142B
:1017300008F459CFF8CF842D867809F466CF8BE270
:1017400041FE80E247FC8DE2B70190E05CCFB7013B
:1017500080E390E00E94BC0B9A9457CF8FEF9FEFED
:1017600084CFFC010590615070400110D8F780953E
:1017700090958E0F9F1F08950F931F93CF93DF9324
:10178000182F092FEB018B8181FD09C01FEF0FEF8F
:10179000812F902FDF91CF911F910F91089582FF9C
:1017A00014C02E813F818C819D81281739073CF41C
:1017B000E881F981CF0101969983888310838E8116
:1017C0009F8101969F838E83E3CFE885F985812FE2
:1017D0001995892BA1F3DACFFA01AA27283051F104
:1017E000203181F1E8946F936E7F6E5F7F4F8F4F52
:1017F0009F4FAF4FB1E03ED0B4E03CD0670F781FB1
:10180000891F9A1FA11D680F791F8A1F911DA11D95
:101810006A0F711D811D911DA11D20D009F46894CE
:101820003F912AE0269F11243019305D3193DEF676
:10183000CF010895462F4770405D4193B3E00FD02C
:10184000C9F7F6CF462F4F70405D4A3318F0495D17
:1018500031FD4052419302D0A9F7EACFB4E0A695FA
:101860009795879577956795BA95C9F7009761051C
:10187000710508959B01AC010A2E06945795479572
:1018800037952795BA95C9F7620F731F841F951F67
:10189000A01D0895A1E21A2EAA1BBB1BFD010DC0BD
:1018A000AA1FBB1FEE1FFF1FA217B307E407F50710
:1018B00020F0A21BB30BE40BF50B661F771F881FEC
:1018C000991F1A9469F760957095809590959B0182
:1018D000AC01BD01CF010895EE0FFF1F881F8BBF24
:0C18E0000790F691E02D1994F894FFCFCA
:1018EC006D2D696E69742D646F6E650D0A006D2D1A
:1018FC0072656164790D0A006D2D7761726D75707A
:10190C002D73746172742D25640D0A006D2D776131
:10191C00726D75702D646F6E650D0A006D2D696E9C
:10192C006665722D73746172742D25640D0A006DD9
:10193C002D6C61702D75732D256C750D0A006D2D38
:10194C00696E6665722D646F6E650D0A00646200C7
:10195C002000652D5B436F6D6D616E6420276462A2
:10196C0027207265717569726573206120737562C9
:10197C00636F6D6D616E645D0D0A006C6F61640068
:10198C00652D5B436F6D6D616E6420276462206C06
:10199C006F61642720726571756972657320746854
:1019AC00652023206F662062797465735D0D0A00D3
:1019BC00652D5B436F6D6D616E6420276462206CD6
:1019CC006F616427206D757374206265203E302032
:1019DC0062797465735D0D0A00537570706C69657E
:1019EC0064206275666665722073697A6520256469
:1019FC002065786365656473206D6178696D756DBC
:101A0C00206F662025640A006D2D5B457870656338
:101A1C0074696E672025642062797465735D0D0AA4
:101A2C00007072696E74006D2D6275666665722D3C
:101A3C00002530327800652D5B496E7375666669DA
:101A4C0063656E74206E756D626572206F662068BA
:101A5C006578206469676974735D0D0A00652D5B98
:101A6C00496E76616C696420686578206469676981
:101A7C007420272573275D0D0A006D2D6C6F616432
:101A8C002D646F6E650D0A0070726F66696C65006F
:101A9C004D4C696E6F2042656E63682056312E3056
:101AAC002E31006D2D70726F66696C652D5B257320
:101ABC005D0D0A006D326367656E006D2D6D6F6490
:101ACC00656C2D5B25735D0D0A006673697A650084
:101ADC006D2D6673697A652D5B25645D0D0A006852
:101AEC00656C700025730D0A0068656C70202020F1
:101AFC002020202020203A205072696E74207468B7
:101B0C00697320696E666F726D6174696F6E0D0A10
:101B1C00006E616D652020202020202020203A209E
:101B2C005072696E7420746865206E616D65206FEB
:101B3C006620746865206465766963650D0A0074B7
:101B4C00696D65737473616D702020203A20476550
:101B5C006E657261746520612074696D6574736162
:101B6C006D700D0A00646220535542434D44202091
:101B7C0020203A204D616E6970756C61746520612E
:101B8C002067656E65726963206279746520627581
:101B9C00666665720D0A0020206C6F6164204E2011
:101BAC00202020203A20416C6C6F63617465204EBC
:101BBC0020627974657320616E6420736574206C87
:101BCC006F616420636F756E7465720D0A0020205E
:101BDC0064622048485B48485D2A203A204C6F617B
:101BEC006420382D62697420686578206279746588
:101BFC0028732920756E74696C204E206279746587
:101C0C00730D0A0020207072696E74205B4E3D319A
:101C1C00365D205B6F66667365743D305D0D0A0042
:101C2C00202020202020202020202020203A20505E
:101C3C0072696E74204E2062797465732061742011
:101C4C006F6666736574206173206865780D0A0091
:101C5C00696E666572204E205B573D305D3A204CB4
:101C6C006F616420696E7075742C2065786563757E
:101C7C007465204E20696E666572656E63657320AF
:101C8C0061667465722057207761726D7570206C77
:101C9C006F6F70730D0A00726573756C747320200E
:101CAC00202020203A2052657475726E207468656D
:101CBC0020726573756C74206670333220766563A0
:101CCC00746F720D0A006673697A652020202020DB
:101CDC002020203A2052657475726E20696E7075E2
:101CEC007420666561747572652073697A65206904
:101CFC006E2062797465730D0A00696E66657200F8
:101D0C00652D5B496E666572656E636520697465E9
:101D1C00726174696F6E73206D75737420626520C7
:101D2C003E305D0D0A00652D5B496E666572656E11
:101D3C006365207761726D7570206D7573742062A8
:101D4C0065203E3D305D0D0A00726573756C7473D1
:101D5C00006E616D6500647574006D2D6E616D654E
:101D6C002D25732D5B25735D0D0A0074696D6573EC
:101D7C0074616D7000652D5B556E6B6E6F776E20A8
:101D8C00636F6D6D616E643A2025735D0D0A006D95
:101D9C002D74696D657374616D702D6D6F64652D37
:101DAC00706572666F726D616E63650D0A00496EC7
:101DBC007075742064622068617320256420656CE2
:101DCC00656D656E7465642C2065787065637465EB
:101DDC00642025640A006D2D726573756C74732D07
:101DEC005B00256400000000003D079308B7061D4A
:081DFC00078906A30695060005
:00000001FF
