:100000000C9487000C94B8000C94B8000C94B800C1
:100010000C94B8000C94B8000C94B8000C94B80080
:100020000C94B8000C94B8000C94B8000C94B80070
:100030000C94B8000C94B8000C94B8000C94B80060
:100040000C94B8000C94B8000C94B8000C94B80050
:100050000C94B8000C94B8000C94B8000C9478057B
:100060000C94B8000C94AC070C94E2070C94B80004
:100070000C94B8000C94B8000C94B8000C94B80020
:100080000C94B8000C94B8000C94B8000C94B80010
:100090000C94B8000C94B8000C94B8000C94B80000
:1000A0000C94B8000C94B8000C94B8000C94B800F0
:1000B0000C94B8000C94B8000C94B8000C94B800E0
:1000C0000C94B8000C94B8000C94B8000C94B800D0
:1000D0000C94B8000C94B8000C94B8000C94B800C0
:1000E0000C94B8000C9463060C9477060C94860666
:1000F0000C9449060C9455060C94FD060C940C08BF
:100100000C9416080C94DD060C9453081608112460
:100110001FBECFEFD1E2DEBFCDBF00E00CBF13E1C9
:10012000A0E0B2E0E2ECFAE100E00BBF02C0079011
:100130000D92A233B107D9F72AE1A2E3B3E101C0DE
:100140001D92A838B207E1F710E0C7E8D0E000E060
:1001500006C021970109802FFE010E94570DC63865
:10016000D10780E00807A9F70E9444080C94B5085D
:100170000C9400002F923F924F925F926F927F9269
:100180008F929F92AF92BF92CF92DF92EF92FF92A7
:100190000F931F93CF93DF93CDB7DEB76C970FB656
:1001A000F894DEBF0FBECDBF82EB96E09C8F8B8FA5
:1001B000FE0131966F019AEC892E96E0992EF12C72
:1001C000E12C10E000E01F01EB8DFC8D419051907F
:1001D00061907190FC8FEB8FF60141925192619288
:1001E00071926F018EE897E19A8F898FB12CA12CC3
:1001F000E98DFA8D6191719181919191FA8FE98FD9
:10020000F401EA0DFB1D20813181428153810E945E
:100210002D0A9B01AC01C301B2010E9447092B01C9
:100220003C01F4E0AF0EB11CA11482E0B80601F766
:10023000F60134974082518262827382F801EE0F98
:10024000FF1FEE0FFF1FE20DF31D20813181428160
:100250005381C301B2010E94280A18160CF48701C9
:100260009FEFE91AF90AEEEF9E1AF6E0EF16F10495
:1002700009F0AACFF801E455F94F8081082E000C4F
:10028000990B6C960FB6F894DEBF0FBECDBFDF9111
:10029000CF911F910F91FF90EF90DF90CF90BF9083
:1002A000AF909F908F907F906F905F904F903F9016
:1002B0002F900895E0913915F0913A15E55CFA4ECA
:1002C000853251F410828BE395E10E940F05109264
:1002D0003A151092391508958083809139159091BF
:1002E0003A158035910550F48091391590913A1561
:1002F000019690933A1580933915089580E590E022
:10030000F8CF0E9405050E945A0580E092E09F9375
:100310008F930E94D50481E0809334138EE092E0A5
:100320009F938F930E94D5040F900F900F900F9082
:100330000895AF92BF92CF92DF92EF92FF920F9308
:100340001F93CF93DF93EC018B010E9413051F9342
:100350000F9388E192E09F938F930E94D5040F90B2
:100360000F900F900F900150110938F00E94BA00C1
:1003700090938D1780938C17F6CF8CE292E09F9329
:100380008F930E94D504DF93CF938CE392E09F93E9
:100390008F930E94D5040E94C205D62EC72EB82E78
:1003A000A92E0F900F900F900F900F900F90219704
:1003B00038F00E94BA0090938D1780938C17F7CF76
:1003C0000E94C205162F072FF82EE92EAF92BF927A
:1003D000CF92DF92CFE4D2E0DF93CF930E94D50497
:1003E000EF92FF920F931F93DF93CF930E94D50458
:1003F0008EE592E09F938F930E94D5048DB79EB7B0
:100400000E960FB6F8949EBF0FBE8DBFDF91CF91B1
:100410001F910F91FF90EF90DF90CF90BF90AF9022
:100420000C9439050F931F93FC0160E070E0CB0141
:100430004191442391F197FD30C050ED540F5A3053
:10044000A8F4042E000C550B405351098A01550F96
:10045000220B330B44E0660F771F881F991F4A95C4
:10046000D1F7600F711F821F931FE2CF5FE9540F16
:10047000563030F4042E000C550B47555109E6CF89
:100480005FEB540F563030F4042E000C550B4753DD
:100490005109DCCF6FEF7FEFCB011F910F910895D2
:1004A0006F927F928F929F92AF92BF92CF92DF9284
:1004B000EF92FF920F931F93CF93DF9300D0CDB7AE
:1004C000DEB740E550E06DE672E00E94C508892B7A
:1004D00009F0F8C060E772E090E080E00E94B808A0
:1004E0008C0182E792E001151105A1F040E550E092
:1004F0006BE972E0C8010E94C508892B09F045C06C
:1005000060E772E090E080E00E94B808009749F44C
:1005100080EA92E09F938F930E94D5040F900F90F2
:1005200024C00E9497089093381380933713009744
:1005300019F480ED92E0EECF10923613109235133D
:10054000813022E09207A0F022E02F931F929F9328
:100550008F9389EF92E09F938F930E94D5040F9021
:100560000F900F900F900F900F9090E080E0ACC034
:100570009F938F9388E293E09F938F930E94D5047B
:100580000F900F900F900F90F0CF40E550E061E496
:1005900073E0C8010E94C508892B09F053C089E3A4
:1005A000E82E83E1F82E10E000E097E4C92E93E0F6
:1005B000D92E21E5A22E23E0B22E37E9832E33E097
:1005C000932E4FE4642E43E0742EC8018770992760
:1005D00020913713309138130217130768F5892BD0
:1005E00031F4DF92CF920E94D5040F900F90F70163
:1005F00081917F011F928F93BF92AF920E94D50489
:100600000F5F1F4FC801877099270F900F900F90B1
:100610000F90892B39F08091371390913813081778
:10062000190739F49F928F920E94D5040F900F9072
:10063000CCCF7F926F92F8CF892B09F496CF87E9C0
:1006400093E068CF60E570E0C8010E9411056C017D
:1006500086E593E0C0FC5ECF1B82809037139090BC
:1006600038137801CE0101965C01C701801B910B04
:100670008C159D0508F079CFF701808189838181F0
:100680008A83C5010E94120297FF05C0BF92AF92F4
:100690008DE793E071CF2091351330913613F90136
:1006A000E75CFC4E6083C9010196909336138093FA
:1006B0003513F2E0EF0EF11C88159905B1F68AE9C1
:1006C00093E028CF81E090E00F900F900F90DF91A2
:1006D000CF911F910F91FF90EF90DF90CF90BF903F
:1006E000AF909F908F907F906F900895CF93DF93FE
:1006F000EC0140E550E068EA73E00E94C508892BF0
:1007000009F580EB93E09F938F9381EC93E09F93A7
:100710008F930E94D50482ED93E09F938F9388ED91
:1007200093E09F938F930E94D5048DB79EB7089650
:100730000FB6F8949EBF0FBE8DBF90E080E0DF91B2
:10074000CF91089540E550E067EE73E0CE010E943E
:10075000C508892B71F41F9284E08F938DEE93E08E
:100760009F938F930E94D5040F900F900F900F903E
:10077000E4CF40E550E06CEF73E0CE010E94C50885
:10078000892B09F05BC080EB93E09F938F9381E00E
:1007900094E09F938F930E94D50487E993E09F9301
:1007A0008F930E94D50486E094E09F938F930E94DC
:1007B000D5048EE294E09F938F930E94D5048CE53C
:1007C00094E09F938F930E94D50482E894E09F93D6
:1007D0008F930E94D50484EB94E09F938F930E94A3
:1007E000D5048BEE94E09F938F930E94D50481E211
:1007F00095E09F938F930E94D5048DE395E09F939E
:100800008F930E94D5048DE695E09F938F930E946D
:10081000D50484EB95E09F938F930E94D50483EEDB
:1008200095E09F938F930E94D5048DB79EB74C9609
:100830000FB6F8949EBF0FBE8DBF7FCFCE010E9432
:100840005002892B09F479CF40E550E067E176E06A
:10085000CE010E94C508892BA1F560E772E090E007
:1008600080E00E94B808009701F10E9497081816CE
:1008700019064CF08DE196E09F938F930E94D5046A
:100880000F900F905ACFD82FC92F60E772E090E0F9
:1008900080E00E94B808009789F00E949708BC0188
:1008A00097FF07C083E496E0E7CF6AE070E0D1E00D
:1008B000C0E08D2F9C2F0E9499013FCF6AE070E02D
:1008C000F8CF40E550E066E676E0CE010E94C5082C
:1008D000892B19F40E94390530CF81E090E02FCFA9
:1008E000CF93DF9320913413222349F160E772E024
:1008F0000E94B808EC0140E550E06EE676E00E9408
:10090000C508892BF9F482ED93E09F938F9383E7D9
:1009100096E09F938F9387E796E09F938F930E9433
:10092000D5040F900F900F900F900F900F908EE0C6
:1009300092E09F938F930E94D5040F900F90DF91C8
:10094000CF91089540E550E068E876E0CE010E943E
:10095000C508892B19F40E94F204E9CFCE010E9448
:100960007603892B21F3DF93CF9382E996E09F935F
:100970008F930E94D5040F900F900F900F90D7CFB8
:10098000CF93DF93C0913513D09136136C177D0749
:1009900008F4EB01009729F0AE0169E373E10E94CE
:1009A000BC08CE01DF91CF910895CF93DF93CDB7EF
:1009B000DEB79E012A5F3F4FF901419151919F019E
:1009C00060E570E082E999E10E940D0918161906A8
:1009D00034F462E979E18BEE99E10E948F08DF91AE
:1009E000CF9108950E94C2059F938F937F936F9339
:1009F0008FE492E09F938F930E94D5040F900F9005
:100A00000F900F900F900F9008958AEC92E19F93B2
:100A10008F930E94D5040F900F900C94F2040C94C5
:100A200070040C94D308CF93DF9360E072E08CE8FD
:100A300095E10E94C004EC0192500497B0F01F921F
:100A400080E88F93CE0196958795969587959F938D
:100A50008F9389EE92E19F938F930E94D5040F901C
:100A60000F900F900F900F900F90CE01DF91CF91CC
:100A7000089581E193E19F938F930E94D504809123
:100A80008D178F9380918C178F938DE193E19F93B6
:100A90008F930E94D50486E993E09F938F930E94E1
:100AA000D5048DB79EB708960FB6F8949EBF0FBEBB
:100AB0008DBF089508958BEE99E10E946306089515
:100AC00026E040E052EC61E070E08BEE99E10E949C
:100AD0004A070C9481018BEE99E10E944906181691
:100AE00019062CF40E945B050E945A01F4CF089568
:100AF0001F920F920FB60F9211242F933F938F9353
:100B00009F93AF93BF938091E3199091E419A091C3
:100B1000E519B091E6193091E21923E0230F2D3742
:100B200058F50196A11DB11D2093E2198093E31998
:100B30009093E419A093E519B093E6198091E71911
:100B40009091E819A091E919B091EA190196A11DB7
:100B5000B11D8093E7199093E819A093E919B09318
:100B6000EA19BF91AF919F918F913F912F910F9073
:100B70000FBE0F901F90189526E8230F0296A11D17
:100B8000B11DD2CF3FB7F8948091E7199091E81941
:100B9000A091E919B091EA1926B5A89B05C02F3F8D
:100BA00019F00196A11DB11D3FBFBA2FA92F982F93
:100BB0008827BC01CD01620F711D811D911D42E08E
:100BC000660F771F881F991F4A95D1F7089578946B
:100BD00084B5826084BD84B5816084BD85B5826042
:100BE00085BD85B5816085BDEEE6F0E080818160E0
:100BF0008083E1E8F0E010828081826080838081E0
:100C000081608083E0E8F0E0808181608083E1EBB7
:100C1000F0E0808184608083E0EBF0E0808181609F
:100C20008083E1E9F0E0808182608083808181605F
:100C30008083E0E9F0E0808181608083E1EAF0E098
:100C4000808182608083808181608083E0EAF0E03F
:100C5000808181608083E1E2F1E080818260808335
:100C6000808181608083E0E2F1E080818160808327
:100C7000EAE7F0E080818460808380818260808305
:100C80008081816080838081806880831092C10030
:100C90000895FC01918D228D892F90E0805C9F4FFB
:100CA000821B91098F7399270895FC01918D828D84
:100CB000981731F0828DE80FF11D858D90E0089531
:100CC0008FEF9FEF0895FC01918D828D981761F051
:100CD000A28DAE0FBF2FB11D5D968C91928D9F5F3F
:100CE0009F73928F90E008958FEF9FEF0895FC011E
:100CF000538D448D252F30E0842F90E0821B930B81
:100D0000541710F0CF960895019708958CE098E05D
:100D1000892B49F080E090E0892B29F00E940C0893
:100D200081110E94000080E090E0892B49F080E072
:100D300090E0892B29F00E94000081110E940000A0
:100D400080E090E0892B49F080E090E0892B29F049
:100D50000E94000081110E94000080E090E0892B39
:100D600049F080E090E0892B29F00E940000811179
:100D70000C9400000895FC01A48DA80FB92FB11D9B
:100D8000A35ABF4F2C91848D90E001968F739927C1
:100D9000848FA689B7892C93A089B1898C9183709F
:100DA00080648C93938D848D981306C00288F38998
:100DB000E02D80818F7D80830895CF93DF93EC01B8
:100DC000888D8823B9F0AA89BB89E889F9898C9133
:100DD00085FD03C0808186FD0DC00FB607FCF7CFEF
:100DE0008C9185FFF2CF808185FFEDCFCE010E94EF
:100DF000BB06E9CFDF91CF910895EF92FF920F9359
:100E00001F93CF93DF93EC0181E0888F9B8D8C8DB6
:100E100098131AC0E889F989808185FF15C09FB7AA
:100E2000F894EE89FF896083E889F989808183706D
:100E3000806480839FBF81E090E0DF91CF911F911C
:100E40000F91FF90EF900895F62E0B8D10E00F5F3D
:100E50001F4F0F731127E02E8C8D8E110CC00FB613
:100E600007FCFACFE889F989808185FFF5CFCE01AB
:100E70000E94BB06F1CFEB8DEC0FFD2FF11DE35A65
:100E8000FF4FF0829FB7F8940B8FEA89FB8980812E
:100E90008062CFCFCF92DF92EF92FF921F93CF93DA
:100EA000DF93EC016A017B01122FE889F98982E066
:100EB0008083C11481EED806E104F104A1F060E062
:100EC00079E08DE390E0A70196010E94350D215055
:100ED00031094109510956954795379527952115AF
:100EE00080E1380798F0E889F989108260E874E8B1
:100EF0008EE190E0A70196010E94350D2150310945
:100F0000410951095695479537952795EC85FD85FB
:100F10003083EE85FF852083188EEC89FD89108350
:100F2000EA89FB89808180618083EA89FB898081ED
:100F300088608083EA89FB89808180688083EA8970
:100F4000FB8980818F7D8083DF91CF911F91FF90FE
:100F5000EF90DF90CF9008951F920F920FB60F92EF
:100F600011240BB60F922F938F939F93EF93FF93C0
:100F7000E091FB19F091FC198081E091011AF09148
:100F8000021A82FD1DC090818091041A8F5F8F73B9
:100F90002091051A821741F0E091041AF0E0E55122
:100FA000F64E958F8093041AFF91EF919F918F9148
:100FB0002F910F900BBE0F900FBE0F901F901895A2
:100FC0008081F2CF1F920F920FB60F9211240BB6B1
:100FD0000F922F933F934F935F936F937F938F93D2
:100FE0009F93AF93BF93EF93FF938BEE99E10E9492
:100FF000BB06FF91EF91BF91AF919F918F917F9130
:101000006F915F914F913F912F910F900BBE0F9079
:101010000FBE0F901F9018958BEE99E10E94490624
:1010200021E0892B09F420E0822F0895EBEEF9E10D
:101030001382128288EE93E0A0E0B0E0848395836F
:10104000A683B78384E293E19183808385EC90E06B
:101050009587848784EC90E09787868780EC90E082
:10106000918B808B81EC90E0938B828B82EC90E073
:10107000958B848B86EC90E0978B868B118E128EED
:10108000138E148E089508950E94E7050E94430868
:101090000E946005C6E8D6E00E946B052097E1F348
:1010A0000E948606F9CFAF92BF92CF92DF92EF9265
:1010B000FF920F931F93CF93DF936C017B018B0102
:1010C000040F151FEB015E01AE18BF08C017D10752
:1010D00059F06991D601ED91FC910190F081E02DDC
:1010E000C6011995892B79F7C501DF91CF911F9121
:1010F0000F91FF90EF90DF90CF90BF90AF90089549
:10110000FB0101900020E9F73197AF01461B570B17
:10111000DC01ED91FC910280F381E02D19946115C1
:10112000710511F00C94800890E080E00895FC01B6
:1011300088279927E89421912032E9F3293010F08B
:101140002E30C8F32B3241F02D3239F4689404C0AC
:101150000E940509820F911D219120532A30C0F36E
:101160001EF4909581959F4F0895F8940C945F0D0F
:1011700042E353E10C94DE08FB01DC0102C0019064
:101180000D9241505040D8F70895FB01DC014150C9
:10119000504030F08D910190801919F40020B9F77A
:1011A000881B990B0895FC0161507040019001105B
:1011B000D8F7809590958E0F9F1F0895FA01A19101
:1011C000B081009719F41097E1F0CD01DC01CD0159
:1011D0000D90002011F4C00113C0FB0121912223C6
:1011E00019F02015D9F7F3CFFB012191201519F43F
:1011F0001E92119606C02223C1F70D900020A1F780
:10120000D001FA01A193B08308957AE0979F902DC1
:10121000879F802D910D112408950F931F93CF93D5
:10122000DF93CDB7DEB72E970FB6F894DEBF0FBEB3
:10123000CDBF8C01FA0186E08C831A83098377FF86
:1012400002C060E070E8615071097E836D83A9017E
:10125000BF01CE0101960E949A0A4D815E8157FD21
:101260000AC02F813885421753070CF49A01020FE8
:10127000131FF80110822E960FB6F894DEBF0FBE32
:10128000CDBFDF91CF911F910F9108955058BB278B
:10129000AA270E945E090C94EE090E94E00938F02A
:1012A0000E94E70920F039F49F3F19F426F40C94CA
:1012B000DD090EF4E095E7FB0C94D709E92F0E94B5
:1012C000FF0958F3BA17620773078407950720F0E0
:1012D00079F4A6F50C94210A0EF4E0950B2EBA2FA2
:1012E000A02D0B01B90190010C01CA01A00111242C
:1012F000FF27591B99F0593F50F4503E68F11A16D8
:10130000F040A22F232F342F4427585FF3CF469568
:1013100037952795A795F0405395C9F77EF41F168A
:10132000BA0B620B730B840BBAF09150A1F0FF0F54
:10133000BB1F661F771F881FC2F70EC0BA0F621F40
:10134000731F841F48F4879577956795B795F79530
:101350009E3F08F0B0CF9395880F08F09927EE0FC5
:10136000979587950895990F0008550FAA0BE0E807
:10137000FEEF16161706E807F907C0F01216130657
:10138000E407F50798F0621B730B840B950B39F497
:101390000A2661F0232B242B252B21F408950A26FD
:1013A00009F4A140A6958FEF811D811D089597F93D
:1013B0009F6780E870E060E008959FEF80EC0895FB
:1013C00000240A9416161706180609060895002424
:1013D0000A9412161306140605060895092E03949E
:1013E000000C11F4882352F0BB0F40F4BF2B11F412
:1013F00060FF04C06F5F7F4F8F4F9F4F089557FD71
:101400009058440F551F59F05F3F71F04795880F72
:1014100097FB991F61F09F3F79F087950895121609
:1014200013061406551FF2CF4695F1DF08C01616B5
:1014300017061806991FF1CF869571056105089466
:101440000895E894BB2766277727CB0197F908957D
:101450000E94B30908F48FEF08950E94400A0C948B
:10146000EE090E94E00938F00E94E70920F0952378
:1014700011F00C94D7090C94DD0911240C94220A64
:101480000E94FF0970F3959FC1F3950F50E0551F1F
:10149000629FF001729FBB27F00DB11D639FAA27C9
:1014A000F00DB11DAA1F649F6627B00DA11D661F18
:1014B000829F2227B00DA11D621F739FB00DA11D39
:1014C000621F839FA00D611D221F749F3327A00DF3
:1014D000611D231F849F600D211D822F762F6A2F8F
:1014E00011249F5750409AF0F1F088234AF0EE0FF4
:1014F000FF1FBB1F661F771F881F91505040A9F721
:101500009E3F510580F00C94D7090C94220A5F3F4E
:10151000E4F3983ED4F3869577956795B795F7955C
:10152000E7959F5FC1F7FE2B880F911D96958795D4
:1015300097F908952F923F924F925F926F927F9208
:101540008F929F92AF92BF92CF92DF92EF92FF92D3
:101550000F931F93CF93DF9300D000D000D01F9242
:101560001F92CDB7DEB77C013B018A01FC011782D7
:101570001682838181FFDDC1CE0101965C01F701F6
:101580009381F30193FD859193FF81913F0188231E
:1015900009F453C1853239F493FD859193FF81910C
:1015A0003F01853229F4B70190E00E94A70CE7CFF4
:1015B000912C212C312CFFE1F31538F08B3211F1F5
:1015C00090F4803209F1833229F137FC3CC020EDE0
:1015D000280F2A3050F536FE20C08AE0989E200D54
:1015E0001124922E06C08D3291F0803371F76894E9
:1015F00030F8F30193FD859193FF81913F018111B3
:10160000DACF21C0689431F8689432F8F2CF689448
:1016100033F8EFCF689434F8ECCFEAE02E9E200D3B
:101620001124222E689435F8E4CF8E3229F436FC4A
:1016300004C1689436F8DDCF8C3619F4689437F815
:10164000D8CF8836B1F2982F9F7D95549330E0F033
:101650008336A1F18337C1F1833509F063C02801D6
:10166000F2E04F0E511CF801C080D180692D70E06E
:1016700036FC02C06FEF7FEFC6010E949C0C4C014C
:10168000689437F882010AC00C5F1F4FFFE3F983AB
:1016900088248394912C6501E89437F833FE2DC09B
:1016A000522C8114910471F5552009F468CFB701CB
:1016B00080E290E00E94A70C5A94F6CFF801808156
:1016C00089830E5F1F4FE4CF2801F2E04F0E511CBB
:1016D000F801C080D180692D70E036FC02C06FEF48
:1016E0007FEFC6010E94D3084C018201D5CFB7011C
:1016F00080E290E00E94A70C2A942814190409F0B3
:10170000B0F7CECFF60137FC859137FE81916F019E
:10171000B70190E00E94A70C51105A94F1E08F1A83
:101720009108BFCF843619F0893609F077C0F801E7
:1017300037FE6BC060817181828193810C5F1F4F86
:10174000F32DFF763F2E97FF09C0909580957095F9
:1017500061957F4F8F4F9F4F689437F82AE030E0B4
:10176000A5010E94D70CC82ECA188C2C432C36FE1B
:101770000CC0E89440F8C91440F434FE05C032FCB3
:1017800003C0F32DFE7E4F2E892C44FEAAC0FE011D
:10179000EC0DF11D8081803309F09CC0242D297E41
:1017A000422E842D8870582E43FCAAC040FEA4C04F
:1017B0009C2C821418F42C0C922C981844FEA6C071
:1017C000B70180E390E00E94A70C42FE09C088E7C1
:1017D00090E041FE02C088E590E0B7010E94A70CAE
:1017E000C91408F49FC0CA94D12C9FEFC91AD90A12
:1017F000CA0CDB1CF60182916F01B70190E00E94D8
:10180000A70CAC14BD04B1F74FCF60817181072ED6
:10181000000C880B990B0E5F1F4F92CFD32CE894CE
:10182000D4F82AE030E08537E1F1232D297FD22E4C
:101830008F36A9F1F0F4883551F1F701868197814F
:101840002B960FB6F894DEBF0FBECDBFDF91CF91C0
:101850001F910F91FF90EF90DF90CF90BF90AF90CE
:101860009F908F907F906F905F904F903F902F90C0
:101870000895803749F0883701F7D4FE02C0689494
:10188000D2F820E130E00DC06894D4F8F6CF34FEF1
:1018900003C0822F8660D82E20E132E002C028E00B
:1018A00030E0F801D7FE0FC06081718182819381A1
:1018B0000C5F1F4FA5010E94D70CC82ECA183D2CE3
:1018C000E89437F852CF6081718190E080E00E5F3C
:1018D0001F4FF0CF42FC02C0839463CF8394839464
:1018E00060CF842D867809F45CCFF6CFB70180E213
:1018F00090E00E94A70C83948214C0F3512C5ECF19
:10190000522C5818821408F459CFF8CF842D8678B9
:1019100009F466CF8BE241FE80E247FC8DE2B7011D
:1019200090E05CCFB70180E390E00E94A70C9A940E
:1019300057CF8FEF9FEF84CFFC010590615070402F
:101940000110D8F7809590958E0F9F1F08950F93E3
:101950001F93CF93DF93182F092FEB018B8181FD0C
:1019600009C01FEF0FEF812F902FDF91CF911F91B3
:101970000F91089582FF14C02E813F818C819D813B
:10198000281739073CF4E881F981CF010196998342
:10199000888310838E819F8101969F838E83E3CFFE
:1019A000E885F985812F1995892BA1F3DACFFA0102
:1019B000AA27283051F1203181F1E8946F936E7F8E
:1019C0006E5F7F4F8F4F9F4FAF4FB1E03ED0B4E07F
:1019D0003CD0670F781F891F9A1FA11D680F791FC0
:1019E0008A1F911DA11D6A0F711D811D911DA11DD1
:1019F00020D009F468943F912AE0269F11243019E1
:101A0000305D3193DEF6CF010895462F4770405D7B
:101A10004193B3E00FD0C9F7F6CF462F4F70405D2A
:101A20004A3318F0495D31FD4052419302D0A9F785
:101A3000EACFB4E0A6959795879577956795BA957F
:101A4000C9F700976105710508959B01AC010A2E45
:101A500006945795479537952795BA95C9F7620F1C
:101A6000731F841F951FA01D0895A1E21A2EAA1BA3
:101A7000BB1BFD010DC0AA1FBB1FEE1FFF1FA2173E
:101A8000B307E407F50720F0A21BB30BE40BF50B3B
:101A9000661F771F881F991F1A9469F760957095C4
:101AA000809590959B01AC01BD01CF010895EE0F8B
:101AB000FF1F881F8BBF0790F691E02D1994F894B3
:021AC000FFCF56
:101AC2006D2D696E69742D646F6E650D0A006D2D42
:101AD20072656164790D0A006D2D7761726D7570A2
:101AE2002D73746172742D25640D0A006D2D77615A
:101AF200726D75702D646F6E650D0A006D2D696EC5
:101B02006665722D73746172742D25640D0A006D01
:101B12002D6C61702D75732D256C750D0A006D2D60
:101B2200696E6665722D646F6E650D0A00646200EF
:101B32002000652D5B436F6D6D616E6420276462CA
:101B420027207265717569726573206120737562F1
:101B5200636F6D6D616E645D0D0A006C6F61640090
:101B6200652D5B436F6D6D616E6420276462206C2E
:101B72006F6164272072657175697265732074687C
:101B8200652023206F662062797465735D0D0A00FB
:101B9200652D5B436F6D6D616E6420276462206CFE
:101BA2006F616427206D757374206265203E30205A
:101BB20062797465735D0D0A00537570706C6965A6
:101BC20064206275666665722073697A6520256491
:101BD2002065786365656473206D6178696D756DE4
:101BE200206F662025640A006D2D5B457870656361
:101BF20074696E672025642062797465735D0D0ACD
:101C0200007072696E74006D2D6275666665722D64
:101C1200002530327800652D5B496E737566666902
:101C220063656E74206E756D626572206F662068E2
:101C32006578206469676974735D0D0A00652D5BC0
:101C4200496E76616C6964206865782064696769A9
:101C52007420272573275D0D0A006D2D6C6F61645A
:101C62002D646F6E650D0A0070726F66696C650097
:101C72004D4C4D61726B496E6F2056302E302E31B5
:101C8200006D2D70726F66696C652D5B25735D0D3D
:101C92000A00656D626D6C006D2D6D6F64656C2D53
:101CA2005B25735D0D0A006673697A65006D2D66AA
:101CB20073697A652D5B25645D0D0A0068656C7039
:101CC2000025730D0A0068656C70202020202020FA
:101CD2002020203A205072696E7420746869732043
:101CE200696E666F726D6174696F6E0D0A006E6166
:101CF2006D652020202020202020203A205072696B
:101D02006E7420746865206E616D65206F66207444
:101D12006865206465766963650D0A0074696D659E
:101D2200737473616D702020203A2047656E65726E
:101D320061746520612074696D657473616D700DE5
:101D42000A00646220535542434D44202020203A29
:101D5200204D616E6970756C6174652061206765E4
:101D62006E65726963206279746520627566666564
:101D7200720D0A0020206C6F6164204E202020200A
:101D8200203A20416C6C6F63617465204E20627949
:101D920074657320616E6420736574206C6F616476
:101DA20020636F756E7465720D0A002020646220D4
:101DB20048485B48485D2A203A204C6F61642038CD
:101DC2002D626974206865782062797465287329A8
:101DD20020756E74696C204E2062797465730D0AE9
:101DE2000020207072696E74205B4E3D31365D209A
:101DF2005B6F66667365743D305D0D0A00202020BE
:101E0200202020202020202020203A205072696E9D
:101E120074204E206279746573206174206F666647
:101E2200736574206173206865780D0A00696E66B7
:101E32006572204E205B573D305D3A204C6F6164E5
:101E420020696E7075742C206578656375746520E1
:101E52004E20696E666572656E6365732061667495
:101E620065722057207761726D7570206C6F6F708C
:101E7200730D0A00726573756C7473202020202024
:101E8200203A2052657475726E20746865207265FE
:101E920073756C74206670333220766563746F726A
:101EA2000D0A006673697A652020202020202020F8
:101EB2003A2052657475726E20696E707574206670
:101EC2006561747572652073697A6520696E206236
:101ED200797465730D0A00696E66657200652D5B23
:101EE200496E666572656E636520697465726174B8
:101EF200696F6E73206D757374206265203E305D6C
:101F02000D0A00652D5B496E666572656E6365201C
:101F12007761726D7570206D757374206265203EF5
:101F22003D305D0D0A00726573756C7473006E61ED
:101F32006D6500647574006D2D6E616D652D257380
:101F42002D5B25735D0D0A0074696D657374616D97
:101F52007000652D5B556E6B6E6F776E20636F6DD3
:101F62006D616E643A2025735D0D0A000001020363
:101F72000405D8D001C0873CAEBF8039EFBF104105
:101F82001FC05347BBBFA1398DC0590F1FBE2D2A99
:101F9200443EE2DC903EB5CE103F986EEC3D260505
:101FA200B33E7440443ED5C9DCBBCC2E28BF6BA2E5
:101FB200D6BE1D7564BFA6CE5FBF3CE8D0BDC34C84
:101FC200B33DA0943D3D90B7E5BD1C7B6E3ECFC2B4
:101FD2002EBE118EFFBE6EA9083F6ECBA83C376A9B
:101FE2001F3EC560DE3DE2CF34BEF7D4C53C188D3E
:101FF20012BEAEB832BF1405E73E56C816BE2571F2
:10200200B03E63AF0B3E33A1A8BECF9DBBBE16C090
:10201200CF3EE819D63E5EF3CEBE694D8BBE417609
:10202200EE3E3C77053E1D2F06BE013D103E570297
:10203200EE3C1A0E143E187FE8BE15A67FBEE836A7
:10204200673DB0B386BD562FACBD51DEDE3E26BF26
:1020520008BE54D71A3D34051E3DA6043D3EE2E5B6
:10206200A2BE1E4AA0BE128501BF813D4A3D80FC30
:10207200103DB8C50EBF65775EBF45C2C4BEA10C98
:10208200C3BC4FD16A3E628ED03EDE3591BE694BF3
:10209200CDBEF828E8BEF16C40BC86F7E63E7AA9D0
:1020A2004A3DD8689D3D6AB5E13D517B043FC55725
:1020B200973E028DB7BD3F9D5C3EAC8C0F3E67657F
:1020C20079BF4E7412BFA6AE3F3E9B429DBE1D20FD
:1020D2008DBF479B87BFB34C41BD0233A7BE7C99DE
:1020E200B23E83BA223F1300153FE1E420BF8C5178
:1020F20033BE85FA59BFA6A4F83D13265CBEF493FD
:10210200D33E7600303F6032CA3E180127BD0A171F
:10211200DBBD1BFA983FE2347E3F55AE0EBEEFD1D7
:1021220000BE8E2F8ABEA87F90BD4363C7BD704E8E
:10213200C53D3367A0BDD891AB3EEF39B7BE7E2F08
:1021420081BECC6239BE5FE969BB5338FC3E386C54
:10215200493F28CF413EDD48A93EA543B13DB6D314
:10216200DCBE9712C3BE0522473E82D02B3ED40B63
:10217200373F70BB0C3FFA3DB43F12CE353F4D8B1B
:102182009BBEB3D67EBE86B6D2BB97452CBD6558E4
:1021920066BEE5757C3E2A5A72BE901A443E3BF2F8
:1021A200023E27D0033D58C00BBF8BD8553E7BA8BB
:1021B200353C40E06B3D3D9E0EBED73787BE791E53
:1021C200903EB772F0BD30DB4B3D7572B73DA6DD78
:1021D200C93E9A7054BE90498D3D32B9C3BE048245
:1021E20013BF249B13BFB807963D349BAEBDD9D411
:1021F200ED3D0703593F389FED3E354D65BEA3AD1A
:1022020021BF08EA49BEFF51DE3E82C1AA3EE25B1F
:10221200A5BEEE1E40BF9A8113BF3D53FB3E0C1C70
:1022220081BE8E1A363D1C829A3D07D10D3EA6C252
:1022320018BE0E6882BE72955B3DF3C13B3FD86FFC
:10224200BABE1A8A7BBED97F5CBD91923C3E4C11CC
:10225200BCBD5FBC173EABC9D13EDA7AAABD43769C
:102262008DBE5748A8BDBF39273E69282E3EE8B427
:10227200F7BD75C7CC3D3DA08D3EAFE278BEDD23F4
:102282009DBE0867D0BEA4ACE4BE6AB4C1BE673CC2
:10229200063D5C4C2ABEA4DEE1BED65712BF0AEC54
:1022A200183FD900DEBCE03E3DBFBDE186BEFE2543
:1022B2007C3E0CCD3A3BB32D8BBED8BE713D14B9DA
:1022C2009A3E98A68DBA8FCF65BE3329A93E62E9A0
:1022D200133F4307953E0AC2103F16D798BEE49EAD
:1022E2008FBE9E6426BE56F4723EA415933D7A3C80
:1022F200A3BD47670D3F6BF5833FFD33593DF13A6F
:1023020046BE38A403BE2D9E6E3E95DD4CBFFB60DB
:10231200BDBE426785BF497630BF0966113EF3E70D
:10232200113F75F2363FAED1E03DFD9901BF0F5925
:1023320052BE3C5617BFFE90C73DC388A93E56BD4C
:10234200853E88A3673DE88377BE3FFA3ABEFDF13A
:10235200D53D31D8243E9CB5B73EE06D9CBE0543C9
:10236200AD3EC2D3F23EA342063F507F7FBE0D3C3C
:10237200BD3D8F59003E6F14A93E311DE2BDF46C84
:102382009C3EB470CD3E37A0183F976DC4BEA032BC
:1023920031BF2D56A73E058D9F3EA9E567BEF27659
:1023A20055BDB93E813EC0F895BD4B81F0BEF7D414
:1023B20060BF0899343E2AF4943E21D1BABEBD05CD
:1023C200863BEB352F3EAD2F83BE3650DA3EE2AE72
:1023D2005EBEDEEF4C3E4082173E26E35D3BFF8B46
:1023E200013915C5263D01F602BF16422C3F0832BF
:1023F200293E46AB923E8C453A3C53610BBE4F019F
:10240200783C7EE600BD5E110DBE46F11C3E7AE8C8
:102412008A3E9A383F3DEBC0B3BE422F77BD92242D
:10242200A53EB576EC3E27D4663ED0CED73DD76CDE
:10243200B33C6F1C24BE9EC0DCBEEDE259BE7129C6
:1024420032BE636A7A3DE220853CA2D9983E60CBD7
:1024520021BDA6CEC8BA6ECBCCBD2662F23CEA8CB8
:102462008D3E9B49CD3ED5D6C03DCA98A43E57DC91
:10247200663C6194D83C9F1B77BD1E206ABD7B875A
:102482009A3E4318CC3E1DF80C3E1F283ABF224A02
:1024920021BFFED62FBDC915EFBD2F7D8ABEA0CCB0
:1024A200033DC518573EC181F93B12EA2BBE73E7C3
:1024B2008D3BEA65833E53E3A73D40B75F3E551629
:1024C20010BFFFC0A3BE3100193DC9CD4F3E41BA76
:1024D2007FBF180287BEECBE93BE8684DB3E7C299A
:1024E2004CBE54F017BE47EEAD3EA5E78CBE50C8B9
:1024F200BBBEDA2209BF576517BF820CA83E0BAFDD
:102502009B3E7160783ECA9AE9BCC0BCAE3E601583
:10251200FA3EE867103E6537623EFCDCA43DCAA382
:1025220086BEDF3CEDBD55D147BECD3F9E3EF8C0D5
:102532001A3F78AC113EBDF61C3E8CD6BC3EA88B31
:1025420093BEC40C8CBDACC721BD99E2B03EAF8531
:1025520038BE971170BEBD4D6BBE768A103BC14F1F
:1025620083BEA29BDFBDFAD8C33CB2D0A7BC7CB16C
:102572004DBED989E3BEF2F9AABEED4822BE818FD3
:10258200873CDC9E4F3E2B88CFBDD4AA11BF71166B
:102592006D3E0ED152BF8287DFBB0BDABF3D1E1DDF
:1025A2003DBFF18853BE0AA4213FF8FE01C0A3CA71
:1025B20066BC813B94BFDE66A53B17E317BE12687B
:1025C200EEBFC19854BD51E50040E105E5BB6B8DFE
:1025D2007ABD4D80023F79E1ABBEB401D0BEA129E4
:1025E20019BE84255BBF852A3DBF0EC534BDB5FA31
:1025F2008DBF39C6423FEF1A51BF73D856BFC012C2
:10260200393ED2746D3CB878243F50F5C93D7D8483
:10261200EC3D01D726BF3EF9C73F9F05CABE79E709
:1026220080BF2F3C7EBF8197693E36748DBE059276
:10263200A33C39A8E2BE1031143EB52017BF2EBD0F
:10264200BF3EBDAE42BEBA518D3C789B70BE41D8F2
:10265200A8BD8BEAA53D20C026BFEAB65FBC658A4D
:10266200CBBE6CEFD8BEA69E25BE4E0928BE0DBBC2
:102672001DBD0AF82B3FDABBCA3E8D0FA1BDE5F6A0
:1026820057BFCE0F9FBE551D0D3F3B5F813FB3E04D
:10269200CDBE6637423F7B33B63EA629913E30E738
:1026A200EABEA33359BF6BC4F53EDF51493F3A74CA
:1026B200C43E7FDEAC3E2E0920BEBB05EDBCCD5F25
:1026C200FC3FBAA5683DED4D68BE56CCA33FC2475C
:1026D200FF3FC672FE3FA1C6C53F6D51453F0BA9E4
:1026E200F03E7C7A8CBED7C081BF15CCCABFE855FC
:1026F2001DC00F72D73E19CC98BFFDDD3CBE13083A
:10270200C93F0D032D3FBD6A32BE70E50BBF8F9DE1
:10271200833F94E080BF1B1C9E3F752F91BDC9EB88
:10272200593D6A81B3BFD394D23EFBD3B6BF2F1FAC
:10273200B2BE4332813EF86F763F6556D7BCC9A020
:102742009B3FE771963DE88BC83EE72D243FD0972B
:102752008DBD7213DABD331127C041B9BCBF24D27B
:10276200F23E2087D43F00089B3EB1AA9C3FDA99F3
:10277200A63E3E1AC03F3FD2DABFB61614BF03319F
:102782009BBD31FF263F9D7C95BE93DDF83EC3A7DE
:10279200133D739592BD71F116BEFB53C7BE1FBBAD
:1027A2002FBE9C7AF3BD243EEA3EF5B8004018DB0A
:1027B200BABB0BEE1F3FA69208BDD3026B3E8C98AC
:1027C200A63EDB24D0BD35437FBE0B68AC3E41CC78
:1027D200353E495A10BC022D053F741121BD54AD3E
:1027E200FBBE9D85AA3D21FD02BE42A9183D43B311
:1027F20037BEBE0411BDDEA908BC565A66BE70AE15
:10280200ECBE6EF5913DEBFD523E1C3CE73E5D8B0E
:10281200BD3C33AD283FFAAF8C3D10BF423E1A7F1C
:102822002E3FC1DC083E789D7EBE2A770C3F9DCCB0
:102832004F3C3ACAF8BBE35B14BF754A593EEE6897
:10284200573FDD63793E05A546BEF40867BD391AD8
:10285200E9BCF09EFEBD7DB8063E130135BE3A6A64
:1028620099BD917318BD79AA3EBE8368A1BEFE0FC1
:102872002FBCA46F76BEFEBB98BCF0870CBDA68CA5
:10288200D03D114DEB3DBD2D5A3E7A55A93E58BC67
:10289200683DBD81CEBDD70455BE9275653F58D700
:1028A200733E29A325BE090757BEA75E21BF3F334A
:1028B20048BC53FF2EBFFBA819BFA66FF93D77296D
:1028C200CA3E38671CBE040A81BE968AF23E63384D
:1028D2000D3F4AD9993EAF39463FA696D23D227264
:1028E200D4BE03BCA9BEB5E6083E681B77BF9335CC
:1028F200ACBE22AF3CBF4F7813BE3B69A5BE8A4B2C
:10290200153F6627253F135DE73E078A1A3F41F0D0
:1029120002BFCE782F3E55121FBF5C01163DCCD2AE
:10292200CD3E7B3743BCB75B1ABE66EE0C3F4AB165
:1029320039BFA9FD02BECC55E4BE0FB01B3D1E7EC1
:102942006A3EF5B3FF3DFB9EC8BD052E203EB87C16
:10295200783E8845E83D175F833E3C3C0BBE342001
:102962004BBE3A6F97BE01A1C8BE506386BCFA55F2
:102972006EBE0EAF80BC8B3B0B3EE9EA82BE1117E6
:10298200873CC4C7BD3CA379A03D779244BE3BA21D
:102992000E3E9D7D863D5A1A183E18EE823E7A04FE
:1029A200503D1131323D8C3FBA3EB521B73DCC6D21
:1029B200B1BAEA5CA23FDBDB613F34CD59BEFD46D2
:1029C2003EBED2646C3EA058C53EE3E3D4BEB3091A
:1029D2004DBFB9A52BBFAA5E56BF3DFEC5BDEB706C
:1029E20098BED4E140BE86A0003E899523BF79609F
:1029F20042BFE8EB6BBFD62C85BF81B8C13D731CCB
:102A0200FDBDA56C2FBD0225A3BBA20C47BE65B0C0
:102A1200D53DC851473F677918BFAF6302BEE2B5E3
:102A220004BFCD48A6BDE6A7ABBE3B06973EFC70F1
:102A32002A3DB70A463FBDFCF4BEC2CACBBD4C1DFF
:102A4200A33E3B02D63D8B1D32BEA4B791BE0515F7
:102A5200013D37D7C4BE52C3CA3DCBA8823D6F6782
:102A62004A3CB05B2A3E3696E4BDA9D7A7BE5AC3FC
:102A72000E3DD3F8ADBEA1F4693E134E713D345301
:102A82008BBCF8F21E3E7BE356BEA986983DE12A36
:102A9200853F6BCB513E76245A3FB60700BF6CA6EA
:102AA20039BFCA08A9BEEA21D53D93804CBF14A202
:102AB20050BF4C0B57BFF6FE8CBE12A60FBF067D51
:102AC200EB3D94B4F63E9A49A33E9CDFE3BEE43765
:102AD20057BF2FAE65BFE3D0CDBFBDA809BF405AD7
:102AE200A23EF3F2A23E8B07AB3E788EE53FEBF0BF
:102AF200193FE04B593FB08AAA3EDE640B3F616842
:102B02008ABFD1DB66BF4FBB28BFCECAB9BEDFA822
:102B1200843EFE25163F78F12BBDE142E33C6C9AE0
:102B2200C1BE6540043FCDAAB23DB9C634BF0477E9
:102B3200B43D98D6833FC9EE2F3F23A13C3E563B7E
:102B420036BED16FCA3E392D033DD7D12ABE8AEE99
:102B5200E6BD1E4CEABE9388D43C786D013DA1C20D
:102B6200FC3DC44E783E3FA57E3C827D623DD060F6
:102B72001A3EDE253DBFFC76ADBE4C8D8CBEC4290F
:102B8200843D32384B3ED6A2533E6D2D74696D653D
:102B92007374616D702D6D6F64652D706572666FF3
:102BA200726D616E63650D0A00496E707574206402
:102BB200622068617320256420656C656D656E74A2
:102BC20065642C2065787065637465642025640AE9
:102BD200006D2D726573756C74732D5B0025640036
:102BE20000000000FD0653087706DD06490663066D
:022BF200550686
:00000001FF
