:100000000C9452000C946F000C946F000C946F00D1
:100010000C946F000C946F000C946F000C946F00A4
:100020000C946F000C946F000C946F000C946F0094
:100030000C946F000C946F000C946F000C946F0084
:100040000C946F000C946F000C946F000C946F0074
:100050000C946F000C946F000C946F000C946F0064
:100060000C946F000C946F004E414E494E49545908
:10007000494E46CDCCCC3D0AD7233C17B7D1387773
:10008000CC2B329595E6241FB14F0A000020410089
:1000900000C84200401C4620BCBE4CCA1B0E5AAED3
:1000A000C59D740011241FBECFEFD8E0DEBFCDBFC9
:1000B00011E0A0E0B1E0EAE2F7E202C005900D92A3
:1000C000A430B107D9F721E0A4E0B1E001C01D924E
:1000D000AC30B207E1F70E94AE0D0C9493130C9470
:1000E00000004F925F926F927F928F929F92AF9299
:1000F000BF92CF92DF92EF92FF92CF93DF93EC010A
:100100008C809D80AE80BF80CC84DD84EE84FF84B3
:100110002EEB3AE74EE350E4C501B4010E94120E03
:1001200018160CF485C02BE83FE54DEE5EE3C701E1
:10013000B6010E94120E18160CF007C148845984AB
:100140006A847B8420E634E748EA50E4C301B201C4
:100150000E94120E18160CF468C026E83DEF49E91B
:1001600050E4C301B2010E94120E1816ACF188804F
:100170009980AA80BB8025E53BE141EB50E4C501B5
:10018000B4010E94120E1816E4F029E238E94FEA91
:1001900050E4C501B4010E94120E18167CF025E748
:1001A00036E142EA50E4C501B4010E94120E22E792
:1001B00036E44DE750E418160CF093C081E090E06F
:1001C000C6C02FEA3AEA4CED5FE3C701B6010E94D0
:1001D000120E18169CF729C022EC36EC4CE250E4C3
:1001E000C501B4010E94120E20E43EE64FE950E43E
:1001F00018160CF076C02AE932EA4EE250E4C50146
:10020000B4010E94120E181684F021E538EA4CEB76
:1002100050E4688179818A819B810E94120E21E1DC
:1002200030ED4FED5FE3181684F282E090E08FC06E
:10023000488059806A807B802CEA39E241EC50E4A6
:10024000C301B2010E94120E18160CF44DC024E333
:100250003FEC45E15FE3C701B6010E94120E18169C
:100260000CF073C088849984AA84BB8423E33FE4A0
:1002700042E050E4C501B4010E94120E18160CF0C1
:1002800064C028ED3CE548E850E4C501B4010E9493
:10029000120E18160CF092CF26E53CE645EC5FE313
:1002A000C701B6010E94120E18160CF087CF2CEF72
:1002B00032EB4DE950E4C501B4010E94120E18164C
:1002C0000CF4B3CF2EE93AE943EE5FE3C701B60180
:1002D0000E94120E18160CF071CF2CE837E34DEB8C
:1002E00050E4C301B20173CF25E232E84DEF5FE382
:1002F000C701B6010E94120E18160CF496CF27EA19
:1003000035E443EC5FE3C701B6010E94120E1816F4
:100310000CF054CF28E232EA42EE50E4C301B201BD
:100320000E94120E18160CF480CF25ED34E941E539
:1003300050E4C501B4010E94120E29E033E34FEDF1
:100340005FE318160CF041CF39CF90E080E0DF91E9
:10035000CF91FF90EF90DF90CF90BF90AF909F90A4
:100360008F907F906F905F904F9008954F925F9223
:100370006F927F928F929F92AF92BF92CF92DF92B5
:10038000EF92FF92CF93DF93EC01CC84DD84EE8477
:10039000FF8421E539E14DEB5FE3C701B6010E941F
:1003A000120E1816D4F188849984AA84BB8420E69E
:1003B0003EE34BE750E4C501B4010E94120E18164B
:1003C0000CF12BEF34E244E250E46C817D818E81AC
:1003D0009F810E94120E181674F024ED32EB43EE4A
:1003E0005EE3C701B6010E94120E18160CF0F4C0AD
:1003F00081E090E0F3C02FEE34E24AE450E4C5011E
:10040000B401F1CF22ED3AEB48EA50E4C501B40162
:100410000E94120E181664F72FC020EB34ED4CE149
:1004200050E4C701B6010E94120E18162CF1888400
:100430009984AA84BB8426EC3CE04CE950E4C501D5
:10044000B4010E94120E181674F12EE136EA45E945
:1004500050E4C501B4010E94120E181684F02FEF6B
:100460003FE645EA50E4688179818A819B810E9458
:10047000120E18160CF4BCCF82E090E0AFC02CE155
:1004800032E147E950E4C501B4010E94120E18168A
:100490000CF0AECF21EB3EEC41E450E46C817D8169
:1004A0008E819F81E4CF488059806A807B802DE8CF
:1004B00034E140EC50E4C301B2010E94120E181660
:1004C000DCF022E13DE04DEE5FE3C701B6010E94A2
:1004D000120E18168CF22DEF35E540ED5FE3C701E3
:1004E000B6010E94120E18163CF22EED36EE42EACC
:1004F00050E4C501B401BBCF21E333E54BEC50E43C
:10050000C301B2010E94120E1816ECF02EE331E185
:1005100043EB50E4C501B4010E94120E18160CF40E
:10052000ABCF28E835EE43E250E46C817D818E81CB
:100530009F810E94120E18160CF49ECF20EA38EC10
:100540004EE950E463CF2CEC3CEB4AE050E4C701A9
:10055000B6010E94120E18160CF48ECF2BEC3CE460
:100560004EEE50E4C301B2010E94120E18160CF4B4
:1005700083CF2EEB36E944ED50E4C301B2010E9473
:10058000120E18160CF078CF24E231E041E050E46E
:10059000C701B6010E94120E18160CF46DCF20EEA2
:1005A00032EE44EC5FE3C701B6010E94120E18164A
:1005B0000CF01ECF2EED38EB48ED50E4C301B20134
:1005C0000E94120E18160CF457CF22E93AED43EEB2
:1005D0005FE3C701B6011CCF90E080E0DF91CF91CF
:1005E000FF90EF90DF90CF90BF90AF909F908F9053
:1005F0007F906F905F904F9008954F925F926F92AF
:100600007F928F929F92AF92BF92CF92DF92EF92A2
:10061000FF92CF93DF9300D000D0CDB7DEB79A839F
:100620008983DC018D909D90AD90BC9013971896B6
:10063000CD90DD90ED90FC901B972AEB3AEE4DEAC1
:1006400050E4C501B4010E94120E18163CF12CEAC8
:1006500038E948EF5FE3C701B6010E94120E181691
:100660000CF04FC02DEC36E047E95FE3E981FA81F9
:1006700064857585868597850E94120E18165CF430
:1006800022EF32EF4CE950E4C501B4010E94120E92
:1006900018160CF0DDC081E090E035C02DEC37E598
:1006A00044E850E4C701B6010E94120E18160CF47B
:1006B0003DC022E933EA43E850E4A981BA811496A7
:1006C0006D917D918D919C9117970E94120E181635
:1006D000C4F02CED3EE042E85FE3E981FA816485F5
:1006E0007585868597850E94120E1816A4F22AE455
:1006F00036E549E550E4C701B6010E94120E18160E
:1007000054F290E080E00F900F900F900F90DF91E7
:10071000CF91FF90EF90DF90CF90BF90AF909F90E0
:100720008F907F906F905F904F90089521E233EF0C
:1007300044E950E4C701B6010E94120E18160CF0ED
:10074000AACFA981BA811C964D905D906D907C9046
:100750001F972DED3AEA4BEF5FE3C301B2010E9410
:10076000120E18160CF474C0A981BA8114968D91DA
:100770009D910D90BC91A02D89839A83AB83BC83FE
:100780002CE634EB41E150E4BC01CD010E94120E95
:1007900018160CF05DC023EB3BE84BE450E4698194
:1007A0007A818B819C810E94120E18160CF45AC01B
:1007B00028E63CEA4DEC50E4C501B4010E94120E5B
:1007C00018160CF448C029EB35E648EC50E4C50196
:1007D000B4010E94120E18166CF128E332EA4BEABB
:1007E00050E4C701B6010E94120E18168CF127E2E0
:1007F0003AE04DEE5FE3C301B2010E94120E1816FB
:100800003CF12DEB3DE846EC5FE3C301B2010E94F1
:10081000120E18160CF03FCF25EE34E642E350E4FA
:1008200069817A818B819C810E94120E18160CF0CE
:1008300032CF0EC028EE3EE842EE5FE3C301B201C4
:100840000E94120E29EE30E24FE950E418163CF4F3
:1008500082E090E058CF26E135EE4BEA50E4C70144
:10086000B601E2CF28E738ED4CED50E4C501B40104
:100870000E94120E18160CF00ECF25E337ED47E953
:1008800050E4EDCF8F929F92AF92BF92CF92DF92C2
:10089000EF92FF92CF93DF93EC0188809980AA803A
:1008A000BB80CC84DD84EE84FF8421E833EA45EA12
:1008B00050E4C501B4010E94120E181644F121E95A
:1008C0003CEA49EF5EE3C701B6010E94120E18161A
:1008D0008CF420E432E344E250E46C817D818E812B
:1008E0009F810E94120E20E33EE946EC5FE318165A
:1008F0000CF026C190E080E0DF91CF91FF90EF9067
:10090000DF90CF90BF90AF909F908F9008952FEB86
:1009100035E94CEA5FE3C701B6010E94120E1816D2
:1009200084F1CC80DD80EE80FF8023E138E647E370
:1009300050E4C701B6010E94120E1816FCF420E81C
:1009400033ED4FE750E4C701B6010E94120E1816AE
:100950008CF223E63CEA4CE550E4C701B6010E9464
:10096000120E18163CF225E53AE248E450E4C701BD
:10097000B6010E94120E18160CF4BCCF81E090E074
:10098000BBCF28E73AEB48EC5FE3C701B6010E9412
:10099000120E18160CF44FC026E737E844E250E474
:1009A0006C817D818E819F810E94120E1816BCF091
:1009B00024E837E949EC50E4C501B4010E94120E65
:1009C00023E838E047E950E41816C4F268857985D1
:1009D0008A859B850E94120E181684F629C0C88449
:1009E000D984EA84FB842BEF3FE644E850E4C70156
:1009F000B6010E94120E18160CF0C0CF24EE37E993
:100A00004BE950E4C701B6010E94120E18160CF013
:100A1000B5CF25E93EE548EA50E4C701B6010E949A
:100A2000120E21EB35E34EE950E418160CF088C0A5
:100A300082E090E061CF24E631E44BEB50E4C50165
:100A4000B4010E94120E18169CF721EA34E243EC1E
:100A500050E4C501B4010E94120E1816D4F025ED21
:100A60003BEF4FED5FE3C701B6010E94120E18166F
:100A70000CF084CF26EE33EF4EEB50E4C501B40109
:100A80000E94120E1816A4F225E83BE34AE950E44E
:100A90009DCF24E539EC48E050E4C701B6010E943F
:100AA000120E18160CF4C4CF27E53AEA44ED5FE3C2
:100AB000C701B6010E94120E181674F02AE43BE535
:100AC0004BE450E46C817D818E819F810E94120EE7
:100AD00018160CF0ADCF52CF88849984AA84BB84B9
:100AE0002CEA3CE644EC50E4C501B4010E94120E2D
:100AF00018160CF49DCF2BEB3EE446EA50E4C501FA
:100B0000B4010E94120E18160CF492CF2CE733E1B8
:100B10004FE950E4C501B4010E94120E18160CF002
:100B200087CF20E233E941EA50E4C501B4010E94D5
:100B3000120E18160CF47CCF21E732E746EE5FE385
:100B4000C701B60147CF4F925F926F927F928F920B
:100B50009F92AF92BF92CF92DF92EF92FF92CF938C
:100B6000DF93EC0188809980AA80BB8028E33AE17A
:100B70004DED50E4C501B4010E94120E18160CF49C
:100B8000A9C0CC84DD84EE84FF842DE437E644E6FE
:100B90005FE3C701B6010E94120E18160CF0B0C038
:100BA00024E83FE945EA5FE3C701B6010E94120E5F
:100BB00018160CF06BC0488459846A847B8427E63D
:100BC0003FE646E950E4C301B2010E94120E181636
:100BD00074F027E136EA47ED5FE3C701B6010E94F2
:100BE000120E18160CF052C082E090E08BC024EF79
:100BF00030EA49EF5FE3C701B6010E94120E1816F2
:100C00009CF32AE132EC44EB50E4C301B2010E94B0
:100C1000120E18164CF329EE3EE84EED5FE3C701C5
:100C2000B6010E94120E1816A4F125E534E446EC34
:100C30005FE3C701B6010E94120E18163CF1CC808A
:100C4000DD80EE80FF8020E133EF44E350E4C70114
:100C5000B6010E94120E1816CCF02CE63AE249E2D8
:100C600050E4C701B6010E94120E23E037E846ECBB
:100C700050E4181624F427EF35EC48ED50E4C50194
:100C8000B4010E94120E18160CF0AECF81E090E075
:100C900039C026E938E044EC50E4C501B4010E94B3
:100CA000120E18160CF4A0CFCC80DD80EE80FF80F1
:100CB0002AED3AE045E350E4C701B6010E94120E66
:100CC00018160CF091CF29E53CE747E450E4C70142
:100CD000B601D7CF2CEC3DEC45E650E46C817D812C
:100CE0008E819F810E94120E18160CF47DCF27EF83
:100CF00032EC44EA50E4688579858A859B856FCF1C
:100D000090E080E0DF91CF91FF90EF90DF90CF9067
:100D1000BF90AF909F908F907F906F905F904F901B
:100D200008954F925F926F927F928F929F92AF92AF
:100D3000BF92CF92DF92EF92FF92CF93DF93EC01BD
:100D4000C884D984EA84FB842EED37E34EE450E472
:100D5000C701B6010E94120E181684F024E538EB84
:100D60004AE85FE36C857D858E859F850E94120E23
:100D700018160CF011C181E090E010C14880598034
:100D80006A807B8020EE31EC4BEC50E4C301B20171
:100D90000E94120E18160CF4D5C02BEE37E741EB6B
:100DA00050E4C701B6010E94120E18160CF476C06A
:100DB0002FEB32E345EA50E4C701B6010E94120E60
:100DC00018160CF46BC08C849D84AE84BF8422E61C
:100DD00031EC47E150E4C501B4010E94120E18162F
:100DE0000CF45CC022EE3FEC43EC50E4C301B201D2
:100DF0000E94120E18160CF467C02FEC39E94DE969
:100E000050E4C701B6010E94120E18160CF449C036
:100E10002BE23AE044EE5FE3C501B4010E94120EFA
:100E200018167CF12DED31E24DEB50E4C301B20117
:100E30000E94120E18160CF49ECF2FEA3FE042E3F8
:100E400050E46C817D818E819F810E94120E181664
:100E50000CF491CF2FE83AE842EA50E4C301B20122
:100E60000E94120E2AEC39EF47E850E418160CF4F1
:100E700082CFC701B6010E94120E18160CF07BCF6C
:100E80000DC025ED30E14CE450E46C817D818E8114
:100E90009F810E94120E18160CF46DCF82E090E034
:100EA0007DC02EE23DE743E250E46C817D818E817E
:100EB0009F810E94120E18168CF721E132E54EEB4D
:100EC00050E4C301B201E5CF25E831E048EE5FE32D
:100ED000C501B4010E94120E181604F321E332ED8D
:100EE00045EE5FE3C501B4010E94120E1816B4F27C
:100EF00020E33FEC4BEB5FE3C501B4010E94120E0F
:100F000018160CF038CFCC80DD80EE80FF802AE30D
:100F100037EC45E350E4C701B6010E94120E1816E3
:100F20000CF429CF2DEF3DE341E150E4C701B601B8
:100F30000E94120E2EE83DEB4BE250E418160CF422
:100F400098CF19CF21EB33E047EA50E4C701B6014F
:100F50000E94120E18160CF4A1CFCC84DD84EE840E
:100F6000FF8424E130E549E050E4C701B6010E9466
:100F7000120E18160CF492CF26E030EE40EC5FE330
:100F8000C701B6010E94120E18160CF0F4CE22E32F
:100F90003DEB42EF5FE36DCF90E080E0DF91CF91DA
:100FA000FF90EF90DF90CF90BF90AF909F908F9089
:100FB0007F906F905F904F9008954F925F926F92E5
:100FC0007F928F929F92AF92BF92CF92DF92EF92D9
:100FD000FF92CF93DF93EC01C880D980EA80FB8039
:100FE0002BED38ED49EC50E4C701B6010E94120E1A
:100FF00018160CF4B6C08C849D84AE84BF842AE895
:101000003BEF42EF5EE3C501B4010E94120E1816D9
:101010000CF0D6C02FEF3CEB43EE5FE3C501B4010B
:101020000E94120E18160CF47DC0488459846A84FC
:101030007B842CE331E347EA50E4C301B2010E9410
:10104000120E1816BCF124E933E848EB50E4C7014E
:10105000B6010E94120E181684F12CE638EF41E515
:1010600050E46C817D818E819F810E94120E181642
:101070000CF4A6C02BE736ED4EEB5FE3C501B401DF
:101080000E94120E18160CF04AC02AE937EA42EB09
:1010900050E4C701B6010E94120E18160CF43FC0AE
:1010A0002FE831E645ED5FE3C501B4010E94120E61
:1010B0001816ACF582E090E085C02FE232E046E9F8
:1010C00050E4C301B2010E94120E181644F528E93B
:1010D00032E946E950E4C301B2010E94120E18162B
:1010E000F4F426EE3FE04FE950E4C301B2010E9460
:1010F000120E1816A4F420E638E742EA50E4C301C1
:10110000B2010E94120E1816ACF620E739EC49EC39
:101110005FE3C501B4010E94120E18165CF681E06F
:1011200090E050C020E134E14FEB50E4C701B6013C
:101130000E94120E18160CF4BDCF20E035EA4BEBDE
:1011400050E4C701B6010E94120E18160CF0B2CF7F
:1011500029E43FEA40EA50E4688579858A859B85E1
:10116000A5CF21ED3BEA44EA50E4688579858A857C
:101170009B850E94120E18160CF49CCF25E234E3D6
:1011800041ED5FE36C857D858E859F850E94120E03
:1011900018162CF6CC80DD80EE80FF8029E939E43A
:1011A0004CE450E4C701B6010E94120E18160CF46C
:1011B00081CF28E13CE741E450E4C701B60176CF96
:1011C00090E080E0DF91CF91FF90EF90DF90CF90A3
:1011D000BF90AF909F908F907F906F905F904F9057
:1011E00008954F925F926F927F928F929F92AF92EB
:1011F000BF92CF92DF92EF92FF92CF93DF9300D016
:1012000000D000D0CDB7DEB79E838D83DC0114966D
:10121000CD90DD90ED90FC90179720ED33E64FE7F1
:1012200050E4C701B6010E94120E18160CF420C13A
:10123000ED81FE8180809180A280B38021EE3DE22D
:1012400046E950E4C501B4010E94120E18160CF0D4
:101250000FC1AD81BE8118968D919D910D90BC916D
:10126000A02D89839A83AB83BC8324E234ED46EAC4
:1012700050E4BC01CD010E94120E18169CF122E32D
:101280003FE646EC50E4C501B4010E94120E181668
:101290000CF494C027E23BEF47E150E469817A8186
:1012A0008B819C810E94120E18160CF0E1C0ED811A
:1012B000FE8144845584668477842DE13CE84DE9C1
:1012C00050E4C501B4010E94120E181674F027EA0A
:1012D00031EF4CEB5FE3C301B2010E94120E18160E
:1012E0000CF069C082E090E0C5C028E03BE949E825
:1012F0005FE3C301B2010E94120E18160CF05BC02E
:101300002AE839E241E050E4C301B2010E94120E22
:10131000181644F327E932E245EC5FE3C301B2015A
:101320000E94120E181644F121EE36E34DE250E40D
:10133000C701B6010E94120E18160CF43CC02CE432
:1013400033E543E150E4C701B6010E94120E1816BE
:1013500094F129E131E543EC50E4C501B4010E9468
:10136000120E181644F125EB35EC4FE850E4698174
:101370007A818B819C81B1CF2AEE33ED47E550E431
:10138000C701B6010E94120E1816ACF025EF3FE817
:1013900043EE5FE3C301B2010E94120E18165CF423
:1013A0002CEE38ED42E450E4C701B6010E94120E63
:1013B00018160CF097CF81E090E05CC02CE136E885
:1013C00048E150E4C701B6010E94120E18169CF7BE
:1013D00027E534E34FE950E469817A818B819C8170
:1013E0000E94120E181664F121E93CE94FEB5FE30D
:1013F000AD81BE811C966D917D918D919C911F97C1
:101400000E94120E1816BCF623E63AE44CEC50E4A7
:10141000C501B4010E94120E18166CF22DE032E9DB
:1014200040E450E4C701B6010E94120E18160CF4F5
:10143000C2CF23E231E745E250E4C701B6014DCF08
:1014400025E137E242EA50E469817A818B819C810F
:101450000E94120E18160CF445CF21EE3EE04FEE1E
:101460005FE3ED81FE81648575858685978535CF3F
:1014700090E080E026960FB6F894DEBF0FBECDBF99
:10148000DF91CF91FF90EF90DF90CF90BF90AF9022
:101490009F908F907F906F905F904F9008954F92A4
:1014A0005F926F927F928F929F92AF92BF92CF92F4
:1014B000DF92EF92FF92CF93DF93EC01CC80DD803F
:1014C000EE80FF808C849D84AE84BF8429EE31E35E
:1014D0004DE350E4C701B6010E94120E18160CF439
:1014E000B4C025E13BED4BEA5EE3C501B4010E94C7
:1014F000120E18160CF01FC1488459846A847B842C
:1015000022EE3BED40E850E4C301B2010E94120E0E
:1015100018160CF065C028EC3EE242E150E4C5012B
:10152000B4010E94120E18160CF48CC029E434E8A1
:101530004EE150E4C701B6010E94120E22E634E4E7
:101540004EE950E418160CF0EEC02AE935E144E803
:1015500050E4C301B2010E94120E18160CF040C0F4
:101560002FEE35EC42EA50E4C301B2010E94120EA4
:1015700018160CF443C029E935E444E350E4C701EC
:10158000B6010E94120E18165CF12AE232EA4CEE05
:101590005FE3C501B4010E94120E18160CF452C08C
:1015A0002CE33AE847E950E4C301B2010E94120E6D
:1015B0001816CCF026E831E847E250E4C701B6013E
:1015C0000E94120E181664F021E731E648EA50E452
:1015D000688179818A819B810E94120E181694F588
:1015E00081E090E0AAC029E236E94AED5FE3C50157
:1015F000B4010E94120E18169CF724C025EF34EA9D
:1016000048EB50E4C301B2010E94120E1816D4F048
:101610002EE538E646EA50E4C301B2010E94120EFC
:10162000181684F026E834EF42EC50E468817981A2
:101630008A819B810E94120E22EB36E949ED5FE31D
:101640001816ACF682E090E078C022EE3AE94BE161
:101650005FE3C501B4010E94120E18160CF06BC0B6
:10166000488459846A847B842CE336EE42E950E452
:10167000C301B2010E94120E18160CF0B1CF2CE17A
:1016800036E044EB50E4C301B2010E94120E18167A
:10169000CCF220EF34E948E550E4C701B6010E94DE
:1016A000120E18167CF22FEF3FEC49E450E4C7010C
:1016B000B6010E94120E1816CCF12FE338E34FE961
:1016C00050E4C301B2010E94120E18162CF025E35B
:1016D00033E54DEC5FE38BCF20E031E242E450E4B0
:1016E000C701B6010E94120E18160CF4ABCF2BE006
:1016F00030EE46EC50E4688179818A819B810E94BA
:10170000120E18160CF09ECF20E834E84EEA50E492
:10171000C301B2010E94120E29E23FE941EA50E4FE
:1017200018160CF48FCFC301B20163CF2FEA3BE54B
:101730004AE950E4F8CF90E080E0DF91CF91FF904C
:10174000EF90DF90CF90BF90AF909F908F907F9061
:101750006F905F904F9008954F925F926F927F923B
:101760008F929F92AF92BF92CF92DF92EF92FF92B1
:10177000CF93DF93EC01C884D984EA84FB8428EDFD
:1017800034E24AE450E4C701B6010E94120E181672
:1017900074F021E23DE64EE050E4C701B6010E943C
:1017A000120E18160CF0FBC081E090E0FAC08C8499
:1017B0009D84AE84BF8428EF3CE14CE85FE3C50123
:1017C000B4010E94120E18167CF72AE236E647E7AB
:1017D00050E4C701B6010E94120E18162CF722E73A
:1017E0003BE740EC50E4C701B6010E94120E181608
:1017F0000CF448C0488059806A807B8022E03AED32
:1018000044ED50E4C301B2010E94120E18160CF40C
:1018100086C02FE13CE748EC5FE3C501B4010E94BC
:10182000120E18160CF448C08C809D80AE80BF80CC
:101830002AE23DE840E350E4C501B4010E94120EE3
:1018400018161CF128E636EA49E950E4C701B6014A
:101850000E94120E18160CF0A7CF2EE439E942E2CE
:1018600050E4C501B4010E94120E18165CF02FEE70
:101870003EE045E150E4C501B4010E94120E181685
:101880000CF492CF82E090E08CC023E130E646E990
:1018900050E4C701B6010E94120E18160CF084CF56
:1018A0002AEC3EED43EC50E4C301B2010E94120E5B
:1018B00018160CF079CFE6CF24E232E846ED5FE36C
:1018C000C501B4010E94120E18160CF06DCF2BE862
:1018D00036E24EEA50E4C701B6010E94120E181615
:1018E0008CF225EA31E94FE950E4C701B6010E94C4
:1018F000120E18163CF22FEC36E441EC50E4C30112
:10190000B2010E94120E18160CF4BCCF2BE23BE978
:1019100044E450E46C817D818E819F81AECF24EBC5
:1019200032E243E950E4C701B6010E94120E1816D4
:101930000CF03ACF2AE03BEF43EB50E4C701B6018D
:101940000E94120E18160CF49DCF20E13CEE4CE3E1
:1019500050E46C817D818E819F810E94120E181649
:101960000CF022CF27EC38E740E150E4C501B40188
:101970000E94120E18160CF485CF2AE23FED40ECBF
:101980005FE3C501B4010E94120E18160CF00CCFD3
:1019900025EE39E541EA50E4C701B60187CF90E072
:1019A00080E0DF91CF91FF90EF90DF90CF90BF90DC
:1019B000AF909F908F907F906F905F904F90089521
:1019C0000F931F93CF93DF9300D000D000D0CDB7FB
:1019D000DEB78C011A8219821C821B821E821D8234
:1019E0000E947100880F991FE1E0F0E0EC0FFD1FED
:1019F000E80FF91F80819181019691838083C8014E
:101A00000E94B601880F991FE1E0F0E0EC0FFD1F86
:101A1000E80FF91F80819181019691838083C8012D
:101A20000E94FD02880F991FE1E0F0E0EC0FFD1F1E
:101A3000E80FF91F80819181019691838083C8010D
:101A40000E944204880F991FE1E0F0E0EC0FFD1FB7
:101A5000E80FF91F80819181019691838083C801ED
:101A60000E94A305880F991FE1E0F0E0EC0FFD1F35
:101A7000E80FF91F80819181019691838083C801CD
:101A80000E949106880F991FE1E0F0E0EC0FFD1F26
:101A9000E80FF91F80819181019691838083C801AD
:101AA0000E94DD07880F991FE1E0F0E0EC0FFD1FB9
:101AB000E80FF91F80819181019691838083C8018D
:101AC0000E94F108880F991FE1E0F0E0EC0FFD1F84
:101AD000E80FF91F80819181019691838083C8016D
:101AE0000E944F0A880F991FE1E0F0E0EC0FFD1F04
:101AF000E80FF91F80819181019691838083C8014D
:101B00000E94AC0B880F991FE1E0F0E0EC0FFD1F85
:101B1000E80FF91F8081918101969183808329814B
:101B20003A818B819C8128173907ACF49C0181E0B4
:101B300090E04D815E812417350714F482E090E037
:101B400026960FB6F894DEBF0FBECDBFDF91CF91C2
:101B50001F910F91089590E080E0EBCF6F927F92FC
:101B60008F929F92AF92BF92CF92DF92EF92FF92AD
:101B70000F931F93CF93DF93CDB7DEB75C016DB6A4
:101B80007EB60197880F991F880F991F2DB73EB712
:101B9000281B390B0FB6F8943EBF0FBE2DBF8DB773
:101BA0009EB701966C018B010E5F1F4F4C01EE2416
:101BB000E394F12CEA14FB042CF1C6010E94E00C22
:101BC0009F938F9380E091E09F938F930E943F0EAD
:101BD0000F900F900F900F9090E080E00FB6F89468
:101BE0007EBE0FBE6DBEDF91CF911F910F91FF9012
:101BF000EF90DF90CF90BF90AF909F908F907F90AD
:101C00006F900895F801819191918F010E943B0E90
:101C1000F40161937193819391934F01FFEFEF1A58
:101C2000FF0AC8CF0E94170E08F481E00895990FAB
:101C30000008550FAA0BE0E8FEEF16161706E80796
:101C4000F907C0F012161306E407F50798F0621BB7
:101C5000730B840B950B39F40A2661F0232B242B8C
:101C6000252B21F408950A2609F4A140A6958FEFAB
:101C7000811D811D0895662777270C942F10B0E0F1
:101C8000A0E0E5E4FEE00C945D13AE014B5F5F4F16
:101C9000FA0161917191AF01809106019091070164
:101CA0000E94550EE2E00C947913ABE0B0E0EBE556
:101CB000FEE00C944D137C013B018A01FC0117826C
:101CC0001682838181FFC8C1CE0101965C01F701B4
:101CD0009381F30193FD859193FF81913F018823C7
:101CE00009F453C1853239F493FD859193FF8191B5
:101CF0003F01853229F4B70190E00E94B611E7CF89
:101D0000912C212C312CFFE1F31538F08B3211F19D
:101D100090F4803209F1833229F137FC3CC020ED88
:101D2000280F2A3050F536FE20C08AE0989E200DFC
:101D30001124922E06C08D3291F0803371F7689491
:101D400030F8F30193FD859193FF81913F0181115B
:101D5000DACF21C0689431F8689432F8F2CF6894F1
:101D600033F8EFCF689434F8ECCFEAE02E9E200DE4
:101D70001124222E689435F8E4CF8E3229F436FCF3
:101D800004C1689436F8DDCF8C3619F4689437F8BE
:101D9000D8CF8836B1F2982F9F7D95549330E0F0DC
:101DA0008336A1F18337C1F1833509F063C028017F
:101DB000F2E04F0E511CF801C080D180692D70E017
:101DC00036FC02C06FEF7FEFC6010E94A0114C01EC
:101DD000689437F882010AC00C5F1F4FFFE3F98354
:101DE00088248394912C6501E89437F833FE2DC044
:101DF000522C8114910471F5552009F468CFB70174
:101E000080E290E00E94B6115A94F6CFF8018081EA
:101E100089830E5F1F4FE4CF2801F2E04F0E511C63
:101E2000F801C080D180692D70E036FC02C06FEFF0
:101E30007FEFC6010E94AB114C018201D5CFB701E3
:101E400080E290E00E94B6112A942814190409F047
:101E5000B0F7CECFF60137FC859137FE81916F0147
:101E6000B70190E00E94B61151105A94F1E08F1A18
:101E70009108BFCF843619F0893609F077C0F80190
:101E800037FE6BC060817181828193810C5F1F4F2F
:101E9000F32DFF763F2E97FF09C0909580957095A2
:101EA00061957F4F8F4F9F4F689437F82AE030E05D
:101EB000A5010E94E611C82ECA188C2C432C36FEB0
:101EC0000CC0E89440F8C91440F434FE05C032FC5C
:101ED00003C0F32DFE7E4F2E892C44FE95C0FE01DB
:101EE000EC0DF11D8081803309F087C0242D297EFF
:101EF000422E842D8870582E43FC95C040FE8FC022
:101F00009C2C821418F42C0C922C981844FE91C02E
:101F1000B70180E390E00E94B61142FE09C088E755
:101F200090E041FE02C088E590E0B7010E94B61142
:101F3000C91408F48AC0CA94D12C9FEFC91AD90ACF
:101F4000CA0CDB1CF60182916F01B70190E00E9480
:101F5000B611AC14BD04B1F74FCF60817181072E6B
:101F6000000C880B990B0E5F1F4F92CFD32CE89477
:101F7000D4F82AE030E0853739F1232D297FD22E9D
:101F80008F3601F148F48835A9F0F70186819781F1
:101F90002B96E2E10C946913803749F08837A9F752
:101FA000D4FE02C06894D2F820E130E00DC06894FD
:101FB000D4F8F6CF34FE03C0822F8660D82E20E1FD
:101FC00032E002C028E030E0F801D7FE0FC06081A7
:101FD0007181828193810C5F1F4FA5010E94E611E0
:101FE000C82ECA183D2CE89437F867CF60817181FC
:101FF00090E080E00E5F1F4FF0CF42FC02C0839460
:1020000078CF8394839475CF842D867809F471CF2B
:10201000F6CFB70180E290E00E94B611839482145B
:10202000C0F3512C73CF522C5818821408F46ECF81
:10203000F8CF842D867809F47BCF8BE241FE80E2D5
:1020400047FC8DE2B70190E071CFB70180E390E0EB
:102050000E94B6119A946CCF8FEF9FEF99CFB0E0AA
:10206000A0E0E5E3F0E10C9453135C017B01611502
:10207000710519F0DB018D939C9385010F5F1F4F54
:10208000F501D0818D2F90E00E947F116C01892B8A
:10209000B9F5DD32B9F50F5F1F4FD5011196DC910F
:1020A000C1E05801F1E0AF1AB10843E050E060E749
:1020B00070E0C5010E948811892B69F5680182E0F2
:1020C000C80ED11C45E050E06BE670E0C6010E94EE
:1020D0008811892B21F4680197E0C90ED11CE11405
:1020E000F10419F0D701CD92DC9260E070E080E855
:1020F0009FEFC111FFC060E070E080E89FE7FAC089
:102100005801BBCFDB3229F485010E5F1F4FF5016B
:10211000D181C0E0C6CF43E050E068E670E0C50181
:102120000E948811892BE9F0F80110E000E020E01E
:1021300030E0A9015F01B0ED8B2E8D0E89E088158E
:10214000C8F19C2E689491F88C2F8870C2FF16C03D
:10215000811102C00F5F1F4F3196D501DC91C92D4F
:10216000E9CFE114F10429F00E5F1F4FF70111834D
:10217000008360E070E080EC9FE7BCC0882311F032
:1021800001501109A5E0B0E00E9442139B01AC018F
:10219000220F331F441F551F280D311D411D511D96
:1021A000283999E93907490799E15907A8F2C66022
:1021B0009C2ED2CFAEEF8A1206C0C3FD3CC09C2E2F
:1021C000689493F8C9CFDF7DD534A9F580818D322D
:1021D00039F4C061DF011296818162E070E006C0CF
:1021E000DF018B32C1F3119661E070E080535D0135
:1021F000A61AB70A8A30F8F4E0E8CE16ECE0DE065C
:102200005CF4B601660F771F660F771FC60ED71EE8
:10221000CC0CDD1CC80ED11C5D01FFEFAF1ABF0A4C
:102220008C9180538A30A8F1C4FF03C0D194C1942B
:10223000D1080C0D1D1DC1FF09C0E114F10431F0DE
:1022400081E0A81AB108D701AD92BC92CA01B901C8
:102250000E944412C370C33009F490584B015C01D2
:1022600020E030E0A9010E94120E882309F440C04A
:10227000CFE9D0E017FF05C0119501951109C7E816
:10228000D0E06E01B8E1CB1AD10880E2E82EF12C43
:102290000FC0D501B1CFFE012591359145915491E3
:1022A0000E191F09C501B4010E9481124B015C0186
:1022B000D501C4010E151F0574F72497F594E79412
:1022C000CC16DD06A9F78A2F880F8B2F881F8F3F2A
:1022D00049F020E030E0A901C501B4010E94120ECE
:1022E000811106C082E290E090930B0180930A0175
:1022F000C501B401CDB7DEB7ECE00C946F139111BA
:102300000C94EE12803219F089508550C8F7089568
:10231000FB01DC014150504088F08D9181341CF06C
:102320008B350CF4805E659161341CF06B350CF4D8
:10233000605E861B611171F3990B0895881BFCCFB9
:10234000FC010590615070400110D8F78095909580
:102350008E0F9F1F0895FC01615070400190011085
:10236000D8F7809590958E0F9F1F08950F931F9318
:10237000CF93DF93182F092FEB018B8181FD09C0CB
:102380001FEF0FEF812F902FDF91CF911F910F91B2
:10239000089582FF14C02E813F818C819D81281772
:1023A00039073CF4E881F981CF010196998388834C
:1023B00010838E819F8101969F838E83E3CFE88572
:1023C000F985812F0995892BA1F3DACFFA01AA2784
:1023D000283051F1203181F1E8946F936E7F6E5F68
:1023E0007F4F8F4F9F4FAF4FB1E03ED0B4E03CD016
:1023F000670F781F891F9A1FA11D680F791F8A1FF9
:10240000911DA11D6A0F711D811D911DA11D20D05F
:1024100009F468943F912AE0269F11243019305D19
:102420003193DEF6CF010895462F4770405D41930A
:10243000B3E00FD0C9F7F6CF462F4F70405D4A3357
:1024400018F0495D31FD4052419302D0A9F7EACF1F
:10245000B4E0A6959795879577956795BA95C9F74E
:1024600000976105710508959B01AC010A2E069441
:102470005795479537952795BA95C9F7620F731FFA
:10248000841F951FA01D0895E89409C097FB3EF492
:1024900090958095709561957F4F8F4F9F4F9923B1
:1024A000A9F0F92F96E9BB279395F695879577952F
:1024B0006795B795F111F8CFFAF4BB0F11F460FFEF
:1024C0001BC06F5F7F4F8F4F9F4F16C0882311F047
:1024D00096E911C0772321F09EE8872F762F05C05B
:1024E000662371F096E8862F70E060E02AF09A95F6
:1024F000660F771F881FDAF7880F9695879597F9EB
:1025000008950E9494120C9408130E94FA1238F055
:102510000E94011320F0952311F00C94F1120C94F9
:10252000F71211240C943C130E94191370F3959F19
:10253000C1F3950F50E0551F629FF001729FBB27BA
:10254000F00DB11D639FAA27F00DB11DAA1F649F56
:102550006627B00DA11D661F829F2227B00DA11D09
:10256000621F739FB00DA11D621F839FA00D611D8F
:10257000221F749F3327A00D611D231F849F600DB0
:10258000211D822F762F6A2F11249F5750409AF0D9
:10259000F1F088234AF0EE0FFF1FBB1F661F771F65
:1025A000881F91505040A9F79E3F510580F00C9430
:1025B000F1120C943C135F3FE4F3983ED4F38695FC
:1025C00077956795B795F795E7959F5FC1F7FE2BD0
:1025D000880F911D9695879597F9089599278827D3
:1025E000089597F99F6780E870E060E008959FEF95
:1025F00080EC089500240A9416161706180609069A
:10260000089500240A941216130614060506089568
:10261000092E0394000C11F4882352F0BB0F40F4F0
:10262000BF2B11F460FF04C06F5F7F4F8F4F9F4F30
:10263000089557FD9058440F551F59F05F3F71F0B2
:102640004795880F97FB991F61F09F3F79F0879519
:102650000895121613061406551FF2CF4695F1DFA2
:1026600008C0161617061806991FF1CF8695710532
:10267000610508940895E894BB2766277727CB0166
:1026800097F908950E948413A59F900DB49F900D13
:10269000A49F800D911D112408952F923F924F9277
:1026A0005F926F927F928F929F92AF92BF92CF92E2
:1026B000DF92EF92FF920F931F93CF93DF93CDB7EB
:1026C000DEB7CA1BDB0B0FB6F894DEBF0FBECDBF63
:1026D00009942A88398848885F846E847D848C8434
:1026E0009B84AA84B984C884DF80EE80FD800C813D
:1026F0001B81AA81B981CE0FD11D0FB6F894DEBF20
:102700000FBECDBFED010895A29FB001B39FC001E0
:10271000A39F700D811D1124911DB29F700D811D0D
:0A2720001124911D0895F894FFCFD5
:04272A002564000022
:00000001FF
