:100000000C9487000C94B8000C94B8000C94B800C1
:100010000C94B8000C94B8000C94B8000C94B80080
:100020000C94B8000C94B8000C94B8000C94B80070
:100030000C94B8000C94B8000C94B8000C94B80060
:100040000C94B8000C94B8000C94B8000C94B80050
:100050000C94B8000C94B8000C94B8000D94A82A25
:100060000C94B8000D94DC2C0D94122D0C94B80057
:100070000C94B8000C94B8000C94B8000C94B80020
:100080000C94B8000C94B8000C94B8000C94B80010
:100090000C94B8000C94B8000C94B8000C94B80000
:1000A0000C94B8000C94B8000C94B8000C94B800F0
:1000B0000C94B8000C94B8000C94B8000C94B800E0
:1000C0000C94B8000C94B8000C94B8000C94B800D0
:1000D0000C94B8000C94B8000C94B8000C94B800C0
:1000E0000C94B8000D94B62B0D94792B0D940D2C17
:1000F0000D94932B0D94A72B0D942D2C0D94832DE3
:100100000D94852B0D943C2D0D94462D84001124C7
:100110001FBECFEFD1E2DEBFCDBF00E00CBF17E0C6
:10012000A0E0B2E0E0E5F3E602E00BBF02C007901A
:100130000D92AA31B107D9F72CE0AAE1B7E001C0CE
:100140001D92AD36B207E1F710E0C7E8D0E000E05D
:1001500006C021970109802FFE010F949E31C638F9
:10016000D10780E00807A9F70F94742D0D94E52DB1
:100170000C9400002F923F924F925F926F927F9269
:100180008F929F92AF92BF92CF92DF92EF92FF92A7
:100190000F931F93CF93DF93CDB7DEB7CA54D10926
:1001A0000FB6F894DEBF0FBECDBF8B0186E0FE0117
:1001B0003196DF011D928A95E9F7FB01E45DFE4F60
:1001C00020813181428153812BA73CA74DA75EA797
:1001D00028E433EE45E15FEB6BA57CA58DA59EA5DC
:1001E0000F94762EA801445C5E4F5C8B4B8BD8013C
:1001F000A053BE4F1D01F801E05FFE4F6F01980153
:1002000020513E4F7901D801DC962D913D914D91C1
:100210005C91DF972FAB38AF49AF5AAF18160CF48B
:1002200066C3E055FF4F80809180A280B38028ECA8
:1002300031EB43E85EEBC501B4010F94762E18163E
:100240000CF411C3F801EC55FE4F408051806280E0
:10025000738023EE34E744E25FEBC301B2010F94F5
:10026000762E18160CF402C22DE232E241E45DEB68
:10027000F801EC53FF4F60817181828193810F946B
:10028000762E18160CF4ADC122E332EC43E45FEB9A
:10029000F801E45FFE4F60817181828193810F9448
:1002A000762E18160CF482C02BE433E747EB5FEB95
:1002B000F801E855FE4F60817181828193810F942E
:1002C000762E18160CF460C020EC35E047E05DEBAC
:1002D000F801EC51FF4F60817181828193810F940D
:1002E000762E18160CF449C02EEC31E642EA5FEB8C
:1002F000F801E052FE4F60817181828193810F94F9
:10030000762E1816CCF028E932EE42EC5FEBF801BD
:10031000E855FF4F60817181828193810F94762E21
:1003200021E23EEB41EE5EE3EB89FC8918160CF00E
:10033000CAC481E08B837AC02CE537E443E65FE3EF
:10034000F801EC5EFE4F60817181828193810F9490
:10035000762E181674F32BED3EE243EB5FEBF801BB
:10036000E058FE4F60817181828193810F94762ED7
:100370001816FCF281E08A8359C022E037E84BE688
:100380005FEBC301B201F2CF29E138EC41EB5FEB47
:10039000F801E052FF4F60817181828193810F9457
:1003A000762E181634F281E08E8340C02BE23DECAD
:1003B0004CE45FE3F801E854FF4F60817181828172
:1003C00093810F94762E18160CF4BFC021ED39E6F8
:1003D00041EB5EEBF801EC57FF4F60817181828148
:1003E00093810F94762E1816F4F223EB37ED40E745
:1003F0005FEBF801EC51FE4F608171818281938146
:100400000F94762E18167CF62EE236EA42E15FEB68
:10041000F801E459FF4F60817181828193810F94CB
:10042000762E18160CF0D3C181E08C83F801E05DC4
:10043000FE4F20813181428153812FA738AB49ABD8
:100440005AAB29E735E244E05FEB6FA578A989A9AB
:100450009AA90F94762EA80144535E4F7A01D801D1
:100460009C964D905D906D907C909F97181614F41B
:100470000C94A20F2AE834E942E85EE3F801EC525A
:10048000FE4F60817181828193810F94762E1816C0
:1004900014F40C94B00C26E43AEF49E050E4F8016F
:1004A000EC55FE4F60817181828193810F94762E8D
:1004B000181614F40C94AC0C2BEF3AE446EC5DEBFC
:1004C000F801E85BFE4F60817181828193810F9416
:1004D000762E181614F40C942B0C28EE3DE944EB00
:1004E0005EE3F801EC54FE4F60817181828193815B
:1004F0000F94762E181614F40C94B50E25E734E9F3
:100500004EE250ECF801E856FE4F60817181828125
:1005100093810F94762E181614F40C94AC0C23E7E8
:1005200030E04FE950ECF801E450FE4F60817181FA
:10053000828193810F94762E181614F00C94B50EC8
:1005400089818F5F89830C94121021EC33ED49E689
:100550005FEBF801E451FE4F6081718182819381EC
:100560000F94762E1816C4F12DE930E946EA5EEBB9
:10057000D80194966D917D918D919C9197970F9450
:10058000762E18168CF021ED3DE549E95FEBF80178
:10059000E853FE4F60817181828193810F94762EA2
:1005A00018160CF000CF40CF24EC3FE243E25FE3AB
:1005B000F801E45AFF4F60817181828193810F9429
:1005C000762E18160CF003C12AE43FE34DE95FEBE9
:1005D000F801E05AFF4FDECF2CEE3FE648EB5FEB31
:1005E000F7CF28EA3DEF4AE95FEBF801E054FF4F0F
:1005F00060817181828193810F94762E18161CF090
:1006000081E0898313CF2CEF37E440E05EEBF80103
:10061000E059FF4F60817181828193810F94762E22
:10062000181674F72EEA3DEA48E25FE3F8016489A0
:100630007589868997890F94762E18160CF49ACEB0
:100640002AE938E64FE25FEBD801D0966D917D91B3
:100650008D919C91D3970F94762E2AE33AEB49E53E
:100660005FEBF10118160CF07DCE84CE2AE038E85D
:1006700042E15FEBF801E056FF4F608171818281BA
:1006800093810F94762E18160CF468C025E93AEE83
:100690004CE55FEBF801E459FE4F60817181828186
:1006A00093810F94762E18167CF128E735EC4AE0FA
:1006B0005FE3F801E452FE4F608171818281938192
:1006C0000F94762E18167CF021E031EF42E25FEBBA
:1006D000D6016D917D918D919C910F94762E181677
:1006E0000CF027CE60CE2CE831E94BE95FEBF80146
:1006F000E857FE4F60817181828193810F94762E3D
:1007000018160CF037CE4FCE22EB39E143E25FEB07
:10071000F801EC53FE4F60817181828193810F94C7
:10072000762E181664F021E736E44DEC5EEBF80106
:10073000EC5DFE4F6081718182819381CECF2DE38C
:1007400037E042E85FE3F701608171818281938144
:100750000F94762E18160CF00DCE52CF29E33BE203
:1007600047E15FEBF801E056FE4F608171818281C5
:1007700093810F94762E18168CF02AE231E84AED18
:100780005EEBF801E459FF4F6081718182819381B2
:100790000F94762E18160CF0CCCDECCD27E339E46F
:1007A00046EC5EEBC501B4010F94762E181654F199
:1007B00020E731EB44E35FEBF801E055FF4F608148
:1007C0007181828193810F94762E18161CF081E03E
:1007D0008D832CCE2EED30E949EC5EE3F801EC522E
:1007E000FE4F60817181828193810F94762E18165D
:1007F0000CF49FCD26E23AE34FED5EE3F801EC54B2
:10080000FE4FC2CF27E530EB47E75DEBF801E05440
:10081000FF4F60817181828193810F94762E18162B
:100820000CF487CD27E235EC41E35EEBF801E05AAA
:10083000FE4F60817181828193810F94762E18160C
:100840000CF098CD22E230EB41ED5EE3D8015C96EE
:100850006D917D918D919C915F970F94762E1816D6
:100860000CF0B5CF66CD2AE536ED42EE5FE3F80138
:10087000E058FF4F60817181828193810F94762EC1
:1008800018166CF129E734EE4FE95EEBF101608157
:100890007181828193810F94762E181644F02CE694
:1008A0003CE346E35FEBF801E45FFE4F6DCF29E0E8
:1008B00030E549EB51ECF801E456FF4F608171815E
:1008C000828193810F94762E18160CF099CE22EF28
:1008D00035E441E250E4F801E857FF4F35CF21E914
:1008E00036E042EC5FE3F801E459FE4F4DCF27E8D4
:1008F0003CEE49EF5EE3F801E055FE4F6081718107
:10090000828193810F94762E18160CF444C62AEB3C
:1009100031EC49EB5DE36FA978AD89AD9AAD0F94E9
:10092000762E18160CF46EC22FEF31EF40E35EEB1B
:100930006FA978AD89AD9AAD0F94762E18160CF488
:10094000ABC022EB31E24CEB50ECF801E850FE4F2B
:1009500060817181828193810F94762E18160CF03C
:1009600009CD20E639E54DE85EE3D80198966D9112
:100970007D918D919C919B970F94762E18160CF477
:100980003EC028EB37EE49EC5DE36BA57CA58DA559
:100990009EA50F94762E18160CF432CE2DED3BE06A
:1009A00047EA5FEBF801EC5CFE4F60817181828168
:1009B00093810F94762E18160CF0DCCC24E531EBE5
:1009C00043EB5DEBF801E059FF4F6081718182815B
:1009D00093810F94762E18160CF0E5CC2EE438E7B0
:1009E00042E85EE3F801EC52FE4F60817181828142
:1009F00093810F94762E18160CF016CDE8CE2FECBE
:100A00003EE147E25FE3F80160A171A182A193A1F9
:100A10000F94762E1816C4F02EE138EF44E15EEB09
:100A2000F801E459FE4F60817181828193810F94B6
:100A3000762E18160CF0CBCE22E233E94CE05FEBB9
:100A4000F801E452FF4FA0CE25EC37E641EA5FE320
:100A5000F801EC51FE4F60817181828193810F9486
:100A6000762E18160CF0B3CE2BE53AEC42E55EE399
:100A7000F801E853FE4F60817181828193810F9468
:100A8000762E18160CF4A3CE24E53CEF49EC5EEB71
:100A9000F801E457FF4FBFCC23E139E74CE95DEBA8
:100AA0006BA57CA58DA59EA50F94762E18160CF42B
:100AB000A6C021EE31E543E55FEBF801E054FE4FBF
:100AC00060817181828193810F94762E1816FCF0DB
:100AD0002AEF3EE44EE75FE3F801EC58FF4F6081F8
:100AE0007181828193810F94762E18160CF46FCE4B
:100AF0002FEE33E948E05FEBD1016D917D918D914F
:100B00009C910F94762E18160CF47ACD4CCC2EEEC8
:100B10003DE643E85EEBF801E057FE4F60817181EE
:100B2000828193810F94762E1816C4F129E635E25E
:100B30004AEA5DEBF801E85CFE4F608171818281D9
:100B400093810F94762E18160CF0F3CB2AE338E538
:100B500046E25FEBF80160897189828993890F947D
:100B6000762E18168CF026EE31E44AE25DE3F801A9
:100B7000E450FF4F60817181828193810F94762EC2
:100B800018160CF0D6CB23CE25EA36E448E35FEB0B
:100B9000D8016D917D918D919C91F0CF2FE53DEA2B
:100BA00048ED5CE3F801EC56FF4F60817181828172
:100BB00093810F94762E18160CF036CC2CEF3BED6B
:100BC0004FEA5EEBF801E459FE4F6081718182814A
:100BD00093810F94762E18160CF0F9CD24EB36E2A3
:100BE0004BEF5EE3F801E853FE4F60817181828133
:100BF00093810F94762E18160CF0D5CBBBCB2AEB35
:100C000033E345EA5DE3F801EC56FF4F6081718103
:100C1000828193810F94762E18160CF46FC022EE09
:100C200038E142EB5EEBF801E45EFE4F60817181DA
:100C3000828193810F94762E1816FCF022EA3FE60B
:100C400045E15EEBF80164897589868997890F947F
:100C5000762E18160CF0D4CC28E83CEE42E15EEB80
:100C6000F801E059FE4F60817181828193810F9478
:100C7000762E18160CF0C4CCD7CB2CE935ED4AE211
:100C80005EE3F801E05BFE4F6081718182819381B8
:100C90000F94762E18160CF123E83EE64BE15DEB3F
:100CA000F801E856FF4F60817181828193810F9432
:100CB000762E18160CF0B8CB23E233ED42E85EEB4B
:100CC000F801E852FE4F60817181828193810F9417
:100CD000762E18160CF094CC7ACD29E83AEA44E442
:100CE0005FEBD80154966D917D918D919C915797B2
:100CF0000F94762E18160CF06ACD3CCB27E737E41C
:100D00004AE55FE3F80164857585868597850F94CC
:100D1000762E18160CF448C02DEF36EC41EF5DEB43
:100D2000F801E059FF4F60817181828193810F94B6
:100D3000762E1816C4F020EA3FEA46E55FE3F80194
:100D4000E852FE4F60817181828193810F94762EEB
:100D500018160CF428CB2BE93BED44EF5EEBF801C1
:100D6000EC55FE4F42CE22E634E44EE85EEBD8016D
:100D700094966D917D918D919C9197970F94762E7D
:100D800018160CF424CD23E830E141E95FEBF801BB
:100D9000EC55FE4F60817181828193810F94762E94
:100DA00018160CF014CD2CCC2FE53DE442E050ECAD
:100DB000F801EC5CFE4F60817181828193810F9418
:100DC000762E18160CF003CD23EF39E944E05EE3EC
:100DD000F801EC52FE4F60817181828193810F9402
:100DE000762E18160CF0F3CC2AEE3CE141E05EEBD7
:100DF0006FA978AD89AD9AAD0F94762E18160CF0C8
:100E000013CBD1CA2AEF31E44EEE5EEBF801E45980
:100E1000FF4F60817181828193810F94762EF8015A
:100E2000E453FE4F5F0118160CF4C4C129E139E9FF
:100E300042EA5EE3F09660817181828193810F9432
:100E4000762E18160CF46CC028E234EA4FE75EEBFD
:100E5000D80194966D917D918D919C9197970F9467
:100E6000762E1816E4F02BE03AEC44E85EEBF8013D
:100E7000E457FF4F60817181828193810F94762EB8
:100E800018160CF4BDCB2BE63DE640E85FE3F80115
:100E9000EC50FF4F6081718182819381ADCF24E757
:100EA00037EB45EB5EEBF801E052FF4F608171815B
:100EB000828193810F94762E18160CF488CC2EEE36
:100EC0003EEE46E85FEBF801E457FE4F608171812A
:100ED000828193810F94762E18160CF078CC2DEF2A
:100EE00034E24EE85FEBF801E855FF4F6081718115
:100EF000828193810F94762E18160CF068CC28E925
:100F000038EB43E75FEBF801EC57FE4F60817181EE
:100F1000828193810F94762E18160CF058CC43CA18
:100F200024E43AE34CE55FEBF50160817181828155
:100F300093810F94762E18160CF49EC026EB3BE896
:100F400040E85FEBF801E457FE4F608171818281D8
:100F500093810F94762E9801285F3E4F79011816E1
:100F60000CF44DC025E030E842EF5EE3D801D8969E
:100F70006D917D918D919C91DB970F94762E181633
:100F800034F121EB30E341ED5EE3F70160817181E3
:100F9000828193810F94762E18168CF020E63BED1B
:100FA0004CEF5EEBD80190966D917D918D919C9167
:100FB00093970F94762E18160CF0F5C908CC28E1FB
:100FC00035EB4DE25FE3F801EC56FF4F63CF2AE5C6
:100FD00036EC40EA5FEBF801E05AFF4F6081718127
:100FE000828193810F94762E18160CF0DCC92AE3C7
:100FF00033EF42E55FEBF801EC59FE4FF6CC2DE301
:101000003DEA44E25FEBF701608171818281938167
:101010000F94762E181644F025E130EF40E25FEB96
:10102000F801E85DFE4FB6CA25EA3FEB48E35FEB07
:10103000F801E45BFF4F60817181828193810F949D
:10104000762E18168CF02DEF3DEB4BE85FEBF80198
:10105000E053FF4F60817181828193810F94762EDE
:1010600018160CF4A0C9CCCA2AE23EEA4CE75FEBA2
:10107000F801E851FE4FB9CC29E239E84CED5EEBBE
:10108000D80198966D917D918D919C919B970F942D
:10109000762E18160CF448C028E83FEF4DE15FEBC0
:1010A000F10160817181828193810F94762E1816EF
:1010B0001CF128E830E44BEC5EEBF801EC55FE4FF8
:1010C00060817181828193810F94762E181664F06D
:1010D00020E23AE94FE15FE3F801E45AFE4F608114
:1010E00071818281938160C02AE439E549E45FEB34
:1010F000F801E453FF4F4ECA2BE63EE545E95EEBAF
:10110000D80114966D917D918D919C9117970F94B4
:10111000762E18160CF488C927E133EA4FEA5FEB04
:10112000F801E05CFF4FDBCF26EB30E54DE55FEBF0
:10113000F801E455FE4F60817181828193810F94A3
:10114000762E1816B4F021ED33E84DE15FE3F80197
:10115000E850FE4F60817181828193810F94762ED9
:101160002BE93BED4CE55FEBF10118160CF4ABCD30
:101170001AC921EF32EF45E65FEBF801E059FE4F67
:1011800060817181828193810F94762E18160CF400
:101190000AC929EE30E549E85EE3D8015C966D9115
:1011A0007D918D919C915F970F94762E18160CF07F
:1011B0003BC926CA2DEC36EB45ED5EE3F801EC5554
:1011C000FE4F60817181828193810F94762E181673
:1011D0000CF412C1F801E858FF4F40805180628042
:1011E000738027EF3AE344EF5EE3C301B2010F944B
:1011F000762EF801E05DFE4F4F0118160CF494C0F6
:1012000023E734E943EF5EEB608171818281938152
:101210000F94762E1816DCF12CED33EC4FE05FEBDB
:10122000D7016D917D918D919C910F94762E18161A
:10123000D4F029E13EEE49E15EEBF801E855FE4FBE
:1012400060817181828193810F94762E18160CF43F
:1012500070C82FE93AED40EB5EE3F80160AD71AD87
:1012600082AD93ADC6CC25E435EF40E85EE3C30123
:10127000B2010F94762E18160CF495C827ED3DEDAB
:101280004AEF5EEBF801E45FFE4F0C94B2012DE6ED
:101290003FE74EE85EE3F801EC5CFE4F6081718150
:1012A000828193810F94762E1816C4F023EC31EFCF
:1012B0004DE95EEBF801E05CFE4F60817181828157
:1012C00093810F94762E18160CF4AEC822E231E505
:1012D00049EE5EEBF801E453FF4F01CF2CE132E819
:1012E00049EB5EEB6BA57CA58DA59EA50F94762E94
:1012F000181694F02BE432E147E05FEBF801E45775
:10130000FF4F60817181828193810F94762E181630
:1013100014F00C94BA0188C820EC3FE146EE5CEB77
:10132000F801E455FF4F36C922EC3FEB48EB5EEB8A
:10133000D7016D917D918D919C910F94762E181609
:1013400094F127E231E44AE85EE3F80164A175A173
:1013500086A197A10F94762E181614F40C94D3013D
:101360002CE637E145E65FE3F801EC54FF4F60817E
:101370007181828193810F94762E181664F022E693
:1013800038E443E95EEBD80114966D917D918D911F
:101390009C91179703C92BE53BE14FE55FEBF80103
:1013A000E85BFE4F90CC2CE338EE44E35FE3F801BA
:1013B00064897589868997890F94762E18160CF49E
:1013C00006CA22E339E647EC5FE3D4016D917D91D3
:1013D0008D919C910F94762E181644F021EC3AE5ED
:1013E0004AEC5EEBF801E456FE4F79CE25EE39E18A
:1013F00042EB5DEBF501CECC2EE43AEE49E95DE33C
:10140000D80158966D917D918D919C915B970F9429
:10141000762E18160CF44CC02BE53EE745E25FEB48
:10142000F801E052FF4F60817181828193810F94B6
:10143000762E181614F00C94140224EE37E14BEFBC
:101440005FE3F801EC5BFE4F6081718182819381E3
:101450000F94762E1816CCF02CE039EB42E05FE3C7
:10146000F801E051FF4F60817181828193810F9477
:10147000762E181614F40C9499012CEB31E343EEFC
:101480005EE3F801E853FF4FEECB27ED38E846EA7C
:101490005EEBF801E850FF4F60817181828193819A
:1014A0000F94762E181614F00C9414020C949901D3
:1014B0002EE736E449E05EE3F801E45AFE4F60812E
:1014C0007181828193810F94762E18167CF12BE71F
:1014D0003DEF45ED5FE3F801E857FF4F6081718113
:1014E000828193810F94762E18164CF023E336EB0D
:1014F0004FEB5EE3F801EC52FE4F0C94B20121E693
:1015000032EF44EA5FE3F80164A575A586A597A5C7
:101510000F94762E18160CF45AC92CED3BEF4CE3C1
:101520005FEBF801E852FE4F0C94B20125E439E775
:1015300043EA5EE3D8016D917D918D919C910F946A
:10154000762E18160CF443C9F801E851FF4F80803D
:101550009180A280B38028E236E043E15FEBC501D1
:10156000B4010F94762E181674F023EF3AE445E296
:101570005FEBC501B4010F94762E181614F00C948D
:1015800014020C94BA0125E537E544E45DE3F80163
:10159000EC51FF4FF9C82DE136E64FEF5FE3F10163
:1015A00060817181828193810F94762E18160CF4DC
:1015B00030C12FE13DE249EB5FE3D8019C966D918C
:1015C0007D918D919C919F970F94762E18160CF417
:1015D000C9C021E135E443E85FE3F801E459FF4F76
:1015E00060817181828193810F94762E18160CF49C
:1015F000A2C02DE134E840EF5EE3F7016081718124
:10160000828193810F94762E18160CF454C021EE2B
:1016100033E546E55EE3F801E859FE4F60817181EC
:10162000828193810F94762E1816CCF02AEA37E740
:101630004FE05FEBF801E851FE4F608171818281DC
:1016400093810F94762E181614F00C94140220E057
:1016500038E441EC5EEBF801E051FF4F40CD27EB61
:1016600037EF4FEF5EE3F801E45FFE4F6081718179
:10167000828193810F94762E18169CF028EB3EE51C
:1016800047EF5DEBD8011C966D917D918D919C91FA
:101690001F970F94762E181614F00C9499010C9441
:1016A00014022AEC36EE42E25FE3F80160A971A968
:1016B00082A993A90CCB2BE438E247EB5EE36FA938
:1016C00078AD89AD9AAD0F94762E1816D4F028EC2B
:1016D0003CEB40EC5EE3F801E85EFE4F6081718117
:1016E000828193810F94762E181614F40C9499012C
:1016F00028EC33E84AE15FE3F801E057FE4F0C9431
:10170000A40327E933EB40EF5EEBF801E456FE4F0C
:1017100060817181828193810F94762E181614F066
:101720000C94990120ED38E04AE25EEBF801EC58A8
:10173000FF4F0C94A40323ED34EA4EE15FE36BA565
:101740007CA58DA59EA50F94762E181614F40C94E6
:1017500000032BEF3AE546E450E4F801E05BFE4F6E
:101760000C94B20122EB3FEE43E85FE3D801D09640
:101770006D917D918D919C91D3970F94762E181633
:1017800014F00C94000320E637E845EE5FE3F8011F
:10179000EC5DFE4F60817181828193810F94762E82
:1017A000181614F40C94000321ED32E14EE05FEBC7
:1017B000F801EC5CFE4F60817181828193810F940E
:1017C000762E1816F4F026ED3BE643E15FE3F801D0
:1017D000E45BFE4F60817181828193810F94762E4C
:1017E000181614F00C94E70321E035E34FE35FEBA8
:1017F000F801E854FE4F60817181828193810C94DD
:101800002D0424E434E149ED5EEBF801E854FF4F88
:10181000F2CF28EE3DEC48E050E4F80160A971A950
:1018200082A993A90F94762E181614F40C94E7034A
:101830002AE73FE246EA5DEBF801EC59FE4F608192
:101840007181828193810F94762E181614F00C9476
:1018500000030C94BA012AE93FE04EE150ECF80194
:10186000E856FF4F60817181828193810F94762EBB
:10187000181614F00C94A00229E239EF44E45EE358
:10188000F801EC58FE4F60817181828193810F9441
:10189000762E18160CF44FC023E736E045EA5EEBCF
:1018A000F70160817181828193810F94762E1816E1
:1018B0000CF052C02FE037EF45E750E4F801E8594B
:1018C000FF4F60817181828193810F94762E18166B
:1018D00004F127E638E14CE45EE3F801EC52FF4FF7
:1018E00060817181828193810F94762E18160CF09D
:1018F0003CC224E136E541E85EEBF801E055FE4FDD
:1019000060817181828193810F94762E181624F163
:101910002CC22AE438E34CE85FEBF801E852FF4FB1
:1019200060817181828193810F94762E181614F054
:101930000C94A0021AC22BE930E947E55EE3F801F6
:10194000E05AFF4F60817181828193810F94762EDE
:10195000181614F00C94A0028B818F5F8B8362C3E6
:10196000F801E058FF4F80809180A280B3802CE680
:101970003AE041EF5EEBC501B4010F94762E1816E4
:101980000CF445C224E83AEB43E45FEBF801E45F72
:10199000FE4F60817181828193810F94762E18169B
:1019A0000CF437C1F801EC53FF4FC080D180E280C6
:1019B000F38020EF3CE941E45DEBC701B6010F94F1
:1019C000762E18160CF4C6C02CEC39ED4EE95FEB00
:1019D000F801E455FE4F60817181828193810F94FB
:1019E000762E18160CF495C029E73FE346E95FE32D
:1019F000F801E854FE4F60817181828193810F94D8
:101A0000762E18160CF45CC022EA37EB4DE95FEB3A
:101A1000C501B4010F94762E181654F128E531EF64
:101A200048E85FEBD1016D917D918D919C910F9470
:101A3000762E181664F02EEE33E149E45FEBF801E0
:101A4000E459FF4F6081718182819381D7C323E183
:101A50003AE345E75FEBF801E051FF4F60817181A8
:101A6000828193810F94762E18160CF445C17DC1A6
:101A700025E932E24CE95FEBF801E853FF4F608162
:101A80007181828193810F94762E181644F02CEA8E
:101A90003DE64DE85FEBF801E053FF4F31CF26E321
:101AA0003CEA42E05EE3F801E454FF4F608171815B
:101AB000828193810F94762E18160CF01DC155C1AA
:101AC00021E637E94DE75FE3F801E850FE4F60811A
:101AD0007181828193810F94762E181644F028ED3F
:101AE0003FE24FE15FE3F801E456FE4F09CF26E500
:101AF00030ED41E95FE3F801EC50FE4F6081718108
:101B0000828193810F94762E18160CF025CF0C94B9
:101B1000A00226E237EB4BE65CEBF801EC55FF4FF9
:101B200060817181828193810F94762E18160CF456
:101B300013CF26EA39E04BE25FEBF801E459FF4F9F
:101B400060817181828193810F94762E18160CF03A
:101B500003CF0BC12CEB30EF43E95FEBF801E4510D
:101B6000FF4F60817181828193810F94762E1816C8
:101B70003CF020E833E841E05AE3C701B601E6CE85
:101B8000F801E056FE4F80809180A280B38022E26F
:101B90003BE748EA5EEBC501B4010F94762E1816B8
:101BA00064F127E230ED44E45CEBF801EC55FF4FC3
:101BB00060817181828193810F94762E18160CF0CA
:101BC000D4C02DEA35E547E15DEBC701B6010F94BE
:101BD000762E181654F02AEE34ED45E55FE3F80151
:101BE00064A975A986A997A9B1CE22EA33E249EC86
:101BF0005EE3F801E45EFE4FA3CF21EE3FEF4BE33F
:101C00005EEBC501B4010F94762E18160CF474C067
:101C1000A3CE20EA3BE345EC5EEBF801E451FE4F36
:101C200060817181828193810F94762E18160CF455
:101C3000CCC028EC38ED44E45FE3F801EC5EFE4FE5
:101C400060817181828193810F94762E18160CF435
:101C500090C028EB3CE44EE15FEBF801E057FE4F0B
:101C600060817181828193810F94762E18160CF415
:101C700047C025EC3CE344EC5EEBF801EC5BFE4F27
:101C800060817181828193810F94762E18160CF4F5
:101C90006CC026E43DEE41EF5EEBD801D0966D912D
:101CA0007D918D919C91D3970F94762E1816ACF060
:101CB0002AEE35E740E05FE3F801E456FE4F60812D
:101CC0007181828193810F94762E181614F40C94EE
:101CD000A0028E818F5F8E83A5C12EEC31ED40E98D
:101CE0005FEBF801E85BFE4F608171818281938137
:101CF0000F94762E18166CF78D818F5F8D8392C1AD
:101D000021E339EE43EB5DEBF801EC57FF4F6081C7
:101D10007181828193810F94762E1816B4F028E099
:101D200031E643ED5EEBF801648575858685978520
:101D30000F94762E18160CF472C12AE13BE346E3A9
:101D40005FEBF801E052FE4FCFCF2BED34EB44E1D7
:101D50005FE3F801E858FF4F6081718182819381D0
:101D60000F94762E18160CF4B4CF8A818F5F8A8375
:101D700059C12DE83DE040E85CEBF801EC55FF4F20
:101D800060817181828193810F94762E18160CF0F8
:101D9000A0CF23EF3DE04AE55FE3F801E85AFE4FAC
:101DA00060817181828193810F94762E18160CF0D8
:101DB000D3CD28EF33E948EA5FEBF801E05CFE4F52
:101DC000608171818281938154C320EC3DE246E3BE
:101DD0005FE3F801EC5AFF4F60817181828193814A
:101DE0000F94762E181614F40C94A00220E03DE017
:101DF00042E05FE3D801D8966D917D918D919C91E1
:101E0000DB970F94762E18160CF063CFAECF2AE72F
:101E10003CEB41E05FEBF80160A171A182A193A1CD
:101E20000F94762E18160CF44CC02BEB31EE4CEFC1
:101E30005EEBD1016D917D918D919C910F94762EE9
:101E40001816C4F026EF32E948E25FE3F801E454E3
:101E5000FF4F60817181828193810F94762E1816D5
:101E60000CF07ACD29E734E54AE25FEBF801E85B54
:101E7000FF4F66CE27E13AEE49EA5EE3F801EC5601
:101E8000FE4F60817181828193810F94762E1816A6
:101E90000CF062CD2FE43FED43E05FE3F80160AD6D
:101EA00071AD82AD93AD0F94762E18160CF011CF54
:101EB00025E730E84FE85FE3F801E055FE4F0C946A
:101EC000960229E834E347EA5EEBF801E05BFE4F57
:101ED00060817181828193810F94762E18160CF4A3
:101EE00044CF2EEC3BE74CE25CEBF801EC55FF4FA6
:101EF00060817181828193810F94762E18160CF483
:101F0000E8CE2DED37E74BE25EEBF801E058FE4FEF
:101F100060817181828193810F94762E18160CF462
:101F20001BCD23E937E84BE15FE3F801EC54FE4FAA
:101F300060817181828193810F94762E18160CF046
:101F4000DBCEC7CE25E235E444E15FEBD8966D9158
:101F50007D918D919C91DB970F94762E18160CF441
:101F6000A5C12CEE3BE74CEA5FE3F801E459FE4FD4
:101F700060817181828193810F94762E18160CF402
:101F800071C12AEB36E34DE95FE3F801E455FF4FF9
:101F900060817181828193810F94762E18160CF4E2
:101FA00051C120E43EE045E85FE3F801E057FE4F11
:101FB00060817181828193810F94762E181614F4BA
:101FC0000C94A00222EB3EEB4CE85EEBF80160A122
:101FD00071A182A193A10F94762E18160CF4D0C093
:101FE0002BE137E24CE95EEBF801EC53FE4F6081E8
:101FF0007181828193810F94762E18160CF4B5CEE0
:102000002AEB37E145EA5EE3AB89BC896D917D91AE
:102010008D919C910F94762E18160CF46DCE8C81B8
:102020008F5F8C83F801E05EFE4F20813181428119
:1020300053812BAB3CAB4DAB5EAB28E837E740EAB6
:102040005EEB6BA97CA98DA99EA90F94762ED80171
:1020500090962D913D914D915C9193972B8F3C8F54
:102060004D8F5E8F181614F40C94831BF801EC53FB
:10207000FF4FC080D180E280F38024E93BE744EA4F
:102080005CEBC701B6010F94762E181614F40C946D
:10209000E5192AE335E94AEC5EE3EB89FC896081C6
:1020A0007181828193810F94762E181614F40C940A
:1020B0007A182EE73DED48EB5EEBC301B2010F94B9
:1020C000762E18160CF472C721E131EE4AE55EEB6C
:1020D000F801E453FF4F60817181828193810F94F5
:1020E000762E18160CF436C7F801E457FE4FC08060
:1020F000D180E280F3802AE33AEE40E85FEBC7014B
:10210000B6010F94762E18160CF4BBC627E93BEFE8
:1021100043E85EEBD80194966D917D918D919C91F1
:1021200097970F94762E18160CF444C622EA33E9DA
:1021300041E45FEBF80160A571A582A593A50F941A
:10214000762E18160CF415C626E637EE48E55FEB3A
:10215000C301B2010F94762E18160CF4FEC52FE9B8
:1021600030E846EC5FEBF801E855FE4F6081718185
:10217000828193810F94762E18160CF06AC6E6C6FB
:102180002EE53EEF4FEB5EEBF801E056FF4F60812E
:102190007181828193810F94762E181644F027EB7B
:1021A00036E743EA5FE3F801E85FFE4FC1CE2FE276
:1021B00035EF43E850E4F801E45FFE4F6081718140
:1021C000828193810F94762E181684F123E032E4F5
:1021D00043E750E4F801E05EFE4F60817181828147
:1021E00093810F94762E181684F026E936E14AEA98
:1021F0005DE3F80164AD75AD86AD97AD0F94762EB5
:1022000018160CF079CD0C94A00229ED36E64EE3B9
:102210005FEBF801E053FF4F608171818281938110
:102220000F94762E18160CF067CDF9CE20E938E61B
:102230004DE950E4D80118966D917D918D919C9156
:102240001B97E8CE22E23FEE4AE85FE3F80160A97F
:1022500071A982A993A90F94762E181614F00C94E4
:10226000A0024ACD23E532E24BED5FE3C301B201A8
:102270000F94762E181614F00C94A00229E234E67E
:1022800047E650E4D80118966D917D918D919C910F
:102290001B970F94762E18160CF02ECD27E53EE3F3
:1022A00047E95FE3F801E055FE4FD8CB29E53DEB68
:1022B00047E35DEBF801E455FF4F60817181828156
:1022C00093810F94762E18160CF44AC321EE37E052
:1022D0004AEB5DEBC301B2010F94762E18160CF495
:1022E0001FC22CE833E747E75FEBF801E455FE4FE8
:1022F00060817181828193810F94762E18160CF47F
:10230000DDC023ED35EF49E95EE3F80164AD75AD5D
:1023100086AD97AD0F94762E18160CF451C02CEDA7
:1023200031EA4CEA5EEBD80114966D917D918D9166
:102330009C9117970F94762E181654F125EA3AEDD2
:1023400047EE5EE3F801E45AFF4F608171818281BC
:1023500093810F94762E181644F023E438EA40E572
:102360005FE3F801E854FE4FBFCC20E338E644E3D6
:102370005FEBC301B2010F94762E18160CF04FCE0E
:1023800023ED3BEC47E75FEBF801E05CFF4FACCCA3
:102390002AE331EC48E95FEBF801E05CFF4F608134
:1023A0007181828193810F94762E18160CF091CC56
:1023B00023E030E04CE45FEBF801E451FE4F76CBD4
:1023C00022E635E544EE5EEBF801F395608171811C
:1023D000828193810F94762E18160CF450C029E454
:1023E00035E146EE5EEB6FA578A989A99AA90F940D
:1023F000762E18160CF127E331E045E35FEBF80188
:10240000E45FFE4F60817181828193810F94762E0B
:10241000181664F02EE03AEB40E45EE3F801E4566F
:10242000FF4F6081718182819381B7C02EEB3DE4C3
:102430004FE65FEBF701C4CC24E13BE24DE55FEBF7
:10244000C301B2010F94762E181644F023E332E450
:102450004EE65FE3F801E854FF4F52CA25E33CEE35
:1024600046EF5EE3D80154966D917D918D919C91DC
:1024700057970F94762E18160CF02BCCD0CD23E264
:1024800030ED44E15FEBF801EC59FE4F6081718162
:10249000828193810F94762E18162CF021E633E179
:1024A00046E95FEB71CF29E83FED4DEF5EEBF801B8
:1024B00060897189828993890C949A022BE13EE5A7
:1024C00048E45FE3F801EC5AFE4F6081718182813C
:1024D00093810F94762E18160CF47EC026E53DEB02
:1024E00047E05EE3F801E45FFE4F60817181828125
:1024F00093810F94762E18160CF455C02DEE37E804
:1025000047E55EEBF801EC53FE4F608171818281FB
:1025100093810F94762E1816E4F024E13AE540E812
:102520005FEBF801E05AFE4F6081718182819381F7
:102530000F94762E18160CF0CCCB2DEF3FE246E22E
:102540005FE3D80154966D917D918D919C91579741
:1025500061CD2FEE37EF40E15BEBF801EC5BFE4F16
:1025600060817181828193810F94762E181664F0B8
:1025700024ED36E24CE55EE3F801E458FF4F60815C
:1025800071818281938164C225EE32EF44E25FE380
:10259000F80164897589868997890F94762E1816B3
:1025A0000CF0E3CB3CCD27EE3DEC48EF5EEBF801C1
:1025B000E855FE4F60817181828193810F94762E60
:1025C000181614F00C94A0022FE438EF4FE95DE3E5
:1025D000F801E856FF4FD3CF2BE234E64DE15FEB35
:1025E000D1016D917D918D919C910F94762E18164D
:1025F0000CF44AC02CE533E245EE5EEBF80160A531
:1026000071A582A593A50F94762E18160CF12CEACD
:102610003DEB4FE45FEBF801E056FE4F60817181C6
:10262000828193810F94762E18160CF495C92EE7AB
:1026300030ED40E25FE3D80158966D917D918D9128
:102640009C915B970F94762E18160CF0E8CC41CB3A
:1026500027EB35ED49EB5EEBF801EC5BFE4F60815B
:102660007181828193810F94762E18162CF028E8C0
:1026700039E143E35FEBDECE27E239E843E75EEB87
:10268000F801EC55FE4F7BCF26E03DED45E35FEBD7
:10269000F801E058FF4F60817181828193810F942E
:1026A000762E18161CF12CE934E448E45FEBF801AF
:1026B000EC57FE4F60817181828193810F94762E59
:1026C000181614F00C94A00225E832EB43E65FE301
:1026D000F801EC56FE4F60817181828193810F94E5
:1026E000762E181614F00C94A00299CC2CE43CE53C
:1026F00044EB5EE36FA578A989A99AA90F94762E79
:10270000181614F40C94A00221ED37ED4AE95EE3AB
:10271000D80194966D917D918D919C91979792CFD0
:102720002FEF3DEE4EEB5DE3F801EC5EFE4F608176
:102730007181828193810F94762E18160CF4B8C0A3
:1027400027E033E948E25FEBF801E054FE4F608197
:102750007181828193810F94762E1816BCF12CE33F
:1027600034ED49E15FEBF801E857FE4F608171817C
:10277000828193810F94762E181614F40C94A00283
:102780002AEE34ED43E55FEBF801E45BFE4F608138
:102790007181828193810F94762E18160CF43FCCB0
:1027A0002EE43AE24FE35AE3F80164A175A186A151
:1027B00097A10F94762E18160CF48BCA29E639EBE4
:1027C00041E35EEBF801EC57FF4FFACA24EF3AEE13
:1027D00041E15EE3D80190966D917D918D919C9140
:1027E00093970F94762E181694F129E034E541EA78
:1027F0005EE3F801E05EFE4F60817181828193812A
:102800000F94762E181614F40C94A00225E332E2ED
:1028100043EF5EEBF801EC5BFE4F608171818281DA
:1028200093810F94762E18160CF066CA2FEA3DE3BA
:1028300043E25EE3F801E453FF4F608171818281DE
:1028400093810F94762E18160CF0E9CB8ECA28EDE2
:1028500034E24AEA5DEBF801EC54FF4F608171818C
:10286000828193810F94762E181644F026E437E97E
:102870004AEC5EEBF801E057FE4F2DCF2DE430E43B
:102880004CEF5EE3F801E452FE4F6081718182817A
:1028900093810F94762E18160CF4C1CB21ED38E5F8
:1028A0004BE45EEBF6016081718182819381ABC95B
:1028B00028EA32EB4EEB5EE3AB89BC896D917D91EA
:1028C0008D919C910F94762E18160CF415CA2BE05E
:1028D0003FE244E35FE3F801EC54FF4F6081718114
:1028E000828193810F94762E181614F129E53EE526
:1028F00041E55CE3F801EC53FF4F60817181828117
:1029000093810F94762E18160CF42FCA2CE93EE012
:102910004AEC5EEBF801E85FFE4F608171818281D5
:1029200093810F94762E181614F00C94AC0CD1C928
:102930002DED37E84FE25FEBF801E459FE4F60817F
:102940007181828193810F94762E18160CF4D4C96C
:102950002AE433E64EE55FEBF801E058FF4FE8CAA2
:10296000F801E057FE4FC080D180E280F38029E774
:102970003FE740EB5EE3C701B6010F94762E1816D1
:102980000CF4FCC023EE37E541E05FE3F801E85BBF
:10299000FF4F60817181828193810F94762E18168A
:1029A0000CF4B7C02BED33E345E25AEBF801EC5FD2
:1029B000FE4F60817181828193810F94762E18166B
:1029C0000CF46EC024EB3DED4CE25FE3F801E85CF3
:1029D000FE4F60817181828193810F94762E18164B
:1029E0000CF456C02BE43DE04FE65EE3F801E05AFC
:1029F000FE4F60817181828193810F94762E18162B
:102A000074F124E532E042E15EEBF801E055FF4F5E
:102A100060817181828193810F94762E181694F0D3
:102A200027E336E643E75EEBF801E052FF4F6081B3
:102A30007181828193810F94762E18160CF0EFCA63
:102A40000C94AC0C22E63BE145E05EEBC701B6011D
:102A50000F94762E18160CF0E2CA0C94A00224E90A
:102A60003FE041E05DE3F801EC5AFF4F6081718186
:102A7000828193810F94762E181614F40C94AC0C6A
:102A80002AEF34E844EA5EEBF801EC56FF4FC9CC7C
:102A90002FE63CE842EC5EE3F801EC5AFF4F03CF2F
:102AA00021E933EB45E65FEBF801EC5CFE4F60811A
:102AB0007181828193810F94762E181614F00C94F4
:102AC000A00226EF3FEC4DE25FEBF801E85BFE4F22
:102AD00060817181828193810F94762E181614F093
:102AE0000C94A00224ED39E041E150E4F801648146
:102AF0007581868197810F94762E181614F40C94A4
:102B0000A00229EC34EB42E55FE3F801E45AFF4F01
:102B100036CD2FE43DE04AE75FE3F801E056FE4F93
:102B200060817181828193810F94762E18160CF04A
:102B30001CC922EF38EC4DE65FEBF801E856FF4F79
:102B400060817181828193810F94762E18164CF0EA
:102B500028E136E740E15BEBF801E456FE4F0C94C8
:102B6000A00D2CEC3AE340EB5EE3D8015C966D914E
:102B70007D918D919C915F970C94030E26EB35E629
:102B800049EC5FE3F801E459FE4F60817181828175
:102B900093810F94762E18160CF4C2C022E434E20E
:102BA00047E35FE3F801EC5EFE4F60817181828153
:102BB00093810F94762E18160CF489C023E23BE71C
:102BC0004EEF5EE3F801E05CFF4F6081718182812E
:102BD00093810F94762E1816C4F123EE32E946E85D
:102BE0005EEBF801E053FF4F608171818281938138
:102BF0000F94762E181604F128EF33E743E45DEBCB
:102C0000F801E059FF4F60817181828193810F94B7
:102C1000762E181644F029E138E143E65EEBF80120
:102C2000E059FE4FACCC20E233E44DEC5BEB6BA5FE
:102C30007CA58DA59EA553CD29E63AE846E85FEB35
:102C4000F801E054FE4F0C94220D23E537EA41E2EF
:102C50005FE3F801E451FE4F6081718182819381CD
:102C60000F94762E1816CCF027E73AEA4DE75EEB84
:102C7000F801E850FE4F60817181828193810F9449
:102C8000762E18160CF0CBC924E438E844E75DEB47
:102C9000F801EC5AFE4F0C94800C23E23DE94DEA1A
:102CA0005FE3F801E857FE4F608171818281938173
:102CB0000F94762E181614F00C94B50E20EC31ED0E
:102CC00045EA5DEBF801E85FFE4F0C947E0D29EAC2
:102CD0003AE34BE45FE3F801608571858285938573
:102CE0000F94762E181614F40C947C0E28EA34E611
:102CF00044E25FE3F801EC57FE4F6081718182810D
:102D000093810F94762E181614F40C94AC0C20E3D7
:102D100033E847E55FE3F801E857FE4F0C94900C69
:102D20002AE335E046EC5FE3F801E058FE4F6081AE
:102D30007181828193810F94762E181614F00C9471
:102D4000B50E24E235E141E250E4F801E05CFF4FCA
:102D500060817181828193817ECA2AEF3DE946E2DA
:102D60005DEBF801EC51FF4F6081718182819381AD
:102D700080C225EA3AE744E65FEBF801EC59FE4FE2
:102D800060817181828193810F94762E18160CF0E8
:102D9000ADC125E83DE646E65FEBF801EC55FE4F98
:102DA00060817181828193810F94762E18160CF4C4
:102DB0005BC310C427ED39E440E25FEBF801E05556
:102DC000FE4F60817181828193810F94762E181657
:102DD0000CF12EE232EF45EA5FEBF801E058FE4FCE
:102DE00060817181828193810F94762E18160CF484
:102DF00044C028E734E049E45FEBF801EC59FF4FA9
:102E000060817181828193810F94762E18160CF067
:102E10006DC11FC026E136E843E05FEBD801D096D4
:102E20006D917D918D919C91D3970F94762E18166C
:102E3000A4F026EE3CE744E35FEBF801EC5BFE4FC9
:102E400060817181828193810F94762E18160CF027
:102E50007DC08A818F5F8A83C0C323E038E646E85D
:102E60005FEBF801E853FE4F6081718182819381AD
:102E70000F94762E18160CF039C18D818F5F8D83DB
:102E8000ACC322E63CE346ED5DEBF801E857FE4FAC
:102E900060817181828193810F94762E18160CF4D3
:102EA00047C022EA30ED43E25EEBF801EC5DFE4FF5
:102EB00060817181828193810F94762E1816E4F0DF
:102EC0002FE339ED4CE65FEBF801E453FE4F6081F0
:102ED0007181828193810F94762E18160CF006C1B1
:102EE0002FE932EE41ED5EEBC701B6010F94762E6D
:102EF00018160CF06FC3FAC027E232E84CE25FEB21
:102F0000F801E451FE4F60817181828193810F94B9
:102F1000762E18160CF45EC324E039E94AE95FEB1B
:102F2000F801E052FF4F6081718182819381DECF91
:102F30002DE733EA4EEB5EE3F801648D758D868DE7
:102F4000978D0F94762E18160CF044C38B818F5FEB
:102F50008B8343C32FE632E245EB5EE3F801EC5886
:102F6000FF4F60817181828193810F94762E1816B4
:102F70000CF47AC227EB3AE541E55EEBF801EC5739
:102F8000FF4F60817181828193810F94762E181694
:102F90000CF05FCF2FE234E04EE35EE3F801EC5239
:102FA000FE4F6081718182819381CBCF24E13AE32E
:102FB0004AE05CEBF801E051FE4F60817181828153
:102FC00093810F94762E18160CF470C02DEF34E612
:102FD00042EE5DE3D801DC966D917D918D919C91DF
:102FE000DF970F94762E1816FCF021ED38E44AE7AF
:102FF0005EE3F801E456FE4F608171818281938126
:103000000F94762E181644F02CE536E441EA5EEB78
:10301000F801E454FF4F87CF22E03EE64CE85FEB37
:10302000F801E05AFF4F20CF2FE234EE4EE65FEB7F
:10303000F801E457FE4F60817181828193810F9482
:10304000762E181644F024E435E348E55FEBF801EA
:10305000E45BFE4F09CF26EA3FE446ED5EE3F8016C
:10306000E85AFF4F60817181828193810F94762E9F
:103070001816A4F02DE530EE48E95EEB6BA57CA5B3
:103080008DA59EA50F94762E181684F128E13DEEAD
:1030900044E45EE3F801E450FF4F83CF24E83BE0D3
:1030A00042E75EE3F801E456FF4F5ECE2FE231ECDB
:1030B00048E55FEBF801EC5BFF4F60817181828135
:1030C00093810F94762E18160CF4CEC121EC33E6C2
:1030D0004DE45FEBF801E056FF4F60817181828122
:1030E00093810F94762E18160CF0C7CE8E818F5FC9
:1030F0008E8373C2F801EC55FE4F80809180A280D0
:10310000B38025E73AE744E15FEBC501B4010F94D2
:10311000762E18160CF415C124E93BE940E55FEB67
:10312000F801E45BFE4F60817181828193810F948D
:10313000762E18160CF4C4C02DEF3FE64CEB5FEB77
:10314000F801E058FE4F60817181828193810F9474
:10315000762E18160CF452C02AE930E143EA5FEBF0
:10316000C501B4010F94762E181684F122EE3EEEBE
:103170004FE55FEBF801F395608171818281938166
:103180000F94762E18160CF4B1CF2BE932E24AEAEE
:103190005FEBF801E054FE4F608171818281938181
:1031A0000F94762E18160CF415C22BE434E948E877
:1031B0005FE3F801EC5AFE4F608171818281938157
:1031C0000F94762E18160CF058CE4EC12AE13BE132
:1031D00048E65FEBF801E051FE4F6081718182812A
:1031E00093810F94762E18160CF033CE2FE83FE320
:1031F00048EA5FEBF801E05CFE4FB6CD2EE93BEE0E
:1032000041E55DEBC701B6010F94762E1816BCF1AF
:103210002FEB36EA49E35FEBF801E45FFE4F608194
:103220007181828193810F94762E1816CCF02FE253
:103230003AE449E95FE3F801EC58FE4F608171819F
:10324000828193810F94762E18160CF07FCE22E4A3
:1032500035ED4FE95FEBF801E859FE4F0C94B610DD
:103260002EEE3BEB40E45FE3F80164A975A986A963
:1032700097A90F94762E18160CF038CFABC122ED1B
:1032800032E74CE25FEBF801EC5DFE4F608171814B
:10329000828193810F94762E18160CF0DACD25E7F3
:1032A00033E34AE85FE3F801E852FF4F6081718140
:1032B000828193810F94762E18160CF4DECDD4C043
:1032C00020E731E946E25FEBF801E05FFE4F608105
:1032D0007181828193810F94762E18160CF12CE067
:1032E00032EF47E45CEBF801EC55FF4F60817181F0
:1032F000828193810F94762E18160CF0AACD2DE1C1
:103300003AE845EC5EEBF801EC54FE4F60817181C8
:10331000828193810F94762E18160CF09ACDA4C05A
:1033200029EB3DE44BE25FEBF801E85FFE4F608183
:103330007181828193810F94762E18160CF0D6CE6F
:1033400093C02FE735E04AEA5EE3F801E852FE4F0A
:1033500060817181828193810F94762E181664F0BA
:103360002DEA31E043E35FE3D80154966D917D91FE
:103370008D919C915797CECF2FE831E74BE85FEBCB
:10338000F801E857FE4F60817181828193810F942B
:10339000762E18164CF028EF38E341E05FEBF80189
:1033A000E05CFE4F0C94B61020ED3AE549E15FE396
:1033B000F801E856FF4F60817181828193810F94FB
:1033C000762E18160CF0C2CD58CD2DEB3BE845E615
:1033D0005DE3F801E85AFE4F60817181828193813B
:1033E0000F94762E18160CF493C027EA31EF4BEEAB
:1033F0005FEBF801EC56FE4F608171818281938111
:103400000F94762E1816A4F129E534E241E35EEB21
:10341000F801E455FE4F60817181828193810F94A0
:10342000762E18160CF015CD2CE73BE746E55FE34A
:10343000F801E054FE4F60817181828193810F9485
:10344000762E18160CF082CD2BEC31E541EC50ECC9
:10345000F801E452FE4F60817181828193810F9463
:10346000762E18160CF4F5CC89818F5F8983B5C050
:103470002DEE31E840EF5FE3F801E058FE4F608148
:103480007181828193810F94762E18160CF45ECD93
:103490002BE43CE64EE950E4F801E455FF4F60812F
:1034A0007181828193810F94762E1816ECF227EFAA
:1034B00030EB4AE05FEBF801E05CFE4F6081718128
:1034C000828193810F94762E18160CF03FCD22E363
:1034D00037E24FEB5DEBF801E05BFE4F60817181FD
:1034E000828193810F94762E18164CF024ED35E5E9
:1034F00047E55CE3F801E459FF4F0C94B61020E275
:1035000038E547EA5FE3F801EC57FF4F0C94B6103B
:1035100023EE32E84EEA5EE3F801EC55FE4F60819F
:103520007181828193810F94762E18160CF4A9C0B4
:10353000F801E056FE4FC080D180E280F3802DEE8E
:103540003EE44EE65EEBC701B6010F94762E1816E8
:103550000CF482C026E435E840E65FEBF801E85F52
:10356000FE4F60817181828193810F94762E1816AF
:103570000CF0ECCC2FED31EB4FE35FEBF801E459AD
:10358000FF4F60817181828193810F94762E18168E
:103590000CF0ACCD21E03DE143E05FEBF801E45FEE
:1035A000FE4F60817181828193810F94762E18166F
:1035B0000CF04FCC2DE43CE046E15FEBF801E85322
:1035C000FE4F60817181828193810F94762E18164F
:1035D0000CF03FCC8C818F5F8C8325EE34E543E18A
:1035E0005FEB6BA57CA58DA59EA50F94762E181676
:1035F00014F40C94522320EC35E64DE25DEBF80117
:10360000E85AFF4F60817181828193810F94762EF9
:1036100018160CF493C52AEA3CE646E15DEBF80186
:10362000E05CFE4F60817181828193810F94762EE0
:1036300018160CF450C524E93DE34BEF5EEBF8019E
:10364000E05AFE4F60817181828193810F94762EC2
:1036500018160CF0F1C622C627E735E841EE5EEBFE
:10366000F801E05FFE4F60817181828193810F9448
:10367000762E22E636EC42E25EEB18160CF434CCE1
:1036800065CC27E435E84CE75EEBF8016481758191
:10369000868197810F94762E18164CF122E238EB32
:1036A00042E95FE3F801E051FE4F60817181828160
:1036B00093810F94762E18160CF4CBCB22EF36E3C1
:1036C00043E05FEBF801EC5DFE4F60817181828128
:1036D00093810F94762E18160CF038CC23EF33E438
:1036E0004DEF5EEBF801E056FE4F0C94B6102BE464
:1036F0003AE54CEB5EE3AB89BC896D917D918D9190
:103700009C910C94BA102AEE37E449E55FE36B8D87
:103710007C8D8D8D9E8D0F94762E18160CF493C390
:1037200024EA3BE144EC5DE3F801E059FE4F60819F
:103730007181828193810F94762EF801E457FF4FB7
:1037400018160CF460C2C080D180E280F38029ECAE
:1037500035E240EE5EEBC701B6010F94762E1816E7
:103760000CF408C127E434E848E15FE3F801E454CD
:10377000FE4F60817181828193810F94762E18169D
:103780000CF4A7C02DEF3EEC43E85EE3EB89FC8927
:1037900060817181828193810F94762E18160CF4CA
:1037A00065C02DE632E943E15CEBF801EC55FF4FD3
:1037B00060817181828193810F94762E18160CF4AA
:1037C0003FC020EC32ED45E25FEBD80150966D91A1
:1037D0007D918D919C9153970F94762E18168CF0B5
:1037E00024E833E041E75EEBF801E055FF4F6081EC
:1037F0007181828193810F94762E18160CF03DCB47
:10380000A5CB21E03EEF4DE05FEBF80160A971A987
:1038100082A993A90F94762E18160CF067CC28EB8A
:1038200036E947E85EEBD80194966D917D918D91D4
:103830009C9197970F94762E18160CF0CBCE1DCB3B
:103840002AE53EED4BE65CEBF80164A575A586A57F
:1038500097A50F94762E18160CF406CE25EE3BE7AE
:1038600049E45FEBF801E451FF4FCACA25E634E3AF
:103870004CE05FEBF801E057FE4F6081718182817F
:1038800093810F94762E1816C4F021E23CE64CE6A4
:103890005EE3F801E85CFE4F608171818281938173
:1038A0000F94762E18160CF4E8CA2BE83DEF4BEB7C
:1038B0005EEBF801EC51FE4F3ACD22EE30EF4EEBCD
:1038C0005EE3D8015C966D917D918D919C915F979F
:1038D000D0CC25E136E842E25FE36BA97CA98DA953
:1038E0009EA90F94762E1816FCF022EC37EF43E8D1
:1038F0005FE3F801E852FF4F60817181828193811B
:103900000F94762E181644F024EB3AEF42E85FEB62
:10391000F801E453FE4F50CC24EF31E64EE95EEB64
:10392000F801E05BFF4F20CA2FE638E540EA5FEB85
:10393000F801E053FF4F60817181828193810F9480
:10394000762E18160CF099CA2EEF3FEE45E25FEB8B
:10395000F801E459FF4F60817181828193810F9456
:10396000762E18160CF0C2CB2CEA3FEA4DE65FE348
:10397000F801D9CA21EA3BEC4FEB5DE3F801E45FC3
:10398000FE4F60817181828193810F94762E18168B
:103990000CF493C029E235E74AE55EE3F801E45709
:1039A000FE4F60817181828193810F94762E18166B
:1039B0000CF46BC02FEE37E741E15FE3F801E45010
:1039C000FE4F60817181828193810F94762E18164B
:1039D0000CF44AC02DEB32E84FE45EE3D801D096F8
:1039E0006D917D918D919C91D3970F94762E1816A1
:1039F000FCF02AED33EF40E45FEBF801E45BFE4FAF
:103A000060817181828193810F94762E18160CF457
:103A1000E1CD21EC3DE446E55EEBF8016481758182
:103A2000868197810F94762E18160CF01DCD5ECBF3
:103A30002CE532E141EB5EEBF801EC57FE4F608183
:103A40007181828193810F94762E18160CF44ECBDF
:103A500023E13CEA47E25DE3F801EC58FF4F608167
:103A6000718182819381E6CE28E33DE040E35FEB04
:103A7000F801E052FF4F60817181828193810F9440
:103A8000762E18160CF0F0CCA5CD21EF38E14FE9D9
:103A90005EE3F801E85AFF4F608171818281938172
:103AA0000F94762E18160CF4DFCC28EF30EE47ED8D
:103AB0005AEBF801EC51FF4F73C92EEC37E944EF94
:103AC0005DEBF801E85BFF4F60817181828193813A
:103AD0000F94762E18160CF464C026E031E141ED07
:103AE0005EE3D801D0966D917D918D919C91D39795
:103AF0000F94762E18169CF12AEE32E847ED5EE31D
:103B00006FA578A989A99AA90F94762E1816FCF0AA
:103B100022EE31E141E55EEBF801E053FF4F6081B9
:103B20007181828193810F94762E181644F020E4DF
:103B30003CE343E05FEBF801E85BFE4F9CCF2FE4F2
:103B400037E34EE55EEBF801E459FE4F35CB27E352
:103B500030E74AEA5EEBF801EC57FF4F2DCB24E942
:103B600035E640EE5DEB6FA578A989A99AA90F9477
:103B7000762E18160CF0BACA23E23CE742E85EE360
:103B80006B8D7C8D8D8D9E8D0F94762E18160CF47A
:103B900074C920E53CED41E25FE3F801E858FF4FCE
:103BA00085CB2EEB38E640E35EE3C701B6010F9408
:103BB000762E181604F12CEB35E948ED5EE3F8019A
:103BC000F39560817181828193810F94762E18160E
:103BD0000CF453C929EF33E84EEF5DEBF801EC50DC
:103BE000FF4F60817181828193810F94762E181628
:103BF0000CF03ACCABC922EB3AE54DEB5FE3F801B0
:103C0000E457FE4FCDC82DEB30E14BE15EE3608120
:103C10007181828193810F94762E18160CF450C016
:103C200022E131E745E15EE3F801EC57FE4F6081A8
:103C30007181828193810F94762E181644F120E0D1
:103C400035E643E25FE3F801E054FF4F60817181A4
:103C5000828193810F94762E181644F022E231EF80
:103C600047E15EE3F801E450FF4F20CB29E938EB50
:103C70004BE35BE3F801EC51FF4F6081718182817E
:103C800093810F94762E18160CF0A4CCE2C822E88B
:103C900033EA41E75EEBF801EC58FF4F6081718138
:103CA000828193810F94762E18160CF4DDCB2FEFC2
:103CB0003EED46E05EE3F801E452FE4F0C94B61090
:103CC000F801E057FE4FC080D180E280F3802BECFA
:103CD0003DEF4CEE5EE3C701B6010F94762E181649
:103CE000C4F12CEB30E246E05DE3F801EC53FF4F0A
:103CF00060817181828193810F94762E18160CF465
:103D0000A8C823E03EEE4BED5DE3F801E45AFE4F18
:103D100060817181828193810F94762E18160CF444
:103D200015C921E338E34FE25FEBF801E85EFE4F8F
:103D300060817181828193810F94762E18160CF028
:103D400093CB2AEE36E74DE45EE3F801E85CFE4FE4
:103D500094CF2AEF32E041EE5EE3F801E453FE4FE8
:103D600060817181828193810F94762E181694F16F
:103D70002FE530E24AEE5EE3F801E05AFE4F608143
:103D80007181828193810F94762E18160CF422CCC7
:103D900028EC31E143E25DEBF801EC53FF4F608129
:103DA0007181828193810F94762E18160CF45CCB6E
:103DB00026E23AE745E95FEBF801E45EFE4F6081F9
:103DC0007181828193810F94762E18160CF402CCA7
:103DD0000C943D1727E53EE943EE5EE3F801E05120
:103DE000FE4F60817181828193810F94762E181627
:103DF0000CF0F0CB25ED35E94FE85FE3F801E05B2F
:103E0000FF4F60817181828193810F94762E181605
:103E100014F40C9429172DEE3DEA4CEB5EE3F80107
:103E2000E055FE4F60817181828193810F94762EDF
:103E3000181614F00C94291724E931E64AE15FE3DF
:103E4000C701B60167CAF801E05CFF4F808091802E
:103E5000A280B3802AEF39E74EE45FEBC501B401DD
:103E60000F94762E181654F126E43FE041E75FE305
:103E7000F801E85FFE4F60817181828193810F9428
:103E8000762E181614F00C943D172EE83EE94DE4FA
:103E90005EEBF801EC59FF4F608171818281938163
:103EA0000F94762E18160CF021C924EF35E94EE355
:103EB0005FE3F801EC50FE4F0C94B416F801EC539C
:103EC000FF4FC080D180E280F38029E637E948E8DF
:103ED0005DE3C701B6010F94762E18160CF48DC061
:103EE0002BE23BEB47E35FEBC501B4010F94762E69
:103EF00021E831E749EC5FE3F80118160CF0AFCD8B
:103F000024E53EE444E05AEBEC55FF4F60817181BB
:103F1000828193810F94762E18160CF468C028EBDA
:103F200037EC4FE15FE3F801E057FE4F60817181AC
:103F3000828193810F94762E18165CF12FE236EF72
:103F400049E65DE3C701B6010F94762E1816CCF052
:103F500029EB38E74BE95EE3F801EC56FF4F60814F
:103F60007181828193810F94762E181614F00C942F
:103F70003D1726E333E34BE45EE3F801E859FF4FD6
:103F800036CC26E136E240EC5EE3F801E054FE4F29
:103F900066CD2CE03EE44AE35EEBF801EC57FF4FC0
:103FA00060817181828193810F94762E181614F4AA
:103FB0000C943D1721E332E146E15EE3F801E05B5A
:103FC000FF4F60817181828193810F94762E181644
:103FD00014F00C943D1729E73DE345E35DE3D80178
:103FE00014966D917D918D919C911797E8C929E266
:103FF00033E449E95DE3F10159C925E132E54CE7D4
:104000005FE3F801E05CFE4F608171818281938102
:104010000F94762E1816ACF123EE32EF45ED5FEBE0
:10402000F801E85EFE4F60817181828193810F9477
:10403000762E1816F4F02FEB3EEC4BED5BE3F80117
:10404000E455FF4F60817181828193810F94762EB8
:10405000181614F00C943D172EE73FE144E550ECA0
:10406000D80154966D917D918D919C9157970C94A8
:10407000D4162BEE32EA41E55EEBF801E456FE4F32
:104080009BC828E939E14DE45FE3F801E058FE4FB1
:1040900060817181828193810F94762E181614F0BD
:1040A0000C9429172BEE32E64BEB5FE3F8016481A9
:1040B0007581868197810F94762E181614F00C94D2
:1040C0003D172EE037EB45EF5FE3D8016D917D9111
:1040D0008D919C91EFC823E839E74BEF5FE3F8013E
:1040E000E855FE4F60817181828193810F94762E15
:1040F0001816E4F023E735EB4BED5FE3F801E058E9
:10410000FF4F60817181828193810F94762E181602
:104110000CF4C4C02BEA30EB4EE15EEBF801E45B3B
:10412000FE4F6081718182819381B6C22FE032E7B8
:104130004BE25FE3F801E853FE4FF3CFF801E054A0
:10414000FF4FC080D180E280F3802AE431E440E771
:104150005FEBC701B6010F94762E18160CF490C1D0
:1041600024EB33EE47E45FEBF801EC5BFE4F60813C
:104170007181828193810F94762E18160CF41EC1E2
:104180002BE439E84FE45FEBF801E85FFE4F608114
:104190007181828193810F94762E18160CF482C05F
:1041A0002DE73EE547E95FE3F801E856FE4F608101
:1041B0007181828193810F94762E18160CF448C079
:1041C00028ED33E745EA5FEBC701B6010F94762E81
:1041D0001816B4F125E535ED46E85FE3F801EC503B
:1041E000FE4F60817181828193810F94762E181623
:1041F0000CF422C122EA3CE341EC5FEBF801E45508
:10420000FE4F60817181828193810F94762E181602
:1042100024F08D818F5F8D83C8C225E536E549E5A1
:104220005FEBF801E45FFE4F6081718182819381D1
:104230000F94762E181694F189818F5F8983B5C209
:1042400021E13FE14CEF5EEBF801EC57FF4FFAC97B
:104250002DEA37EC47E95FE3F801EC52FF4F60814C
:104260007181828193810F94762E181644F023E792
:1042700036E245EB5FEBF801E058FE4FE3C921ED74
:1042800033E64EE55FE3F801E452FF4F6081718150
:10429000828193810F94762E181674F28B818F5F32
:1042A0008B8383C22EEA38E848E65FE3F801EC54DA
:1042B000FF4F60817181828193810F94762E181651
:1042C00064F02CE338E346E25FEBF801EC5FFE4F6D
:1042D00060817181828193817EC52BE73DE24FE74A
:1042E0005FEBF801E453FE4F60817181828193811D
:1042F0000F94762E18161CF122EA3CEC46E95FEB8F
:10430000C701B6010F94762E18160CF482CF2FE158
:1043100037E145E45FEBF801EC5DFE4F60817181B0
:10432000828193810F94762E18160CF43BC222E002
:1043300037EF40E65FEBF801E059FE4FC9CF26E4C6
:1043400034E34AEB5FEBF801E052FF4F608171818B
:10435000828193810F94762E18160CF023C222ECE2
:1043600039EA4DE85EEBF8016481758186819781B9
:104370000F94762E18168CF02CE43AE741E05FEBB0
:10438000F801E457FF4F60817181828193810F941E
:10439000762E18160CF0F2C13CCF21E133EF40E944
:1043A0005FEBF801E05AFF4F608171818281938158
:1043B0000F94762E18160CF0F5C12BCF2EE633E1B4
:1043C00043E65FEBF801E052FE4F6081718182812C
:1043D00093810F94762E1816DCF12BE131EC4BE92A
:1043E0005FEBF801E05BFE4F608171818281938118
:1043F0000F94762E18160CF01FCF2DEC34E242E508
:104400005FEBF801E455FE4F6081718182819381F9
:104410000F94762E18160CF4B1C128EB39EB44E951
:104420005FE3F801EC5AFF4F6081718182819381D3
:104430000F94762E181624F08A818F5F8A83B5C177
:1044400026E331E945E95FE3F801EC58FE4F69CE18
:1044500023E53CEC43E45FEBF801E05CFE4F608158
:104460007181828193810F94762E18160CF086C18B
:1044700029E134ED45E050E4F801E051FE4F06CF6C
:1044800020EA3FE240E15FE3F801E854FF4F60813A
:104490007181828193810F94762E18160CF49EC040
:1044A0002AE336EC4FEF5EEBF801E451FE4F6081FA
:1044B0007181828193810F94762E1816B4F12BE0CE
:1044C0003CE044E75FEBF801E057FE4F608171810B
:1044D000828193810F94762E181644F022E131EBFD
:1044E0004AE15FE3F801E850FE4FACC826E538EE3C
:1044F00046EB5EEBF801E45BFE4F608171818281E7
:1045000093810F94762E181644F024EC39E548E296
:104510005FEBF801E85FFE4F04CE27EE30E446EC97
:104520005EE3F801E85AFE4F8DC828E937E94DE30C
:104530005EEBF801E854FE4F6081718182819381C6
:104540000F94762E18160CF12CE33DE745EE5FE351
:10455000F801E056FF4F60817181828193810F9451
:10456000762E18160CF09ACE29E53BEF40E550E484
:10457000F801E859FF4F60817181828193810F9426
:10458000762E18160CF058CF57CE2CE133E64FE1BB
:104590005FEBF801E052FE4F60817181828193816F
:1045A0000F94762E18168CF029ED3EE042E25FEB78
:1045B000F801EC5FFE4F60817181828193810F94DD
:1045C000762E18160CF038CEEDC02CE33EE34BEE01
:1045D0005FE3F801EC55FE4F0C94221B2FE133E909
:1045E00046E45FEBF801E85BFE4F608171818281F8
:1045F00093810F94762E18164CF126EA34EF4AE197
:104600005FEBD80118966D917D918D919C911B97D0
:104610000F94762E18160CF4FCCD2AE534E549E704
:104620005FE3F801E854FE4F6081718182819381DC
:104630000F94762E18160CF031CE27E639EB4AE1AE
:104640005FE3F801E452FE4F0C94221B25E333E6AE
:1046500048E35FEBF801EC53FE4F6081718182818A
:1046600093810F94762E18160CF018CE24E436E6BB
:1046700041ED5EEBF801E058FE4F6081718182816F
:1046800093810F94762E18160CF408CE23E935E9A1
:104690004BE65FEBC701B6010F94762E18160CF4AB
:1046A000CBCEFCCD22E733E449E15DEB6FA978ADD9
:1046B00089AD9AAD0F94762E18160CF489C222E8B3
:1046C00039E94CE45EEBF80164A175A186A197A1DC
:1046D0000F94762E18160CF43BC125E836E349E218
:1046E0005FEBF801E45EFE4F60817181828193810E
:1046F0000F94762E18160CF124EB3CEA43EB5DE3A5
:10470000F801E850FE4F60817181828193810F949E
:10471000762E18160CF090CD2CE53FE34BE85EE3C7
:10472000F801EC56FE4F60817181828193810F9474
:10473000762E18160CF06DCD7FCDF801E451FE4FAA
:10474000C080D180E280F3802CE631E340E55FEB6E
:10475000C701B6010F94762E18160CF05ACD25E439
:1047600030E844EA50ECF801E452FF4F6081718177
:10477000828193810F94762E181624F08C818F5F9E
:104780008C8313C027E337E94CE55FEBF801EC5B62
:10479000FE4F60817181828193810F94762E18166D
:1047A0000CF4AAC08E818F5F8E83D801D0962D9194
:1047B0003D914D915C91D3972B8B3C8B4D8B5E8BB8
:1047C00026E83DE744EF5EEB6B897C898D899E8905
:1047D0000F94762EF801181614F40C94D82DE0538B
:1047E000FF4FC080D180E280F38029EB3EEF4FE79E
:1047F0005DEBC701B6010F94762E181614F40C94D5
:10480000BE2C2AE33CE54AE55FEBF801E054FF4F9C
:1048100060817181828193810F94762E18160CF439
:1048200091C721EE31EE42EB5FEBF801E855FF4F07
:1048300060817181828193810F94762E18160CF419
:104840002BC629E730E748E95FEBF801E455FF4F55
:1048500060817181828193810F94762E18160CF4F9
:10486000FDC529E739ED4BE85FE3F801E85AFF4F52
:1048700060817181828193810F94762E18160CF4D9
:10488000E1C5F801EC51FE4FC080D180E280F38099
:104890002AE23FEE48EC5EEBC701B6010F94762E9C
:1048A00018160CF432C72CE035E54EE95FEBF80141
:1048B000E859FE4F60817181828193810F94762E39
:1048C00018160CF4A8C62CE230EE49E25FEBC701E3
:1048D000B6010F94762E181614F40C94FE2C24EDC9
:1048E0003FE44CE25FE3F801E85CFE4F60817181D8
:1048F000828193810C94DB2E2DE531EA43ED5DE35B
:10490000F801EC53FF4F60817181828193810F9494
:10491000762E18160CF490CD2AE73FE347E95EEBBC
:10492000F801E85BFE4F60817181828193810F9471
:10493000762E18160CF080CC2EE533EE47E15FE3BF
:10494000C701B6010F94762E18160CF017CF74CC51
:1049500028E83BE942E45FEBF801E05CFE4F608150
:104960007181828193810F94762E1816C4F128E705
:104970003DE644E35CEBF801EC55FF4F608171814B
:10498000828193810F94762E181644F020E83FEE32
:1049900047E75DEBF801E853FE4FC5CE20E733E86B
:1049A00040E45FEBF801E45BFF4F6081718182813D
:1049B00093810F94762E18160CF0F4CE26E132E493
:1049C00047E25FE3F801E852FE4F60817181828126
:1049D00093810F94762E18160CF0E4CECFCE25E0FE
:1049E00031ED4AE05EEBD80198966D917D918D9105
:1049F0009C919B970F94762E181654F129E43BE472
:104A000043EC5FEBF801E85EFE4F608171818281CB
:104A100093810F94762E18160CF00ECD2DE03DE00C
:104A200041EA5EE3F801EC54FE4F608171818281BE
:104A300093810F94762E18160CF0A0CE25E63FEE4B
:104A400041E05EEBF80164A975A986A997A96FCE2C
:104A500020E03BEC42E95FE3F801E055FF4F608165
:104A60007181828193810F94762E18160CF4A1C067
:104A700022ED33E14BE55EE3F801EC57FF4F608137
:104A80007181828193810F94762E181644F12DE75F
:104A900032E041E85FE3F801E451FE4F608171814B
:104AA000828193810F94762E18168CF024E03BE8D7
:104AB00049E25FE3D80158966D917D918D919C916B
:104AC0005B970F94762E18160CF0A3CBE7CB24EE51
:104AD00033E340E550ECF801E85AFE4F24CE25EFD1
:104AE0003CE040EA5FE3F801E85FFE4F60817181DE
:104AF000828193810F94762E18167CF128ED3FEA7F
:104B000040E05EE3F801E457FF4F608171818281EC
:104B100093810F94762E18167CF02CEB31EE47EE35
:104B20005EEBF80160AD71AD82AD93AD0F94762E62
:104B300018160CF06ECB80CC24EC3EEA4FE25FE31B
:104B4000F801EC59FE4F60817181828193810F944D
:104B5000762E18160CF070CB6FCC26E135E944EABE
:104B60005DE3F801E851FF4F60817181828193819B
:104B70000F94762E18168CF02EED37ED45E35EEB94
:104B8000F801E455FF4F60817181828193810F9418
:104B9000762E18160CF03DCBF1CD26E63EE34DE522
:104BA0005FEBD801D4966D917D918D919C91D797B3
:104BB000BDCF22E131EE47EA5FE3F80160A171A1C8
:104BC00082A193A10F94762E18160CF035CB21CB31
:104BD000F801E051FE4FC080D180E280F38022E6F0
:104BE00032EA4FE45BEBC701B6010F94762E18163C
:104BF0000CF433C320E931E040E55FEBC701B601B7
:104C00000F94762E18160CF445C123E23CE04DECCF
:104C10005EE3F801E452FF4F6081718182819381EC
:104C20000F94762E18160CF442C023E637E144E8C0
:104C30005FEBF801E05AFF4F6081718182819381BF
:104C40000F94762E18160CF0ADCD22E136ED48E922
:104C50005EE36FA978AD89AD9AAD0F94762E1816E4
:104C6000E4F020ED34EB4BE75FEBF801E05CFF4F45
:104C700060817181828193810F94762E18160CF4D5
:104C8000C8CA2EE630EC49E05FEBD80118966D916A
:104C90007D918D919C911B978BCB28E93DEF43E053
:104CA0005FEBF801608971898289938970CF2AE16D
:104CB0003CEB43E65FEBF801E054FF4F608171810C
:104CC000828193810F94762E18160CF4A2C02CEBDF
:104CD0003BE844E95FE3F801EC54FE4F60817181E9
:104CE000828193810F94762E18160CF44CC029E023
:104CF0003DEB4CE15FEBF801EC5FFE4F60817181B1
:104D0000828193810F94762E1816FCF02DE53CE1FC
:104D100044EB5EEBD80114966D917D918D919C9141
:104D200017970F94762E181644F02BE230EE4FE5CD
:104D30005FEBF801EC59FF4F48CE2BED31E342E534
:104D40005FEBF801E45BFF4F40CE2DE832E948EC21
:104D50005EE36FA978AD89AD9AAD0F94762E1816E3
:104D60000CF46ACA20E23DE741E95FEBF801E45345
:104D7000FF4F60817181828193810F94762E181686
:104D80000CF047CA0FCD23E63EE542EE5EEBF8019C
:104D900060A171A182A193A10F94762E18160CF137
:104DA0002EEF39EF48E65FEBF801E45BFE4F6081E0
:104DB0007181828193810F94762E18160CF4DECCCB
:104DC0002EE53CEC4CE95EEBD80194966D917D911B
:104DD0008D919C9197970F94762E18160CF0CECC4F
:104DE000E1CC24EE3EE642EA5FEBF801E058FE4FEC
:104DF00060817181828193810F94762E18160CF454
:104E000008CA29E639E947E85FE3F801EC54FF4FA7
:104E10005FCA21EC39EB42E45FE3F801E856FE4F4C
:104E200060817181828193810F94762E18160CF423
:104E3000F0C924E93DEE47E35FEBF801E45BFF4F87
:104E400060817181828193810F94762E18160CF007
:104E5000A9CC29E138E641E25FEBF801EC59FE4FBD
:104E600060817181828193810F94762E18160CF0E7
:104E700015CA21EB32EC42E35FE3F801E85DFE4F37
:104E800060817181828193810F94762E18160CF0C7
:104E9000D3C974CC20EA38EA4CEE5EEBF801E45951
:104EA000FF4F60817181828193810F94762E181655
:104EB0000CF4F0C02AE138E84BE45FEBF801E0586D
:104EC000FE4F60817181828193810F94762E181636
:104ED0000CF462C029EE32E648E25FEBF801E453DD
:104EE000FE4F60817181828193810F94762E181616
:104EF0000CF44AC028E736E844E35FEBF801E45BD2
:104F0000FF4F60817181828193810F94762E1816F4
:104F1000E4F024EA3FE849EC5EE36FA978AD89AD9F
:104F20009AAD0F94762E181644F02AEB32E742EC35
:104F30005FEBF801E056FE4F3ECB22E03FE348EC4A
:104F40005EE3F801E45CFE4FC3C928EB32EF47E1B2
:104F50005FEBF801E855FF4F608171818281938199
:104F60000F94762E181644F027E334E846E65FEBFC
:104F7000F801E857FF4F29CD2AE83BE54EEE5EEBFE
:104F8000F801E058FF4F21CD23EC3EE84EE55FEB02
:104F9000F801E859FE4F0FCB2FEE33EB40E25FEB09
:104FA000F801E05CFF4F60817181828193810F94F1
:104FB000762E1816ACF129E73FE74AE45FE3F801E3
:104FC000E856FE4F60817181828193810F94762E25
:104FD00018160CF41EC928E532E44BEC5EEBF80120
:104FE000EC5BFE4F60817181828193810F94762EFC
:104FF000181674F02FEC3DEE4AE15EE36BA57CA53C
:105000008DA59EA50F94762E18160CF0CBCB14C947
:105010002EE43CE041EA5EE3F801EC5EFE4F30CF67
:105020002BEF38EC4CEF5EEBF801E05CFE4F60815B
:105030007181828193810F94762E181664F021E598
:105040003FE545E65EE3F801E458FF4F608171817A
:105050008281938177CC26E435E143E35FEBF8016D
:10506000E453FF4F60817181828193810F94762E8A
:1050700018160CF0CEC826E131E747E25EEBF801E6
:1050800060897189828993890F94762E18160CF0A5
:1050900075CBD2C920EF32ED41E05FEBF801E45F60
:1050A000FE4F60817181828193810F94762E181654
:1050B0000CF448C02DE93CE245E55FE3F801EC540F
:1050C000FF4F60817181828193810F94762E181633
:1050D0008CF123E83FE241EE5DEBF801E453FE4F33
:1050E00060817181828193810F94762E18160CF461
:1050F000A3C92AE63DEA4AEA5DEBF801E058FE4F13
:1051000060817181828193810F94762E18160CF440
:10511000C5C82FED32E645EC5EEBF801EC51FE4FD1
:1051200060817181828193810F94762E18160CF024
:1051300039CB82C92CE234E44BE95FE3F801EC5A45
:10514000FF4F01CD22EF33EA4FEC5EE36FA578A964
:1051500089A99AA90F94762E18160CF44EC02BE448
:105160003EE849E35EE36FA978AD89AD9AAD0F944F
:10517000762E1816CCF020EC32E24EE25DEBF80110
:10518000E85AFF4F60817181828193810F94762E5E
:1051900018160CF0F3CA24EE3BE746E15DE36FA975
:1051A00078AD89AD9AADE9CD2DED37E74DE85EE3F9
:1051B000F801E856FF4F60817181828193810F94DD
:1051C000762E181694F02AE632ED48EE5FE3F801E9
:1051D000E058FF4F60817181828193810F94762E18
:1051E00018160CF0CBCA0C944E2123EA35E44AE39E
:1051F0005EEBF801EC5DFE4F43CE29EC30EC48ED60
:105200005EE3D8015C966D917D918D919C915F9745
:105210000F94762E181614F40C9409212EE133EA1B
:1052200048E25FE3F801E054FE4F608171818281C2
:1052300093810F94762E181644F025E73EEF43E055
:105240005EEBF801E452FE4F01CF24E038E747EB74
:105250005DEBF801E05BFF4F13CE23EB3DE44CE444
:105260005FE3F801EC59FF4F608171818281938186
:105270000F94762E18160CF472C022EF3FEE44E025
:1052800050E4F801E453FF4F608171818281938182
:105290000F94762E18160CF4CFC820E130EE49EDAD
:1052A0005EE3F801E45EFE4F60817181828193814B
:1052B0000F94762E18160CF440C02CE33DE14DE21D
:1052C00050ECF801EC54FF4F608171818281938131
:1052D0000F94762E181614F00C944E212CED33EC0E
:1052E00048E95EE3F801E051FF4F608171818281FE
:1052F00093810F94762E181644F02FE53BED48EA83
:105300005EEBF801EC5AFF4FA1CE2DEF32E34CE8F3
:105310005EE3F801E055FE4F6081718182819381E7
:105320000F94762E18160CF087C820ED34E146E174
:105330005FEBF801E05FFE4F1EC920EE3BEA4AEC4E
:1053400059E3F801EC53FF4F6081718182819381B1
:105350000F94762E18160CF06FC80C94092129EBC7
:105360003FEC44EA5EE3F8016081718182819381C0
:105370000F94762E18165CF129E439E14EE15FE3D3
:10538000F801E85EFE4F60817181828193810F9404
:10539000762E181614F40C944E2125E839E146E0D7
:1053A0005EEBF801EC5AFE4F60817181828193813E
:1053B0000F94762E181614F00C941C222CE233E372
:1053C0004BEE5DEBF801E850FF4F0C9491202CE57B
:1053D0003CE44CE35EE3D8015C966D917D918D9148
:1053E0009C915F970F94762E18161CF123EC3EE0EB
:1053F00046E35FE3F801EC55FE4F608171818281E5
:1054000093810F94762E181614F40C941C212DEB16
:105410003AE643E15FEBF801E850FF4F60817181AC
:10542000828193810F94762E181614F00C941C220E
:10543000A5C927EF3CE342EE5EEBF801E852FF4FCF
:105440000C94C3212EE53BE444EA5FEBC701B601AF
:105450000F94762E18160CF0D1C20AC12DEE31E64B
:1054600042E95FEBF801E058FF4F60817181828172
:1054700093810F94762E18160CF047C12BE43DE76C
:105480004AE05FEB6BA57CA58DA59EA50F94762EBB
:1054900018160CF457C2BFC025E838E74EE45FEB9E
:1054A000F801E85FFE4F60817181828193810F94E2
:1054B000762E18160CF4BBC028EC33E847E85FEBF7
:1054C000F801E85BFE4F60817181828193810F94C6
:1054D000762E18160CF461C021E638E441EB5FE348
:1054E000F801EC56FE4F60817181828193810F94A7
:1054F000762E18168CF123E938E841EB5FEBF801C2
:10550000E056FF4F60817181828193810F94762EE6
:1055100018160CF0FAC028E537E147E95FE3F80117
:10552000EC58FF4F60817181828193810F94762EB8
:1055300018160CF070C023E83CE24BE55FEBF80175
:10554000EC5BFE4F60817181828193810F94762E96
:1055500018160CF0DAC05FC024E333E141E55FE3E5
:10556000F801E45AFF4F60817181828193810F9429
:10557000762E18160CF44FC023E43BE849EE5DE3A9
:10558000F801E454FF4F60817181828193810F940F
:10559000762E18160CF09BC1B8C02DEA31EF40E40E
:1055A0005FEBF801E05AFF4F608171818281938146
:1055B0000F94762E18169CF12DE731E744E75FEB48
:1055C000F801E45BFE4F60817181828193810F94C9
:1055D000762E181604F525EA33E74DE25FEBF80165
:1055E000EC5BFE4F60817181828193810F94762EF6
:1055F00018160CF48AC023E830ED4CE85FE3F8019C
:10560000E854FE4F60817181828193810F94762EE0
:1056100018160CF47AC08B818F5F8B83F2C120EC5B
:1056200036E34BE45FE3F801EC58FF4F8BCFF80112
:10563000E459FF4FC080D180E280F3802EE138E949
:105640004AEC5EEBC701B6010F94762E18160CF4E7
:1056500068C026EC33E44AEB5FEBF801E052FF4F01
:1056600060817181828193810F94762E181624F0C7
:105670008E818F5F8E83C5C129ED33ED44E45FEBEE
:10568000F801EC57FE4F60817181828193810F9404
:10569000762E1816DCF024EE34EC45E05FEBC70103
:1056A000B6010F94762E27E13CE149E65FEB181630
:1056B0000CF0D7C32EE03FE14DE65FE3F801EC527A
:1056C000FE4F608171818281938186C426E13FED26
:1056D00047E05FEBF801E85DFE4F608171818281F8
:1056E00093810F94762E1816A4F022E43DE24DE348
:1056F0005FEBF801E457FF4F6081718182819381F4
:105700000F94762E18160CF4B3CF8A818F5F8A839C
:1057100078C12BE43CEC42E25FE3F801E45AFE4F2F
:10572000D0CF2EE93CEF48E95EEBF801E853FF4F9C
:1057300060817181828193810F94762E18160CF00E
:105740005DC1E3CF28EC3CEC41EF5EEBF801E056A5
:10575000FF4F60817181828193810F94762E18169C
:105760000CF476C023E036EB4FE45FEBF801E05435
:10577000FE4F60817181828193810F94762E18167D
:1057800044F023EE3EE742E95FEBF801E057FE4FBD
:10579000D9CE21E03AE44AE45FEBF801E45BFE4F46
:1057A00060817181828193810F94762E18168CF01E
:1057B00024E739EE4DE35FEBF801E455FF4F6081DC
:1057C0007181828193810F94762E18160CF0BAC0E5
:1057D00022CF20EE31EC4AE25FEBF801E457FE4FB6
:1057E00060817181828193810F94762E181644F125
:1057F00023EF35E541E15FEBF801E051FF4F6081B8
:105800007181828193810F94762E18160CF07DCFD2
:1058100022E935E143E25FE3F801E854FF4F60819C
:105820007181828193810F94762E18160CF46DCFBE
:1058300028E13CED4EEB5CEBF801EC55FE4FE2CE7F
:1058400025E73FEF46E25FEBF801E455FE4F70CFEE
:1058500026E731ED40EF5EE3F801EC50FE4F60814A
:105860007181828193810F94762E18160CF44BC0AF
:1058700026E839E94FEA5DEBF801E855FE4F608113
:105880007181828193810F94762E181624F122EF74
:1058900035E946EA5EEBF801EC51FE4F608171811B
:1058A000828193810F94762E18160CF42ECF24E16A
:1058B00032E64FED5EEBF801E857FE4F60817181F3
:1058C000828193810F94762E18160CF0A4CE8C81D1
:1058D0008F5F8C8396C020E73EE144E95EEBF801E0
:1058E000EC54FE4F60817181828193810F94762EFA
:1058F00018160CF090CE2DEC3DE04DEC5EE3F80177
:10590000E058FE4F1FCE2CE536E54CE15FE3F80191
:10591000E456FE4F60817181828193810F94762ECF
:1059200018160CF4F2CE26E832EF42E15FEBF801F4
:10593000E058FF4F60817181828193810F94762EB0
:10594000181624F08D818F5F8D835BC02EE13DE5BD
:105950004CE25FEBF801E058FE4F6081718182817B
:1059600093810F94762E18160CF455CE2FEB3EE053
:1059700044EC5EE3F801E450FE4FE4CD2DE038EB5B
:1059800047EF5EE3F801E453FE4F6081718182814D
:1059900093810F94762E18160CF4CBC02EEA36E3C2
:1059A00046E25FE3F801E056FE4F6081718182813B
:1059B00093810F94762E18160CF42DCE2EE83DE52B
:1059C0004BE75EEBF801E853FF4F60817181828104
:1059D00093810F94762E18160CF4A3C028E53BE4AF
:1059E0004CE15FEBF801EC5DFE4F608171818281DB
:1059F00093810F94762E18160CF00DCE89818F5F4F
:105A00008983F801E453FE4F208131814281538123
:105A10002F8F38A349A35AA329ED30E340EF5EE36B
:105A20006F8D78A189A19AA10F94762EF801E85E76
:105A3000FE4F181614F40C942C3EC080D180E280E6
:105A4000F38027E338E64CE05FE3C701B6010F942B
:105A5000762E181614F40C94C33AD8015C968D90E7
:105A60009D90AD90BC905F9724E033E34AEA5DE3FC
:105A7000C501B4010F94762E181614F40C94453712
:105A80002CE635E04AE05FE3F80164A575A586A53C
:105A900097A50F94762E181614F40C94813622EAEA
:105AA00039E946EA5EE3F801E854FE4F608171810E
:105AB000828193810F94762E181614F40C94D535A8
:105AC00028E23BE445E45DEBD80118966D917D91A9
:105AD0008D919C911B970F94762E181614F40C94AC
