:100000000C9487000C94B8000C94B8000C94B800C1
:100010000C94B8000C94B8000C94B8000C94B80080
:100020000C94B8000C94B8000C94B8000C94B80070
:100030000C94B8000C94B8000C94B8000C94B80060
:100040000C94B8000C94B8000C94B8000C94B80050
:100050000C94B8000C94B8000C94B8000C94720581
:100060000C94B8000C94A6070C94DC070C94B80010
:100070000C94B8000C94B8000C94B8000C94B80020
:100080000C94B8000C94B8000C94B8000C94B80010
:100090000C94B8000C94B8000C94B8000C94B80000
:1000A0000C94B8000C94B8000C94B8000C94B800F0
:1000B0000C94B8000C94B8000C94B8000C94B800E0
:1000C0000C94B8000C94B8000C94B8000C94B800D0
:1000D0000C94B8000C94B8000C94B8000C94B800C0
:1000E0000C94B8000C9480060C9443060C94D7062C
:1000F0000C945D060C9471060C94F7060C944D0854
:100100000C944F060C9406080C9410081008112447
:100110001FBECFEFD1E2DEBFCDBF00E00CBF1BE3BF
:10012000A0E0B2E0E6EBFAE100E00BBF02C007900E
:100130000D92AC3CB107D9F72EE4ACECBBE301C0A7
:100140001D92A63AB207E1F710E0C7E8D0E000E060
:1001500006C021970109802FFE010E94510DC6386B
:10016000D10780E00807A9F70E943E080C94AF0869
:100170000C9400002F923F924F925F926F927F9269
:100180008F929F92AF92BF92CF92DF92EF92FF92A7
:100190000F931F93CF93DF9300D000D0CDB7DEB77E
:1001A0001C0180E0A82E82E0B82E98E1C92E92E0D2
:1001B000D92E1E821D828FEF8B839FEF9C83912C03
:1001C000812CE0E8E983FFEFFA83710110E000E0A1
:1001D000412C512C3201F7016191719181919191E2
:1001E0007F01F601E00FF11F2081318142815381AF
:1001F0000E94270A9B01AC01C301B2010E94410980
:100200002B013C010C5F1F4F043CF8E01F0719F75E
:10021000F50161917191819191915F01A301920129
:100220000E9441097B018C01292D382D49815A8179
:100230000E94220A181644F4FD81FB838E818C8370
:100240009E2C8F2C09831A83ED81FE813196FE83CB
:10025000ED83FCE3CF1AF7EFDF0A8D819E810697CD
:1002600009F0B3CF8B819C8126960FB6F894DEBF40
:100270000FBECDBFDF91CF911F910F91FF90EF90F7
:10028000DF90CF90BF90AF909F908F907F906F90B6
:100290005F904F903F902F900895E0919744F09198
:1002A0009844E756FB4B853251F4108289E994E477
:1002B0000E940705109298441092974408958083F5
:1002C00080919744909198448035910550F48091A5
:1002D00097449091984401969093984480939744C2
:1002E000089580E590E0F8CF0E94FD040E94540537
:1002F00080EB96E39F938F930E94CD0481E08093DF
:10030000CE3B8EEB96E39F938F930E94CD040F908C
:100310000F900F900F900895AF92BF92CF92DF92FF
:10032000EF92FF920F931F93CF93DF93EC018B011A
:100330000E940B051F930F9388EC96E39F938F9376
:100340000E94CD040F900F900F900F900150110953
:1003500048F08AEE94E40E94BA009093AF4D8093E7
:10036000AE4DF4CF8CED96E39F938F930E94CD0416
:10037000DF93CF938CEE96E39F938F930E94CD04EF
:100380000E94BC05D62EC72EB82EA92E0F900F9016
:100390000F900F900F900F90219748F08AEE94E401
:1003A0000E94BA009093AF4D8093AE4DF5CF0E945E
:1003B000BC05162F072FF82EE92EAF92BF92CF92D1
:1003C000DF92CFEFD6E3DF93CF930E94CD04EF927D
:1003D000FF920F931F93DF93CF930E94CD048EE083
:1003E00097E39F938F930E94CD048DB79EB70E968F
:1003F0000FB6F8949EBF0FBE8DBFDF91CF911F91B6
:100400000F91FF90EF90DF90CF90BF90AF900C9442
:1004100033050F931F93FC0160E070E0CB01419125
:10042000442391F197FD30C050ED540F5A30A8F499
:10043000042E000C550B405351098A01550F220B15
:10044000330B44E0660F771F881F991F4A95D1F739
:10045000600F711F821F931FE2CF5FE9540F563068
:1004600030F4042E000C550B47555109E6CF5FEBD5
:10047000540F563030F4042E000C550B47535109DD
:10048000DCCF6FEF7FEFCB011F910F9108956F923B
:100490007F928F929F92AF92BF92CF92DF92EF9214
:1004A000FF920F931F93CF93DF9300D0CDB7DEB7AA
:1004B00040E550E06DE177E30E94BF08892B09F029
:1004C000F9C060E277E390E080E00E94B2088C011E
:1004D00082E297E301151105A1F040E550E06BE4DD
:1004E00077E3C8010E94BF08892B09F046C060E28B
:1004F00077E390E080E00E94B208009749F480E53D
:1005000097E39F938F930E94CD040F900F9025C087
:100510000E9491089093D23B8093D13B009719F4AD
:1005200080E897E3EECF1092D03B1092CF3B853C12
:1005300028E09207A8F028E02F9324EC2F939F93B4
:100540008F9389EA97E39F938F930E94CD040F9036
:100550000F900F900F900F900F9090E080E0ACC044
:100560009F938F9388ED97E39F938F930E94CD0481
:100570000F900F900F900F90F0CF40E550E061EF9B
:1005800077E3C8010E94BF08892B09F053C083EDAF
:10059000E82E8BE3F82E10E000E097EFC92E97E3EA
:1005A000D92E21E0A22E28E3B22E37E4832E38E3A1
:1005B000932E4FEF642E47E3742EC801877099275E
:1005C0002091D13B3091D23B0217130768F5892B5C
:1005D00031F4DF92CF920E94CD040F900F90F7017B
:1005E00081917F011F928F93BF92AF920E94CD04A1
:1005F0000F5F1F4FC801877099270F900F900F90C2
:100600000F90892B39F08091D13B9091D23B081704
:10061000190739F49F928F920E94CD040F900F908A
:10062000CCCF7F926F92F8CF892B09F496CF87E4D5
:1006300098E367CF60E570E0C8010E9409056C018E
:1006400086E098E3C0FC5DCF1B828090D13B909008
:10065000D23B7801CE0101965C01C701801B910B52
:100660008C159D0508F079CFF70180818983818100
:100670008A83C5010E94090297FF05C0BF92AF920D
:100680008DE298E371CF2091CF3B3091D03BF901BF
:10069000ED52F44C6083C90101969093D03B809356
:1006A000CF3BF2E0EF0EF11C88159905B1F68AE414
:1006B00098E327CF81E090E00F900F900F90DF91AB
:1006C000CF911F910F91FF90EF90DF90CF90BF904F
:1006D000AF909F908F907F906F900895CF93DF930E
:1006E000EC0140E550E068E578E30E94BF08892B03
:1006F00009F580E698E39F938F9381E798E39F93B2
:100700008F930E94CD0482E898E39F938F9380E9B2
:1007100098E39F938F930E94CD048DB79EB7089660
:100720000FB6F8949EBF0FBE8DBF90E080E0DF91C2
:10073000CF91089540E550E06FE978E3CE010E9443
:10074000BF08892B71F41F9284E08F9385EA98E3A8
:100750009F938F930E94CD040F900F900F900F9056
:10076000E4CF40E550E064EB78E3CE010E94BF089F
:10077000892B09F05BC080E698E39F938F9389EB08
:1007800098E39F938F930E94CD0487E498E39F930F
:100790008F930E94CD048EEB98E39F938F930E94DA
:1007A000CD0486EE98E39F938F930E94CD0484E15D
:1007B00099E39F938F930E94CD048AE399E39F93DB
:1007C0008F930E94CD048CE699E39F938F930E94B0
:1007D000CD0483EA99E39F938F930E94CD0489ED22
:1007E00099E39F938F930E94CD0485EF99E39F93A4
:1007F0008F930E94CD0485E29AE39F938F930E948A
:10080000CD048CE69AE39F938F930E94CD048BE9ED
:100810009AE39F938F930E94CD048DB79EB74C9619
:100820000FB6F8949EBF0FBE8DBF7FCFCE010E9442
:100830004702892B09F479CF40E550E06FEC7AE369
:10084000CE010E94BF08892BA1F560E277E390E01A
:1008500080E00E94B208009701F10E9491081816EA
:1008600019064CF085ED9AE39F938F930E94CD0477
:100870000F900F905ACFD82FC92F60E277E390E006
:1008800080E00E94B208009789F00E949108BC01A4
:1008900097FF07C08BEF9AE3E7CF6AE070E0D1E003
:1008A000C0E08D2F9C2F0E948C013FCF6AE070E04A
:1008B000F8CF40E550E06EE17BE3CE010E94BF0837
:1008C000892B19F40E94330530CF81E090E02FCFBF
:1008D000CF93DF932091CE3B222349F160E277E36F
:1008E0000E94B208EC0140E550E066E27BE30E9422
:1008F000BF08892BF9F482E898E39F938F938BE2EA
:100900009BE39F938F938FE29BE39F938F930E9430
:10091000CD040F900F900F900F900F900F908EEBD3
:1009200096E39F938F930E94CD040F900F90DF91D9
:10093000CF91089540E550E060E47BE3CE010E9452
:10094000BF08892B19F40E94EA04E9CFCE010E9466
:100950006E03892B21F3DF93CF938AE49BE39F936C
:100960008F930E94CD040F900F900F900F90D7CFD0
:10097000CF93DF93C091CF3BD091D03B6C177D07D5
:1009800008F4EB01009729F0AE0163ED7BE30E94D0
:10099000B608CE01DF91CF910895CF93DF93CDB705
:1009A000DEB79E012A5F3F4FF901419151919F01AE
:1009B00060E570E080EB9DE40E94070918161906B7
:1009C00034F460EB7DE489E09EE40E948908DF91C5
:1009D000CF9108950E94BC059F938F937F936F934F
:1009E0008FEF96E39F938F930E94CD040F900F900B
:1009F0000F900F900F900F90089584E69BE39F93C4
:100A00008F930E94CD040F900F900C94EA040C94E5
:100A100068040C94CD08CF93DF9364EC78E08AEE01
:100A200094E40E94B804EC01845C98400497B8F008
:100A300082E08F9381E38F93CE019695879596956B
:100A400087959F938F9383E89BE39F938F930E9457
:100A5000CD040F900F900F900F900F900F90CE013C
:100A6000DF91CF9108958BEA9BE39F938F930E9430
:100A7000CD048091AF4D8F938091AE4D8F9387EBD6
:100A80009BE39F938F930E94CD0486E498E39F930A
:100A90008F930E94CD048DB79EB708960FB6F89439
:100AA0009EBF0FBE8DBF0895089589E09EE40E9409
:100AB0005D06089526E040E052EC61E070E089E0D8
:100AC0009EE40E9444070C94740189E09EE40E9415
:100AD0004306181619062CF40E9455050E944D0174
:100AE000F4CF08951F920F920FB60F9211242F93F7
:100AF0003F938F939F93AF93BF938091014E9091BB
:100B0000024EA091034EB091044E3091004E23E06E
:100B1000230F2D3758F50196A11DB11D2093004ECE
:100B20008093014E9093024EA093034EB093044ED7
:100B30008091054E9091064EA091074EB091084EBF
:100B40000196A11DB11D8093054E9093064EA09372
:100B5000074EB093084EBF91AF919F918F913F91F7
:100B60002F910F900FBE0F901F90189526E8230F1E
:100B70000296A11DB11DD2CF3FB7F8948091054ECA
:100B80009091064EA091074EB091084E26B5A89BB5
:100B900005C02F3F19F00196A11DB11D3FBFBA2F0F
:100BA000A92F982F8827BC01CD01620F711D811DCF
:100BB000911D42E0660F771F881F991F4A95D1F754
:100BC0000895789484B5826084BD84B5816084BDC5
:100BD00085B5826085BD85B5816085BDEEE6F0E0B6
:100BE000808181608083E1E8F0E010828081826012
:100BF0008083808181608083E0E8F0E08081816093
:100C00008083E1EBF0E0808184608083E0EBF0E0C2
:100C1000808181608083E1E9F0E08081826080836F
:100C2000808181608083E0E9F0E080818160808361
:100C3000E1EAF0E08081826080838081816080834E
:100C4000E0EAF0E0808181608083E1E2F1E0808190
:100C500082608083808181608083E0E2F1E0808136
:100C600081608083EAE7F0E0808184608083808116
:100C700082608083808181608083808180688083BE
:100C80001092C1000895FC01918D228D892F90E072
:100C9000805C9F4F821B91098F7399270895FC01F7
:100CA000918D828D981731F0828DE80FF11D858D21
:100CB00090E008958FEF9FEF0895FC01918D828D54
:100CC000981761F0A28DAE0FBF2FB11D5D968C916C
:100CD000928D9F5F9F73928F90E008958FEF9FEFAB
:100CE0000895FC01538D448D252F30E0842F90E032
:100CF000821B930B541710F0CF9608950197089517
:100D000086E098E0892B49F080E090E0892B29F07B
:100D10000E94060881110E94000080E090E0892B6B
:100D200049F080E090E0892B29F00E9400008111B9
:100D30000E94000080E090E0892B49F080E090E084
:100D4000892B29F00E94000081110E94000080E0A0
:100D500090E0892B49F080E090E0892B29F00E94F7
:100D6000000081110C9400000895FC01A48DA80FCF
:100D7000B92FB11DA35ABF4F2C91848D90E00196DD
:100D80008F739927848FA689B7892C93A089B189FD
:100D90008C91837080648C93938D848D981306C09E
:100DA0000288F389E02D80818F7D80830895CF9321
:100DB000DF93EC01888D8823B9F0AA89BB89E88983
:100DC000F9898C9185FD03C0808186FD0DC00FB629
:100DD00007FCF7CF8C9185FFF2CF808185FFEDCFA7
:100DE000CE010E94B506E9CFDF91CF910895EF9231
:100DF000FF920F931F93CF93DF93EC0181E0888FD5
:100E00009B8D8C8D98131AC0E889F989808185FFA4
:100E100015C09FB7F894EE89FF896083E889F98946
:100E200080818370806480839FBF81E090E0DF9148
:100E3000CF911F910F91FF90EF900895F62E0B8D9B
:100E400010E00F5F1F4F0F731127E02E8C8D8E1156
:100E50000CC00FB607FCFACFE889F989808185FFBD
:100E6000F5CFCE010E94B506F1CFEB8DEC0FFD2F33
:100E7000F11DE35AFF4FF0829FB7F8940B8FEA8978
:100E8000FB8980818062CFCFCF92DF92EF92FF9279
:100E90001F93CF93DF93EC016A017B01122FE88946
:100EA000F98982E08083C11481EED806E104F1045F
:100EB000A1F060E079E08DE390E0A70196010E9447
:100EC0002F0D215031094109510956954795379504
:100ED0002795211580E1380798F0E889F989108273
:100EE00060E874E88EE190E0A70196010E942F0D62
:100EF0002150310941095109569547953795279554
:100F0000EC85FD853083EE85FF852083188EEC8986
:100F1000FD891083EA89FB89808180618083EA8969
:100F2000FB89808188608083EA89FB898081806871
:100F30008083EA89FB8980818F7D8083DF91CF91D7
:100F40001F91FF90EF90DF90CF9008951F920F9226
:100F50000FB60F9211240BB60F922F938F939F937E
:100F6000EF93FF93E091194EF0911A4E8081E0913A
:100F70001F4EF091204E82FD1DC090818091224E27
:100F80008F5F8F732091234E821741F0E091224EA4
:100F9000F0E0E75FF14B958F8093224EFF91EF9148
:100FA0009F918F912F910F900BBE0F900FBE0F90BE
:100FB0001F9018958081F2CF1F920F920FB60F925B
:100FC00011240BB60F922F933F934F935F936F9320
:100FD0007F938F939F93AF93BF93EF93FF9389E09A
:100FE0009EE40E94B506FF91EF91BF91AF919F9152
:100FF0008F917F916F915F914F913F912F910F90C2
:101000000BBE0F900FBE0F901F90189589E09EE4C5
:101010000E94430621E0892B09F420E0822F0895E5
:10102000E9E0FEE41382128288EE93E0A0E0B0E0F3
:1010300084839583A683B7838EEB9BE39183808320
:1010400085EC90E09587848784EC90E0978786878D
:1010500080EC90E0918B808B81EC90E0938B828B85
:1010600082EC90E0958B848B86EC90E0978B868B5E
:10107000118E128E138E148E089508950E94E1052C
:101080000E943D080E945A05C0E8D6E00E9465050E
:101090002097E1F30E948006F9CFAF92BF92CF92E2
:1010A000DF92EF92FF920F931F93CF93DF936C0128
:1010B0007B018B01040F151FEB015E01AE18BF0809
:1010C000C017D10759F06991D601ED91FC910190BB
:1010D000F081E02DC6011995892B79F7C501DF91C3
:1010E000CF911F910F91FF90EF90DF90CF90BF9025
:1010F000AF900895FB0101900020E9F73197AF010F
:10110000461B570BDC01ED91FC910280F381E02D31
:1011100019946115710511F00C947A0890E080E043
:101120000895FC0188279927E89421912032E9F35A
:10113000293010F02E30C8F32B3241F02D3239F423
:10114000689404C00E94FF08820F911D21912053D2
:101150002A30C0F31EF4909581959F4F0895F8941E
:101160000C94590D4CEC5BE30C94D808FB01DC01AA
:1011700002C001900D9241505040D8F70895FB01F4
:10118000DC014150504030F08D910190801919F4EC
:101190000020B9F7881B990B0895FC01615070403D
:1011A00001900110D8F7809590958E0F9F1F08959C
:1011B000FA01A191B081009719F41097E1F0CD01E7
:1011C000DC01CD010D90002011F4C00113C0FB0122
:1011D0002191222319F02015D9F7F3CFFB0121919A
:1011E000201519F41E92119606C02223C1F70D9006
:1011F0000020A1F7D001FA01A193B08308957AE00D
:10120000979F902D879F802D910D112408950F9306
:101210001F93CF93DF93CDB7DEB72E970FB6F89419
:10122000DEBF0FBECDBF8C01FA0186E08C831A832E
:10123000098377FF02C060E070E8615071097E8326
:101240006D83A901BF01CE0101960E94940A4D81D0
:101250005E8157FD0AC02F813885421753070CF471
:101260009A01020F131FF80110822E960FB6F89400
:10127000DEBF0FBECDBFDF91CF911F910F910895BB
:101280005058BB27AA270E9458090C94E8090E94CD
:10129000DA0938F00E94E10920F039F49F3F19F48F
:1012A00026F40C94D7090EF4E095E7FB0C94D109D1
:1012B000E92F0E94F90958F3BA17620773078407E8
:1012C000950720F079F4A6F50C941B0A0EF4E0952E
:1012D0000B2EBA2FA02D0B01B90190010C01CA01F0
:1012E000A0011124FF27591B99F0593F50F4503E9B
:1012F00068F11A16F040A22F232F342F4427585F8D
:10130000F3CF469537952795A795F0405395C9F7A4
:101310007EF41F16BA0B620B730B840BBAF091505C
:10132000A1F0FF0FBB1F661F771F881FC2F70EC0FB
:10133000BA0F621F731F841F48F4879577956795CE
:10134000B795F7959E3F08F0B0CF9395880F08F0BA
:101350009927EE0F979587950895990F0008550FD7
:10136000AA0BE0E8FEEF16161706E807F907C0F02B
:1013700012161306E407F50798F0621B730B840B33
:10138000950B39F40A2661F0232B242B252B21F40D
:1013900008950A2609F4A140A6958FEF811D811DAD
:1013A000089597F99F6780E870E060E008959FEFE7
:1013B00080EC089500240A941616170618060906EC
:1013C000089500240A9412161306140605060895BB
:1013D000092E0394000C11F4882352F0BB0F40F443
:1013E000BF2B11F460FF04C06F5F7F4F8F4F9F4F83
:1013F000089557FD9058440F551F59F05F3F71F005
:101400004795880F97FB991F61F09F3F79F087956B
:101410000895121613061406551FF2CF4695F1DFF4
:1014200008C0161617061806991FF1CF8695710584
:10143000610508940895E894BB2766277727CB01B8
:1014400097F908950E94AD0908F48FEF08950E945E
:101450003A0A0C94E8090E94DA0938F00E94E1097E
:1014600020F0952311F00C94D1090C94D709112484
:101470000C941C0A0E94F90970F3959FC1F3950F13
:1014800050E0551F629FF001729FBB27F00DB11D08
:10149000639FAA27F00DB11DAA1F649F6627B00D98
:1014A000A11D661F829F2227B00DA11D621F739F81
:1014B000B00DA11D621F839FA00D611D221F749F8F
:1014C0003327A00D611D231F849F600D211D822FD6
:1014D000762F6A2F11249F5750409AF0F1F08823FD
:1014E0004AF0EE0FFF1FBB1F661F771F881F91502A
:1014F0005040A9F79E3F510580F00C94D1090C94FF
:101500001C0A5F3FE4F3983ED4F386957795679580
:10151000B795F795E7959F5FC1F7FE2B880F911D53
:101520009695879597F908952F923F924F925F92E3
:101530006F927F928F929F92AF92BF92CF92DF92E3
:10154000EF92FF920F931F93CF93DF9300D000D0C1
:1015500000D01F921F92CDB7DEB77C013B018A01FC
:10156000FC0117821682838181FFDDC1CE010196C5
:101570005C01F7019381F30193FD859193FF8191C4
:101580003F01882309F453C1853239F493FD8591D5
:1015900093FF81913F01853229F4B70190E00E94C9
:1015A000A10CE7CF912C212C312CFFE1F31538F061
:1015B0008B3211F190F4803209F1833229F137FC3A
:1015C0003CC020ED280F2A3050F536FE20C08AE0BE
:1015D000989E200D1124922E06C08D3291F08033FA
:1015E00071F7689430F8F30193FD859193FF819131
:1015F0003F018111DACF21C0689431F8689432F844
:10160000F2CF689433F8EFCF689434F8ECCFEAE087
:101610002E9E200D1124222E689435F8E4CF8E32B0
:1016200029F436FC04C1689436F8DDCF8C3619F401
:10163000689437F8D8CF8836B1F2982F9F7D9554AB
:101640009330E0F08336A1F18337C1F1833509F09F
:1016500063C02801F2E04F0E511CF801C080D18018
:10166000692D70E036FC02C06FEF7FEFC6010E946B
:10167000960C4C01689437F882010AC00C5F1F4F2A
:10168000FFE3F98388248394912C6501E89437F86B
:1016900033FE2DC0522C8114910471F5552009F4AC
:1016A00068CFB70180E290E00E94A10C5A94F6CF77
:1016B000F801808189830E5F1F4FE4CF2801F2E09B
:1016C0004F0E511CF801C080D180692D70E036FCAE
:1016D00002C06FEF7FEFC6010E94CD084C0182016E
:1016E000D5CFB70180E290E00E94A10C2A94281483
:1016F000190409F0B0F7CECFF60137FC859137FE1B
:1017000081916F01B70190E00E94A10C51105A9491
:10171000F1E08F1A9108BFCF843619F0893609F0AD
:1017200077C0F80137FE6BC060817181828193813F
:101730000C5F1F4FF32DFF763F2E97FF09C090954A
:101740008095709561957F4F8F4F9F4F689437F8C4
:101750002AE030E0A5010E94D10CC82ECA188C2CBA
:10176000432C36FE0CC0E89440F8C91440F434FE13
:1017700005C032FC03C0F32DFE7E4F2E892C44FEA3
:10178000AAC0FE01EC0DF11D8081803309F09CC0E0
:10179000242D297E422E842D8870582E43FCAAC009
:1017A00040FEA4C09C2C821418F42C0C922C981887
:1017B00044FEA6C0B70180E390E00E94A10C42FE67
:1017C00009C088E790E041FE02C088E590E0B701DB
:1017D0000E94A10CC91408F49FC0CA94D12C9FEF99
:1017E000C91AD90ACA0CDB1CF60182916F01B70134
:1017F00090E00E94A10CAC14BD04B1F74FCF608102
:101800007181072E000C880B990B0E5F1F4F92CF32
:10181000D32CE894D4F82AE030E08537E1F1232D89
:10182000297FD22E8F36A9F1F0F4883551F1F701D6
:10183000868197812B960FB6F894DEBF0FBECDBF81
:10184000DF91CF911F910F91FF90EF90DF90CF909C
:10185000BF90AF909F908F907F906F905F904F90D0
:101860003F902F900895803749F0883701F7D4FED4
:1018700002C06894D2F820E130E00DC06894D4F83A
:10188000F6CF34FE03C0822F8660D82E20E132E0EE
:1018900002C028E030E0F801D7FE0FC060817181FE
:1018A000828193810C5F1F4FA5010E94D10CC82E2D
:1018B000CA183D2CE89437F852CF6081718190E0CE
:1018C00080E00E5F1F4FF0CF42FC02C0839463CFD5
:1018D0008394839460CF842D867809F45CCFF6CF0F
:1018E000B70180E290E00E94A10C83948214C0F3BF
:1018F000512C5ECF522C5818821408F459CFF8CFCF
:10190000842D867809F466CF8BE241FE80E247FCA5
:101910008DE2B70190E05CCFB70180E390E00E94D8
:10192000A10C9A9457CF8FEF9FEF84CFFC010590C5
:10193000615070400110D8F7809590958E0F9F1FD1
:1019400008950F931F93CF93DF93182F092FEB0167
:101950008B8181FD09C01FEF0FEF812F902FDF9149
:10196000CF911F910F91089582FF14C02E813F8166
:101970008C819D81281739073CF4E881F981CF01DA
:1019800001969983888310838E819F8101969F831E
:101990008E83E3CFE885F985812F1995892BA1F3F3
:1019A000DACFFA01AA27283051F1203181F1E894E9
:1019B0006F936E7F6E5F7F4F8F4F9F4FAF4FB1E042
:1019C0003ED0B4E03CD0670F781F891F9A1FA11D3D
:1019D000680F791F8A1F911DA11D6A0F711D811D3E
:1019E000911DA11D20D009F468943F912AE0269F03
:1019F00011243019305D3193DEF6CF010895462F62
:101A00004770405D4193B3E00FD0C9F7F6CF462F42
:101A10004F70405D4A3318F0495D31FD40524193AB
:101A200002D0A9F7EACFB4E0A69597958795779568
:101A30006795BA95C9F700976105710508959B01EF
:101A4000AC010A2E06945795479537952795BA9578
:101A5000C9F7620F731F841F951FA01D0895A1E28F
:101A60001A2EAA1BBB1BFD010DC0AA1FBB1FEE1F18
:101A7000FF1FA217B307E407F50720F0A21BB30B63
:101A8000E40BF50B661F771F881F991F1A9469F7DF
:101A900060957095809590959B01AC01BD01CF013B
:101AA0000895EE0FFF1F881F8BBF0790F691E02D62
:061AB0001994F894FFCF29
:101AB600E1FCB6BFE62EE7BFD02EAABFF40201C0F6
:101AC600EBD811C0DB5B34BFCE5C4F3C76E87EBC06
:101AD600D8862B3D2794ADBD6E27933DD55A253D1F
:101AE600214889BD20A5603DBA27893C57A787BDF7
:101AF6007229643D632E46BD6EF1E03CBF04D6BB41
:101B0600331B0CBD2DED43BC170908BE1780DD3C09
:101B160006B3C0BBB2DE0DBD5B240ABD2BE8F3BC29
:101B26005C9EA63DC671183C45B046BCF1CFD9BDFA
:101B3600A660D93C85E51CBD2397B0BDC9789CBD80
:101B460088F5BD3C893417BD93BA41BCDAEC55BC67
:101B560008EAA4BCC71D9F3C730198BD324D1A3ECE
:101B6600BB1EE83C8617AC3D4997693CB95D503DC4
:101B760010E498BB324F873CE68895BC4E723BBD5D
:101B8600C43C5F3CD8126BBBB37D5FBD25A4633CF0
:101B9600C0E1283D93EB6CBC15F9563CF3BB3E3DCA
:101BA600706C05BC70050F3DD1AD773D80CCD2BDC4
:101BB6009583A93D582B083B2DFF5E3D546C52BDC5
:101BC600880571BE7B3148BD0003AE3DF176E63C2B
:101BD6008EF0C43BB0CF14BDEE34783D38E786BCFA
:101BE6007097D8BBDFB9163DF0D695BD2EB5DF3C54
:101BF6004C8BEEBB61F13BBC8386E53CE56987BB5C
:101C0600B7528E3BF9D3B03B3D111B3DF7C28EBC9C
:101C160014C7633C58AD5B3D5A324A3D4661843D2C
:101C2600AA6C443D6932373DE78B943DA2405FBDC7
:101C3600589E633CABFC923DA95A2BBDFDACC1BD81
:101C46009EC730BE2DBF5F3D302D3F3CEF77BABCFF
:101C56004461CFBC84738FBCD15C613D9FCDA43DF4
:101C660040EC173E0E85CD3DFA395C3EC6CC913C24
:101C7600B4464BBDE25A213C9030C43D72B10A3D98
:101C860081F640BD2641653C5E3673BA735F1ABC69
:101C96000D45A53C117C22BD26A988BC1EA2C13DCE
:101CA60059A2C83D9AFC513D64A585BC6931783C72
:101CB600599F89BCDDF282BCA99C4F3C287E6BBC37
:101CC600C185A83C522CD13CB360B4BDD0725CBD7A
:101CD6000F82B63D73AC253C0EE4B63DBEBC223E3B
:101CE600C961223C5BCF763BC35394BDBA8540BBEA
:101CF600410C2FBD4AC56D3D8938C23BA13F5BBE35
:101D0600EE119FBB5A5524BEB0E9DBBCA086D13B81
:101D160057CE9B3B86DBB63C7ECA073DDA5C96BC5B
:101D260070E7E03C0E72D5BBBDCBD93C4C05AFBCD1
:101D3600CFD9243B7C93283C00CBCC3DF36594BDA6
:101D4600E2B9933B95933C3D6FFB3DBC42678E3CAD
:101D5600C810373C40458F3DA450E63C0A511C3E16
:101D66005C7B993DCB15FC3CF82E363EE9A8B2BD0E
:101D76006665F73DFC958F3D8D3BF9BCAEFCE23CBC
:101D860066F51A3D0D9FA83D73304DBCC1F07CBC75
:101D96006565D83D1DD9D23C71AE5A3DECA1513E88
:101DA6009A61C83C229E90BD7998F4BCABB9F6BC4A
:101DB600539DC1BC464AA4BC1A5A3D3CB4C093BD0F
:101DC6000F9B30BDB25F6E3C75896ABCEFA9ADBD95
:101DD600FE6976BD99F8FF3CC5E0243DAAB6DE3D16
:101DE600A861113EA8652D3DAF0C003D25BAFDBD8D
:101DF60090148BBDF26F18BE0FC6E63CAF0C003DCB
:101E0600170EABBD1949623DE41FAFBB848A303D56
:101E1600C94D23BD0DD8FABCADE908BBAF0C003DDA
:101E260025BAFDBD90148BBDF26F18BE0FC6E63CF9
:101E3600AF0C003D170EABBD1949623DE41FAFBBA9
:101E4600848A303DC94D23BD0DD8FABCADE908BB27
:101E56000910813D7F68B03DB11BD43DD6F112B962
:101E660061F1893B0910813DAF97DABBC630C53DAC
:101E7600ED94C63CBA112CBD9D3145BD2872B53DC9
:101E8600E169543D415FB13C995F0BBD8DFD163D47
:101E960036DD1BBE094C75BD415FB13CBF7736BD13
:101EA600AF34083E316FB53C55DEB1BCF8A69EBADC
:101EB600BB5D0D3C5B82883CB4C87E3DF60DE93ABD
:101EC6005999443C68BE0DBD2D85D0BBB4C87E3D36
:101ED6006566873A86FC7F3D4B79FDBC779C9DBD48
:101EE60096BEF4BC6F75863D71999F3C069396BC71
:101EF60082E3A63D2480FB3CEB3FD8BD6BCC8B3DFB
:101F06001F9F483D855B01BDB183B03DE8C3073DDA
:101F1600B4D13ABEB171CA3C87D5653BB370383D82
:101F2600410B52BC97C1C73C2D1DCB3C3AEC09BEB8
:101F36008186733BC3558FBC0E874DBD9E81D63CB3
:101F4600987D22BD618E883DD10CF23C14EA903C0E
:101F5600B30E06BD8B2BA2BB313553BD4AB875BC3B
:101F6600E607E8BC3EE5223C86F3EC3BB927A5BD77
:101F7600BA234DBCA27C8BBA902F1E3DFF00B0BC8D
:101F8600818837BEE70FF83C8B74113C3C0658BC81
:101F9600C8430CBDB0DB06BD4862C8BBCCC2EABCB8
:101FA600974F13BE75298C3B84FB0EBD92D773BC2D
:101FB6008A650CBE6B60B1BCE14A22BD5CB9B13D1D
:101FC60078E1E7BCAF8C82BC62DC483CEEE4F2BA56
:101FD6004394C53BB638A73CFD040A3C6DBADDBC4C
:101FE6007AA9F23B94813C3C1018873B1FAD07BC95
:101FF600FC3B01BD8D24E83CC96A0C3C997B68BD5D
:10200600B565063BDA87393BD2143A3CE4E1C5BCF8
:1020160009DA96BC0892F8BBDED81C3BA7DC163A58
:10202600944981BC099B22BDD1F61B3DF48C803DB1
:10203600F461273D7664953D2C4D193D4B76C23DA6
:10204600DB725F3D0C3E123D2F919F3D3CB2C13D80
:10205600B7064F3C04C6F33D0774A13DE6DC47BC1A
:102066007A34C63B92C0423DF7B63F3CA25CBCBC4C
:1020760014B1CEBC201FDD3CDAAC0B3DA1271C3DC4
:10208600296E7E3D10DF8E3D5BD0B53DC36A2E3D89
:1020960067AAC23CB3AB2A3DD3B349BC562E063D14
:1020A600C503393D0CD08A3D13FEDCBD73B1ACBC13
:1020B600B6CA253D87C6043C596578B84BB78F3DEF
:1020C60041DE093D8BC643BDF9FE9DBBC03618BD3A
:1020D600447219BD78646DBB0C2135BD24B25B3DDD
:1020E6006EA911BDE4181FBDF8EE02BCB3B8AD3C35
:1020F6005E11AABCAFD1A6BD6DC79BBC3BFC97BC0D
:10210600F10A6B3B58429EBC3DB1943C9897F33C18
:102116003E49703C50E70BBDE06F54BCC86775BBC9
:102126003FB5F23C773DF4BCC20BB139C8CE52BDC7
:10213600749021BDFCCE62BC713C6EBC68BE123D83
:1021460009CC7FBDCA366EBDAC594EBB3EEE39BD1D
:1021560045D371BCD1309EBAD5F463BD5F0FFEBCCA
:102166006BAE17BC5A79EF3AAE5791BB90430DBD93
:10217600A27E02BC1736D03CE96CF5BA6F7B6B3C8D
:102186001BE05A3D01D6213DD48C06BDC742813C99
:102196004D0609BD1CB8AE3BECDF003DA486A13C54
:1021A600DDEA22BCB60B633CE4D0E03B02A6DBBC16
:1021B60020B3B5BD3624F3BA4E0B65BD89FC7FBD91
:1021C60066C135BD7B2E72BD000EEBBC2357913D1B
:1021D6003A20923DADF5A2BCC012DF3AD27E873CD2
:1021E6009EB90F3D62C304BD3FB1933DA79C0EBD92
:1021F600EE2B6C3D761B403CDF39423C41FE973C62
:10220600AF6E55BAA844B73CFEA1B93B9A07DF3D6D
:102216003D5CAD3CA1CA38BD4D28643C3A9D9E3B11
:10222600FA182E3D49DDC3BB65885A3C9199F53CA9
:10223600DA22963D5CF800BE1F09803C65F4FFBDBE
:10224600A3CA163D28C27B3BB30EF3BC9225873C3E
:1022560016FB4F3C7CB64DBC2E03E53C3E4C8DBC7C
:102266008E37773CF7DBB9BDD40A343DA6CC6CBEBD
:102276008D3BFCBDAA53A53CCFC983BC34A13BBD55
:10228600D251123DC61670BC2D0888BCA4C9C6BD65
:102296001399D5BC10087E3CEC42E2BC51F3E83BF6
:1022A600643FD0BD798B09BED303D4BDA8C01DBE83
:1022B600843A0FBD643FD0BD1BB943BE34D9A4BD1B
:1022C600AC315ABCC8E6483D8089BDBC53E625BD45
:1022D600C05ACCB9BC0F5F3DDEDE0A3E539EB93D07
:1022E6007F4D3A3EC5D1CFBCBC0F5F3D3272053D36
:1022F600978FCC3B4839863CF598B43CBCD63B3DE1
:102306006445873D080ABDBC5F5ECFBC6318AFBCA1
:1023160014696EBC5AF1213D63B410BD5F5ECFBC3B
:1023260078B854BDDC579CBDE5554DBCA907813D29
:1023360063B27A3D8D8C8E3D4BEB14BD28654CBD4A
:10234600404E983DCF77523D50FF9F3D88E185BC7A
:1023560028654CBDD0A6583CB850A93A32A077BDE6
:10236600A713843CF059803D8B31443C7862333C62
:10237600B4526A3B65C8513D154BCDBCD3B78FBC33
:102386003A6473BD489138BD1BED9DBCA3FD7DBD70
:10239600A60501BD2E8E89BD6FF35B3E61AB83BB87
:1023A60073B23D3D322EB53DBC9E37BD582C873DA0
:1023B60052D8103EA38AEC3D5AD6553E3C3A49BE09
:1023C600AB0676BDCCFF1ABE788B513D5C6C47BD23
:1023D600587F233C507AD6BC71D505BE3C7710BDDC
:1023E6004B58F53DF489243EA4B256BCD6A112BE84
:1023F600E5E73ABD434C55398EA7A83DE31933BDF1
:10240600E7F2C93A77E2B63CDDD75C3CC07E2FBC2A
:102416004732F1BB939307BDAF12863CDBE6B33D73
:102426000436383C2E5EAFBB23D467BD7F0D133C0C
:10243600F33126BEFA941DBDFE2AAEBDF2D23DBDD5
:10244600962E9BBDFFF144BD18D801BD25F2D4BC24
:102456004173AE3B832D05BE7057353C0CD1883C8D
:1024660098CBE5BD9177843C98A1FF3D6CDD19BD05
:102476007459443E14F1D2BDDB50873C2F6C433C6B
:10248600209D8CBCACBA273EDB3BA13D83E1A13C41
:10249600E54AE1BD26251F3D3409063D5489CCBDDC
:1024A600C8721ABD736FFE3C4D0BE0BC8771DF3CF2
:1024B60098D9D23C14436BBC602D4BBACE81A23C5A
:1024C600ABCF863BD8378A3D562004BD986A78BB89
:1024D6004D5969BCA4E9CF3BADF0623D6CA120BD6E
:1024E600EF46B7BCF0AD853D77BF88BCCBFF61BD7D
:1024F600E36A83BE21E403BD91B5BDBD2CC3CFBE47
:10250600B5C42CBEB657AA394BAAE03BDB3D96BDF7
:102516009FD54D3C83CDC9BC49EF293DCCFE1E3E1F
:1025260068CD0EBEDAA8273E89330C3C5644DF3D03
:102536002510A2BAD204D13B8913E8BD969410BDEA
:10254600B4EB883B59FC113D35A7473D18E7F53BF1
:1025560036A7E23CD8405CBDA5EE49BD58937ABD8E
:10256600F7B400BE51DC2FBE2765303DE27B633DEC
:10257600AE7C3DBC2B09DE3CDDEB393D46C6DB3C83
:102586009840BB3DE42EBE3C2344943C91EEFF3D77
:102596008F801F3D08C979BD59AF923EAAF5ACBDE3
:1025A600A8EB25BDCDD8553ECB91C63C47106E3B1A
:1025B600263C793CBDE290BB318742BB0AFE103E09
:1025C600E58B463E73500ABED61FAF3D915974BD8A
:1025D600CA02873D2747513C79965ABD1AE441BD48
:1025E60067A09A3D962FB9BC8EB1283C400DB5BD6B
:1025F600137DF13D2D9FC2BD0BBF44BD96070DBE99
:102606009BE81C3E95A2C1B8EAB1463D00654C3C2C
:1026160074CBFDBCF454AEBC3E3A1FBD2D2F2CBD71
:102626008D7503BEFB51E7BCC02CA1BC9E2F3DBEE1
:10263600AD85EC3DBBFC95BCA0C76FBEC219C2BC44
:10264600BBA81B3E04F52FBDF7767FBD56603A3D0D
:1026560011CF363D2E7BF6BD9BB4E33D5D0ACEBC65
:102666007A9094BE96590CBE264F52BDB58F2E3E1B
:10267600CC5CD93D041DFF3D7A76963DA128BE3C33
:102686002C48A03D1C710F3E5E0713BD317D5D3D9C
:102696003171843E8D8D093E310BF0BD6B8AB2BD22
:1026A600E08D4EBE2F3F56BEFF7CA9BD321D613D5B
:1026B60042D4E1BC137CDEBC8F91423CE48C53BB1C
:1026C600321D613D910611BD37D366BDFDDE0EBEDE
:1026D600F27562BDBCC07F3C139A893D8B15473DA0
:1026E600321D613D42D4E1BC137CDEBC8F91423C7D
:1026F600E48C53BB321D613D910611BD37D366BDD7
:10270600FDDE0EBEF27562BDBCC07F3C139A893DEC
:102716008B15473D76DD0C3D3F24C4BCE4BEBFBDF2
:102726003A52FC3C541C83BC76DD0C3D41A029BDCD
:102736003D1951BE3F52213DBFEE8ABD3CFC923D44
:10274600B42B7ABD044DEF3C9B94DC3C8DA5E0BCDC
:10275600A1FC24BD6D449A3D5D160C3D9B94DC3C6A
:10276600F0B8043C13B2FABC02ACBCBC8E1E52BD1F
:10277600B325453DD0EBB5BCE70514BBE78287BD65
:10278600E4DA8FBD6EDC94BD1F93E5BD589D593DBF
:10279600E78287BD9FAAD13C9AFEEBBDA6FEF03B21
:1027A600AA94613DFCA558BC41C6D8BC3B02023C7C
:1027B600A1FB173E4188C2BDE72FB93CA354803E1A
:1027C600DD641A3DD4BB553D8DC01D3E1172ACBDB6
:1027D600D1948B3DD8E88A3EB547883EE81D4C3EED
:1027E600B07F5DBB1485A5BADAD2F4BCE01F353DD7
:1027F6003EAE36BD8FDC883CBE0A97BCCFC1D83D05
:10280600EE19EA3C81B462BD9511283B952004BEC1
:10281600C5A6DDBD37B7F63DF78F1BBCA95229BC4F
:102826004905B2BDF793C5BDBE512A3C12BDBF3C9A
:10283600C21BB03C2D7247BBC106ABBDA5D10ABDBC
:10284600B323C93B75E83ABD7EF05ABDCB18FD3BB4
:10285600BDFABE3CD7965CBD813C7C3DFD887A3C8A
:10286600BD35A13C50C546BDA79A3C3C8A4511BC26
:102876007D098F3C3B3E3CBDB15E4D3C9BB8203E46
:10288600FAFF4DBEAB9963BD97549D3D63647CBD15
:10289600C8BE983B4D8ABCBB46CEF73B6059CC3C84
:1028A6003B0308BDBABB1FBD0B2AA4BAFBD5803CAF
:1028B600F3BA1E3D0C4B86BC9AB11B3A25A2A4BDA9
:1028C600CFB1AA3D3239613BE5EA1D3D159E7E3BFF
:1028D6004D5B18BB990A59BC41E42DBDF1537E3CB2
:1028E600DA450A3BDB57BDBCB8C2833D1FC47B3DFE
:1028F600C05E35BD4F682CBD0F00453D275E03BD4C
:10290600173459BB2782553D415F50BB8BC353BD1E
:10291600DB5A043CAD9490BC678C7E3A299948BD3D
:1029260000BD1E3DE4C9E23BD162473A749E96BDA6
:102936007395543CF237C8BC5F4F8FBD96D062BDCD
:102946009CBA38BE322B173E5B601BBD42E96BBD9D
:1029560037AC89BD2B34F13C908257BDB186953D8D
:102966002D429D3A197948BE38CC34BC36BAFCBCE7
:10297600586744BD957DFA3A11DE933C32C7C63C92
:10298600A751BABE469B263E9DB28DBD5F50B9BCCF
:102996006FC81DBD69C6C93C65BDFFBC4811AA3DCF
:1029A600C389B9BD817868BD7DE339BCE4DAABBCC7
:1029B600DA65B5BDFAB496BC8DB77EBCF3DB813D56
:1029C60093C671BC8FF0AFBDA6CCA53D67853FBC55
:1029D600DF8B83BC01E106BDE27B473D437814BD36
:1029E6004E6B343D492297BCEF83CD3CBC72EFBCA5
:1029F6002DC7793D89FEDCBA096530BDADDC09BD60
:102A06007D35CCBDF3505D3D064939BD6393533DDD
:102A160019C88A3CAAE829BD8CF531BD531E1EBDD6
:102A260091D672BC26231FBD47C2133D0C414CBD37
:102A3600474A973DBB3F0C3D66251D3D003FC83DBF
:102A46001478EFBC375BA7BD30D3B33BBFD991BC7D
:102A56003B3AA73D472A783E115168BD17931DBCE6
:102A660076E6553CABE0213C0353D4BCF6A40F3CC0
:102A7600D0D722BC9961583D28F6B7BCF795393DA9
:102A86000D91B23DD2610B3DE9211A3D8F0C743C8C
:102A9600ED9097BBD2D1A9BDE485663CB0D6DDBC2E
:102AA600F3AD523CE5D0A0BC06CB13BCD6D1FABCE4
:102AB6006722B83D6D248ABCB810153C21434CBD35
:102AC6002F6B8B3DEB5B1F3DF6FB393DC3F0313D74
:102AD60049A4DFBDA4A8833DF1DF743BDCEFFBBC5A
:102AE60022862D3DD76616BC78FD253D9657DFBC60
:102AF6000DF6E23C6310CEBDC876B33D58141C3EBD
:102B0600765EDF3D04AB823D1E1C82BC90BD46BC9A
:102B1600E1A0523D040645BDC9A11B3E6D002B3DFB
:102B26008803DC3BE0038B3ACD56C33DCAB527BDCF
:102B360011C9E53C36673C3E2E4055BBABF9803D9E
:102B4600286883BDCC32EC3CB1181DBDEDB5EDBC9B
:102B56001BA31A3EC697C13C9672AD3A99AE28BCE5
:102B6600D32F963B32EC85BD1611CD3BA09152BDBD
:102B76001A9AC73DD93238BD32EC85BD59D657BEF3
:102B8600D4C2543BA83704BC4C1B783DCDB6D53DCA
:102B96005339803D249C85BC3D20ED3BD20099BD38
:102BA6001BAB43BD0F2337BD10AD7D3D3D20ED3B37
:102BB600D6AD00BE7766123C5816143DE06B0CBDD0
:102BC600B003023E54E124BE364AE0BCC6E9EBBD82
:102BD6009662443CE1DE97BD3441B83CF2E3AD3940
:102BE600C6E9EBBD55408EBA7E808D3D541BF1BDC6
:102BF600C0381ABC12B7F6BD70C2F0BC1085CABD8B
:102C060058EB8CBDD74CA4BDC2440BBECA17C7BC7B
:102C1600DC9175BC58EB8CBD03119F3BF72A9ABD1E
:102C260094BA65BD880E85BCFA8F95BCC001F6BC0A
:102C3600E196C73DD8233DBD90D40CBBE9EDACBDB4
:102C460070DA6ABCEBA2BF3D545C3F3E09693E3D6B
:102C5600E2D6CC3DC1E5283D0212623D28C30E3DB9
:102C6600120E3DBD866DF7BCB33C8B3D1F6C4ABC56
:102C7600C0FDB8BCB5CD633D7981A4BDC06575BD49
:102C860091F3343DAC198BBCC67F90BC3E54113DCC
:102C96006363853DA93035BDC21003BDA203773DF0
:102CA6003F9AA13CEBA76FBCEB6453BEE08B923D11
:102CB600995DDB3D5C76993DE6FB04BDB3E780BDDF
:102CC6009B08833D6C2C103DC049F8BCC3071BBC58
:102CD6002B132A3CA2D8163DBAA1923C151833BC38
:102CE600913C06BD9A4044BE91AF0A3D35CB09BE24
:102CF60048C1653CC45AC63D3FA4373CAAE857BD07
:102D0600B3EF853AFFA7C83CBBCA44BD498A553CC8
:102D1600801F1D3C6D696B3CDA92A63D914FC13B0D
:102D260006AEB03C482DB03DB597AB3B2554D6BD5D
:102D36004C55DF3CC9CB33BEDE9F083D523A78BCCA
:102D46006F9BBB3C18AB9EBA76AAAA3D361109BE4C
:102D5600B41945BCF29D8DBD43ED0D3DE8705ABBDF
:102D66003441B8BCE8AFD83CEB18E7BC5A30F63C67
:102D7600E5F901BDF8BE7CBDFB3E9D3C1300CF3C92
:102D8600BFE08FBD4A3B3A3D423916BD70528A3C80
:102D9600CBDFC53B515021BC8F81A5BAB61F2FBDD5
:102DA600728E3BBB9C77073D43F056BD48F25E3BB7
:102DB600D59B303DF1EC973E0456FA3DADAA0C3E4C
:102DC600C7D48F3EA52E2D3E5D8DD53D171331BC44
:102DD600A7AAC8BB6E3FB2BA19595A3CFD17B4BD73
:102DE600348451BD575B683CFE0CFCBDE06180BC81
:102DF6002871DDBD1B869A3DB0B136BB72D00D3D44
:102E06003F0A24BD68BD183DEA3F36BC64368CBD1A
:102E160018B852BD73B5E33CADBF6D3D432ADD3CEA
:102E2600B1B761BC3994013B2B9581BBCA0CB9BDC6
:102E3600408204BDFD2355BD567B793B3ED09F3C69
:102E460089A246BC65B0F0BCAA26CE3C968529BCB4
:102E560006BFA2BBF5B738BB0853CEBCEA14F6BD15
:102E6600BFAEC1BDEF4C2FBD95B3D4BD7B95E33C42
:102E7600ABC2003ED6F9E3BC186188BCFB3A24BD60
:102E860041C0613BA872433DF0A2DF3D5AEB943C42
:102E960074F6043DDCE62CBD99FC1D3C2F3E6D3DD1
:102EA600AEA20FBDD431C5BB616915BC26448FBC2B
:102EB60005F12D3D247831BDE0A1113DC6A756BCD4
:102EC6007F7C2BBD55E0C03C78C8263D278CEDBDE8
:102ED600983499BBC91B9B3C9102503BB88679BD7F
:102EE600C54CD8BCA0A378BC018997BD560BC0BB06
:102EF600DBBB3D3CBBF5D33CC569D3BDEFFB1F3EF9
:102F06002AE8A13C2D8C71BCA14CD63CB097B2BC32
:102F16004CD296BD9281BC3CD7ACCEBC21F38CBDC5
:102F26005B5A963CE1380A3E7D15503DD70F053D6C
:102F3600285A8BBD5175D5BC343B0BBD46B7B0BDC9
:102F460088E9C2BB1B57B7BC2AC05CBDC93D413D21
:102F5600BBA387BCD1EFF1BCB9ADB13C6278623D91
:102F6600613F12BD0EFA843D49613B3C39368C3BCC
:102F76003401C4BCB33EB53D1EE3283DE14FBA3D26
:102F8600E39011BC3401C4BC5184DA3C6C496FBD7A
:102F96007495C0BB146E5ABC84B3983C64477FBA20
:102FA600C1BC3CBC3401C4BCB33EB53D1EE3283DA8
:102FB600E14FBA3DE39011BC3401C4BC5184DA3C04
:102FC6006C496FBD7495C0BB146E5ABC84B3983CF3
:102FD60064477FBAC1BC3CBC904B4BBD35825CBCE0
:102FE60075DDE43C82F298BD22263DBD904B4BBD7B
:102FF600A25285B9DE11913DA8E7B6BC44DCDA3CA5
:103006002834C13CAF5F1DBD52492DBD4C46423DE3
:10301600CFB6753BFED1253B308E703CFF30EFBB03
:103026004C46423D4E2E333D311FC7BC24A7403D82
:103036009F8EBF3D7F47B8BCB6BA7ABD4ADB49BD55
:1030460038A05DBC609F713CA3A2DA3C256B513D64
:10305600B9A1C5BD38A05DBCE33C5BBBCB9E863D3C
:103066007F1D843BE0D46ABBF655A83CC81BF9BC5F
:1030760013AAC7BCEE1DB73C3D7A13BC14E4043C4E
:10308600FA4C073D4C3D86BDCA6E50BDE2A9383D9F
:10309600F6BCA8BC7CF2F3BB6ABF97BB3AA51BBEC5
:1030A600774674BD46881FBD70F1B7BC86D913BD7F
:1030B60055111C3C4DE2893DE7143EBDFE0B1FBD7C
:1030C6004BF1C43D5CCAAF3CBA4EB93D13890C3CCA
:1030D600CF36F53CE6DB2A3D5AF022BC316B4BBDC0
:1030E600B21FB1BC9742B8BD0ECA803BE53F3F3C1C
:1030F60040E9C6BB16E21D3D0D15C0BC076F783C06
:1031060028DD0EBD409F333B6468E53D2FA6E6BD36
:10311600FA2B313C8475F9BC9A8E223C5FAA58BCC6
:10312600F327F43C37A3E33C12CA923D5E39023BD7
:103136005931643A92E3F53C5BD48D3DFE22A6BC40
:1031460008C7D1BD669C1E3DAD5FA13C808F39BDD1
:103156009C285ABC6281173D1AC539BD77EB063DDE
:1031660063BE5DBD6D4D0A3C05EBAD3B46779FBC2E
:10317600F3463FBDE475EEBC990DFFBC64465BBDEE
:10318600F4A497BCD6CF16BD63C44F3C07233FBDFE
:10319600C8D27E3D5E0C1FBD6D5B21BD4B2DC4BCF0
:1031A6007608E7BB2F44083DDACB1EBDF653E9BCD3
:1031B600AAC08DBCDB4AD73B460A923DB2AF8FBD53
:1031C6003B8154BC19CC33BC36FF53BDCDA753BC91
:1031D600D011703CF09952BD1A9FAEBBD08678BC18
:1031E600DE1E8C3B3940A9BCDED2443BD23E6C3C51
:1031F600F423CABB6E62B9BAEBF55B3C9DB3FE3BEA
:10320600B393C43C17B8DC3DEEB09B3B2C13DE3CBD
:10321600CA5C913DBF5D54BDFFDAFF3BF334543CBD
:10322600F5818EBDB8A77C3D0C6C343C7DF862BD43
:103236007398C73DADCB2C3B99AFEB3C9EFBC0BC16
:10324600F712BC3C8478C13DB46A21BE8CA8163DF9
:10325600E1112DBCE65C2E3DF68EE43D1E8134BCAC
:10326600D0DEE2BC7D8726BDB0BBB83C98389B3D1E
:10327600CDA959BCF41682BCF7BAEC3CC6E6983D1B
:103286006442DDBC1A573FBC7E29053D00731B3CDA
:103296003DE11F3BDA9B523C0D1BB33CDEA6ADBBAA
:1032A6005D9C313AA524E03BE6C06A3CA9BF08BC58
:1032B60083CEB33C28BF263DFC5DBFBB91845A3C00
:1032C6007497823CE07E0D3D83735BBC8B86E8BBC6
:1032D600B054993C100CFD3B901C753C9C5A8C3CA0
:1032E6002851A8BB5BEA383C9BA68A3C56357B3CFA
:1032F6007A70733C323B56BC6EA7813C8ED0E7BCDD
:10330600BC5327BDD8FE063DB477D83CA12274BB7A
:10331600F97B1A3D26A0D3BD49B228BE2F9A8D3C13
:103326003E2A753A2C9898BC253B0C3CBB316E3C2A
:103336001042CBBC556D9EBC3B491B3D2B9A56BCDF
:1033460008F420BD910C82BC5D8F1FBD44D454BCD3
:10335600A52CEE3CBD1010BDBC46BABCD28D28BC17
:103366006B9B6CBD9F71283CB1481DBD9FA9133D49
:10337600B8A2C8BC1B80503A486009BD948B4BBDAF
:103386005F69F93C9F340CBD825C56BD42E98BBD3A
:103396003AC0FE3CEC940EBE345543BC7088CB3C20
:1033A600C83FA53C02B270BD4061E7BC91154D3BDC
:1033B6007982853C038E66BD2CCA65BD6550973DF6
:1033C600301781BD6C45B93D4CDDECBB39814E3DB6
:1033D600CA984C3CEFFBBABC42EC91BC4FAE0EBD5A
:1033E60073501F3C76101B3B890C05BD448B953DE5
:1033F6001B4B8ABDC142253EFC109ABC01E88C3DA0
:1034060088F949BCA935123D471D73BD7087A33C99
:10341600121AA8BC96700EB93E48393BC132E2BCBE
:1034260039ACAFBCF10F523DB08EC43DD7A8B73D05
:1034360087E5F03D0E390ABC6509CA3AB08EC43D2F
:10344600B7BE5E3EF63AC83DA480E83CD613A93C1A
:10345600BC9E96BD1BFEE63B066262BD51A02FBB1D
:10346600BC1806BD5C1A5CBD242F203DFEDBC5BC26
:1034760051A02FBB0EA57A3DE1723A3DD7AEE5BC11
:103486004DA7BBBB1B8080BC023569B8F25D583DB9
:103496006C6D1E3DDFBB0DBDB1B3B93A7A41BBBD04
:1034A600C6D2343D6C6D1E3D2374153DD758373C4E
:1034B6009105D5BB66673EBDC6814F3D5BAF73BD0B
:1034C60003E1F73C2FE7343D7631D9BC15E9063CDC
:1034D60083D8B4BDE79EF2BC2FE7343D2DDE5B3CBE
:1034E6004AD8B83DB627593C85A126BCF715DEBC9F
:1034F600531AA8BCD99EAEBD2AD65F3D8EEBF43AD0
:103506004D08843DF7FD0639188B93BD4819A6BDB5
:10351600E262403C0071BC3C4D6B8BBD7521D7BD52
:1035260066F0D4BD1606A43AF661F6BD81659ABD6D
:103536008D97FFBC29A8CCBD8A2753BDCDFB20BEE5
:1035460058EEA23C1C892D3E2910D8BDE731BF3E5E
:10355600C93D99BD7ED82C3D49710ABC12E79FBD75
:1035660020119BBD651CB5BD869CF3BB4EB630BE17
:10357600E1288F3E3807313D838E733D59B20BBE2D
:10358600EAB3643E80EFE33C25215FBDABE8C23C75
:10359600FABE043EED17A23E452A38BEEE4C06BEE4
:1035A600BF32023ED4C7383EBDE60A3E1394FEBD86
:1035B6003CFC863BC2A4303FB7BC0A3F8D2EAD3DD6
:1035C600ABCECB3DF03DEA3DDF1D16BD5750E93C85
:1035D6008BD3D73DE5EAE2BB98632F3F3A03FB3E28
:1035E6009B105D3D63F5283F1BC1E73EDD3BB03DCB
:1035F6000975AF3E1E94B03E04811DBF1EA3323D29
:103606000541FEBDAFD693BDC23C053E8206F03DE8
:10361600F25DA93D67120DBE397411BE9D003F3D96
:103626003689533DF6BE15BEC03F953D620D12BDAF
:10363600811D9ABB403C3A3DEB0FC93DB59542BD55
:103646007827D9BB7414803D1333E33B6271E8BC21
:103656005845923C3A498BBDD9E2BBBD85D874BD6D
:1036660090BF35BCD0A2803CA75DD03B70BA7DBA76
:10367600D69638BC771C453C89B981BDE756AA3C2D
:103686006FEB5A3E26F2F0BC29BD80BD5032173E84
:10369600897B15B97FAC293DE805D9BB2EF509BC58
:1036A6009F31813CFC222F3CA2336A3DB25D6F3EC6
:1036B600C7FD03BC584FF83ECB8796BEA3F50C3E1C
:1036C60017F290BDE1F8B1BD46B698BE07BE1E3CE6
:1036D60014C1993E15AE4E3C1447743D4D98BC3B03
:1036E600C4CAB4BD8CC182BD59778B3C9875443E23
:1036F6002399873DE1A7A5BD9D7F66BEA51B06BE96
:1037060058C8ECBB95F785BD301BC43B301113BEC2
:103716005C3D65BC1D4C8F3C562A6C3D3D80E33DAF
:103726003C8E0DBDB3B1BCBD6724253EB82043BD5C
:10373600E0811A3E614CFABC7901C73B630FA63D96
:103746005199923D5FCA763D66FAB5BAE85F51BEB9
:1037560034F53F3DC11DF83D8866813E786656BD0D
:10376600490494BDE984B03D2F2218BE28EAF1BC75
:10377600F40C363EF6AEB3BD2D82DBBD091C943D7E
:1037860082F5F33C9E8766BEA87513BD5CBAF13D13
:10379600B3F7D63BE856B73DE839CBBD60D987BD10
:1037A600056EEBBD6765A83CE4C9B3BDCD821DBE01
:1037B6003193E23CEF7BBFBDE6F7ACBD5117CF3B83
:1037C60078C5193D2794323E9082BEBDB521A1BD74
:1037D600869A6CBDC908993D003BCC3CBA8AD83C58
:1037E600F93D41BEBC2B163D03AF38BDE981EFBFA5
:1037F600DDA4233F12699E3EF4AB353EF18CEA3ED2
:10380600DA05B63E47F8443D00BCD9BDDE1A813C18
:1038160065931DBE4E4948BEFD3CA13EDFB4F83D52
:1038260040E637BE2145D3BD3D272A3EA42EFC3CAB
:10383600DE1C32BD73AE89BDDD4069BD90D220BDB0
:10384600965E88BCC4F773BC73AE89BDABD92C3CFD
:103856006390143D8E3F053EF86DBCBC660BBBBC49
:103866004A1B293B84F5903C73AE89BDDD4069BD9A
:1038760090D220BD965E88BCC4F773BC73AE89BD7A
:10388600ABD92C3C6390143D8E3F053EF86DBCBC15
:10389600660BBBBC4A1B293B84F5903C5A30063C60
:1038A60006CD9F3CE03A0DBCBABF3D3D6448843D21
:1038B6005A30063C7877923C90CDDFBC4B74023E82
:1038C6004C0B38BE84F010BD5F6C53BDDFCF113D8D
:1038D6001BC80D3E98E1CD3B304BC43D9DD17ABC13
:1038E600F8B4843D1BC80D3EC9798B3BF17E073F7A
:1038F6003867AA3E7EFB843987DC1FBC91E3F53D21
:103906008A2A043EEA3E5EBD5F32943B6361BDBCDB
:10391600896CC9BB8CF234BDEA3E5EBDA8D31E3DA0
:10392600ED50D1BCCCD9A1BDA499113ED1D3253E31
:10393600657EB73DBCD5183E4B039CBDC6431B3CBC
:10394600E5286CBDA87CE1BDE3EE483CAAC806BEEE
:103956009BB9CFBDD58442BCB5AF88BDDFC61EBD01
:10396600BAFA7E3D96C8753DB981613D8A4F713D73
:10397600AED5033E15DB3FBDE7D4263DACEF59BCC3
:10398600C441893CDEBD103DFC485BBC0190A53DB1
:10399600DC9D62BE0E93B5BCB70B7B3DCCA0913CC3
:1039A60067F6363CFA24893C5479F93983888CBD0C
:1039B600DD91B8BD88D853BD3611063E98892EBE16
:1039C6001C9DF63CC5BF09BEB3E7D73CCDB51B3D34
:1039D6009EC6243D6D723B3D8F537F3DEB84F0BC0C
:1039E600E76EF33CC7FF84BC66E837BD002A223D7C
:1039F60038D7513DC2B5D1BBEB9AE2BCB9C3263D1F
:103A0600E324233D64FE14BD27B5963C3629973C36
:103A1600FC29BAB93FED1EBB1B0895BD36AB783DF8
:103A26007878B7BCE5ED8DBCBB51803C10B2F0BCDC
:103A3600B3B10A3DD4105CBC04392EBC87042E3DBC
:103A46001E8192BD024EB73CB8F4ACBB9F76EA3CF1
:103A5600E2CCB8BDA34F9C3C02DA12BD10EC833C0D
:103A66003AF3853CB28F30BC0638233B804F923CFC
:103A76003157EBBB99F6EBBC94A7A73C3AD3FBBBFB
:103A86003847F03BC429273C7422B13C6A29223CC2
:103A9600BA7FDF3CE0D6203DA743C83B47195E3BD3
:103AA60079D42839847B9B3C9C3E423D1DA0893DB0
:103AB60007E803BCAFED293DFC60D8BB977F09BC86
:103AC6001579953C0B0C063DA028AB3D22774EBEE2
:103AD600360F65BD6D2DB63D9736D0BCD6389BBC2E
:103AE600B408D4BCF8A7D6BCBC00423DA7359CBDE3
:103AF6006BCF973D805213BEBE05013D34FB16BD0C
:103B0600D8E3FA3D7FBD15BEC1C86C3DDD46F93C24
:103B160099DFE93CD1D5553D125194BBDF29253DAE
:103B2600C882D13A463C4DBCF0223B3D842C1B3D1D
:103B360068CA803C87D566396BD12D3D08171A3D7A
:103B4600444A163C155348BC6496C9BCC692003C10
:103B56005DC97B3D38CB303C57BBA23CBFBBA2BC4A
:103B66004FE502BC8E7C85BC4A7A2C3DC4578A3C04
:103B7600F7A87EBC37E5C43C1DFE08BE6BB279BB18
:103B8600F7527F3CD98FD63C40C07FBC1BE34EBD6D
:103B96006041A6BCABFA633D55A22FBD31F0A63CF1
:103BA600637CF4BCA0AC6DBC82FE5EBCC697413B98
:103BB600726C40BD05258ABDD848FEBC5E54943B58
:103BC6004F8E98BD46C1993CC648B53CEB6ACEBD02
:103BD60011EC97BCCF5B3BBD705627BD5FB693BB60
:103BE6005D54433D03C420BD29AFDF3D51725BBD2B
:103BF600D0A9343D87FC653C6E5BEB3CAFF23BBD28
:103C06003EDEEBBC3645DFBD89AF41BFD6FDBF3ECC
:103C1600DF1C9C3ECA19973C681621BD570035BD6E
:103C26002C06C93D0A9D083D38DAA13D24F160BE47
:103C3600CAEB203E9F91F43DB4D79EBD932DDF3D48
:103C460036E7B8BDFB79853CF7CF293E33D4293C0E
:103C560075D03B3D4FFCABBD617CA23CA6B0D3BC4E
:103C6600F5008BBD2DDB3B3DED5DA03C96544DBD77
:103C7600A90934BD1117373DE2EC613C261960BC39
:103C86004F76193DEF086D3DCDF868BD8048583C2C
:103C96002B6E363D42B14BBCDABDF03BBC3C2E3BF5
:103CA6007627193D753CBB3C9872E8BBBBF4943C47
:103CB6003C041FBDD681033D30C001BCD28A3F3DC6
:103CC600243F1FBC36F5443DC1F78BBDBB9C6C3C05
:103CD6004A3F4ABD65C6D53CE412153D307F413C9E
:103CE600D5A745BC4934F13CE7D16EBBFC762F3DE8
:103CF600F357AEBD0FAD243DDB19B1BD874DFCBDFD
:103D0600FC762F3D0E48023E9E0D4ABD07620BBE55
:103D1600318315BDD8D732BB81BB073E79AFA0BD75
:103D260031B6583CDE93813CBA6D6CBDF33BCE3D5B
:103D36003B9CA13B31B6583CB6DF2C3C4417FDBD3D
:103D46005ABB68BE45DE903CCD1AF63DBF18193EFB
:103D5600BFD14EBEE758373D26C392BC1EF487BC82
:103D66003DBD593D24CFDA3DE758373D92394B3CAE
:103D7600A62F5F3D020DD1BDFB371E3D572FDEBD81
:103D86009DECB8BDB7F0863D9CCBF13CA00710BDBD
:103D9600D5ED4CBCFC3206BD3B849CBD9CCBF13CB6
:103DA60000BAEF3C0269523BA1388BBEB3DB38BD8B
:103DB6000D7913BDD147C33DFE7F8DBD33F7A93ABB
:103DC600DBEEFDBCBE0098BD18939CBD5542A2BE5D
:103DD600FF6F8BBE439F773D8766903CE83B513D26
:103DE6004345173D859AD4BDCE8AC0BD3062513D4C
:103DF6009C01E0BD26CC77BDEB6B293D83719CBD54
:103E06004D6FE33DD693BABD1ACC5FBC1FC40C3EC2
:103E1600C39094BE292E2ABDDFE3343C6F90A53DA6
:103E26006F67FF3D1212ACBD246A603D676EA63C0B
:103E3600EE50583E37877FBED19D15BC08146DBD28
:103E4600B67A0F3E8C9D74BED723E5BDC1A6CE3D86
:103E56009ABDA9BDC07119BE1663AFBE6382203E6E
:103E66007277CF3DB0CD26BEEE7224BEF49950BE19
:103E760040A6123EC75AB63C902D433E3DA1E0BE39
:103E8600E2F9D3BD26710D3CA1DBAABDAA2DD83B14
:103E960040AA4C3C10A7A7BD754F62BCBF104A3E56
:103EA600C999C7BEDC4580BDF879423E5228C0BEDE
:103EB600C87FA0BD3B37093E3B24003E2D58BF3E80
:103EC6006B63E0BEA484963DFF5FEA3D60B349BCE8
:103ED600FE0009BD754117BEC2DA1E3E67D7223EF7
:103EE600F2D859BD094A67BDB893263E6DA2C5BD35
:103EF600F519583D961D8DBB00E93ABD8DE9CEBD3D
:103F0600DBF3333DA988883CB207A1BDF457F03CEA
:103F16001C6F193D572743BCB6476E3CC5BD2E3DA9
:103F2600572F8BBD6D2C14BD586880BD14CAC0BDFB
:103F360036D881BD06EA41BD2991A2BDA04E3C3DC1
:103F460042AAFABC4FFD2EBE46FF693D5CC3E83D62
:103F5600F9886D3CF84F82BDBD510C3D7653A73CA8
:103F66007F0B0F3D8999D5BCB7BFE4BCD65CC5BDF8
:103F7600FBE273BE4FC0703D392506BF93C6863E31
:103F8600968A1ABE851E5F3CA626C33DF31C6A3E72
:103F9600822D5B3DC8688CBE343AD23BADCB003D2A
:103FA600BDFACBBC11529D3DD85F673D4E13F8BAA2
:103FB600DF1362BED7D684BD7AF3643EB6FEAB3E4F
:103FC600DEB0793D4678723C986814BA77AFA53B67
:103FD6006B01DC3DB77CB1BD5F890ABDD18846BDAA
:103FE600E1090BBD72C44C3D9FFE9ABC756103BED0
:103FF60054ECFEBDB79B88BE958CA8BCF27B443DB5
:10400600660A683BB783CE3C115E85BEC1C960BDFA
:10401600BE1B253E1D9881BD8C8C78BD455296BE33
:104026003BA5363DB6B7753DC62C8FBDFB68C23D78
:1040360021188D3B7BC570BE19CAA03D8ED5DB3DD0
:10404600A9DF3CBD9E3C5EBD34DD6C3EDA65993D24
:1040560032A8F9BD54A4EABC977BDEBD55F06D3D90
:104066000842D73AA09A9A3D4847173D9585A73DFD
:104076005ECEBB3D5988593DBED07B3DC51FE63D52
:10408600A8E5183C4465003CF561C2BBF77D283DB8
:10409600420389BC0C4D8D3D072F7ABD02DAD2BC96
:1040A600E87CA3BC9FD8873D719BCA3DDFD2B93B54
:1040B6002985DB3F220905BFC2595FBE9EAD87BE7B
:1040C6000E3EF9BED9E8AEBE2AD5E9BC5355D03D61
:1040D600585E89BDAB97463E49BE693EAD1DA1BE41
:1040E6007DC21FBECC4A693EBC65183E5A332DBE02
:1040F600F7BAF0BCE8F4513D6351BCBC206C973D67
:1041060053B58F3DEC5B0C3DA4360B3D6351BCBCF7
:10411600F767523DCD3EA83DDE7A4FBD6E30C73CB7
:104126003FD9B33C9F65033CFFDD15BD6351BCBC65
:10413600206C973D53B58F3DEC5B0C3DA4360B3D93
:104146006351BCBCF767523DCD3EA83DDE7A4FBDFC
:104156006E30C73C3FD9B33C9F65033CFFDD15BDC0
:10416600DB2B8DBDE5ED87BDF1D086BD7BDEABBD1E
:104176006622F0BDDB2B8DBD57E9053D2CBD89BD03
:10418600DD69BEBD9A675C3E63666B3DA4DB123D8E
:104196004BC055BDBE9768BEF67A95BC98A8C1BD02
:1041A6005C5C5FBB737D48BEBE9768BEAA955F3CEC
:1041B600C82AD7BE6582DDBEDC4A2138896D7DBD41
:1041C6006D638BBD6FEC68BD06D5623D7555203CB1
:1041D6000FBA183D70FEBF3BA3C63A3D06D5623DF9
:1041E60041E510BD19662B3D6AD2F73D4EC50FBE9F
:1041F60059F238BE5865D8BD3E600CBEC33DA0BD61
:104206002575B3BD220452BDA060EBBDDC11DFBD38
:10421600623F873D7673D6BD381AF9BD3E2E9EBDE8
:10422600227000BE1FEC53BD437DA73C478005BEF0
:10423600E0FB21BD17FC8ABDA7D99BBD6D581A3C72
:10424600181149BA4D8E43BBC3880EBE5183ACBD0F
:10425600DF74A8BDD5BE9D3E95C14D3DB7DCF8BD0A
:104266008E9AE9BCA261ED3B308620BDB97E23BCA7
:10427600499B853DF837D43DCD8F113DE09F01BE6A
:10428600F6C9173EA5F20FBCAB30573CD7EF8E3DB3
:10429600D92EA63BC9EC923C07E1013DA7D5C93B07
:1042A600FBA80C3C4208353C85590C3C4275763DD2
:1042B6005E37FD3BB5D9DE3C03FB213C0124E93CDE
:1042C600C447193CB7B3FE3B0230A9BC5CB4C03C42
:1042D60011AB9F3C3E3C143D854D89BBECEA66BC68
:1042E6003D11323BFE1626BCEE0E93BB7EC1BE3C94
:1042F600329305BCCF0BE8BA75E0D7BAAF28B33C0A
:1043060031550ABDBEA4793DB8B0753D31704CBC7F
:1043160086616C3CA7799F3A0040AEBC510160BDF6
:10432600965240BC9345353D358B2B3CF74408BD32
:104336005CDC2DBB0D94B6BB64D00DBD973372BD4E
:10434600885E8EBD7C6F15BDEABD87BD9120F6BD2A
:1043560082E4A0BCE48897BD4A69E8BDC83E22BD98
:1043660070A368BDAA7DE8BDAA187BBBED7EC93CDB
:1043760053BC50BDBA8458BD64750C3D3CDDA73CAA
:1043860090940F3D6AA4EC3CA16B8FBD624AD4BDEC
:10439600CCE4433E1B01083EA5E404BE59CA5E3D7B
:1043A6001329433C92FD0D3DCE6E023C125E3BBD91
:1043B6009C1E933D086CB0BD8E8C0E3E6CEC31BDE0
:1043C60004173E3D16F331BD0EF79D3DF9630A3ED7
:1043D60032BE2CBD8E64DA3CB9D0873CF302A63CD3
:1043E600E0B9533A69AA1ABDFDD6563D1962333D66
:1043F600CBE1C83C238E483C346FF8BCEE98253D93
:10440600D1A37A3C386C81BD17D4AF3C53011F3D14
:10441600AB56853D905E61BB75B376BD0A886D3C33
:10442600CB21B93CE87A5A3B2A06463DFA74EABCE7
:10443600BDBA823CEE05983C1389C73CE834293D59
:10444600B0979939A4549F3D4FA83EBC0BBE283D5A
:10445600C333FE3B10B7353BEF591B3D98EB4D3C44
:104466000249413D0459F33C8021C23BE2F9483DF3
:104476000FF1BB3B5012163D0DF9713DC587DA3A77
:104486003507803C2BE498BCB214A03A6CCC65BDD1
:104496007BD8A23D67ED43BCCED70E3E1255A5BDD7
:1044A6002F7401BDCD12C33BE9FCBFBD353125BE1E
:1044B60034571F3D40F7A6BDE3A4623D43C52B3DDF
:1044C60003412D3D20E88E3D323AB2BDB5C84B3F83
:1044D600FE7FB2BE245A89BE8E4ACCBCE4823F3DE2
:1044E600938DF93C2D50F3BD63970CBDE103CABD16
:1044F600AA38873E850A5ABE1437D2BD66FC0A3DE5
:104506003DB6EBBDA057C43DB4A883BD317F26BEE2
:10451600F9DDC43B4CAB743C9344053C02BF553DAE
:104526007CD90DBC620A303DE2D4B2BDB70E0B3C5D
:104536000A13C53C48874F3CAA2DABBDABAA973C96
:104546000CE8F03D89821ABC276A8DBD4F5E0A3D94
:10455600245F57BD4B7331BD66162C3C8C98C8BA88
:10456600A0BBB73DB89853BDBC9E51BDA698F33BC2
:1045760020796A3D200E633CC2CE653D0123083991
:1045860040DD3DBDB97976BBDC744D3CA723893D42
:104596005CC8213D8145883C985E483D650720BD45
:1045A6004EFBF83C72EDFD3C82DE2D3DB157CB3B18
:1045B600E97021BD4BB5E53D00578CBD9C90223E70
:1045C600DD14E33DE97021BDA72AD3BBACFFAE3CA9
:1045D600087A3A3E82CF4F3C52C734BDF1DECEBD9B
:1045E600D253283BD29A89BD172968BD5158E9BCD8
:1045F600BDCEC5BD12219DBDD29A89BD6C45843AFA
:104606006ED2E83BF8E29F3E33B918BC2CF7EFBDFB
:10461600E00AD6BD3A09383E720239BCF498E9BAC6
:1046260060FC883C865D0DBC0ECA01BE720239BCB8
:1046360069879FBC38A3913C5932C83D2DF947BDC7
:104646003397D53D32F0703D5A851FBD380602BB03
:10465600EF86153DCBD9843C2387C93DCBD52C3D70
:10466600380602BBC2CAC2BDDDCC6E3DBAABB23E95
:1046760070CE423DF82B093DB7671ABE7BEEEB3D87
:10468600146C91BB8290F83A484C4D3D8AA0943DFB
:104696001D1C8BBE1E42723E06D53DBE6252C1BC7B
:1046A600158380BC1BD1B7BBC84CD23A150F0A3B49
:1046B600326499BBB3F1943B39FD2B3BDC1A51BCF8
:1046C6008D1410BC8ED870BC8B56E43A72265ABA3A
:1046D6001B7C83BB051F1CBBD8356739659D00BB9A
:1046E600A2A21B3C50DC513C68957E3B8DDB113C05
:1046F6004E741BBDB3AEB93CE18AA23B7D203F3D63
:10470600E69E353C1E431E3C6F32883CDE53293DF7
:104716005CFE8EBCAA4F0C3B3B38D6BB9A878EBC40
:104726005192353C56164F3C3D62B73B9C4798BC70
:10473600F9CDA93D36F12F3D06CA92BD3CF194BE96
:10474600C45953BC29A59EBC85E9013D46CC24BC71
:104756005212BD37D863C63C1E1AF0BB5E7AD3BB75
:10476600A93294BE3B4F11BC946EA5BCAA8094BEE0
:10477600DCC9D9BBC3C1B3BCAA46A4BE82442BBE06
:1047860061003C3E90FEE33DD920193C741CECB818
:1047960043529ABC050FF63C598A6E3C23C1233B13
:1047A6001C4A173C5E7823BC4AA22D3C762535BCB4
:1047B6002201C7BBE8A8C93AFB3A6D3B5B5016BC61
:1047C600AAD313BCABE2D13BF2D162BB329B6939AF
:1047D6002156793C94AF183C8DE45ABA177D193BA3
:1047E6009591023B45953E3AEF2A29BB13377A3A13
:1047F600A612323A87E2A1BBBC8B3E3B6BF4DFB913
:104806004EAB49BAF53D60BC6C001A3B0343223BF4
:104816008B9F9ABB6B9CADBBDE58C5BAA2530039C1
:1048260066D45CBA898FC4B879A2AFBB83FA9B3BC6
:1048360064B857BBC93A933C3A374D3CC339CD3C73
:10484600DB6F0ABC351078BC0EC11E3C49982CBCE7
:10485600544506BB5995C9BB71FC26BC0A9EF5BBDF
:104866003A127BBC49A1AA3CBA80313CEF153F3CC9
:10487600FD3849BCC736F33CF06E0E3CDA8F59BCA6
:10488600BD4B6C3B73A0533AC7CB8CBB111DF03BA1
:104896008FD32A3956FE0DBC31D9FC3B7A385CBA27
:1048A600CD00773CE336C13860CF223CDD986D3BC6
:1048B6001B09193B205A883C63B38C3CEA500FBA5B
:1048C600BA3773BBFB1F65BABC2ABBBCD588133C81
:1048D600B7283D3A1299103DC3F2A2BCAE2167BC7F
:1048E6000143BB3BE221A4BC546B02BC1039BD3C66
:1048F60068FD083DF5CA6B3CFBCFA6BC0E43BBBCAE
:104906004A88D0BB431693BBEDCE9E3C224AE83C78
:10491600DABA3ABDC961853CE7A76C3D537FCABB8D
:10492600EFE3B63B83ECE63B76F7A3BA17F231BC6E
:1049360061F163BB0573EBBAEDE510BCA0EF78BB84
:10494600248258BC4AF7F3BBB956BCBBB7F704BCC4
:1049560038D4FA3B3E7B7E3BD15BB8BB3A6C5F3BBF
:10496600DEFD4D37F2C6913B529431BC9D06B0BB7D
:104976003AEF24BB8A43F73CFCC17ABB8738C4BCF8
:10498600A8377E3C62008ABC5C40DABCB2319FBC70
:1049960076C3A33C2924733DED5F023DFE990E3D8F
:1049A60067B004BD897AD1BCA37E24BD3DCBA1BC32
:1049B600C7AEA03C0475CDBC441D55BD6423CFBA1B
:1049C600F4F80C3C675A083C4B427D3B9C23503B19
:1049D6006423CFBA20B5643BE9B39DBB9509E83B98
:1049E6005B301C3CB993F5BBAA520ABB5440153C3C
:1049F6006423CFBAF4F80C3C675A083C4B427D3B23
:104A06009C23503B6423CFBA20B5643BE9B39DBBDE
:104A16009509E83B5B301C3CB993F5BBAA520ABB2F
:104A26005440153C55E80FBB6F441DBB7B3A213BF8
:104A3600FCC9D1BBD86303BC55E80FBBD2054FB93F
:104A4600BE4A953A6F1B063C979C79BC6D1688BB8F
:104A5600B29B323CCC595D3C7B28533C5E9E453C28
:104A660005B4663C40042DBBE35E113C7B28533CF9
:104A7600842010BBDE43653CEA2CE4B9AB0B9A3CC0
:104A86008B143F3CC60AC2BC2DDB23BD7C5BDEBB60
:104A9600151F9ABB970DF5BB055D183CB4AC473C9A
:104AA6007C5BDEBB33FFB83A9CB416BBD31CACBBF5
:104AB600748425BCA6D75B3936F244BC6459A3BCC2
:104AC600DA5645BBC0CB183B6472FC3ADC154B3B4F
:104AD6009A2C043B8305ACBB90DF213AF2DC3B3BCE
:104AE6006B3E5BBBE5983B3C11641E3CD0884FBCDB
:104AF600BAA3493B41DEB8BB1547373A4A5D1DB9F3
:104B0600C19A87BB498C263BA86640BAF3DE18BC1F
:104B16009773033B4A45C6BB14B0C3BBBB593A3C6B
:104B2600300A703C0AD6093C293D773C28D00A3C1D
:104B36000172393D4A64453CA18B963CE280BFBC7C
:104B4600299D18BAECD4473CFF0B743C8F980C3D5A
:104B560087DA063C5141EABB4B850D3C23B3D2B9FB
:104B6600AF0F1CBB72F8E2BACEF206BC383A20BCD4
:104B7600C09BAE39CFA48CBBED9961BAEC4891BB12
:104B86006208CDBBC96487BBC88E53BB6D4B163C50
:104B96001E92EDBB02896CBBCC6DCB3AE399A9B9E9
:104BA6004E96DA3B9266113B73DD42BB705C583B16
:104BB600C7E136BB8DD8183B3762F23967FA263B18
:104BC6005B3FF73A4D7D57BBE246103CEA7783BB25
:104BD6009702823BC348ACBB7C21073CAC1A3838F1
:104BE600A5CD27BCDE10CFB9610C0EBB6E7260BAC4
:104BF600F91B56BB8D2D6EBA4E8A273BFCA1A1BB75
:104C0600703D6CBAB7B9353BFB6091B9B0A05E3B5D
:104C1600CA0504BB0AF29CBACBDE983B69E1E1BA4D
:104C2600A0E405BCCB31083C232F18BABBEE13BB5E
:104C36003F02D2BBB3989D3B4882D6BA17C41B39F4
:104C460016BF59BA43F7C8B8851C98BA72F5D63B51
:104C5600881FEA3BAEB313BC00DC37BBF505543BFB
:104C6600F5F5C83965C6F93CC9EB30BC103CA0BBAC
:104C7600EE1C1CBD5283FCBB1F8AA83CF4FEB3BCD1
:104C8600E8F45AB9FD02B0BBB7B1C3BBD1E5743C79
:104C9600E57426BC0B5CC53B91F7DB3BC53281B99D
:104CA600209F35BBF78721BC132995BB27F81E3BF0
:104CB6005F99DFBAFA72993B8D68C8BB7CF984BBF1
:104CC6009618973AB4B042BBE4EE2FBBAD9DB5BA89
:104CD6007B5701BA304ECABA20E67C3B3347E7B968
:104CE600A5C6313CCA28453B5D7CE5BA56EB57BAAA
:104CF60045F30C3BE55E2D3C6DF4AEBA9AEEDA3820
:104D0600CCF5793A2C25F3BBBD4666BA9A44ED3B01
:104D1600927B853BDF522C3B98A765B97AF64A39D8
:104D2600D1AAAFBBDE8E0F3B7831703BA21D49B9CD
:104D360080E754BB0E18C23BE6C1953BB281B63B39
:104D4600FCCC9AB908AAE7BB79BE103C17EA523ADE
:104D560075C04D3CD3DE173C507C643BE35EDFBC44
:104D66002B7225BBD380893BD8E01CBAC39F2DBBD1
:104D760039FE38BC066D813B97B4C1BB28211FBCE8
:104D8600EED8B4BB9286AD3BADAD4FBC1BB988BB6C
:104D96006851463D044F7EBC2162E0BC184B65BCA1
:104DA6001F4250BB7758913C8E524A3C29EEAD3C8F
:104DB600CE360A3D424CD03C822D1C3D030803BB37
:104DC6002B491D3C4BBD25BB1C178BBC4A0A35BC69
:104DD6005CE58D3C784DA53B98F6EABBDD520DBCF3
:104DE6004A0B03BB834528BBDD634E3CA455D1BBB0
:104DF600FCD7153B25ABD7BB2D1C723B0F75BFBB34
:104E060070C0EABBCCCA9ABC3B2AED3B2F461B3B83
:104E1600B694C9BBF5998DBBCA761D3C27411B3B91
:104E2600980F7ABB2E5D4ABC7A2E423AE91C98B995
:104E36004F391F3A164D21BCD4BB9FBB1ADA29BB8A
:104E460079BE48BCA64DCBBBF53873BBF27B243A82
:104E5600CAB0433B92140ABB49B9A7BAC053A9BB0F
:104E6600A0D8C2BBC6EFB73AFC6AEEBA8E87B5BB0E
:104E7600233A17BB6B57B93BF178213C46583A3C6D
:104E86002DC18A3BA622593B6B57B93BA627943CBA
:104E96006927023BED9A98BB1DFF5A3C42612ABB2B
:104EA600A9F308BD76B1C43C38DD0CBC6A5AD83BC0
:104EB6004002683AFD44233C578A9CBA38DD0CBC54
:104EC6005EC29FBA7331A23B43CE18BB8E628EBCC4
:104ED6008B9AD43CAAF67DBCF319113C9747403B0C
:104EE600A5CB8D3C6D63473C50169D3C318D8E3B6A
:104EF6009747403B4184E5BB4B4715BC5528A43B2F
:104F0600BA985B3CECEB1FBC342175BC286296BAA0
:104F1600B19D5FBB6676BDBB2B49D1BBF044FA3B66
:104F2600E969CF3BB19D5FBB98FF2A3B92DF033A0D
:104F3600B8ED2E3CC143BE3CCCDE90BCC70EA0BB38
:104F4600EFFF00BD9EBC98BB42F9B33BAF64753B17
:104F5600B44ABEBB130D7E3EBB2208BD0B44B4BC97
:104F66006D2D696E69742D646F6E650D0A006D2D69
:104F760072656164790D0A006D2D7761726D7570C9
:104F86002D73746172742D25640D0A006D2D776181
:104F9600726D75702D646F6E650D0A006D2D696EEC
:104FA6006665722D73746172742D25640D0A006D29
:104FB6002D6C61702D75732D256C750D0A006D2D88
:104FC600696E6665722D646F6E650D0A0064620017
:104FD6002000652D5B436F6D6D616E6420276462F2
:104FE6002720726571756972657320612073756219
:104FF600636F6D6D616E645D0D0A006C6F616400B8
:10500600652D5B436F6D6D616E6420276462206C55
:105016006F616427207265717569726573207468A3
:10502600652023206F662062797465735D0D0A0022
:10503600652D5B436F6D6D616E6420276462206C25
:105046006F616427206D757374206265203E302081
:1050560062797465735D0D0A00537570706C6965CD
:1050660064206275666665722073697A65202564B8
:105076002065786365656473206D6178696D756D0B
:10508600206F662025640A006D2D5B457870656388
:1050960074696E672025642062797465735D0D0AF4
:1050A600007072696E74006D2D6275666665722D8C
:1050B600002530327800652D5B496E73756666692A
:1050C60063656E74206E756D626572206F6620680A
:1050D6006578206469676974735D0D0A00652D5BE8
:1050E600496E76616C6964206865782064696769D1
:1050F6007420272573275D0D0A006D2D6C6F616482
:105106002D646F6E650D0A0070726F66696C6500BE
:105116004D4C4D61726B496E6F2056302E302E31DC
:10512600006D2D70726F66696C652D5B25735D0D64
:105136000A00736B6C6561726E706F7274657200D3
:105146006D2D6D6F64656C2D5B25735D0D0A0066B4
:1051560073697A65006D2D6673697A652D5B2564C2
:105166005D0D0A0068656C700025730D0A006865A0
:105176006C702020202020202020203A20507269A8
:105186006E74207468697320696E666F726D6174DF
:10519600696F6E0D0A006E616D652020202020204B
:1051A6002020203A205072696E7420746865206E43
:1051B600616D65206F662074686520646576696335
:1051C600650D0A0074696D65737473616D702020D6
:1051D600203A2047656E65726174652061207469A6
:1051E6006D657473616D700D0A00646220535542DB
:1051F600434D44202020203A204D616E6970756C25
:1052060061746520612067656E65726963206279E5
:105216007465206275666665720D0A0020206C6FE3
:105226006164204E20202020203A20416C6C6F6360
:10523600617465204E20627974657320616E642006
:10524600736574206C6F616420636F756E7465722C
:105256000D0A00202064622048485B48485D2A20E9
:105266003A204C6F616420382D6269742068657835
:10527600206279746528732920756E74696C204ED6
:105286002062797465730D0A0020207072696E744D
:10529600205B4E3D31365D205B6F66667365743DFF
:1052A600305D0D0A002020202020202020202020F4
:1052B60020203A205072696E74204E2062797465FF
:1052C60073206174206F666673657420617320684D
:1052D60065780D0A00696E666572204E205B573D43
:1052E600305D3A204C6F616420696E7075742C20B5
:1052F60065786563757465204E20696E66657265AE
:105306006E636573206166746572205720776172DB
:105316006D7570206C6F6F70730D0A007265737512
:105326006C74732020202020203A205265747572F8
:105336006E2074686520726573756C7420667033B0
:105346003220766563746F720D0A006673697A653A
:1053560020202020202020203A2052657475726E6D
:1053660020696E7075742066656174757265207348
:10537600697A6520696E2062797465730D0A006921
:105386006E66657200652D5B496E666572656E6355
:105396006520697465726174696F6E73206D7573CB
:1053A60074206265203E305D0D0A00652D5B496EF6
:1053B600666572656E6365207761726D7570206DC6
:1053C600757374206265203E3D305D0D0A0072657E
:1053D60073756C7473006E616D6500647574006D31
:1053E6002D6E616D652D25732D5B25735D0D0A0090
:1053F60074696D657374616D7000652D5B556E6BB8
:105406006E6F776E20636F6D6D616E643A202573E3
:105416005D0D0A006D2D74696D657374616D702D77
:105426006D6F64652D706572666F726D616E636512
:105436000D0A00496E7075742064622068617320DD
:10544600256420656C656D656E7465642C206578D1
:105456007065637465642025640A006D2D7265733A
:10546600756C74732D5B0025640000000000F70660
:0C5476004D087106D70643065D064F0680
:00000001FF
