:100000000C9487000C94B8000C94B8000C94B800C1
:100010000C94B8000C94B8000C94B8000C94B80080
:100020000C94B8000C94B8000C94B8000C94B80070
:100030000C94B8000C94B8000C94B8000C94B80060
:100040000C94B8000C94B8000C94B8000C94B80050
:100050000C94B8000C94B8000C94B8000C9469058A
:100060000C94B8000C949D070C94D3070C94B80022
:100070000C94B8000C94B8000C94B8000C94B80020
:100080000C94B8000C94B8000C94B8000C94B80010
:100090000C94B8000C94B8000C94B8000C94B80000
:1000A0000C94B8000C94B8000C94B8000C94B800F0
:1000B0000C94B8000C94B8000C94B8000C94B800E0
:1000C0000C94B8000C94B8000C94B8000C94B800D0
:1000D0000C94B8000C94B8000C94B8000C94B800C0
:1000E0000C94B8000C94FD070C94CE060C944606B4
:1000F0000C94EE060C9468060C9477060C943A0661
:100100000C9454060C9407080C9444080708112416
:100110001FBECFEFD1E2DEBFCDBF00E00CBF17E0C6
:10012000A0E0B2E0E0E1FBE100E00BBF02C007901D
:100130000D92A631B107D9F728E0A6E1B7E001C0DA
:100140001D92AC39B207E1F710E0C7E8D0E000E05B
:1001500006C021970109802FFE010E947E0DC6383E
:10016000D10780E00807A9F70E9435080C94A6087B
:100170000C94000040919E0750919F076091A0074A
:100180007091A107443323E05207610571050CF417
:1001900042C080919A0790919B07A0919C07B091D3
:1001A0009D07813023E19207A105B10544F44B3945
:1001B000564061057105CCF481E090E0089541302E
:1001C00027E05207610571059CF48E3C23E19207FC
:1001D000A105B1058CF344335640610571052CF03F
:1001E0008E3C9541A105B1053CF382E090E0089575
:1001F00087369341A105B105C4F780919607909188
:100200009707A0919807B091990787369C40A10560
:10021000B10594F6EACF90E080E00895E0912D07D3
:10022000F0912E07E15DF84F853251F410828FE294
:1002300097E00E94FF0410922E0710922D07089558
:10024000808380912D0790912E078035910550F481
:1002500080912D0790912E07019690932E07809301
:100260002D07089580E590E0F8CF0E94F5040E94E4
:100270004A0580E092E09F938F930E94C50481E03D
:10028000809318078EE092E09F938F930E94C5049D
:100290000F900F900F900F9008958F929F92AF92B2
:1002A000BF92CF92DF92EF92FF920F931F93CF9363
:1002B000DF93EC018B010E9403050E944B0580E84F
:1002C000E82E87E0F82E92E9C92E97E0D92EF701A3
:1002D00061917191819191917F0120E030E040E83E
:1002E00054E40E94540A4B015C0120E030E0A90173
:1002F0000E944F0A20E030E040E05FE387FD27C026
:10030000C501B4010E9438090E94A409F601619355
:100310007193819391936F01F0E9EF16F7E0FF0677
:10032000B1F61F930F9388E192E09F938F930E9401
:10033000C5040F900F900F900F900150110960F0BD
:100340000E94BA009093910780939007F6CFC50161
:10035000B4010E943709D8CF8CE292E09F938F932B
:100360000E94C504DF93CF938CE392E09F938F9319
:100370000E94C5040E94B305D62EC72EB82EA92E02
:100380000F900F900F900F900F900F90219738F0D3
:100390000E94BA009093910780939007F7CF0E9434
:1003A000B305162F072FF82EE92EAF92BF92CF92EA
:1003B000DF92CFE4D2E0DF93CF930E94C504EF92A7
:1003C000FF920F931F93DF93CF930E94C5048EE596
:1003D00092E09F938F930E94C5048DB79EB70E96AF
:1003E0000FB6F8949EBF0FBE8DBFDF91CF911F91C6
:1003F0000F91FF90EF90DF90CF90BF90AF909F90C4
:100400008F900C9429050F931F93FC0160E070E01E
:10041000CB014191442391F197FD30C050ED540F31
:100420005A30A8F4042E000C550B405351098A0190
:10043000550F220B330B44E0660F771F881F991F5F
:100440004A95D1F7600F711F821F931FE2CF5FE9BA
:10045000540F563030F4042E000C550B47555109FB
:10046000E6CF5FEB540F563030F4042E000C550BE2
:1004700047535109DCCF6FEF7FEFCB011F910F91F5
:1004800008956F927F928F929F92AF92BF92CF9278
:10049000DF92EF92FF920F931F93CF93DF9300D0E1
:1004A000CDB7DEB740E550E06DE672E00E94B608D9
:1004B000892B09F0F7C060E772E090E080E00E94CD
:1004C000A9088C0182E792E001151105A1F040E531
:1004D00050E06BE972E0C8010E94B608892B09F070
:1004E00044C060E772E090E080E00E94A9080097B5
:1004F00049F480EA92E09F938F930E94C5040F9085
:100500000F9023C00E94880890931C0780931B07BC
:10051000009719F480ED92E0EECF10921A07109236
:10052000190781319105A0F01F9220E12F939F932D
:100530008F9389EF92E09F938F930E94C5040F9051
:100540000F900F900F900F900F9090E080E0ACC054
:100550009F938F9388E293E09F938F930E94C504AB
:100560000F900F900F900F90F0CF40E550E061E4B6
:1005700073E0C8010E94B608892B09F053C08DE1D1
:10058000E82E87E0F82E10E000E097E4C92E93E013
:10059000D92E21E5A22E23E0B22E37E9832E33E0B7
:1005A000932E4FE4642E43E0742EC8018770992780
:1005B00020911B0730911C070217130768F5892B40
:1005C00031F4DF92CF920E94C5040F900F90F70193
:1005D00081917F011F928F93BF92AF920E94C504B9
:1005E0000F5F1F4FC801877099270F900F900F90D2
:1005F0000F90892B39F080911B0790911C070817E9
:10060000190739F49F928F920E94C5040F900F90A2
:10061000CCCF7F926F92F8CF892B09F496CF87E9E0
:1006200093E069CF60E570E0C8010E9401056C01AC
:1006300086E593E0C0FC5FCF1B8280901B07909003
:100640001C077801CE0101965C01C701801B910B4C
:100650008C159D0508F079CFF70180818983818110
:100660008A83C5010E94030297FF05C0BF92AF9223
:100670008DE793E071CF2091190730911A07F901A6
:10068000E35EF84F6083C901019690931A07809347
:100690001907F2E0EF0EF11C88159905B1F68AE909
:1006A00093E029CF81E090E00F900F900F90DF91C1
:1006B000CF911F910F91FF90EF90DF90CF90BF905F
:1006C000AF909F908F907F906F900895CF93DF931E
:1006D000EC0140E550E068EA73E00E94B608892B1F
:1006E00009F580EB93E09F938F9383EC93E09F93C6
:1006F0008F930E94C50484ED93E09F938F938AEDBE
:1007000093E09F938F930E94C5048DB79EB7089680
:100710000FB6F8949EBF0FBE8DBF90E080E0DF91D2
:10072000CF91089540E550E069EE73E0CE010E945C
:10073000B608892B71F41F9284E08F938FEE93E0BB
:100740009F938F930E94C5040F900F900F900F906E
:10075000E4CF40E550E06EEF73E0CE010E94B608B2
:10076000892B09F05BC080EB93E09F938F9383E02C
:1007700094E09F938F930E94C50487E993E09F9331
:100780008F930E94C50488E094E09F938F930E940A
:10079000C50480E394E09F938F930E94C5048EE587
:1007A00094E09F938F930E94C50484E894E09F9304
:1007B0008F930E94C50486EB94E09F938F930E94D1
:1007C000C5048DEE94E09F938F930E94C50483E24D
:1007D00095E09F938F930E94C5048FE395E09F93CC
:1007E0008F930E94C5048FE695E09F938F930E949C
:1007F000C50486EB95E09F938F930E94C50485EE18
:1008000095E09F938F930E94C5048DB79EB74C9639
:100810000FB6F8949EBF0FBE8DBF7FCFCE010E9452
:100820004102892B09F479CF40E550E069E176E097
:10083000CE010E94B608892BA1F560E772E090E036
:1008400080E00E94A908009701F10E94880818160C
:1008500019064CF08FE196E09F938F930E94C50498
:100860000F900F905ACFD82FC92F60E772E090E019
:1008700080E00E94A908009789F00E948808BC01C6
:1008800097FF07C085E496E0E7CF6AE070E0D1E02B
:10089000C0E08D2F9C2F0E944D013FCF6AE070E099
:1008A000F8CF40E550E068E676E0CE010E94B60859
:1008B000892B19F40E94290530CF81E090E02FCFD9
:1008C000CF93DF9320911807222349F160E772E06C
:1008D0000E94A908EC0140E550E060E776E00E9444
:1008E000B608892BF9F484ED93E09F938F9385E705
:1008F00096E09F938F9389E796E09F938F930E9452
:10090000C5040F900F900F900F900F900F908EE0F6
:1009100092E09F938F930E94C5040F900F90DF91F8
:10092000CF91089540E550E06AE876E0CE010E945C
:10093000B608892B19F40E94E204E9CFCE010E9487
:100940006603892B21F3DF93CF9384E996E09F938D
:100950008F930E94C5040F900F900F900F90D7CFE8
:10096000CF93DF93C0911907D0911A076C177D07B9
:1009700008F4EB01009729F0AE016DE177E00E94E9
:10098000AD08CE01DF91CF910895CF93DF93CDB71E
:10099000DEB79E012A5F3F4FF901419151919F01BE
:1009A00060E570E086EA97E00E94FE0818161906D6
:1009B00034F466EA77E08FEF97E00E948008DF91D9
:1009C000CF9108950E94B3059F938F937F936F9368
:1009D0008FE492E09F938F930E94C5040F900F9035
:1009E0000F900F900F900F9008958EEA96E09F93CE
:1009F0008F930E94C5040F900F900C94E2040C9406
:100A000060040C94C408CF93DF9360E170E080E849
:100A100097E00E94B004EC0140970497B0F01F9259
:100A200084E08F93CE0196958795969587959F93B1
:100A30008F938DEC96E09F938F930E94C5040F9047
:100A40000F900F900F900F900F90CE01DF91CF91EC
:100A5000089585EF96E09F938F930E94C50480913F
:100A600091078F93809190078F9381E097E09F93F8
:100A70008F930E94C50486E993E09F938F930E9411
:100A8000C5048DB79EB708960FB6F8949EBF0FBEEB
:100A90008DBF0895089508958FEF97E00E94540642
:100AA000089526E040E052EC61E070E08FEF97E0BF
:100AB0000E943B070C9435018FEF97E00E943A06A5
:100AC000181619062CF40E944C050E940E01F4CF52
:100AD00008951F920F920FB60F9211242F933F93F8
:100AE0008F939F93AF93BF938091F7079091F807EF
:100AF000A091F907B091FA073091F60723E0230F90
:100B00002D3758F50196A11DB11D2093F60780934E
:100B1000F7079093F807A093F907B093FA0780912D
:100B2000FB079091FC07A091FD07B091FE0701968D
:100B3000A11DB11D8093FB079093FC07A093FD07B7
:100B4000B093FE07BF91AF919F918F913F912F91ED
:100B50000F900FBE0F901F90189526E8230F029656
:100B6000A11DB11DD2CF3FB7F8948091FB079091A2
:100B7000FC07A091FD07B091FE0726B5A89B05C014
:100B80002F3F19F00196A11DB11D3FBFBA2FA92F0C
:100B9000982F8827BC01CD01620F711D811D911D09
:100BA00042E0660F771F881F991F4A95D1F7089575
:100BB000789484B5826084BD84B5816084BD85B538
:100BC000826085BD85B5816085BDEEE6F0E08081FF
:100BD00081608083E1E8F0E0108280818260808320
:100BE000808181608083E0E8F0E0808181608083A3
:100BF000E1EBF0E0808184608083E0EBF0E08081D5
:100C000081608083E1E9F0E080818260808380817F
:100C100081608083E0E9F0E0808181608083E1EAA7
:100C2000F0E0808182608083808181608083E0EA5F
:100C3000F0E0808181608083E1E2F1E08081826088
:100C40008083808181608083E0E2F1E08081816047
:100C50008083EAE7F0E08081846080838081826025
:100C6000808380818160808380818068808310920E
:100C7000C1000895FC01918D228D892F90E0805C48
:100C80009F4F821B91098F7399270895FC01918DC5
:100C9000828D981731F0828DE80FF11D858D90E0DF
:100CA00008958FEF9FEF0895FC01918D828D981725
:100CB00061F0A28DAE0FBF2FB11D5D968C91928D0C
:100CC0009F5F9F73928F90E008958FEF9FEF08953D
:100CD000FC01538D448D252F30E0842F90E0821B42
:100CE000930B541710F0CF960895019708958DEF48
:100CF00097E0892B49F080E090E0892B29F00E9451
:100D0000FD0781110E94000080E090E0892B49F0EE
:100D100080E090E0892B29F00E94000081110E9460
:100D2000000080E090E0892B49F080E090E0892B82
:100D300029F00E94000081110E94000080E090E0F4
:100D4000892B49F080E090E0892B29F00E94000077
:100D500081110C9400000895FC01A48DA80FB92FF7
:100D6000B11DA35ABF4F2C91848D90E001968F73D3
:100D70009927848FA689B7892C93A089B1898C91F2
:100D8000837080648C93938D848D981306C0028841
:100D9000F389E02D80818F7D80830895CF93DF9349
:100DA000EC01888D8823B9F0AA89BB89E889F98983
:100DB0008C9185FD03C0808186FD0DC00FB607FCB8
:100DC000F7CF8C9185FFF2CF808185FFEDCFCE01EB
:100DD0000E94AC06E9CFDF91CF910895EF92FF9288
:100DE0000F931F93CF93DF93EC0181E0888F9B8D4E
:100DF0008C8D98131AC0E889F989808185FF15C008
:100E00009FB7F894EE89FF896083E889F98980812A
:100E10008370806480839FBF81E090E0DF91CF91F9
:100E20001F910F91FF90EF900895F62E0B8D10E01B
:100E30000F5F1F4F0F731127E02E8C8D8E110CC08A
:100E40000FB607FCFACFE889F989808185FFF5CFD5
:100E5000CE010E94AC06F1CFEB8DEC0FFD2FF11D02
:100E6000E35AFF4FF0829FB7F8940B8FEA89FB8912
:100E700080818062CFCFCF92DF92EF92FF921F935B
:100E8000CF93DF93EC016A017B01122FE889F98986
:100E900082E08083C11481EED806E104F104A1F060
:100EA00060E079E08DE390E0A70196010E945C0D7F
:100EB0002150310941095109569547953795279594
:100EC000211580E1380798F0E889F989108260E8F7
:100ED00074E88EE190E0A70196010E945C0D21501C
:100EE0003109410951095695479537952795EC8564
:100EF000FD853083EE85FF852083188EEC89FD8982
:100F00001083EA89FB89808180618083EA89FB897B
:100F1000808188608083EA89FB8980818068808302
:100F2000EA89FB8980818F7D8083DF91CF911F913A
:100F3000FF90EF90DF90CF9008951F920F920FB621
:100F40000F9211240BB60F922F938F939F93EF93D1
:100F5000FF93E0910F08F09110088081E09115084F
:100F6000F091160882FD1DC09081809118088F5F56
:100F70008F7320911908821741F0E0911808F0E072
:100F8000E150F84F958F80931808FF91EF919F9152
:100F90008F912F910F900BBE0F900FBE0F901F904F
:100FA00018958081F2CF1F920F920FB60F921124E5
:100FB0000BB60F922F933F934F935F936F937F9353
:100FC0008F939F93AF93BF93EF93FF938FEF97E030
:100FD0000E94AC06FF91EF91BF91AF919F918F91CD
:100FE0007F916F915F914F913F912F910F900BBE29
:100FF0000F900FBE0F901F9018958FEF97E00E94F3
:101000003A0621E0892B09F420E0822F0895EFEFC2
:10101000F7E01382128288EE93E0A0E0B0E08483D0
:101020009583A683B78388E097E09183808385ECDE
:1010300090E09587848784EC90E09787868780ECA2
:1010400090E0918B808B81EC90E0938B828B82EC93
:1010500090E0958B848B86EC90E0978B868B118E3D
:10106000128E138E148E089508950E94D8050E9442
:1010700034080E945105C7E7D6E00E945C0520971E
:10108000E1F30E947706F9CFAF92BF92CF92DF9241
:10109000EF92FF920F931F93CF93DF936C017B012D
:1010A0008B01040F151FEB015E01AE18BF08C017BE
:1010B000D10759F06991D601ED91FC910190F08131
:1010C000E02DC6011995892B79F7C501DF91CF91E4
:1010D0001F910F91FF90EF90DF90CF90BF90AF9056
:1010E0000895FB0101900020E9F73197AF01461BFD
:1010F000570BDC01ED91FC910280F381E02D1994F6
:101100006115710511F00C94710890E080E008956C
:10111000FC0188279927E89421912032E9F32930AE
:1011200010F02E30C8F32B3241F02D3239F4689490
:1011300004C00E94F608820F911D219120532A308D
:10114000C0F31EF4909581959F4F0895F8940C94E8
:10115000860D46E157E00C94CF08FB01DC0102C08C
:1011600001900D9241505040D8F70895FB01DC01E9
:101170004150504030F08D910190801919F40020B9
:10118000B9F7881B990B0895FC01615070400190DC
:101190000110D8F7809590958E0F9F1F0895FA0142
:1011A000A191B081009719F41097E1F0CD01DC0115
:1011B000CD010D90002011F4C00113C0FB0121915D
:1011C000222319F02015D9F7F3CFFB012191201527
:1011D00019F41E92119606C02223C1F70D9000202B
:1011E000A1F7D001FA01A193B08308957AE0979F07
:1011F000902D879F802D910D112408950F931F939B
:10120000CF93DF93CDB7DEB72E970FB6F894DEBF3E
:101210000FBECDBF8C01FA0186E08C831A8309834F
:1012200077FF02C060E070E8615071097E836D83D2
:10123000A901BF01CE0101960E94C10A4D815E81C4
:1012400057FD0AC02F813885421753070CF49A01C5
:10125000020F131FF80110822E960FB6F894DEBF0E
:101260000FBECDBFDF91CF911F910F9108955058C0
:10127000BB27AA270E944F090C94150A0E94070A4F
:1012800038F00E940E0A20F039F49F3F19F426F43A
:101290000C94040A0EF4E095E7FB0C94FE09E92F88
:1012A0000E94260A58F3BA17620773078407950746
:1012B00020F079F4A6F50C94480A0EF4E0950B2E74
:1012C000BA2FA02D0B01B90190010C01CA01A00198
:1012D0001124FF27591B99F0593F50F4503E68F1F3
:1012E0001A16F040A22F232F342F4427585FF3CF34
:1012F000469537952795A795F0405395C9F77EF405
:101300001F16BA0B620B730B840BBAF09150A1F04D
:10131000FF0FBB1F661F771F881FC2F70EC0BA0FD3
:10132000621F731F841F48F4879577956795B7955B
:10133000F7959E3F08F0B0CF9395880F08F0992756
:10134000EE0F9795879508950E94AB096894B111A7
:101350000C94490A08950E942E0A88F09F5798F02D
:10136000B92F9927B751B0F0E1F0660F771F881FAA
:10137000991F1AF0BA95C9F714C0B13091F00E94C4
:10138000480AB1E008950C94480A672F782F8827FF
:10139000B85F39F0B93FCCF3869577956795B395EB
:1013A000D9F73EF490958095709561957F4F8F4F5A
:1013B0009F4F0895990F0008550FAA0BE0E8FEEF24
:1013C00016161706E807F907C0F012161306E40709
:1013D000F50798F0621B730B840B950B39F40A2602
:1013E00061F0232B242B252B21F408950A2609F4E0
:1013F000A140A6958FEF811D811D089597F99F67E4
:1014000080E870E060E008959FEF80EC089500248C
:101410000A941616170618060906089500240A9459
:1014200012161306140605060895092E0394000CDF
:1014300011F4882352F0BB0F40F4BF2B11F460FF6E
:1014400004C06F5F7F4F8F4F9F4F089557FD905897
:10145000440F551F59F05F3F71F04795880F97FB78
:10146000991F61F09F3F79F0879508951216130632
:101470001406551FF2CF4695F1DF08C01616170661
:101480001806991FF1CF8695710561050894089596
:10149000E894BB2766277727CB0197F908950E9428
:1014A000DA0908F48FEF08950E94670A0C94150A70
:1014B0000E94070A38F00E940E0A20F0952311F0CE
:1014C0000C94FE090C94040A11240C94490A0E94FD
:1014D000260A70F3959FC1F3950F50E0551F629F48
:1014E000F001729FBB27F00DB11D639FAA27F00D7D
:1014F000B11DAA1F649F6627B00DA11D661F829FA4
:101500002227B00DA11D621F739FB00DA11D621F88
:10151000839FA00D611D221F749F3327A00D611DA5
:10152000231F849F600D211D822F762F6A2F112487
:101530009F5750409AF0F1F088234AF0EE0FFF1FBA
:10154000BB1F661F771F881F91505040A9F79E3F11
:10155000510580F00C94FE090C94490A5F3FE4F3B6
:10156000983ED4F3869577956795B795F795E79567
:101570009F5FC1F7FE2B880F911D9695879597F970
:1015800008952F923F924F925F926F927F928F9227
:101590009F92AF92BF92CF92DF92EF92FF920F9302
:1015A0001F93CF93DF9300D000D000D01F921F92E3
:1015B000CDB7DEB77C013B018A01FC0117821682A0
:1015C000838181FFDDC1CE0101965C01F70193812A
:1015D000F30193FD859193FF81913F01882309F4E5
:1015E00053C1853239F493FD859193FF81913F0179
:1015F000853229F4B70190E00E94CE0CE7CF912C00
:10160000212C312CFFE1F31538F08B3211F190F4DD
:10161000803209F1833229F137FC3CC020ED280FDC
:101620002A3050F536FE20C08AE0989E200D112405
:10163000922E06C08D3291F0803371F7689430F8A5
:10164000F30193FD859193FF81913F018111DACFE1
:1016500021C0689431F8689432F8F2CF689433F876
:10166000EFCF689434F8ECCFEAE02E9E200D1124E1
:10167000222E689435F8E4CF8E3229F436FC04C16A
:10168000689436F8DDCF8C3619F4689437F8D8CFE3
:101690008836B1F2982F9F7D95549330E0F08336D1
:1016A000A1F18337C1F1833509F063C02801F2E06D
:1016B0004F0E511CF801C080D180692D70E036FCBE
:1016C00002C06FEF7FEFC6010E94C30C4C0168940B
:1016D00037F882010AC00C5F1F4FFFE3F9838824AB
:1016E0008394912C6501E89437F833FE2DC0522C79
:1016F0008114910471F5552009F468CFB70180E297
:1017000090E00E94CE0C5A94F6CFF8018081898334
:101710000E5F1F4FE4CF2801F2E04F0E511CF8017D
:10172000C080D180692D70E036FC02C06FEF7FEF82
:10173000C6010E94C4084C018201D5CFB70180E2E6
:1017400090E00E94CE0C2A942814190409F0B0F7F6
:10175000CECFF60137FC859137FE81916F01B7013D
:1017600090E00E94CE0C51105A94F1E08F1A91082B
:10177000BFCF843619F0893609F077C0F80137FEFB
:101780006BC060817181828193810C5F1F4FF32D4B
:10179000FF763F2E97FF09C09095809570956195D3
:1017A0007F4F8F4F9F4F689437F82AE030E0A501B4
:1017B0000E94FE0CC82ECA188C2C432C36FE0CC07E
:1017C000E89440F8C91440F434FE05C032FC03C06C
:1017D000F32DFE7E4F2E892C44FEAAC0FE01EC0D97
:1017E000F11D8081803309F09CC0242D297E422E7A
:1017F000842D8870582E43FCAAC040FEA4C09C2CA7
:10180000821418F42C0C922C981844FEA6C0B70130
:1018100080E390E00E94CE0C42FE09C088E790E091
:1018200041FE02C088E590E0B7010E94CE0CC914C9
:1018300008F49FC0CA94D12C9FEFC91AD90ACA0CC8
:10184000DB1CF60182916F01B70190E00E94CE0C83
:10185000AC14BD04B1F74FCF60817181072E000C2D
:10186000880B990B0E5F1F4F92CFD32CE894D4F8BE
:101870002AE030E08537E1F1232D297FD22E8F3603
:10188000A9F1F0F4883551F1F701868197812B9603
:101890000FB6F894DEBF0FBECDBFDF91CF911F9181
:1018A0000F91FF90EF90DF90CF90BF90AF909F90FF
:1018B0008F907F906F905F904F903F902F90089502
:1018C000803749F0883701F7D4FE02C06894D2F817
:1018D00020E130E00DC06894D4F8F6CF34FE03C0A8
:1018E000822F8660D82E20E132E002C028E030E06E
:1018F000F801D7FE0FC060817181828193810C5FF6
:101900001F4FA5010E94FE0CC82ECA183D2CE8945A
:1019100037F852CF6081718190E080E00E5F1F4FF9
:10192000F0CF42FC02C0839463CF8394839460CF52
:10193000842D867809F45CCFF6CFB70180E290E081
:101940000E94CE0C83948214C0F3512C5ECF522C93
:101950005818821408F459CFF8CF842D867809F4EA
:1019600066CF8BE241FE80E247FC8DE2B70190E05A
:101970005CCFB70180E390E00E94CE0C9A9457CFE1
:101980008FEF9FEF84CFFC010590615070400110F4
:10199000D8F7809590958E0F9F1F08950F931F93F2
:1019A000CF93DF93182F092FEB018B8181FD09C0A5
:1019B0001FEF0FEF812F902FDF91CF911F910F918C
:1019C000089582FF14C02E813F818C819D8128174C
:1019D00039073CF4E881F981CF0101969983888326
:1019E00010838E819F8101969F838E83E3CFE8854C
:1019F000F985812F1995892BA1F3DACFFA01AA274E
:101A0000283051F1203181F1E8946F936E7F6E5F41
:101A10007F4F8F4F9F4FAF4FB1E03ED0B4E03CD0EF
:101A2000670F781F891F9A1FA11D680F791F8A1FD2
:101A3000911DA11D6A0F711D811D911DA11D20D039
:101A400009F468943F912AE0269F11243019305DF3
:101A50003193DEF6CF010895462F4770405D4193E4
:101A6000B3E00FD0C9F7F6CF462F4F70405D4A3331
:101A700018F0495D31FD4052419302D0A9F7EACFF9
:101A8000B4E0A6959795879577956795BA95C9F728
:101A900000976105710508959B01AC010A2E06941B
:101AA0005795479537952795BA95C9F7620F731FD4
:101AB000841F951FA01D0895A1E21A2EAA1BBB1B0F
:101AC000FD010DC0AA1FBB1FEE1FFF1FA217B3070A
:101AD000E407F50720F0A21BB30BE40BF50B661F20
:101AE000771F881F991F1A9469F7609570958095E4
:101AF00090959B01AC01BD01CF010895EE0FFF1F32
:101B0000881F8BBF0790F691E02D1994F894FFCFB2
:101B10006D2D696E69742D646F6E650D0A006D2DF3
:101B200072656164790D0A006D2D7761726D757053
:101B30002D73746172742D25640D0A006D2D77610B
:101B4000726D75702D646F6E650D0A006D2D696E76
:101B50006665722D73746172742D25640D0A006DB3
:101B60002D6C61702D75732D256C750D0A006D2D12
:101B7000696E6665722D646F6E650D0A00646200A1
:101B80002000652D5B436F6D6D616E64202764627C
:101B900027207265717569726573206120737562A3
:101BA000636F6D6D616E645D0D0A006C6F61640042
:101BB000652D5B436F6D6D616E6420276462206CE0
:101BC0006F6164272072657175697265732074682E
:101BD000652023206F662062797465735D0D0A00AD
:101BE000652D5B436F6D6D616E6420276462206CB0
:101BF0006F616427206D757374206265203E30200C
:101C000062797465735D0D0A00537570706C696557
:101C100064206275666665722073697A6520256442
:101C20002065786365656473206D6178696D756D95
:101C3000206F662025640A006D2D5B457870656312
:101C400074696E672025642062797465735D0D0A7E
:101C5000007072696E74006D2D6275666665722D16
:101C6000002530327800652D5B496E7375666669B4
:101C700063656E74206E756D626572206F66206894
:101C80006578206469676974735D0D0A00652D5B72
:101C9000496E76616C69642068657820646967695B
:101CA0007420272573275D0D0A006D2D6C6F61640C
:101CB0002D646F6E650D0A0070726F66696C650049
:101CC0004D4C696E6F2042656E63682056312E3030
:101CD0002E31006D2D70726F66696C652D5B2573FA
:101CE0005D0D0A00656D626D6C006D2D6D6F646534
:101CF0006C2D5B25735D0D0A006673697A65006D56
:101D00002D6673697A652D5B25645D0D0A00686533
:101D10006C700025730D0A0068656C70202020200F
:101D200020202020203A205072696E742074686947
:101D30007320696E666F726D6174696F6E0D0A0053
:101D40006E616D652020202020202020203A205028
:101D500072696E7420746865206E616D65206F66AF
:101D600020746865206465766963650D0A0074698E
:101D70006D65737473616D702020203A2047656E25
:101D8000657261746520612074696D657473616D3D
:101D9000700D0A00646220535542434D44202020B8
:101DA000203A204D616E6970756C61746520612008
:101DB00067656E6572696320627974652062756615
:101DC0006665720D0A0020206C6F6164204E202031
:101DD0002020203A20416C6C6F63617465204E2096
:101DE000627974657320616E6420736574206C6F12
:101DF000616420636F756E7465720D0A0020206443
:101E0000622048485B48485D2A203A204C6F616454
:101E100020382D626974206865782062797465289D
:101E2000732920756E74696C204E20627974657315
:101E30000D0A0020207072696E74205B4E3D3136B1
:101E40005D205B6F66667365743D305D0D0A002032
:101E50002020202020202020202020203A205072E6
:101E6000696E74204E206279746573206174206FEE
:101E70006666736574206173206865780D0A006971
:101E80006E666572204E205B573D305D3A204C6F88
:101E9000616420696E7075742C2065786563757453
:101EA00065204E20696E666572656E63657320619C
:101EB000667465722057207761726D7570206C6F43
:101EC0006F70730D0A00726573756C747320202037
:101ED0002020203A2052657475726E207468652047
:101EE000726573756C742066703332207665637426
:101EF0006F720D0A006673697A6520202020202009
:101F000020203A2052657475726E20696E70757467
:101F100020666561747572652073697A6520696EE3
:101F20002062797465730D0A00696E6665720065DA
:101F30002D5B496E666572656E63652069746572B6
:101F40006174696F6E73206D757374206265203ED5
:101F5000305D0D0A00652D5B496E666572656E63C6
:101F600065207761726D7570206D75737420626580
:101F7000203E3D305D0D0A00726573756C74730010
:101F80006E616D6500647574006D2D6E616D652DFB
:101F900025732D5B25735D0D0A0074696D6573747F
:101FA000616D7000652D5B556E6B6E6F776E206393
:101FB0006F6D6D616E643A2025735D0D0A006D2DA5
:101FC00074696D657374616D702D6D6F64652D70CE
:101FD0006572666F726D616E63650D0A00496E70A1
:101FE00075742064622068617320256420656C65C7
:101FF0006D656E7465642C206578706563746564C6
:102000002025640A006D2D726573756C74732D5BE9
:102010000025640000000000EE0644086806CE06B5
:062020003A0654064606D4
:00000001FF
