:0200000280007C
:100000000080082091070800AD0D0800AD0D080024
:10001000AD0D0800AD0D0800AD0D0800000000009A
:10002000000000000000000000000000AF0D08000C
:10003000AD0D080000000000B30D0800B70D08006A
:10004000AD0D0800AD0D0800AD0D0800AD0D0800A8
:10005000AD0D0800AD0D0800AD0D0800AD0D080098
:100060001D080800AD0D080000000000AD0D0800DF
:10007000AD0D0800AD0D0800AD0D0800000000003A
:1000800000000000310808003D080800AD0D080020
:1000900049080800AD0D0800AD0D0800AD0D0800C1
:1000A000AD0D080000000000AD0D0800AD0D08000A
:1000B000AD0D0800AD0D0800AD0D0800AD0D080038
:1000C000AD0D0800AD0D0800AD0D0800AD0D080028
:1000D000AD0D0800AD0D0800AD0D0800AD0D080018
:1000E00009080800AD0D0800AD0D0800AD0D0800B1
:1000F000AD0D080010B5054C237833B9044B13B18E
:100100000448AFF300800123237010BD10090720BD
:1001100000000000ACB0080008B5064B1BB1064853
:100120000649AFF300800648036813B1054B03B1DD
:10013000984708BD00000000ACB008001409072073
:10014000ACB008000000000030B500230D4A32F9C1
:1001500013000D4A451C11D00C4931F913104C1CE9
:100160000CD0D5560A4C54F825400A4D55F823308A
:100170009C42CCBF0B460346591CE7D1D356064AD6
:10018000D05630BDC49308006C9F0800E28F080071
:1001900080090720A8970800308B080038B50A4C62
:1001A00025280A4B226806D1002518469D5400F0E8
:1001B0009BFA256038BD985423684F2B96BF23685F
:1001C00050230133236038BD900F07202C090720EE
:1001D00008B500F07FFA00F0B7FA054800F054FACD
:1001E000044B01221A700448BDE8084000F04CBAE4
:1001F000368B08007D090720448B0800F8B50D46B2
:10020000064600F075FA00F0A0FA0024284B4FF0E3
:100210008941E05802F00CFC0021074602F0BAFDCB
:1002200038B1384602F0EEF80022224B01F08CFF84
:1002300006E0384602F0E6F800221E4B01F082FF8D
:1002400002F0CEFB1C4BE0500434B4F5007FDDD14E
:100250001A48294600F018FA2DB1FFF775FF184B20
:10026000013D1860F8E7174800F00EFA16483146CD
:1002700000F00AFA00F0ECFD344605462CB1FFF719
:1002800063FF0F4B013C1860F8E700F0E1FD2946E1
:1002900004460E4800F0F8F921460C4800F0F4F945
:1002A0000B4800F0F1F9BDE8F84000F037BA00BFA4
:1002B000840B07200000E03F800907204E8B0800D8
:1002C000880D0720628B0800728B0800858B080060
:1002D000948B080010B5421E002012F8013FCBB1EC
:1002E000002814DBA3F13001CCB2092C01D80B4655
:1002F0000AE0A3F16101052901D8573B04E0A3F10D
:100300004101052904D8373B03EB0010E5E710BD98
:100310004FF0FF3010BD0000F7B54449502202F005
:100320007DFE00287FD1424902F0EAFE054608B969
:10033000404874E04049502202F070FE0646E0B9A1
:100340003B4902F0DDFE08B93C4868E002F036FDAA
:100350003B4B0446186008B93A4860E03A4BB0F5A8
:10036000007F1E6006D9394821464FF4007200F024
:100370008BF956E03648214645E02846354950225B
:1003800002F04CFEF8B904462D4D04F007002B682E
:100390009C4214D210B9304800F076F92F4B304807
:1003A000195D013400F070F9630702D02B689C429C
:1003B00001D12C4800E02C4800F066F9E4E7002861
:1003C00032D028482BE02846502100F08FF910F059
:1003D0000104064601D0254821E0194B8DF806405E
:1003E0001F68B4421DD22B5D02348DF804302B19E6
:1003F00013F8013C01A88DF80530FFF76BFF0028CA
:1004000004DA1B4801A900F03FF90AE00E4A13493B
:100410001368C8540133BB421360E2D1154800F0A1
:1004200033F9002000E0012003B0F0BDA38B0800E9
:10043000A68B0800A88B0800D18B0800D68B08007B
:10044000840D0720068C08008C0D07202F8C0800D7
:100450005E8C0800778C08007D8C0800900D0720CA
:10046000878C0800CD8C0800858C08008C8C0800D7
:10047000B38C0800D08C080038B54249502204469D
:1004800002F0CCFD054630B93F48404900F0FCF889
:100490003F48404908E020463F49502202F0BEFD57
:1004A000054620B93D48042100F0EEF844E020461E
:1004B0003B49502202F0B2FD054630BB3349394872
:1004C00000F0E2F8384800F0DFF8384800F0DCF8D7
:1004D000374800F0D9F8374800F0D6F8364800F031
:1004E000D3F8364800F0D0F8354800F0CDF835485C
:1004F00000F0CAF8344800F0C7F8344800F0C4F8F7
:10050000334800F0C1F8334814E02046FFF704FFF9
:10051000002836D020463049502202F07FFD0546A3
:1005200018BB2E4902F0ECFDB0B102F047FC0028E8
:1005300004DC2B4800F0A8F8284638BD04462749BB
:10054000284602F0DDFD50B102F038FC0028A8BFBB
:10055000014605DA2348EDE70A21012400E00A21DB
:100560002046FFF74BFE002038BD20461E49502292
:1005700002F054FD044618B900F0D0F8204638BD0A
:10058000012038BDDE8C0800E68C0800F78C0800DE
:10059000088D0800178D08001D8D0800238D0800A8
:1005A000328D0800378D0800CD8C08003C8D080086
:1005B000648D0800928D0800B88D0800EA8D08004F
:1005C000218E0800578E0800738E0800A38E080045
:1005D000EA8E0800198F08004D8F0800A68B0800CE
:1005E000538F0800798F08009C8F0800144B10B5BA
:1005F0001B7823B3134902F083FD134950220446AC
:1006000002F00CFD28B911481149124A00F03CF8DB
:1006100010E020461049502202F000FD10B900F011
:100620004DF807E02046FFF727FF18B10B48214699
:1006300000F02AF8BDE81040094800F025B810BDC8
:100640007D090720A68B0800A48F0800A98F080049
:10065000BA8F0800178D0800BE8F0800C88F0800E9
:10066000448B0800064B10B51C68A14238BF0C46ED
:1006700018B10449224602F0E1FB204610BD00BF3C
:100680008C0D0720900D07200FB407B504AB53F86D
:10069000042B08485021019303F0D8FC002803DD07
:1006A0000548044900F018FD03B05DF804EB04B000
:1006B000704700BF940F0720F810072008B500F01E
:1006C000C7FBBDE8084001460148FFF7DDBF00BF9A
:1006D000858B080008B50348FFF7D6FFBDE8084042
:1006E000FFF7ECBF5DA10800FFF780BF02F0F0BC90
:1006F00010B508484FF40071FFF7B4FFA0F5007380
:10070000032B044604D90448A1088022FFF7BCFF4C
:10071000204610BD840B07207CA1080008B50648C0
:10072000FFF7B2FF054B06481968FFF7ADFFBDE8BC
:1007300008400448FFF7A8BFA4A10800880D0720BF
:10074000B0A10800CC8C08007047704708B502487B
:1007500000F019FDC0B208BDF810072008B5044824
:100760004FF4E13100F0C2FDBDE80840FFF730BDB5
:10077000F810072008B5054800F0EEFC002804DD5D
:10078000FFF7E4FFFFF70AFDF5E708BDF8100720C3
:10079000154B164A10B593421C4601D0002301E0C8
:1007A000134B07E01349D0188842F9D2E158D150D1
:1007B0000433F7E7104A934203D2002243F8042B94
:1007C000F8E70E490E4B21F0604201F1604122F042
:1007D0007F02B1F5801F9A6003D29A6842F00052FE
:1007E0009A60084B9847FEE7ACB00800000007206D
:1007F0001009072010090720F01707200000080043
:1008000000ED00E06110080008B5024B1B6803B161
:10081000984708BDE40F072070470000014800F02A
:1008200069BD00BFF810072070477047704700008F
:10083000014800F05FBD00BFA4110720014800F08F
:1008400059BD00BFCC110720014800F053BD00BFC7
:10085000F41107202DE9F0413F4D00F063FA2B68B9
:100860004FF47A72B3FBF2F35A1E3C4BF0215A60FC
:100870003B4A002482F8231007229C601A6002F091
:10088000A1FAA84620460021013400F0AFFB4F2C0E
:10089000F8D1344C344E354F354B4FF0FF35C4F85A
:1008A000A0504FF44072C6F8A0502046C3F8A050A4
:1008B00001210023C7F8A05000F0A2F90020012177
:1008C00000F094FB204601214FF44062002300F029
:1008D00097F9204601214FF44052002300F090F98F
:1008E000384602213022002300F08AF930460121E7
:1008F0004FF44062002300F083F9204601210322D7
:10090000002300F07DF901214FF4404200233046DE
:1009100000F076F9252000F0B3F9D8F80010154A58
:100920000C23154800F0B6F80123134800214FF4BA
:10093000401200F010F900210A460F4800F0F6F8C6
:1009400029460D4800F01DF90B4800F016F9BDE8E6
:10095000F04100F0C5BA00BF2C00072010E000E015
:1009600000ED00E0000E0E4000100E4000140E409E
:1009700000120E40002D310100000C402DE9F7431C
:10098000234D244C284600F0C9FB204600F0C6FB4E
:10099000DFF8B490082213461F49009501941F4FB9
:1009A0001F4800F059FC1F4D484600F0B7FBDFF828
:1009B0009C80384600F0B2FB1B4E284600F0AEFB90
:1009C0001A4C404600F0AAFB304600F0A7FB204638
:1009D00000F0A4FB11221346CDF80090CDF804805E
:1009E0001349144800F0B8FC1222134600970196F0
:1009F0001149124800F0B0FC1422009501941049EE
:100A00001346104800F0A8FC03B0BDE8F08300BF17
:100A10001C1107207010072000080E400414072046
:100A2000F81007208C1407201C120720A41207209E
:100A300000800940A411072000C00940CC11072004
:100A400000400A40F41107207C130720E80F07201C
:100A500008B50C4800F080FB08B1FFF7DDFE0A483E
:100A600000F07AFB08B1FFF7DFFE084800F074FBE6
:100A700008B1FFF7DAFE064800F06EFB08B1FFF799
:100A8000D5FE08BDF8100720A4110720CC110720BF
:100A9000F41107202DE9F041224D90B06C46064636
:100AA0000F4690469C460FCD0FC40FCD0FC40FCDFF
:100AB0000FC495E80F0084E80F0001233360002184
:100AC0004FEA480240F202237160C6F82031C6F8AE
:100AD0000411C6F81411B7FBF2F102FB117202B94E
:100AE00001394B1C5B00B7FBF3F70F4B0022B7FB40
:100AF000F3F70CFB07FC5DF82200604505D20132DC
:100B0000102AF8D14FF0FF3009E07368090289B26A
:100B10001204194302F470220A437260002010B0DC
:100B2000BDE8F081E0AB080040420F004368D20707
:100B300023F08F03436004D5436843F08003436090
:100B40007047CB0706D5436801F00E0143F001035F
:100B500019434160704710B54468090622431B07DA
:100B600001F07064224303F040531A43426010BD09
:100B7000012303FA01F1416170474FF6FF734361AE
:100B80007047816270470AB14166704701667047DD
:100B9000426405290DD8DFE801F00D03090D0D0DA4
:100BA000036F016F0B4023EA020301E0036F13435D
:100BB000036742607047D30741644CBF41660166DA
:100BC00012F00A0F14BF01624162930701D41307A8
:100BD00001D5C0F8801041610160704710B5029CDA
:100BE00041640CB1416600E001660BB1016500E0B3
:100BF00041650AB1016300E041630161016010BD1C
:100C0000F7B51E464B1E05460F461446042B1FD84B
:100C1000DFE803F003030C1212002246FFF7B8FFCF
:100C2000F2076C644CBF6C662C6603E021463246CA
:100C3000FFF7C1FF01200CE006F0010300937B1FCA
:100C40005A425A412146C6F38003FFF7C7FFF1E736
:100C5000002003B0F0BD03468068084004D09B69C3
:100C600019420CBF0020012070470000034B4FF4D5
:100C70004412DA619A6E5206FCD5704700060E40A7
:100C80002C2819D81F280E4B4FF0010208D802FA61
:100C900000F0996900EA010282420FD018610DE06C
:100CA000203802FA00F0D3F8081100EA010282426B
:100CB00004D0C3F8000101E0012070470020704714
:100CC00000060E402C2817D81F280D4B4FF00101AD
:100CD00007D801FA00F09A69024082420ED15A61A7
:100CE0000CE0203801FA00F0D3F8082102408242DB
:100CF00004D1C3F8042101E00120704700207047AF
:100D000000060E40000200F47062024B42F0010245
:100D10009A63704700060E40014B20221A6070470C
:100D200000060E401A4A4FF480631360C2F8003286
:100D3000184B1A6AD20102D5174A1A6205E0174AFF
:100D40001A629A6ED007FCD5F6E7996E114AC9036C
:100D5000FBD5116B21F0030141F0010111639A6E83
:100D60001207FCD50E490B4A91629A6E9007FCD58A
:100D7000084A112111639A6E1107FCD5054A122108
:100D800011639A6E1207FCD5064A074B1A6070472A
:100D9000000A0E4000060E40090837010908370016
:100DA000013F0D2000BD01052C000720FEE700F0EB
:100DB00010B800F00EB808B500F009F828B900F036
:100DC0009DF9BDE8084000F069BE08BD70470020ED
:100DD0007047FEE7044B1A680AB9044A1A601A6899
:100DE000104418601046704714150720F0170720AC
:100DF0004FF0FF3070474FF0FF3070474FF4005313
:100E00004B60002070470120704700207047002091
:100E10007047000010B50023934207DA0548446983
:100E2000A407FBD5CC5C0133C461F5E722EAE2708C
:100E300010BD00BF00080E40014608B5014801F092
:100E4000E9FFFEE720AC080070474FF0FF30704725
:100E50001B4B2DE9F0419C68D3F8F42C03F54F634C
:100E6000510156BF5E6A0126C6F3C02600F01EFE81
:100E70000546134BD3F80880D3F8F42C03F54F63E1
:100E8000520156BF5F6A0127C7F3C02700F00EFE6C
:100E9000BE4203D03E4605464446EAE78542FAD1C3
:100EA0004445F8D3064B354458684FF47A76041B12
:100EB00043F2C3006043754305EB1050BDE8F08179
:100EC00010E000E038B5044648B100F0EFFD0546FB
:100ED000FFF77CFF00F0EAFD401BA042F8D338BDCD
:100EE000704700002DE9F0413D4E1C2303FB0063D9
:100EF0001A7B04460F46002A70D03A4D2A5C02F055
:100F00000F02042A03D13848597EFFF731FE2A5DCB
:100F100002F00F03022B11DC82B1022B02D16FB958
:100F2000BDE8F081012B03D1022F07D1BDE8F0818C
:100F3000032B03D1012F03D1BDE8F081012F32D063
:100F40001FB1022F17D0BDE8F0814FF01C0808FB3D
:100F500004F806EB0807B868FFF792FE002356F87E
:100F6000080003217A68FFF74BFE2B5D23F00F0387
:100F700043F0020314E04FF01C0808FB04F806EBF2
:100F80000807B868FFF77CFE012356F80800032124
:100F90007A68FFF735FE2B5D23F00F0343F0010362
:100FA0002B55BDE8F0811C236343F75812091E44FA
:100FB0000CBF04210521336938467268FFF720FE13
:100FC0002B5D23F00F0343F003032B55BB69013363
:100FD00004D1B068BDE8F041FFF774BEBDE8F08110
:100FE000B4A108002C13072000000C40F7B5194EDF
:100FF0001C2303FB00631B7B04460D4643B3164FC3
:101000003B5C03F00F03052B02D10121FFF76AFFC0
:101010003B5D03F00F0343EA05133B551C235C4380
:10102000331936595C6830462146FFF714FE38B94B
:10103000304621462A4603B0BDE8F040FFF7A3BD85
:1010400001230093304621462A460023FFF7C6FDC0
:1010500003B0F0BDB4A108002C13072070470000B6
:1010600008B500F08BF9FFF7F5FBFFF7F7FF01205C
:10107000FFF728FF064800F0D1FAFFF76FFBFFF7F4
:1010800079FB044B002BFAD0FFF7E2FCF7E700BF37
:1010900028150720510A0800F8B505460E461746E0
:1010A0000024BC4207D02B6828461B68315D984756
:1010B00008B10134F5E72046F8BD38B505460C46C1
:1010C000084641B101F07AFF2B6802465B6828466A
:1010D0002146984738BD38BD08B5FFF7EEFF08BD7B
:1010E000014B1860704700BF30000720024B4FF0E3
:1010F000FF321A60704700BF30000720054A08B56C
:101100001368591C04D0013B13600BB9024B98477C
:1011100008BD00BF300007200100072010B50021E6
:101120008022044601F000FF0023C4F880302046EE
:10113000C4F8843010BDD0F88030D0F8842001335A
:1011400003F07F03934204D0D0F880208154C0F88C
:1011500080307047012070470369D3F88000D3F8CE
:101160008430C01A00F07F0070470369D3F8801004
:10117000D3F8842091421DBFD3F88420985CC0B27C
:101180004FF0FF3070470369D3F88010D3F8842004
:1011900091420AD0D3F88420985CD3F8842001329D
:1011A00002F07F02C3F8842070474FF0FF30704791
:1011B0004369D3F88010D3F884209142F9D1826931
:1011C00053699B05FCD57047836970B55E694269B8
:1011D000B607D2F88450D2F8804001D5A54218D085
:1011E000D2F880400C4B01342340002B03DA013B42
:1011F00063F07F030133D2F884409C42FBD0D2F8E5
:10120000804011554269C2F88030836902229A6099
:1012100000E0D961012070BD7F000080036910B536
:10122000D3F884200446C3F8802003685B6998479C
:10123000237F012259B203F01F0302FA03F3490985
:10124000044A203142F82130206ABDE81040FFF7FF
:1012500039BD00BF00E100E030B5002545604FF426
:101260007A758560044D81610560039D0277056193
:10127000049D0362456130BD48AC080070B504466A
:10128000006A0D461646FFF7FBFCA36940F20222F6
:10129000C3F82021AC221A60124A5E601268012154
:1012A000B2FBF5F52D094FF0FF321D62DA606122C5
:1012B0009A60227F50B202F01F0201FA02F20A493C
:1012C000400941F8202021690022C1F88420C1F89A
:1012D00080206169C1F88420C1F8802050221A6002
:1012E00070BD00BF2C00072000E100E04FF4006259
:1012F000FFF7C4BF38B5836904465D69EA0704D5C2
:1013000099690069C9B2FFF716FFAB0716D5636983
:10131000D3F88410D3F880209142A2690CD0D3F87E
:101320008410595CC9B2D161D3F88420013202F033
:101330007F02C3F8842001E00223D36015F0600F20
:1013400004D0A3691A6842F480721A6038BD4FF461
:101350000C62FFF793BF000073B5069D044600952D
:10136000079D0E460195FFF777FF034B204623604C
:10137000666202B070BD00BF78AC0800014800F0A2
:1013800063BD00BF501A0E40064BD3F83021D20780
:1013900003D45B68D90703D4F6E70122C3F86021C0
:1013A000704700BF00C00A4038B5094B1D6872B6CF
:1013B000BFF35F8F1C4600F00F000023236000F096
:1013C00001FD25B101232360BFF35F8F62B638BDF5
:1013D0005C0007202DE9F8431B4B89461B68154626
:1013E0003BB31A4BD3F8008072B6BFF35F8F00F0A7
:1013F0000F04002620461F461E6000F0E3FCA842B2
:1014000038BF0546AE4206D0204600F0A3FC09F8DE
:1014100006000136F6E71DB1204600F0D3FC78B196
:10142000B8F1000F09D001233B60BFF35F8F62B6B4
:1014300003E04FF0FF30BDE8F8832846BDE8F883AD
:10144000204600F0C9FCEBE7341507205C000720BC
:1014500007B501220DF1070100F00F00FFF7BAFFF9
:1014600001280CBF9DF807004FF0FF3003B05DF876
:1014700004FB0000114B2DE9F0411B6880460D462E
:101480001746B3B114468CB1B8F1000F14BF4FF436
:1014900000764026A64228BF2646294608F00F00BF
:1014A0003246A41B00F002FC3544ECE73846BDE8A8
:1014B000F0814FF0FF30BDE8F08100BF3415072008
:1014C0002DE9F0410C4B0D4F15461B883A88884694
:1014D0009A420BD22C46002644B108EB0601224664
:1014E000002000F0E3FB0644241AF5E73B88284679
:1014F0002B443B80BDE8F0813015072018150720EC
:10150000F8B5012900AF06460C4628DDCB1D23F0B7
:101510000703ADEB030D01F051FD01304000032343
:101520008DF800006D468DF80130701E0222A24237
:101530000DDA10F8013F53B1511CC9B2A142AB54AE
:1015400004D0002302326B54D2B2F0E722460020CE
:101550002946FFF7B5FF003018BF012000E000204A
:10156000BD46F8BD38B50C46054600F06FFB0020BF
:101570002946224600F002FC00F07CFB204638BDE4
:10158000037910B504461BB9BDE8104000F010BD4A
:1015900000F098FD2146BDE8104000F083BD13B572
:1015A000002302AC04F8013D204600F0EDFC00F001
:1015B00089FD214600F046FD9DF8070002B010BDF0
:1015C00013B5002302AC04F8013D204600F0E6FC10
:1015D00000F078FD214600F035FD9DF8070002B0CF
:1015E00010BD10B5044600F0EDFB20B12046BDE86B
:1015F000104000F005BC10BD10B50446054800F0D1
:101600005BFA00F05FFA10B9034B01221A60204622
:1016100010BD00BF491608002415072008B5054B6A
:10162000186828B100F0AEFA034B00221A600120BE
:1016300008BD00BF24150720341507200148FFF717
:10164000DBBF00BF281507202DE9F047AC4C88B060
:1016500063681F0717D52368002023F07F032360EA
:10166000236842F2320143F08003236000F0B2FAB3
:10167000A44B04221A604FF48053A361A24B0022B2
:101680001A600823A3609E4B5B685E0408D59F4BDD
:1016900002201860FFF788FE10B19D4800F026FC7C
:1016A000974B5A68550744BF04229A605B68DC0474
:1016B00040F1E28100F0EAFA002800F0DD8100202C
:1016C00001A9082200F05AFB00F0E8FA9DF8045046
:1016D000280602D500F0B2FA01E000F0BFFA15F0DA
:1016E000600440F0B4819DF8053073B99DF8044062
:1016F000ACB1884B1B780020012B14BF014601219F
:1017000000F016FB0020014697E1012B0DD19DF85A
:101710000630012B01D1804BECE77E4B1C7020463C
:10172000214600F005FB2046EDE7032B75D19DF81F
:101730000630012B05D1784A20462146137000F06F
:10174000F7FA9DF8060028B9724B012201461A707B
:1017500000F0EEFA9DF80630022B40F085819DF8EE
:101760000430002B40F08081BDF80830190740F0AC
:101770007B81634C1B0A6269013B22F001026261BA
:10178000226842F400622260032B00F26D81DFE8E0
:1017900003F031383F02FFF7F7FD0023C4F8183398
:1017A000C4F8283341F23013C4F80831D4F80831B2
:1017B00043F00203C4F80831514BD3F838215203E7
:1017C000FAD5DA6942F00402DA61544B544A9A5C61
:1017D00003F8012F534A9342F8D1494B1A6842F457
:1017E00000421A600122C3F868214FF48042C3F816
:1017F0002822FEE7FFF7C8FD236843F40053236067
:10180000FEE7FFF7C1FD236843F480432360FEE752
:10181000FFF7BAFD444B6361FEE7052B06D100F0EC
:101820000DFA9DF8060000F0FFFA1DE1062B40F0CE
:10183000DC809DF807603D4D022EBDF80A903C4FBC
:101840002C8028D13C80FFF7AAFE4FF00908824681
:101850002146424603A801F067FB01238DF81130B1
:10186000C0238DF81330FA238DF814302B8803A988
:10187000434442462046ADF80E308DF80C808DF87A
:101880000D608DF810A02C80A7F80090FFF718FECF
:10189000FFF785FEE8E0A7F8009000F013FC01A92F
:1018A00000F0E4FB002803D0D4BF00200120DAE0E0
:1018B000012E10D1BDF80A201E4B082A04BF0121B9
:1018C000196018681C491D4B002808BF1946112AC9
:1018D00000F2868048E0032E48D19DF8063033B9E7
:1018E0001749BDF80A200B7893423DD878E0022BC7
:1018F00001D1144833E0012B28D113482FE000BF59
:1019000000C00A40F0C10A403415072068C10A40EF
:10191000981707201A15072020150720FFFF182009
:10192000C3ACEFDF340019207FF0077E18150720C5
:10193000301507201C15072003AD0800ACAC0800CB
:10194000BEAC0800A0AC0800F7AC0800032B40F0C8
:101950008E8000F0B7FB03A900F096FB03A8BDF84A
:101960000A10FFF7CDFD7EE0D2B238E0062E06D198
:10197000BDF80A20092A7DD8D2B241492FE0072EAE
:101980004FF0000473D1BDF80A902C803C80FFF723
:1019900017FE4FF0090882462146424603A801F08F
:1019A000C3FA01238DF81130C0238DF81330FA23C8
:1019B0008DF814302B8803A9434442462046ADF8E5
:1019C0000E308DF80C808DF80D608DF810A02C80F5
:1019D000A7F80090FFF774FDFFF7F2FD44E002B9AD
:1019E0000A780020FFF76CFD3EE0072B3FD0082B64
:1019F00004D1244B20461968C9B21EE0092B17D127
:101A0000EB0634D10021204850F821300BB10131D0
:101A1000F9E700F0F5F89DF806201A4B1A601B4B09
:101A200002221A604FF48042A3F5FC739A611BE016
:101A30000A2B05D1164B0020197800F079F913E034
:101A40000B2B11D19DF80620114B1A600CE000F011
:101A5000F5F8104B00211980BDF80A200E4B01A8A3
:101A60001A80FFF78DFD10B100F0F8F804E000F0E7
:101A70009FF901E00249B3E708B0BDE8F08700BF75
:101A800015AD08003415072034000720F8C10A40BE
:101A90002C1507201815072030150720024B1A684F
:101AA00001321A60704700BF38150720014B1868D3
:101AB000704700BF38150720014B1860704700BF02
:101AC000E40F072010B500232A4A002442F82340DF
:101AD000294A42F8234001330A2BF5D12820FFF789
:101AE000CFF8FFF7C3F82046FFF70CF9FFF714F91A
:101AF000224B4FF4807283F828435A60204B2046D3
:101B0000D3F8002822F08072C3F80028D3F8002808
:101B100042F00072C3F80028D3F8002822F0807247
:101B2000C3F80028D3F8002822F48052C3F8002814
:101B3000D3F8002842F48052C3F80028D3F80028D4
:101B400042F40042C3F80028D3F8002822F480426F
:101B5000C3F800281A6822F480521A601A6822F426
:101B600040621A60D3F8002842F48042C3F800288B
:101B700010BD00BF641507203C15072000E100E000
:101B800000C00A40114B10B5196872B6BFF35F8FE1
:101B90001A46002313600E4BD3F800081C4620F4AD
:101BA0008040C3F80008D4F80408094B4004FAD573
:101BB000186820F4807018600820986121B1012312
:101BC0001360BFF35F8F62B610BD00BF5C000720DB
:101BD00000C00A40094B00F00F0000F1400243F83A
:101BE000221001228240D9690A43DA6103F5987311
:101BF00053F820305B0300D4FEE7704700C00A4072
:101C000030B501238B4214D20A4A50F8045F03F125
:101C1000400442F8245001249C40D5692C43D461EF
:101C2000054A1A4492001268520300D4FEE70133B9
:101C3000E8E730BD00C00A404CB00210024BD3F8B8
:101C40003031DB07FAD5704700C00A40024BD3F8A9
:101C500030319B07FAD5704700C00A40034B012280
:101C6000C3F86021024B00221A60704700C00A408E
:101C700064150720034B0222C3F86021024B0022A7
:101C80001A60704700C00A403C150720024BD3F889
:101C9000300100F00400704700C00A40024B0422EB
:101CA000C3F86021704700BF00C00A40F8B5154670
:101CB000C20302F10052034602F5C012980000F17F
:101CC000804000F52C24D4F83041E407F6D5174CB9
:101CD0003BB926682E44402E06D92568C5F140053B
:101CE00002E0002644F8236054F8236016440022E2
:101CF000AA4203D08F5CB7540132F9E754F823208D
:101D00002A4444F8232033B9084B1B68402B0BD1DD
:101D1000FFF7A4FF08E000F52C230122C3F860219F
:101D20004FF48042C3F820222846F8BD64150720EE
:101D3000074B53F8202002EBC03202F1005202F5AB
:101D4000C012117053F82020013243F82020704750
:101D500064150720084A034652F8201001EBC031F1
:101D600001F1005101F5C011087852F8231001313A
:101D700042F82310704700BF3C15072070B50B4C8C
:101D8000C30303F1005354F8205003F5C0131D445E
:101D90000023934203D0EE5CCE540133F9E754F8AC
:101DA0002020134444F8203070BD00BF3C150720AC
:101DB000034B0122DA614FF40022C3F8F02170478F
:101DC00000C00A40034B4C3053F82000C0F30A50C7
:101DD000704700BF00C00A40830003F1804303F551
:101DE0002C230222C3F860214FF48042C3F8202242
:101DF000024B002243F82020704700BF3C1507200B
:101E0000830003F1804303F52C230122C3F86021F2
:101E10004FF48042C3F82022024B002243F82020D6
:101E2000704700BF64150720064B00F07F001A685A
:101E300022F07F0202431A601A6842F080021A60A0
:101E4000704700BF00C00A404FF400434360704732
:101E5000044BD3F80002D3F80432C01AC0F30800D0
:101E6000704700BF8C150720064BD3F80012D3F83B
:101E7000042291421ABFD3F80422985C4FF0FF303D
:101E8000704700BF8C15072013B5026802AB03F83A
:101E9000011D546819460122A04702B010BD000080
:101EA00038B50F4B0446D3F80012D3F80422914200
:101EB00013D0D3F8042202209D5CD3F8042201320F
:101EC000C2F30802C3F80422FFF76EFA18B12368C0
:101ED00020469B699847284638BD4FF0FF3038BDF3
:101EE0008C1507200320FFF77CBB0000F8B5184BCA
:101EF00053E8003F164E13B1BFF32F8FF8BD0123F7
:101F000046E80033002BF2D1124BD3F800421F46B3
:101F10000134C4F30804D7F804320E4D9C4214D0A7
:101F20000220FFF741FA20B90B4B4FF480421A60B0
:101F30000BE00220FFF78CFAD5F80032C5F800421A
:101F40000134E854C4F30804E5E700233360F8BD26
:101F5000941707208C15072028C20A4010B5094B9A
:101F60000446DB7903F0FF0043B10320FFF782FA58
:101F7000002805DC01236360002010BD012363609D
:101F800010BD00BF640007200378034902330370CB
:101F900042220020FFF794BA8AAD08000378034973
:101FA0000233037042220020FFF78ABA48AD0800CE
:101FB00008B502784378A12A08D1212B4FF0000000
:101FC00029D117490722FFF77BFA25E0212A25D1DD
:101FD000202B04D107211248FFF7C4FA1CE0222B62
:101FE00010D182780E4BDA711A68B2F5966F13D160
:101FF000DB79DB0703D4FA20FFF772F80CE0FFF778
:1020000075F809E0232B09D18378C27843EA0222CC
:10201000044B1A6000E008BD012008BD002008BD87
:102020006400072060000720044B00225A604FF430
:102030007A729A60024A1A60704700BF98170720A8
:1020400028AD080070B544680E4600254CB12368E1
:1020500020465B6831469847002804DB0544E46865
:10206000F4E7284670BD4FF0FF3070BD38B54468C6
:102070000D463CB1236820469B682946984710B915
:10208000E468F6E7204638BD38B544680D463CB1F3
:10209000236820462946DB689847E4680544F6E74C
:1020A0002C7038BD38B544680D463CB123682046D5
:1020B0001B682946984718B9E468F6E7204638BDFA
:1020C000012038BD074A136813F0010107D1064B00
:1020D00002201870042058705960012313600248D0
:1020E000704700BFB4170720AC17072031F000433A
:1020F00010B408D00F4AA3F5801494420AD80420E3
:102100005DF8044B704700280CBF022003205DF8E7
:10211000044B7047B3F5801F01D20320F7E7064A4E
:10212000934201D00020F2E7D0F1010038BF002037
:10213000EDE700BFFFFFDF7F0000F07F81F000418F
:1021400002E000BF83F0004330B54FEA41044FEA9C
:10215000430594EA050F08BF90EA020F1FBF54EA37
:10216000000C55EA020C7FEA645C7FEA655C00F0D3
:10217000E2804FEA5454D4EB5555B8BF6D420CDDA4
:102180002C4480EA020281EA030382EA000083EA27
:10219000010180EA020281EA0303362D88BF30BDC7
:1021A00011F0004F4FEA01314FF4801C4CEA11311D
:1021B00002D0404261EB410113F0004F4FEA03337C
:1021C0004CEA133302D0524263EB430394EA050F07
:1021D00000F0A780A4F10104D5F1200E0DDB02FA76
:1021E0000EFC22FA05F2801841F1000103FA0EF20A
:1021F000801843FA05F359410EE0A5F120050EF1D0
:10220000200E012A03FA0EFC28BF4CF0020C43FA00
:1022100005F3C01851EBE37101F0004507D54FF00D
:10222000000EDCF1000C7EEB00006EEB0101B1F55D
:10223000801F1BD3B1F5001F0CD349085FEA3000A3
:102240004FEA3C0C04F101044FEA445212F5800FAE
:1022500080F09A80BCF1004F08BF5FEA500C50F14B
:10226000000041EB045141EA050130BD5FEA4C0C2E
:10227000404141EB010111F4801FA4F10104E9D1B7
:1022800091F0000F04BF01460020B1FA81F308BFAE
:102290002033A3F10B03B3F120020CDA0C3208DD7A
:1022A00002F1140CC2F10C0201FA0CF021FA02F155
:1022B0000CE002F11402D8BFC2F1200C01FA02F1C5
:1022C00020FA0CFCDCBF41EA0C019040E41AA2BFEA
:1022D00001EB0451294330BD6FEA04041F3C1CDAB2
:1022E0000C340EDC04F11404C4F1200220FA04F0D2
:1022F00001FA02F340EA030021FA04F345EA03017C
:1023000030BDC4F10C04C4F1200220FA02F001FA3D
:1023100004F340EA0300294630BD21FA04F02946BF
:1023200030BD94F0000F83F4801306BF81F4801158
:102330000134013D4EE77FEA645C18BF7FEA655CCB
:1023400029D094EA050F08BF90EA020F05D054EA9D
:10235000000C04BF1946104630BD91EA030F1EBFA2
:102360000021002030BD5FEA545C05D140004941A6
:1023700028BF41F0004130BD14F580043CBF01F599
:10238000801130BD01F0004545F0FE4141F470017F
:102390004FF0000030BD7FEA645C1ABF194610465A
:1023A0007FEA655C1CBF0B46024650EA013406BF5B
:1023B00052EA033591EA030F41F4002130BD00BF1A
:1023C00090F0000F04BF0021704730B54FF48064D7
:1023D00004F132044FF000054FF0000150E700BF58
:1023E00090F0000F04BF0021704730B54FF48064B7
:1023F00004F1320410F0004548BF40424FF00001A4
:102400003EE700BF42004FEAE2014FEA31014FEAE6
:1024100002701FBF12F07F4393F07F4F81F0605135
:10242000704792F0000F14BF93F07F4F704730B5A4
:102430004FF4607401F0004521F0004120E700BF37
:1024400050EA010208BF704730B54FF000050AE0BE
:1024500050EA010208BF704730B511F0004502D5BF
:10246000404261EB41014FF4806404F132045FEAC1
:10247000915C3FF4DCAE4FF003025FEADC0C18BF66
:1024800003325FEADC0C18BF033202EBDC02C2F15C
:10249000200300FA03FC20FA02F001FA03FE40EAEE
:1024A0000E0021FA02F11444C1E600BF70B54FF0EE
:1024B000FF0C4CF4E06C1CEA11541DBF1CEA1355D0
:1024C00094EA0C0F95EA0C0F00F0DEF82C4481EA38
:1024D000030621EA4C5123EA4C5350EA013518BF58
:1024E00052EA033541F4801143F4801338D0A0FB45
:1024F00002CE4FF00005E1FB02E506F00042E0FBF2
:1025000003E54FF00006E1FB03569CF0000F18BFF7
:102510004EF0010EA4F1FF04B6F5007F64F540749F
:1025200004D25FEA4E0E6D4146EB060642EAC62132
:1025300041EA55514FEAC52040EA5E504FEACE2E9F
:10254000B4F1FD0C88BFBCF5E06F1ED8BEF1004FA2
:1025500008BF5FEA500E50F1000041EB045170BD1E
:1025600006F0004646EA010140EA020081EA030162
:10257000B4EB5C04C2BFD4EB0C0541EA045170BD5E
:1025800041F480114FF0000E013C00F3AB8014F1D8
:10259000360FDEBF002001F0004170BDC4F1000421
:1025A000203C35DA0C341BDC04F11404C4F12005A2
:1025B00000FA05F320FA04F001FA05F240EA0200FD
:1025C00001F0004221F0004110EBD37021FA04F633
:1025D00042EB06015EEA430E08BF20EAD37070BDED
:1025E000C4F10C04C4F1200500FA04F320FA05F04C
:1025F00001FA04F240EA020001F0004110EBD3704E
:1026000041F100015EEA430E08BF20EAD37070BDBD
:10261000C4F1200500FA05F24EEA020E20FA04F396
:1026200001FA05F243EA020321FA04F001F0004145
:1026300021FA04F220EA020000EBD3705EEA430EB6
:1026400008BF20EAD37070BD94F0000F0FD101F0E5
:102650000046400041EB010111F4801F08BF013C1E
:10266000F7D041EA060195F0000F18BF704703F05C
:102670000046520043EB030313F4801F08BF013DE3
:10268000F7D043EA0603704794EA0C0F0CEA13559F
:1026900018BF95EA0C0F0CD050EA410618BF52EA59
:1026A0004306D1D181EA030101F000414FF000005F
:1026B00070BD50EA410606BF1046194652EA43066D
:1026C00019D094EA0C0F02D150EA013613D195EAE1
:1026D0000C0F05D152EA03361CBF104619460AD129
:1026E00081EA030101F0004141F0FE4141F4700133
:1026F0004FF0000070BD41F0FE4141F4780170BD23
:1027000070B54FF0FF0C4CF4E06C1CEA11541DBF87
:102710001CEA135594EA0C0F95EA0C0F00F0A7F889
:10272000A4EB050481EA030E52EA03354FEA0131B6
:1027300000F088804FEA03334FF0805545EA1313C9
:1027400043EA12634FEA022245EA111545EA106591
:102750004FEA00260EF000419D4208BF964244F128
:10276000FD0404F5407402D25B084FEA3202B61A47
:1027700065EB03055B084FEA32024FF480104FF41B
:10278000002CB6EB020E75EB030E22BFB61A75468F
:1027900040EA0C005B084FEA3202B6EB020E75EB22
:1027A000030E22BFB61A754640EA5C005B084FEA8A
:1027B0003202B6EB020E75EB030E22BFB61A754657
:1027C00040EA9C005B084FEA3202B6EB020E75EB62
:1027D000030E22BFB61A754640EADC0055EA060E23
:1027E00018D04FEA051545EA16754FEA06164FEA66
:1027F000C30343EA52734FEAC2025FEA1C1CC0D112
:1028000011F4801F0BD141EA00014FF000004FF09E
:10281000004CB6E711F4801F04BF01430020B4F15F
:10282000FD0C88BFBCF5E06F3FF6AFAEB5EB030C17
:1028300004BFB6EB020C5FEA500C50F1000041EB14
:10284000045170BD0EF0004E4EEA113114EB5C04E1
:10285000C2BFD4EB0C0541EA045170BD41F48011B4
:102860004FF0000E013C90E645EA060E8DE60CEABC
:10287000135594EA0C0F08BF95EA0C0F3FF43BAFD9
:1028800094EA0C0F0AD150EA01347FF434AF95EA90
:102890000C0F7FF425AF104619462CE795EA0C0F74
:1028A00006D152EA03353FF4FDAE1046194622E741
:1028B00050EA410618BF52EA43067FF4C5AE50EA1B
:1028C00041047FF40DAF52EA43057FF4EBAE12E70B
:1028D0004FF0FF3C06E000BF4FF0010C02E000BFEC
:1028E0004FF0010C4DF804CD4FEA410C7FEA6C5CCF
:1028F0004FEA430C18BF7FEA6C5C1BD001B050EA72
:10290000410C0CBF52EA430C91EA030F02BF90EA5C
:10291000020F0020704710F1000F91EA030F58BF1B
:10292000994208BF90422CBFD8176FEAE37040F07D
:10293000010070474FEA410C7FEA6C5C02D150EA1B
:10294000013C07D14FEA430C7FEA6C5CD6D152EAD6
:10295000033CD3D05DF8040B704700BF844610469B
:1029600062468C461946634600E000BF01B5FFF79A
:10297000B7FF002848BF10F1000F01BD4DF808ED6A
:10298000FFF7F4FF0CBF012000205DF808FB00BF3B
:102990004DF808EDFFF7EAFF34BF012000205DF895
:1029A00008FB00BF4DF808EDFFF7E0FF94BF0120E2
:1029B00000205DF808FB00BF4DF808EDFFF7CEFFE3
:1029C00094BF012000205DF808FB00BF4DF808ED22
:1029D000FFF7C4FF34BF012000205DF808FB00BFF3
:1029E0004FEA410212F5001215D211D56FF4787337
:1029F000B3EB625212D94FEAC12343F0004343EADA
:102A0000505311F0004F23FA02F018BF40427047B4
:102A10004FF00000704750EA013005D111F000403E
:102A200008BF6FF0004070474FF00000704700BFD4
:102A30004FF0FF0C1CEAD0521EBF1CEAD15392EAA1
:102A40000C0F93EA0C0F6FD01A4480EA010C40027D
:102A500018BF5FEA41211ED04FF0006343EA5010D7
:102A600043EA5111A0FB01310CF00040B1F5000F19
:102A70003EBF490041EAD3715B0040EA010062F1C8
:102A80007F02FD2A1DD8B3F1004F40EBC25008BFB2
:102A900020F00100704790F0000F0CF0004C08BFD0
:102AA00049024CEA502040EA51207F3AC2BFD2F19D
:102AB000FF0340EAC250704740F400004FF00003AB
:102AC000013A5DDC12F1190FDCBF00F000407047E5
:102AD000C2F10002410021FA02F1C2F1200200FA23
:102AE00002FC5FEA310040F1000053EA4C0308BFEA
:102AF00020EADC70704792F0000F00F0004C02BF3B
:102B0000400010F4000F013AF9D040EA0C0093F0B5
:102B1000000F01F0004C02BF490011F4000F013B0F
:102B2000F9D041EA0C018FE70CEAD15392EA0C0F7D
:102B300018BF93EA0C0F0AD030F0004C18BF31F0E8
:102B4000004CD8D180EA010000F00040704790F0BE
:102B5000000F17BF90F0004F084691F0000F91F062
:102B6000004F14D092EA0C0F01D142020FD193EA28
:102B70000C0F03D14B0218BF084608D180EA0100B0
:102B800000F0004040F0FE4040F40000704740F08C
:102B9000FE4040F4400070474FF0FF0C1CEAD0525A
:102BA0001EBF1CEAD15392EA0C0F93EA0C0F69D0B6
:102BB000A2EB030280EA010C49024FEA402037D021
:102BC0004FF0805343EA111143EA10130CF0004018
:102BD0008B4238BF5B0042F17D024FF4000C8B4208
:102BE00024BF5B1A40EA0C00B3EB510F24BFA3EBE8
:102BF000510340EA5C00B3EB910F24BFA3EB9103B8
:102C000040EA9C00B3EBD10F24BFA3EBD10340EA11
:102C1000DC001B0118BF5FEA1C1CE0D1FD2A3FF657
:102C200050AF8B4240EBC25008BF20F0010070470C
:102C30000CF0004C4CEA50207F32C2BFD2F1FF03AF
:102C400040EAC250704740F400004FF00003013AE0
:102C500037E792F0000F00F0004C02BF400010F484
:102C6000000F013AF9D040EA0C0093F0000F01F098
:102C7000004C02BF490011F4000F013BF9D041EABA
:102C80000C0195E70CEAD15392EA0C0F08D14202ED
:102C90007FF47DAF93EA0C0F7FF470AF084676E7C0
:102CA00093EA0C0F04D14B023FF44CAF08466EE799
:102CB00030F0004C18BF31F0004CCAD130F0004267
:102CC0007FF45CAF31F000437FF43CAF5FE700BFBF
:102CD0004FF0FF3C06E000BF4FF0010C02E000BFE8
:102CE0004FF0010C4DF804CD4FEA40024FEA41038A
:102CF0007FEA226C18BF7FEA236C11D001B052EA40
:102D0000530C18BF90EA010F58BFB2EB030088BF05
:102D1000C81738BF6FEAE17018BF40F00100704774
:102D20007FEA226C02D15FEA402C05D17FEA236C56
:102D3000E4D15FEA412CE1D05DF8040B704700BF9D
:102D4000844608466146FFE70FB5FFF7C9FF002834
:102D500048BF10F1000F0FBD4DF808EDFFF7F4FF6D
:102D60000CBF012000205DF808FB00BF4DF808ED06
:102D7000FFF7EAFF34BF012000205DF808FB00BF29
:102D80004DF808EDFFF7E0FF94BF012000205DF84B
:102D900008FB00BF4DF808EDFFF7D2FF94BF0120FC
:102DA00000205DF808FB00BF4DF808EDFFF7C8FFF5
:102DB00034BF012000205DF808FB00BF00210A227B
:102DC00000F062BA70B50F4E0F4D761BB61007D0EB
:102DD000043D0024013455F8043F9847A642F9D138
:102DE0000A4E0B4D08F046F9761BB61008D0043D8C
:102DF0000024013455F8043F9847A642F9D170BD2C
:102E000070BD00BF80B0080080B0080094B008001A
:102E100080B008000FB410B5074B82B004AC54F872
:102E2000042B186823468168019400F07DFA02B0F3
:102E3000BDE8104004B0704798040720844641EA7A
:102E4000000313F0030349D1403A23D30B68036016
:102E50004B6843608B688360CB68C3600B69036118
:102E60004B6943618B698361CB69C3610B6A036200
:102E70004B6A43628B6A8362CB6AC3620B6B0363E8
:102E80004B6B43638B6B8363CB6BC36340304031CD
:102E9000403ADBD230320BD30B6803604B6843609F
:102EA0008B688360CB68C36010301031103AF3D266
:102EB0000C3205D351F8043B40F8043B043AF9D2F4
:102EC000043208D0D2071CBF11F8013B00F8013BC7
:102ED00001D30B8803806046704700BF082A13D3D4
:102EE0008B07B1D010F00303AED0C3F10403D21AA4
:102EF000DB071CBF11F8013B00F8013BA4D331F8FC
:102F0000023B20F8023B9FE7043AD9D3013A11F87B
:102F1000013B00F8013BF9D20B7803704B7843700A
:102F20008B78837060467047F0B4840743D0541E9A
:102F3000002A3ED0CDB2034603E0621E002C38D0FA
:102F4000144603F8015B9A07F7D1032C2AD9CDB2B6
:102F500045EA05250F2C45EA054515D9A4F11007CA
:102F60003F0903F1100606EB07161A461560556077
:102F70009560D5601032B242F8D104F00F040137E9
:102F8000032C03EB07130DD91E462246043A032AED
:102F900046F8045BFAD8221F22F0030204321344DD
:102FA00004F003042CB1C9B21C4403F8011BA34272
:102FB000FBD1F0BC704714460346C6E720F003017E
:102FC00010F00300C0F1000051F8043B00F1040CC4
:102FD0004FEACC0C6FF000021CBF22FA0CF2134334
:102FE0004FF0010C4CEA0C2C4CEA0C4CA3EB0C02FD
:102FF00022EA030212EACC1204BF51F8043B043067
:10300000F4D013F0FF0F1FBF013013F47F4F0130D6
:1030100013F47F0F18BF0130704700BF30B4002A8F
:103020004AD040EA010313F003032DD1032A2BD920
:1030300004680D68AC4227D1043A3DD0A4F10135B3
:1030400025EA040414F0803F3CD10C4603460EE010
:103050005B686468A3F10135A34225EA030513D137
:10306000043A29D015F0803F29D103460C46032AA3
:1030700000F1040001F10401EAD8551E2AB91879BB
:103080002279801A30BC7047551E03780A78934223
:103090001AD1DDB1B3B16C1C0C448B1C014604E0A9
:1030A000A3420CD001330028ECD011F8010F13F823
:1030B000012C9042F4D0E4E7104630BC7047002069
:1030C00030BC70471846DDE71846DAE72846D9E7EE
:1030D00030B44D1E89B1017879B1431C002203E060
:1030E0001C78013201332CB195421946F8D1181AD7
:1030F00030BC7047081A30BC70470846F8E700BF7C
:10310000024A012312685C3200F002B898040720DA
:10311000F0B420B3074617F8016B0D4601E0A64254
:1031200016D015F8014B002CF9D1EEB13E4616F839
:10313000015B0C4600E073B114F8013BAB42FAD1DD
:103140005DB100233B70166006463046F0BC704708
:1031500063B13846DEE73746E8E72E46F3E7106806
:103160000028D7D10646F0E71660EEE7176006465E
:103170000370EAE72DE9F00F424C82B0D4F800C0AA
:1031800001900E4600E02646344614F8015B0CEB35
:103190000500407800F0080000F0FF0A0028F2D196
:1031A0002D2D5BD02B2D04BF7578B41C33F010008F
:1031B0003CD09946BAF1000F0CBF6FF0004B4FF0B6
:1031C000004BBBFBF9F8002709FB18BB38460CE0A5
:1031D000303DAB4219DD7E1C05D0404523D820D0C0
:1031E00009FB0050012714F8015B0CEB050676780B
:1031F00016F0040FECD116F0030606D0012E14BF12
:1032000057263726AD1BAB42E5DC7B1C15D0BAF147
:10321000000F21D10AB1EFB9116002B0BDE8F00F83
:1032200070475D45DCDD4FF0FF37DCE7302D1AD00D
:10323000002BBED10A239946BCE70199BAF1000FD1
:103240004FF022030CBF6FF000404FF000400B60C6
:10325000002AE2D0611EDFE74042DBE7B41C75784C
:103260004FF0010AA2E7207800F0DF00582803D0D1
:10327000002B9ED108239CE71023657899460234E1
:1032800098E700BF9C04072030B4044C0D46134659
:1032900001462A46206830BCFFF76CBF980407201F
:1032A000024B0A460146186802F092B998040720BA
:1032B0004B6E2DE9F0479C040E46804691462AD578
:1032C0009368126802F1080A1BB31AE9A000BF084C
:1032D00017D0043D002401E0A74210D0404655F825
:1032E000041F324601F08CF8431C04F10104F3D1B1
:1032F0000023C9F80830C9F80430BDE8F087D9F8D0
:103300000830A3EB8703C9F808300AF1080A002B3C
:10331000DBD10020ECE701F0EDF90023C9F808301B
:10332000C9F80430BDE8F0872DE9F04FB1B01C4674
:10333000029190460893069018B1836B002B00F021
:10334000E880029DAB899AB2900407D46A6E43F478
:10335000005322F40051AB819AB26966110740F123
:10336000B780DDF808B0DBF81030002B00F0B0803B
:1033700002F01A020A2A00F0B78000230DF180093A
:103380000A93159314930993CDF84C904E4698F8F0
:103390000030002B00F0C884252B00F0C58408F114
:1033A000010201E0252B04D0137814460132002BD2
:1033B000F8D1C8EB040595B1149B159A01332A4442
:1033C000072BC6F800807560159214937BDD002AE8
:1033D00040F0D5840998149228444E4609902378E9
:1033E000002B00F0ED8300214FF000024FF0FF3C76
:1033F00063788DF8472004918A4604F10108084655
:10340000654608F10108A3F12002582A00F2D9828A
:10341000DFE812F0CB02D702D702D202D702D702DE
:10342000D702D702D702D70282028F02D7028400C6
:103430009302D7022B0196019601960196019601FF
:103440009601960196019601D702D702D702D702BC
:10345000D702D702D702D702D702D7023001D7024C
:10346000D702D702D702D702D702D702D702D70294
:10347000D7027B01D702D702D702D702D702A40115
:10348000D702D702BF01D702D702D702D702D7028D
:10349000D702D702D702D702D702E401FA01D70236
:1034A000D702D7021602FA01D702D7021B02D702AF
:1034B0002802890066027D02D7023A02D70219016A
:1034C000D702D702AF02083609982844099086E748
:1034D0000698029900F0CCFDB0B9029DAA8902F0CD
:1034E0001A020A2A7FF449AFDDF808B0BBF90E30A2
:1034F000002BFFF642AF069859464246234600F09D
:103500003DFD31B0BDE8F08F4FF0FF3031B0BDE888
:10351000F08F00F0DFFE14E7404208934AF0040AFF
:1035200098F800306DE71AF020030490AC4600F0E4
:10353000F480DDF820B00BF1070323F0070303F15B
:1035400008040894D3E9004500234FF0000000214F
:103550008DF84700CDF814C00791BCF1000FA8BF4B
:103560002AF0800A54EA050240F0AD80BCF1000F59
:1035700040F0A980002B40F0C0831AF0010F00F04A
:10358000BC83302330AF07F8413DC7EB09040594F5
:10359000DDF814B0079CE345B8BFE346CDF80CB0A6
:1035A0001CB10BF1010BCDF80CB01AF00205079518
:1035B00005D0DDF80CB00BF1020BCDF80CB01AF011
:1035C00084030B9340F01B82049DDDF80CB0CBEB21
:1035D0000504002C40F31382102C40F38984BE4D67
:1035E000159A2B46149825464FF0100B6446B446A6
:1035F0001E4606E0831C0CF1080C0846103D102DF9
:1036000011DD411C1032072915928CE840081491F5
:10361000F0DD002A40F0E681103D102D4FF001034F
:103620001046CC46EDDC31466646A4462C460D4697
:103630002244072B159235607460149300F36D8358
:103640000836591CDEE11AF0200F0490AC4600F059
:103650008D80089DEB1D23F0070303F1080BD3E9D0
:103660000045CDF820B001236FE74AF0800A98F8B2
:103670000030C6E64AF0100A1AF0200F0490AC465B
:103680008DF8471000F0C880089CE11D21F007016B
:10369000D1E900230831089114461D46002A73F130
:1036A000000BC0F2CE83BCF1000F9DF84700A8BF0D
:1036B0002AF0800A54EA05020790CDF814C04FF0B2
:1036C00001033FF453AF012B00F01983022B0DF1DE
:1036D0007F0340F04C82DDF828B0194604F00F005B
:1036E00022091BF8000042EA05722B09087052EA11
:1036F00003000F4614461D4601F1FF31EED1CDE91E
:103700000E23C7EB0903059342E74AF0100A1AF0AB
:1037100020030490AC467FF40CAF1AF0100240F086
:1037200011831AF0400300F00D83DDF820B013463A
:10373000BBF800400BF1040B0025CDF820B004E7E6
:10374000A3F13002002018F8013B00EB800002EBEF
:103750004000A3F13002092AF5D954E64AF0100AD4
:103760001AF0200F0490AC467FF473AF1AF0100FDC
:1037700040F0EF821AF0400F00F0EB82DDF820B04D
:103780000025BBF800400BF1040B0123CDF820B05D
:10379000DBE6AC46514D1AF0200F04908DF847102F
:1037A0000A9500F0F080089DEA1D22F0070202F160
:1037B000080BCDF820B0D2E900451AF0010F00F057
:1037C000AA8254EA050B00F0A68230228DF8493017
:1037D0004AF0020A8DF848200223B6E6089BDDF87D
:1037E00020B01B6801244FF000050BF1040B04907E
:1037F00003948DF847508DF85830CDF820B00594DB
:1038000016AF4FF0000CD0E61AF0200F0490AC4633
:103810008DF847107FF438AF1AF0100F40F0A782F0
:103820001AF0400F00F0A382DDF820B0BBF9004091
:103830000BF1040BE51722462B46CDF820B02DE7FF
:103840004AF0400A98F80030DBE598F8003042462C
:103850006C2B03BF08F101084AF0200A53784AF0A4
:10386000100ACEE51AF0200F8DF8471000F0F7820D
:10387000089C2168099CE5172B46089D22460435C3
:103880000895C1E9002382E5089CAC4627684FF003
:10389000000504908DF847500434002F00F0328367
:1038A000BCF1000F3846C0F2078362460021CDF814
:1038B00004C001F0E7FBDDF804C0002800F03A8303
:1038C000C01B9DF847506045A8BF6046059008940E
:1038D00007954FF0000C5BE6D4AD0800E4AD08009E
:1038E000089BDDF820B00490B2481C683022782391
:1038F0000BF1040BAC468DF849304AF0020ACDF8C2
:1039000020B000258DF848200A9002231DE64AF0D9
:10391000200A98F8003074E5DDF820B0DBF80000EC
:103920000BF104030028FFF6F7AD089398F8003078
:1039300067E598F800302B2163E598F8003008F12E
:1039400001042A2B00F00583A3F13002092A98BF55
:10395000002500F2FA8214F8013B05EB850502EB25
:103960004505A3F13002092AF5D945EAE575A046D7
:1039700049E5904C1AF0200F0490AC460A948DF85B
:1039800047107FF410AF1AF0100F40F0EA811AF0E0
:10399000400F00F0E681DDF820B00025BBF80040C4
:1039A0000BF1040BCDF820B007E798F800300029A0
:1039B0007FF427AD202124E54AF0010A98F8003071
:1039C0001FE504908DF84710002B00F0F9800125C9
:1039D0004FF0000B03958DF858308DF847B00595E2
:1039E00016AF0EE70698029913AAFFF761FC0028AC
:1039F00040F0ED801498159A431CCC46FEE5149BCC
:103A0000159A591C9DF8470068B101320DF1470025
:103A1000012307291592149186E8090000F36081BB
:103A20000B4608360131079C64B1023212A802230A
:103A300007291592149186E8090000F357810B4677
:103A4000083601310B9D802D00F00181059DC5EBED
:103A50000C04002C2FDD102C574D22DD30464FF08A
:103A6000100B2E462546069C06E003F1020C08309A
:103A70000B46103D102D10DD591C103207291592F0
:103A800080E840081491F0DD002A63D1103D102D2C
:103A90004FF0010C13464846EEDC2C466146354695
:103AA000064622440729159235607460149100F38C
:103AB000C18008360131059D07292A4415923760D7
:103AC0007560149140F3C180002A40F03081149257
:103AD0004E461AF0040F00F08B80049DDDF80CB008
:103AE000CBEB0504002C40F38380102C40F31E82A6
:103AF0001499324D1027DDF818A0DDF808B005E064
:103B0000881C08361946103C102C10DD4B1C103256
:103B1000072B159286E8A0001493F1DD002A7DD1D1
:103B2000103C102C4FF0010011464E46EEDC2244B2
:103B30000728159235607460149059DD002A4FD122
:103B4000099CDDF80CB0049DAB45ACBF5C44641926
:103B500009945EE02046029913AAFFF7A9FB00280A
:103B600035D1149B159A03F1010C484681E7E00812
:103B700040EA457004F00702E908303250EA010BD0
:103B80001F461A7004460D4603F1FF33EFD11AF0B9
:103B9000010FCDE90C01394600F0B980302A3FF41D
:103BA000F4AC1F46C7EB09053023059501F8013C2D
:103BB000EEE400BFF8AD080014AE0800D4AD080074
:103BC000159B23B10698029913AAFFF771FB029C7B
:103BD000A3895B063FF598AC099831B0BDE8F08F3A
:103BE0000698029913AAFFF763FB0028EFD1159AF4
:103BF000099CDDF80CB0049DAB45ACBF5C44641976
:103C0000099432B10698029913AAFFF751FB0028D4
:103C1000DDD1002014904E46FFF7B9BB50465946FF
:103C200013AAFFF745FB0028D1D11499159A481C17
:103C30004E4668E7002A40F0F780059C0123209754
:103C400021941594224614934E46083641E7049D6C
:103C5000DDF80CB0CBEB0504002C7FF7F7AE102C91
:103C6000A64D40F3708129464FF0100B254664465F
:103C7000B4460E4606E0981C0CF1080C0B46103DAD
:103C8000102D0FDD591C1032072915928CE84008C1
:103C90001491F0DDBAB9103D102D4FF0010013461C
:103CA000CC46EFDC33466646A4462C461D462244ED
:103CB0000728159235607460149000F3AF800836C1
:103CC000411C0346C2E60698029913AAFFF7F0FAD0
:103CD00000287FF47CAF149B159A581CCC46CEE785
:103CE000002A79D119464E4613469CE6002A40F038
:103CF0008480012113464E46A4E64F4648E4002D39
:103D000008BF0A2C46D2303430AF07F8414DC7EB1C
:103D1000090305933CE4022317E4002A40F0AF8036
:103D2000134601214E466DE64446FFF758BB069800
:103D3000029913AAFFF7BCFA00287FF448AF159A3E
:103D40004E46C6E6089D2C68043508950025FFF709
:103D5000FCBB089D01232C68043508950025FFF75E
:103D6000F4BB089D2C6804350895002525E5089DC1
:103D70002C6804350895E51722462B468EE40698F4
:103D8000029913AAFFF794FA00287FF420AF4E4659
:103D9000FFF79ABB0DF17F0B03965E46E346204684
:103DA00029460A22002304F0E3FB30323270204619
:103DB00029460A22002304F0DBFB04460D4654EAA0
:103DC0000500374606F1FF36E9D1C7EB0903DC46AB
:103DD000039E0593FFF7DCBB0698029913AACDF862
:103DE00004C0FFF765FADDF804C000287FF4EFAEE9
:103DF000149B159A591C4E4615E60698029913AA6B
:103E0000CDF804C0FFF754FADDF804C000287FF4B1
:103E1000DEAE149B159A591C4E4613E6002A56D165
:103E2000012113464E4611E60698029913AAFFF7A0
:103E30003FFA00287FF4CBAE1499159A01314E4613
:103E400039E64FF02D0B644265EB45058DF847B020
:103E5000CDF81CB0CDF814C00123FFF77EBB1AF0DB
:103E6000100F1DD11AF0400F58D0089DDDF824B076
:103E70002B6804350895A3F800B0FFF788BA0698B8
:103E8000029913AACDF804C0FFF712FADDF804C0B6
:103E900000287FF49CAE149B159A591C4E46B1E540
:103EA000DDF820B0099CDBF800300BF1040BCDF8F5
:103EB00020B01C60FFF76BBA0894FFF77FF89DF8FD
:103EC0004740059007944FF0000CFFF761BB069840
:103ED000029913AACDF804C0FFF7EAF9DDF804C08F
:103EE00000287FF474AE149B159A591C4E46ADE51C
:103EF000149B159A0133024DFFF79ABB14AE0800CC
:103F0000D4AD0800BCF1060F34BF63460623089405
:103F100023EAE37405930394164F72E4089C099D09
:103F20002368043408941D60FFF731BA1498124DC9
:103F30000130FCE59DF84750CDF814C00795089472
:103F40008446FFF725BB0846B1E6A0460025FFF7EB
:103F50005ABADDF820B098F80130DBF800500BF1C8
:103F60000402002D0892A046BFF64BAA4FF0FF3581
:103F7000FFF747BA0CAE0800D4AD08002DE9F047B2
:103F80004F6EADF58D6D88461997D8F81C70B1F855
:103F90000CA0B1F80E900797D8F824701AAC4FF423
:103FA00080652AF0020A002669460094049402956E
:103FB0000595ADF80CA0ADF80E900997069605464C
:103FC000FFF7B2F9041E07DB2846694600F066F9E0
:103FD000B04218BF4FF0FF34BDF80C305B0605D57A
:103FE000B8F80C3043F04003A8F80C3020460DF52B
:103FF0008D6DBDE8F08700BFF0B5141E9BB006467E
:104000001EDB4FF4027214BF04F1FF352546009108
:104010000491ADF80C204FF6FF771A466946209BB5
:1040200002950595ADF80E7001F028FB431CBCBF4E
:104030008B22326014B1009A002111701BB0F0BDC8
:104040008B2303604FF0FF30F8E700BF70B5074CDB
:1040500082B006460D4620681446009331462A4633
:104060002346FFF7C9FF02B070BD00BF98040720C8
:104070002F4B70B5064618680C4610B1826B002AAB
:1040800036D0A589ABB219070CD52269AAB113F0B5
:1040900001011ED0636900215B42A361A160F2B1FE
:1040A000002070BDDA063AD55B0724D4226945F0BA
:1040B0000803A3819BB2002AE9D103F42071B1F572
:1040C000007FE4D03046214600F0D0FCA38922696D
:1040D000DDE7980758BF6169A160002AE0D1A38994
:1040E0001A06DDD543F04003A3814FF0FF3070BDC9
:1040F00000F0F0F8C5E7216B49B104F140039942A3
:1041000003D0304600F02AFAA589002323632269F0
:1041100025F024050021ADB222606160C7E745F0BB
:104120004005092333604FF0FF30A58170BD00BF0B
:1041300098040720024B13B1024800F005B87047FD
:1041400000000000D143080001460020024603465B
:1041500002F0A2BD8B892DE9F0419AB20D461107FC
:1041600080463CD46A6843F40063002AAB8159DD81
:10417000AC6A002C4BD09BB203F48052002192B267
:10418000D8F80060C8F80010002A4FD02A6D5F07E9
:1041900005D569682B6B521A0BB1EB6BD21A4046EE
:1041A000E9690023A047441C4AD0AB892A6923F45B
:1041B00000639BB200212A60DA04AB8169604CD4B1
:1041C000296BC8F8006011B305F14003994202D091
:1041D000404600F0C3F900202863BDE8F0812E6955
:1041E000AEB191072C680CBF6B6900232E60A41B35
:1041F000AB600AE0324623466F6A4046E969B84739
:104200000028C0EB0404064404DD002CF2DC00208E
:10421000BDE8F081AB894FF0FF3043F04003AB8144
:10422000BDE8F081EA6B002AA2DCF0E701234046FA
:10423000E969A047431C02461ED0AB89AC6AA6E7D9
:10424000D8F800305BB9AA89296922F4006292B2D9
:104250006B60D304AA812960B2D52865B0E71D2B15
:1042600001D0162B13D1A9892B6921F400610022FA
:10427000A9812B606A60A3E7D8F80030002BDCD05E
:104280001D2B01D0162BC5D1C8F80060BFE7AB8944
:1042900043F04003AB81BDE8F08100BF10B5044698
:1042A00082B008B1836B53B1B1F90C0008B902B008
:1042B00010BD204602B0BDE81040FFF74BBF019192
:1042C00000F008F80199EFE7014900F09DBB00BF3D
:1042D000517D08002DE9F04F846B83B00746002C18
:1042E00065D17D6833480423032107F53B72F863E9
:1042F000C7F8E412C7F8E822C7F8E04205F15C000D
:10430000AB812C606C60AC606C66EC812C616C6184
:10431000AC6121460822FEF707FEDFF89CB0BE68BC
:10432000DFF898A0DFF89890DFF898800123092241
:10433000ED61C5F820B0C5F824A0C5F82890C5F8EF
:104340002C802146F381B28134607460B46074665D
:1043500034617461B461082206F15C000193FEF7D8
:10436000E3FDFD6812200222F661C6F820B0C6F80F
:1043700024A0C6F82890C6F82C802146A881EA819E
:104380002C606C60AC606C662C616C61AC6105F19A
:104390005C000822FEF7C8FD019BED61C5F820B066
:1043A000C5F824A0C5F82890C5F82C80BB6303B0DD
:1043B000BDE8F08FC9420800F95508001D560800F5
:1043C0005556080075560800704700BF704700BF7B
:1043D00038B5094D094C641BA41018BF05EB8405C2
:1043E00005D0013C55F8043D9847002CF9D1BDE8B3
:1043F000384006F04FBE00BFA0B00800A4B00800CF
:104400002DE9F04193890F46990482B01446804605
:1044100006D4526E43F4005342F40052A381626604
:1044200000F01AFB01283ED03A46404601A904F1AB
:104430005C0302F0E7FB421C06462DD000283AD070
:104440009DF80410002509E02368197023680133E2
:1044500023600135B5422ED201ABE95CA368013B74
:10446000002BA360F0DAA269934206DB236819707F
:104470002368197801330A29EAD14046224602F01E
:104480006DFBB0F1FF33584258410028E1D04FF0A6
:10449000FF3002B0BDE8F081A38943F04003A3815F
:1044A00002B0BDE8F0817B1EFE2BBDD8F9B20646F6
:1044B0008DF80410C6E7384602B0BDE8F08100BFB1
:1044C000F8B5234D0F46044600F08CFEAB685E68DD
:1044D00026F00306F11B01F6EF7121F47F6121F054
:1044E0000F01A1F58057B7F5805F07DB204600215B
:1044F00001F05CF8AB683344984204D0204600F0E9
:1045000073FE0020F8BD2046794201F04FF80130DB
:104510000DD0104BAA681968F61B46F0010620461C
:10452000C91B5660196000F05FFE0120F8BD2046EF
:10453000002101F03BF8AB68C21A0F2ADEDD064D00
:1045400004492D6842F00102401B5A600860D5E71B
:10455000FC040720C4170720080907202DE9F041B3
:104560000D460646002955D000F03CFE55F8041CC7
:10457000DFF870C1A5F1080421F00103E218DCF8AE
:1045800008005768904227F0030768D011F0010136
:10459000576032D00021D0194068C00706D43B4490
:1045A000906800294DD0D268C260906043F001024B
:1045B0006260E350E1B9B3F5007F2DD35A0A042AB3
:1045C00069D89809383041000CEB810CDCF80820E0
:1045D0004449624565D0516821F003018B4202D203
:1045E00092689445F7D1D368E360A2609C60D46080
:1045F0003046BDE8F04100F0F7BD55F8085C0CF11D
:104600000808641BA0682B44404542D0E568C5609B
:10461000A860C0E7BDE8F081DB089A100120904057
:10462000DCF804100CEBC3039A680143A260E3605A
:10463000CCF8041030469C60D460BDE8F04100F036
:10464000D3BD294DA842AED143F00102CCF81440AD
:10465000CCF81040E060A0606260E350C8E71F44FF
:10466000CB0707D455F8081C641AE368A2680F4406
:10467000D3609A601D4B47F001021B6862609F4245
:10468000CCF80840B4D31A4B30461968FFF718FF2E
:10469000AEE701217FE7142A0BD802F15B0041004D
:1046A00092E78010012585404868134628434860FA
:1046B0009AE7542A03D8180B6E30410084E7B2F50C
:1046C000AA7F03D8D80B773041007DE740F25451E0
:1046D0008A4203D8980C7C30410075E7FC217E208B
:1046E00072E700BFFC040720040507200409072027
:1046F000C01707202DE9F04F936883B01646814616
:104700000C462BB38B89190726D5226922B303F0F7
:10471000020292B23568002A2CD04FF0000ADFF86E
:10472000E4B2D046D84534BF43465B46524648467D
:10473000B8F1000F4FD0E169676AB847002856DD2D
:10474000B36882441B1AC0EB0808B360002BE9D1A0
:10475000002003B0BDE8F08F48462146FFF788FCF3
:10476000002840F04681A389356803F0020292B226
:10477000002AD2D113F0010A42D1D046B8F1000F7D
:1047800023D09A05A76876D5B845C0F0A48013F465
:10479000906F40F0B2802068BB4651465A4600F008
:1047A000BBFCA2682168D21B01EB0B03A260236053
:1047B0004246B36892449B1AC2EB0808B360002BD0
:1047C000C6D0A389B8F1000FDBD1D5F800A0D5F889
:1047D00004800835D2E7D5F800A0D5F80480083564
:1047E000A0E748462146FFF759FD002859D0A38984
:1047F00043F040034FF0FF30A38103B0BDE8F08FDA
:104800009246019293469046B8F1000F2BD0019F3B
:10481000002F64D020682169C24534BF5346434607
:1048200088421F46D4F808C0626903D9944463459E
:1048300000F3AE80934236DB1346676A4846E1696F
:104840005A46B847071ED2DDBAEB070A3AD0B3681A
:10485000BB44DB1BC7EB0808B360002B3FF478AF09
:10486000B8F1000FD3D10027D5F800B0D5F80480F7
:1048700001970835C8E720682369984202D8636920
:10488000984572D2B84538BF47463A46514600F07F
:1048900043FCA3682268DB1B3A44A3602260002B20
:1048A0009FD03A4685E71A465946009300F034FCFB
:1048B000009BA1682268C91ABAEB070A1344A160D9
:1048C0002360C4D148462146FFF7E8FC00288ED17A
:1048D000CDF804A0BBE720684746C3465DE75846CD
:1048E0000A21424600F0CEFB00287DD000F1010AEB
:1048F0000127CBEB0A0A01978CE7226821696769D7
:10490000C1EB020C07EB47070CF1010207EBD7776D
:1049100042447F10974234BF17463A465B054DD557
:1049200011464846CDF800C000F010F9DDF800C08F
:104930008346002860D062462169CDF800C0FEF7AA
:104940007DFAA289DDF800C022F4906242F0800274
:10495000A2810BEB0C00CCEB0702C4F810B067612E
:104960002060A2604746C34617E76FF000429045BB
:1049700038BF424692FBF3F202FB03F3676A4846F4
:10498000E1695246B84700287FF731AF024610E789
:1049900062465946CDF800C000F0BEFBDDF800C00D
:1049A00023684846634423602146FFF777FCDDF81F
:1049B00000C000287FF41BAF674645E74846CDF8A6
:1049C00000C000F013FCDDF800C083460028C0D111
:1049D00048462169FFF7C2FDA3890C2223F080031A
:1049E0009BB2C9F8002003E7012708F1010A0197EB
:1049F00010E74FF0FF30ACE60C23C9F80030A38974
:104A0000F6E600BF00FCFF7F2DE9F04110F5387796
:104A1000884619D000267D68BC68013D0ED4A38964
:104A2000013D012B06D9B4F90E302046013301D0E7
:104A3000C04706436B1C04F16804F0D13F68002FA7
:104A4000E9D13046BDE8F0813E463046BDE8F08110
:104A500000487047D8040720014B1868704700BF12
:104A6000F804072000487047A0040720F0B58B89A0
:104A700091B09AB296070C46054637D4B1F90E109C
:104A8000002917DB01AA03F06BF9002810DB029B59
:104A900003F47043B3F500514F424F41B3F5004F5B
:104AA0002CD0A3894FF4806643F40063A3810BE00C
:104AB000A3899AB212F0800F43F40063A38114BF5C
:104AC00040264FF4806600272846314600F03EF825
:104AD000A389002829D01B4A43F08003EA63A381FD
:104AE000206020616661A7B911B0F0BD01F14303F8
:104AF00001220B600B614A6111B0F0BD124AA36A3A
:104B00009342CED1A3894FF480663343A381E664F8
:104B1000DAE72846B4F90E1003F036F90028E3D09E
:104B2000A38943F00103A381DEE79A05DCD404F1F5
:104B3000430243F002030121A381226022616161EB
:104B4000D2E700BFC9420800555608002DE9F04FD2
:104B500001F10B05162D83B0064627D935F0070560
:104B600027D4A94225D8304600F03CFBB5F5FC7FA0
:104B700026D2C14F4FEAD50C07EBCC03DC689C4230
:104B800000F0D2816368E26823F00303234458688D
:104B9000A16840F00105CA60304691605D6000F098
:104BA00023FB0834204603B0BDE8F08F1025A9424E
:104BB000D9D900240C232046336003B0BDE8F08F20
:104BC0005FEA552C00F08980BCF1040F00F260818F
:104BD0004FEA951C0CF1380C4FEA4C01A64F07EB3D
:104BE0008101CC68A14205D10CE0002B79DAE468A0
:104BF000A14207D0626822F00302531B0F2BF4DDA1
:104C00000CF1FF3C0CF1010C9B4B3C6903F1080ECD
:104C1000744500F07E81616821F003014A1B0F2A70
:104C200000F36481002AC3F814E0C3F810E069DAE5
:104C3000B1F5007F80F03A81C9088A104FF0010871
:104C400008FA02F803EBC1015A68886848EA0202D0
:104C5000A060E1605A608C60C4604FEAAC03012040
:104C6000984090425BD8024206D12CF0030C4000E1
:104C700002420CF1040CFAD007EBCC084446E146A2
:104C8000E3689C4207D146E1002A80F25781DB6845
:104C90009C4200F04081596821F003014A1B0F2A11
:104CA000F2DD1C4654F808CFD96845F0010942F0FE
:104CB00001081D44C3F804903046CCF80C10C1F82C
:104CC00008C07D613D61C5F80CE0C5F808E0C5F895
:104CD0000480AA5000F088FA64E77E214FF03F0C70
:104CE0007CE722445068E368A16840F00105CB608E
:104CF00030469960556000F077FA0834204603B0DA
:104D0000BDE8F08F21444B68304643F001034B600F
:104D100000F06AFA0834204603B0BDE8F08FBC68A2
:104D2000636823F00309A94504D3C5EB09030F2BDE
:104D300000F39180514B524A1968136805EB010A40
:104D4000013304EB090B00F061810AF5805A0AF186
:104D50000F0A2AF47F6A2AF00F0A30465146019260
:104D600000F024FCB0F1FF3F8046019A00F0018181
:104D7000834500F2FB80DFF814C1C345DCF8003046
:104D80005344CCF8003000F04A8112683C490132AB
:104D90001BBFCBEB080B5B44C1F80080CCF80030A4
:104DA00018F0070300F01481C3F10802C3F5805323
:104DB00090440833C244CAF30B0ACAEB030A5146B3
:104DC0003046CDF804C000F0F1FB431CDDF804C010
:104DD00000F03581C8EB0002524442F00102DCF8D9
:104DE0000030BC425344C7F80880CCF80030C8F803
:104DF0000420DFF898A015D0B9F10F0F40F2EB8036
:104E00006168A9F10C0222F0070201F0010142EAF7
:104E1000010E0520A1180F2AC4F804E0486088603C
:104E200000F21181174ABC6811688B4288BF136079
:104E3000154A11688B4288BF1360626822F0030232
:104E40009542C5EB020301D80F2B04DC304600F07D
:104E5000CBF90024A6E645F0010243F00103254406
:104E600062603046BD606B6000F0BEF908342046D9
:104E700003B0BDE8F08F00BFFC040720C017072077
:104E800008090720BC170720B8170720C4170720F8
:104E9000BCF1140F61D9BCF1540F00F28F804FEABE
:104EA000153C0CF16E0C4FEA4C0197E64B0A042BB3
:104EB00058D9142B00F2AD8003F15B02500007EBD0
:104EC00080008368DFF8B881834200F08A805A68E6
:104ED00022F00302914202D29B689842F7D1D9682E
:104EE0007A68E160A3608C60DC60B6E645F001079B
:104EF00042F001012544676030465D611D61C5F8DF
:104F00000CE0C5F808E06960AA50083400F06CF9BC
:104F100048E65A68A1E609F1010919F0030F04F106
:104F200008047FF4ADAE2DE004F108036469A342E8
:104F300008BF0CF1020C3FF467AE23E61944486841
:104F40001C4654F8082FDB6840F001054D603046E0
:104F5000D3609A6000F048F924E60CF15B0C4FEA4C
:104F60004C013BE68A0938325000A8E7BC423FF4C6
:104F700002AFBC68626822F0030261E7D8F80080E3
:104F800098457AD11CF0030FA8F108030CF1FF3CFF
:104F9000F4D17B6823EA00037B60400098423FF62F
:104FA000BEAE00283FF4BBAE0342CC467FF464AEF5
:104FB000400003420CF1040CFAD05DE6BCF5AA7F78
:104FC00019D84FEAD53C0CF1770C4FEA4C0105E6B5
:104FD0004FF48053EEE60123C8F804304446002223
:104FE0002EE7921001209040D8F804201946024381
:104FF000C8F8042075E740F254539C451BD84FEA8B
:10500000954C0CF17C0C4FEA4C01E7E50AF1100AD3
:10501000A3E6542B1FD80A0B6E3250004FE7CBF398
:105020000B0100297FF4B1AE0AEB0901BA6841F027
:1050300001015160F6E6FC214FF07E0CCEE5012225
:105040004FF0000ACBE604F108013046FFF786FA7C
:10505000DAF80030E6E6B3F5AA7F03D8CA0B773258
:1050600050002CE740F25452934203D88A0C7C3211
:10507000500024E7FC207E2221E77B688DE700BFFB
:10508000FC040720830770B4C9B240D0541E2AB371
:1050900003788B4223D0431C04E0FCB1057814460E
:1050A0008D421CD013F0030F184604F1FF3203F1B8
:1050B0000103F2D1032C14D8651E54B303788B423C
:1050C0000DD0421C002302E004788C4207D0AB4292
:1050D000104603F1010302F10102F5D1002070BC7A
:1050E000704741EA0126034646EA06461A68184612
:1050F0007240A2F1013525EA020212F0803F03F16D
:105100000403D9D1043C032C1846EFD8D4E7144645
:10511000D0E72046E3E700BF8842F0B410D98C18EE
:10512000A0420DD28518531E42B121462A4611F8DD
:10513000014D013B02F8014D5C1CF8D1F0BC7047F9
:105140000F2A44D940EA01039B0744D1A2F110077A
:105150003F0900EB071610360C460346256810334E
:1051600043F8105C6568103443F80C5C54F8085C34
:1051700043F8085C54F8045C43F8045CB342EDD196
:105180007B1C02F00F0C1B01BCF1030F19440344FC
:1051900023D90E461D46644656F8047B043C032C76
:1051A00045F8047BF8D8ACF1040424F0030404347B
:1051B00002F0030223442144002ABFD01A4411F80C
:1051C000014B03F8014B9342F9D1F0BC7047034601
:1051D000002AF3D1B2E70346F0E76246002AEDD198
:1051E000ACE700BF704700BF704700BF2DE9F04F2C
:1051F0000C4683B090468146002900F0BA80FFF744
:10520000F1FF08F10B0654F8043C162E23F00305B9
:10521000A4F108074BD810210E46B0454CD88D425A
:1052200051DADFF884B37819DBF808E0864500F03E
:10523000A680426822F0010C8444DCF804C01CF013
:10524000010F54D000221046DB076FD454F8083CFD
:10525000C3EB070ADAF8043023F003032B440028D9
:1052600062D0704500F0E98002EB030E8E455BDBF7
:10527000C3688268D046D3609A6058F8081FDAF88D
:105280000C302A1F242ACB60996000F22381132A54
:1052900040F2B08023681B2ACAF808306368CAF855
:1052A0000C3000F22B8108340AF11003A3E026F041
:1052B0000706002E3146B0DA0C230020C9F8003072
:1052C00003B0BDE8F08FA046AA1B0F2A03F001032C
:1052D0001AD82B437B603D446B6843F001036B603D
:1052E0004846FFF781FF404603B0BDE8F08F22F04B
:1052F000030202EB050C8C45A6DBC2688168A04660
:10530000CA6065469160DFE7B919334342F0010096
:105310007B600A4448605368083143F001035360DE
:105320004846FFF71BF9DBE78B4233DA4146484634
:10533000FFF70CFC80460028D2D054F8043CA0F1C2
:10534000080123F001023A44914200F0BC802A1F78
:10535000242A6ED8132A42D80346224611681960BF
:105360005168596092689A6021464846FFF7F6F8FE
:10537000B6E7114603B0BDE8F04FFFF7E7BBDEF834
:10538000042006F1100C22F00302501960453DDAAA
:10539000704659E7D04658F8080FDAF80C102A1F63
:1053A000242AC160886000F2A080132A40F29B800A
:1053B00021681B2ACAF808106168CAF80C1000F2AC
:1053C000B28008340AF1100221681D46116061683C
:1053D00057465160A3689360DAF8043074E7236895
:1053E0001B2A03606368436062D800F1080304F17C
:1053F0000802B3E74346226875461A60626857465A
:105400005A60A2689A60DAF804305DE7831B37447B
:1054100043F00103CBF808707B6054F8043C484625
:1054200003F001031E4344F8046CFFF7DDFE204641
:105430005AE72146FFF770FE96E702EB030C06F1F0
:1054400010029445FFF670AF574657F8081FDAF878
:105450000C302A1F242ACB60996000F28680132A20
:1054600077D923681B2ACAF808306368CAF80C3059
:1054700000F2848008340AF1100322681A6062681E
:105480005A60A2689A60C6EB0C020AEB060342F06F
:105490000102CBF808305A60DAF80430484603F0CD
:1054A00001031E43CAF80460FFF79EFE38461BE75F
:1054B000A368242A8360E368C3602BD000F1100343
:1054C00004F110024AE750F8042CA04622F003022F
:1054D0001544F9E62146404675465746FFF71CFE3F
:1054E000DAF80430F0E642466EE7214640461D46B3
:1054F0005746FFF711FEDAF80430E5E6A368242AE0
:10550000CAF81030E368CAF8143018D010340AF121
:10551000180370E7226900F118030261616904F160
:10552000180241611AE7A168242ACAF81010E1683C
:10553000CAF814100FD010340AF1180244E7226997
:105540000AF12003CAF8182062691834CAF81C202E
:1055500051E73B4691E721690AF12002CAF8181089
:1055600061691834CAF81C102EE721463846CDF878
:1055700004C0FFF7D1FDDDF804C084E7A368242A46
:10558000CAF81030E368CAF8143003D010340AF1B6
:10559000180372E722690AF12003CAF81820626929
:1055A0001834CAF81C2068E7FC04072038B5074CFB
:1055B0000023054608462360FBF70CFC431C00D083
:1055C00038BD2368002BFBD02B6038BDEC170720BB
:1055D00038B5084C00230546084611462360FBF702
:1055E00033FC431C00D038BD2368002BFBD02B605C
:1055F00038BD00BFEC17072010B50C46B1F90E10EE
:1056000002F0F2FE002803DB236D0344236510BD86
:10561000A38923F48053A38110BD00BF2DE9F0417D
:105620000C4689891D46CB051646074606D5B4F9B2
:105630000E100022022302F0B9FBA18921F480514F
:10564000A1813846B4F90E1032462B46BDE8F04130
:1056500001F00EBB10B50C46B1F90E1002F0A6FB1E
:10566000A389421C0EBF23F4805343F4805320656A
:10567000A38110BDB1F90E1001F062BB2DE9F04F0E
:10568000C9B010930C9191460D90FFF7EBF90068AB
:105690001590FDF793FC0C9C1890A3891E0603D56A
:1056A0002369002B01F0818038ACA44608942B9428
:1056B00000250024CDE91645002311932D932C934A
:1056C0001A9319930E93664699F80030002B00F058
:1056D000F880252B00F0F58009F1010201E0252B6F
:1056E00004D0137814460132002BF8D1C9EB04051D
:1056F0007DB12C9B2D9A01332A44072BC6F80090CC
:1057000075602D922C9300F3C28008360E982844C1
:105710000E902378002B00F0C280002394F80180C3
:105720001A468DF88F300F93099304F101094FF059
:10573000FF340A9409F10109A8F12003582B00F263
:10574000C583DFE813F06A02C303C3037102C30316
:10575000C303C303C303C303C30314036603C30325
:105760009D00C000C30378027F027F027F027F0298
:105770007F027F027F027F027F02C303C303C30352
:10578000C303C303C303C303C303C303C30390021D
:105790007103C3037103C303C303C303C3036A03D6
:1057A000C303C3037800C303C303C303C303C30317
:1057B0005900C303C303AF02C303C303C303C3033B
:1057C000C303C303C303C303C303C30337034803B0
:1057D000710371037103FF024803C303C30308038A
:1057E000C303C5027C002003A303C303D902C30380
:1057F0005F00C303C303DE00DDF824C04CF0100CCF
:10580000CDF824C0099CA20600F15483099CE3064C
:1058100000F1BD85DDF824C01CF0400F00F0B78515
:10582000DDF840C00025BCF800400CF1040C012359
:10583000CDF840C08CE0099D45F010050995DDF8D4
:1058400024C01CF0200340F02A83DDF824C01CF0A3
:10585000100240F0A485DDF824C01CF0400300F0E5
:105860009E85DDF840C01346BCF800400CF1040CE6
:105870000025CDF840C06BE00F9C109364420F945C
:10588000099D45F00405099599F8008052E70D98A7
:105890000C992BAA02F0BCFD40B938AE36E72D9B1F
:1058A00023B10D980C992BAA02F0B2FD0C9C0E9816
:1058B000A38913F0400F18BF4FF0FF3049B0BDE887
:1058C000F08F4C4625E799F8008009F10100B8F106
:1058D0002A0F01F00C81A8F13003092B98BF002199
:1058E00001F26B8010F8018B01EB810103EB4101A8
:1058F000A8F13003092BF5D941EAE1710A918146FB
:105900001AE7099DA14CAF061A948DF88F2040F13B
:10591000D181DDF840C00CF1070323F0070303F148
:1059200008041094D3E90045DDF824C01CF0010FF1
:1059300000F0628454EA050000F05E8430234CF0ED
:10594000020C8DF890308DF89180CDF824C00223A0
:105950004FF0000A8DF88FA00A99002905DBDDF8C9
:1059600024C02CF0800CCDF824C054EA050040F08F
:10597000C5820A99002940F0C182002B40F038848A
:10598000DDF824C01CF0010F00F0328448AF302352
:10599000089D07F8413DEC1BDDF828C00025644553
:1059A000A8BFA446CDF82CC01495BAF1000F02D0C0
:1059B0000B9D01350B95099B13F00203129302D046
:1059C0000B9D02350B95DDF824C01CF0840CCDF83E
:1059D0004CC040F090820F9DDDF82CC0CCEB050B45
:1059E000BBF1000F40F38782BBF1100F2D992C9A69
:1059F000DFF8A0A12CDD1B97304657461025CA467C
:105A00000C9EA1460D9C06E0ABF1100BBBF1100FF4
:105A100000F1080017DD01321031072A2D912C9278
:105A200007604560F0DD204631462BAA02F0F0FC0D
:105A300000287FF43BAFABF1100BBBF1100F2D9999
:105A40002C9A38A8E7DC4C46D146BA461B9F06463E
:105A500001320BEB010C072ACDF8B4C02C9286E87A
:105A6000000C00F31A849DF88FA00836BAF1000FDD
:105A70000FD02C9B0CF1010C01330DF18F01012291
:105A8000072BCDF8B4C02C9386E8060000F3A4835E
:105A90000836129B73B12C9B0CF1020C013324A924
:105AA0000222072BCDF8B4C02C9386E8060000F341
:105AB00087830836139D802D00F0CA820A9DC4EBAF
:105AC000050ABAF1000F3BDDBAF1100F2C9B304DE7
:105AD0002BDD0A9432464FF0100B2E4661460D9C8A
