:100000000C94D0000C9401010C9401010C9401019A
:100010000C9401010C9401010C9401010C94010158
:100020000C9401010C9401010C9401010C94010148
:100030000C9401010C9401010C9401010C94010138
:100040000C9401010C9401010C9401010C94010128
:100050000C9401010C9401010C9401010C94EB0827
:100060000C9401010C941F0B0C94550B0C94010182
:100070000C9401010C9401010C9401010C940101F8
:100080000C9401010C9401010C9401010C940101E8
:100090000C9401010C9401010C9401010C940101D8
:1000A0000C9401010C9401010C9401010C940101C8
:1000B0000C9401010C9401010C9401010C940101B8
:1000C0000C9401010C9401010C9401010C940101A8
:1000D0000C9401010C9401010C9401010C94010198
:1000E0000C94010107634236B79BD8A71A396856AA
:1000F00018AEBAAB558C1D3CB7CC5763BD6DEDFD4A
:10010000753EF6177231BF000000803F0800000006
:10011000BE922449123EABAAAA2ABECDCCCC4C3EFC
:1001200000000080BEABAAAAAA3E00000000BF00EB
:100130000000803F0000000000084178D3BB4387E7
:10014000D1133D190E3CC3BD4282AD2B3E68EC82FB
:1001500076BED98FE1A93E4C80EFFFBE01C4FF7F80
:100160003F0000000000028988083EABAAAAAABE90
:10017000000000803F000C94500A0C94F9090C9484
:10018000700A0C947F0B0C94C8090C94D6090C943B
:10019000C60B0C94BC090C94890B0C94EA09890BCE
:1001A00011241FBECFEFD1E2DEBFCDBF00E00CBFF8
:1001B00014E3A0E0B2E0EAE0F6E200E00BBF02C028
:1001C00007900D92AE36B107D9F728E5AEE6B4E355
:1001D00001C01D92A03DB207E1F710E0C0EDD0E0F4
:1001E00000E006C021970109802FFE010E94FB124A
:1001F000CF3CD10780E00807A9F70E94B70B0C9409
:10020000280C0C9400002F923F924F925F926F92B5
:100210007F928F929F92AF92BF92CF92DF92EF9296
:10022000FF920F931F93CF93DF9300D000D0CDB7F1
:10023000DEB72A013B019E838D83C12CD12C760130
:100240008FEF8B83EFEFEC830FEF1FEF312C212C1F
:10025000F0E8F9838A83C414D504E604F704FCF4B7
:10026000ED81FE8181909190A190B190FE83ED830C
:10027000232D322D49815A81C501B4010E94B00E4F
:1002800018163CF4CB82DC828701382C292CA982F9
:10029000BA82FFEFCF1ADF0AEF0AFF0ADCCF6B81C9
:1002A0007C81C80126960FB6F894DEBF0FBECDBF85
:1002B000DF91CF911F910F91FF90EF90DF90CF9042
:1002C000BF90AF909F908F907F906F905F904F9076
:1002D0003F902F9008952F923F924F925F926F928E
:1002E0007F928F929F92AF92BF92CF92DF92EF92C6
:1002F000FF920F931F93CF93DF93CDB7DEB76A972B
:100300000FB6F894DEBF0FBECDBFFC01848195818E
:10031000A681B7818B879C87AD87BE872817390751
:100320004A075B070CF4AFC180809180A280B38044
:10033000C814D904EA04FB040CF4A5C18085918596
:10034000009709F4A3C1228533852115310509F4ED
:100350009DC1788F6F8BFE8BED8B388B2F871A8F1B
:10036000098F9A8789871401D401AA0FBB1FAA0F8E
:10037000BB1FBC8BAB8B1A8B098B1D821E821F820D
:1003800018868D819E81AF81B88588159905AA054B
:10039000BB050CF062C09F899983A88DAA83E9856B
:1003A000FA85FC83EB83412C512C3201C12CD12CDA
:1003B00076018B859C85AD85BE85481659066A06F3
:1003C0007B0634F5A981BA816D917D918D919D91C6
:1003D000BA83A983EB81FC812081318142815381E1
:1003E0000E947B0F9B01AC01C701B6010E94BA0CB1
:1003F0006B017C01FFEF4F1A5F0A6F0A7F0A2B81A6
:100400003C818B899C89280F391F3C832B83D1CF5A
:10041000AF85B8896D917D918D919D91B88BAF8796
:10042000A70196010E94BA0CE989FA896193719338
:1004300081939193FA8BE98B8D819E81AF81B885F1
:100440000196A11DB11D8D839E83AF83B887A985B9
:10045000BA851496BA87A98794CFED89FE898485D9
:1004600095850097D9F490E080E06A960FB6F894ED
:10047000DEBF0FBECDBFDF91CF911F910F91FF90D7
:10048000EF90DF90CF90BF90AF909F908F907F9034
:100490006F905F904F903F902F900895813091051D
:1004A00041F5C12CD12C7601C814D904EA04FB040F
:1004B000D4F6A98DBA8D4D905D906D907C9020E022
:1004C00030E0A901C301B2010E94260D18161CF0EC
:1004D000412C512C3201E98DFA8D41925192619259
:1004E0007192FA8FE98FFFEFCF1ADF0AEF0AFF0A46
:1004F000DBCF8230910589F5C12CD12C7601C8144F
:10050000D904EA04FB040CF0AECFA98DBA8D6D912D
:100510007D918D919D91BA8FA98F90580E94A50DC4
:10052000098D1A8D0450110920E030E040E85FE3A6
:100530000E94BA0C9B01AC0160E070E080E89FE390
:100540000E942B0DF8016083718382839383FFEFF8
:10055000CF1ADF0AEF0AFF0AD2CF8430910501F5E6
:10056000C12CD12C7601C814D904EA04FB040CF088
:100570007ACFA98DBA8D6D917D918D919D91BA8F14
:10058000A98F0E94E80FE98DFA8D349760837183FB
:1005900082839383BFEFCB1ADB0AEB0AFB0AE3CF1C
:1005A000039709F076C00115110509F45CCF6801C5
:1005B000F12CE12C412C512C80E8682E77247A9480
:1005C000E214F304B0F4F60181909190A190B190FF
:1005D0006F019201A301C501B4010E94B00E18166B
:1005E00014F042015301FFEFEF1AFF0A2401350115
:1005F000E7CFF12CE12C812C912C5401E214F3046F
:10060000C0F4D8016D917D918D919D918D019201E4
:10061000A3010E94B90C0E94A50D9B01AC01C5016C
:10062000B4010E94BA0C4B015C01BFEFEB1AFB0A4C
:10063000E5CFC501B4010E94FF0E9B01AC01B201E0
:10064000C3010E94BA0C6B017C0110E000E00215AE
:10065000130508F008CFE98DFA8D619171918191B0
:100660009191FA8FE98FA70196010E94B90C0E941F
:10067000A50DE98DFA8D349760837183828393830E
:100680000F5F1F4FE4CF81E090E0EFCE83E090E07A
:10069000ECCE82E090E0E9CE2F923F924F925F92B3
:1006A0006F927F928F929F92AF92BF92CF92DF9282
:1006B000EF92FF920F931F93CF93DF9300D000D060
:1006C00000D01F92CDB7DEB798878F837E836D836E
:1006D000DC0114960D90BC91A02DBA87A987AB2B95
:1006E00009F4EEC0FC010680F781E02DFA83E9836E
:1006F000EF2B09F4E5C0DC0118962D903C9019977A
:100700002114310409F4DCC04D905D906D907C9013
:10071000B2E04B165104610471040CF4D4C0E985B5
:10072000FA85C480D580E680F7802C153D054E05FE
:100730005F0509F0CBC0DC011A968D909D90AD90BD
:10074000BC901D97BF015C824B8210E000E0442406
:100750004A94542C3201EB81FC810E171F07F9F0EB
:10076000DB01CD90DD90ED90FC90139714968D9168
:100770009D910D90BC91A02D8C159D05AE05BF05DA
:1007800014F4D701C601481659066A067B0614F40C
:100790002C013D010F5F1F4F625F7F4FDCCF841440
:1007A0009504A604B7040CF491C06D817E81EF819D
:1007B000F885FC83EB837501640109811A818985C1
:1007C0009A850E946B01009709F061C08EE090E06D
:1007D0009E838D83412C512C32014394AB81BC818B
:1007E0004D915D916D917C91139714968D919C9193
:1007F0008A019B0101501109210931094016510656
:100800006206730694F5750164018101A5019401E6
:1008100069817A81ED81FE818E0F9F1F0E946B019D
:100820000097A9F5D101E981FA8140E050E0BA01D1
:10083000481559056A057B056CF40D911D912D91A4
:100840003D9101931193219331934F5F5F4F6F4F10
:100850007F4FEECFFFEF4F1A5F0A6F0A7F0A8D813D
:100860009E810E969E838D83B9CF2EE0249FF0014A
:10087000259FF00D11243E97750164018101A501AA
:10088000940169817A818E0F9F1F0E946B012A96C5
:100890000FB6F894DEBF0FBECDBFDF91CF911F9191
:1008A0000F91FF90EF90DF90CF90BF90AF909F900F
:1008B0008F907F906F905F904F903F902F90089512
:1008C00083E090E0E4CF82E090E0E1CF81E090E04F
:1008D000DECF0F931F93CF93DF93EC010E944C0365
:1008E000009769F066277727681B790B072E000CA5
:1008F000880B990BDF91CF911F910F91089528815B
:1009000039814EE0429FC001439F900D1124EC813C
:10091000FD81E80FF91F3E9740815181628173810B
:100920004130510561057105B9F4E885F98501E0AB
:1009300010E0D0E0C0E020E030E040E05FE3608124
:100940007181828193810E94B00E18160CF000E034
:10095000B8018D2F9C2FCECF423051056105710516
:1009600044F088859985DF91CF911F910F910C9468
:1009700003016BEF7FEF8FEF9FEFBCCF9A01AB01CD
:10098000BC0180E092E00C94690441E352E060E035
:1009900070E08CE89DE30E94BE0470935146609322
:1009A00050460895E091393DF0913A3DE55CF24CB6
:1009B000853251F410828BE39DE30E9480081092EF
:1009C0003A3D1092393D089580838091393D909150
:1009D0003A3D8035910550F48091393D90913A3DF2
:1009E000019690933A3D8093393D089580E590E0DB
:1009F000F8CF0E9476080E94CD088EE092E09F9387
:100A00008F930E94460881E0809370348CE192E0DD
:100A10009F938F930E9446080F900F900F900F9016
:100A20000895AF92BF92CF92DF92EF92FF920F9311
:100A30001F93CF93DF93EC018B010E9484081F93D7
:100A40000F9386E292E09F938F930E9446080F9047
:100A50000F900F900F900150110918F00E94C504DB
:100A6000FACF8AE392E09F938F930E944608DF9328
:100A7000CF938AE492E09F938F930E9446080E944E
:100A80003509D62EC72EB82EA92E0F900F900F9095
:100A90000F900F900F90219718F00E94C504FBCF84
:100AA0000E943509162F072FF82EE92EAF92BF921C
:100AB000CF92DF92CDE5D2E0DF93CF930E9446083C
:100AC000EF92FF920F931F93DF93CF930E944608FC
:100AD0008CE692E09F938F930E9446088DB79EB755
:100AE0000E960FB6F8949EBF0FBE8DBFDF91CF91CB
:100AF0001F910F91FF90EF90DF90CF90BF90AF903C
:100B00000C94AC080F931F93FC0160E070E0CB01E4
:100B10004191442391F197FD30C050ED540F5A306C
:100B2000A8F4042E000C550B405351098A01550FAF
:100B3000220B330B44E0660F771F881F991F4A95DD
:100B4000D1F7600F711F821F931FE2CF5FE9540F2F
:100B5000563030F4042E000C550B47555109E6CFA2
:100B60005FEB540F563030F4042E000C550B4753F6
:100B70005109DCCF6FEF7FEFCB011F910F910895EB
:100B80006F927F928F929F92AF92BF92CF92DF929D
:100B9000EF92FF920F931F93CF93DF9300D0CDB7C7
:100BA000DEB740E550E06BE772E00E94380C892B1D
:100BB00009F0F9C06EE772E090E080E00E942B0C33
:100BC0008C0180E892E001151105A1F040E550E0AC
:100BD00069EA72E0C8010E94380C892B09F046C00E
:100BE0006EE772E090E080E00E942B0C009749F4E1
:100BF0008EEA92E09F938F930E9446080F900F9089
:100C000025C00E940A0C909374348093733400972B
:100C100019F48EED92E0EECF10927234109271348E
:100C2000853C28E09207A8F028E02F9324EC2F932E
:100C30009F938F9387E093E09F938F930E94460842
:100C40000F900F900F900F900F900F9090E080E01A
:100C5000ACC09F938F9386E393E09F938F930E9402
:100C600046080F900F900F900F90F0CF40E550E0A6
:100C70006FE473E0C8010E94380C892B09F053C05F
:100C800085E7E82E84E3F82E10E000E095E5C92E14
:100C900093E0D92E2FE5A22E23E0B22E35EA832E43
:100CA00033E0932E4DE5642E43E0742EC801877027
:100CB000992720917334309174340217130768F523
:100CC000892B31F4DF92CF920E9446080F900F904B
:100CD000F70181917F011F928F93BF92AF920E9483
:100CE00046080F5F1F4FC801877099270F900F901C
:100CF0000F900F90892B39F0809173349091743458
:100D00000817190739F49F928F920E9446080F9096
:100D10000F90CCCF7F926F92F8CF892B09F496CFAA
:100D200085EA93E067CF60E570E0C8010E94820821
:100D30006C0184E693E0C0FC5DCF1B82809073342D
:100D4000909074347801CE0101965C01C701801B3C
:100D5000910B8C159D0508F079CFF701808189836F
:100D600081818A83C5010E94820597FF05C0BF92D9
:100D7000AF928BE893E071CF20917134309172344F
:100D8000F901EB58FB4C6083C901019690937234D2
:100D900080937134F2E0EF0EF11C88159905B1F6DD
:100DA00088EA93E027CF81E090E00F900F900F90BA
:100DB000DF91CF911F910F91FF90EF90DF90CF9037
:100DC000BF90AF909F908F907F906F900895CF933A
:100DD000DF93EC0140E550E066EB73E00E94380CD5
:100DE000892B09F58EEB93E09F938F938FEC93E023
:100DF0009F938F930E94460880EE93E09F938F937A
:100E000088EE93E09F938F930E9446088DB79EB71C
:100E100008960FB6F8949EBF0FBE8DBF90E080E09D
:100E2000DF91CF91089540E550E067EF73E0CE0188
:100E30000E94380C892B71F41F9284E08F938DEF00
:100E400093E09F938F930E9446080F900F900F900E
:100E50000F90E4CF40E550E06CE074E0CE010E94DA
:100E6000380C892B09F05BC08EEB93E09F938F9336
:100E700081E194E09F938F930E94460885EA93E076
:100E80009F938F930E94460886E194E09F938F93EF
:100E90000E9446088EE394E09F938F930E94460839
:100EA0008CE694E09F938F930E94460882E994E039
:100EB0009F938F930E94460884EC94E09F938F93B6
:100EC0000E9446088BEF94E09F938F930E94460800
:100ED00081E395E09F938F930E9446088DE495E00F
:100EE0009F938F930E9446088DE795E09F938F9381
:100EF0000E94460884EC95E09F938F930E944608D9
:100F000083EF95E09F938F930E9446088DB79EB71D
:100F10004C960FB6F8949EBF0FBE8DBF7FCFCE010B
:100F20000E94C005892B09F479CF40E550E067E2C3
:100F300076E0CE010E94380C892BA1F56EE772E0B5
:100F400090E080E00E942B0C009701F10E940A0CB7
:100F5000181619064CF08DE296E09F938F930E942D
:100F600046080F900F905ACFD82FC92F6EE772E026
:100F700090E080E00E942B0C009789F00E940A0C00
:100F8000BC0197FF07C083E596E0E7CF6AE070E019
:100F9000D1E0C0E08D2F9C2F0E9411053FCF6AE069
:100FA00070E0F8CF40E550E066E776E0CE010E94C1
:100FB000380C892B19F40E94AC0830CF81E090E006
:100FC0002FCFCF93DF9320917034222349F16EE726
:100FD00072E00E942B0CEC0140E550E06EE776E0F9
:100FE0000E94380C892BF9F480EE93E09F938F9345
:100FF00083E896E09F938F9387E896E09F938F9383
:101000000E9446080F900F900F900F900F900F9036
:101010008CE192E09F938F930E9446080F900F906F
:10102000DF91CF91089540E550E068E976E0CE0188
:101030000E94380C892B19F40E946308E9CFCE0175
:101040000E94E706892B21F3DF93CF9382EA96E093
:101050009F938F930E9446080F900F900F900F90D0
:10106000D7CFCF93DF93C0917134D09172346C1786
:101070007D0708F4EB01009729F0AE0165E774E302
:101080000E942F0CCE01DF91CF910895CF93DF9373
:10109000CDB7DEB79E012A5F3F4FF90141915191D3
:1010A0009F0160E570E08AED97E50E94800C1816BC
:1010B000190634F46AED77E583E398E50E94020CA3
:1010C000DF91CF9108950E9435099F938F937F936D
:1010D0006F938DE592E09F938F930E9446080F9047
:1010E0000F900F900F900F900F90089586E094E36B
:1010F0009F938F930E9446080F900F900C94630863
:101100000C94E1070C94460CCF93DF9364EC78E0E9
:101110008CE89DE30E943108EC01845C98400497C0
:10112000B8F082E08F9381E38F93CE0196958795F7
:10113000969587959F938F9385E294E39F938F93E2
:101140000E9446080F900F900F900F900F900F90F5
:10115000CE01DF91CF9108958DE494E39F938F9317
:101160000E944608809151468F93809150468F93FC
:1011700089E594E39F938F930E94460884EA93E065
:101180009F938F930E9446088DB79EB708960FB61F
:10119000F8949EBF0FBE8DBF0895089583E398E530
:1011A0000E94D609089526E040E052EC61E070E02C
:1011B00083E398E50E94BD0A0C94F90483E398E563
:1011C0000E94BC09181619062CF40E94CE080E9431
:1011D000D204F4CF08951F920F920FB60F921124EC
:1011E0002F933F938F939F93AF93BF9380912B58EF
:1011F00090912C58A0912D58B0912E5830912A588A
:1012000023E0230F2D3758F50196A11DB11D209322
:101210002A5880932B5890932C58A0932D58B09314
:101220002E5880912F5890913058A0913158B091FC
:1012300032580196A11DB11D80932F5890933058BC
:10124000A0933158B0933258BF91AF919F918F9135
:101250003F912F910F900FBE0F901F90189526E889
:10126000230F0296A11DB11DD2CF3FB7F8948091F4
:101270002F5890913058A0913158B091325826B5DE
:10128000A89B05C02F3F19F00196A11DB11D3FBFBE
:10129000BA2FA92F982F8827BC01CD01620F711D8D
:1012A000811D911D42E0660F771F881F991F4A9587
:1012B000D1F70895789484B5826084BD84B5816047
:1012C00084BD85B5826085BD85B5816085BDEEE64E
:1012D000F0E0808181608083E1E8F0E0108280812D
:1012E00082608083808181608083E0E8F0E080819B
:1012F00081608083E1EBF0E0808184608083E0EBBB
:10130000F0E0808181608083E1E9F0E080818260AB
:101310008083808181608083E0E9F0E0808181606A
:101320008083E1EAF0E08081826080838081816057
:101330008083E0EAF0E0808181608083E1E2F1E097
:10134000808182608083808181608083E0E2F1E03F
:10135000808181608083EAE7F0E08081846080831F
:1013600080818260808380818160808380818068C9
:1013700080831092C1000895FC01918D228D892FE8
:1013800090E0805C9F4F821B91098F73992708958D
:10139000FC01918D828D981731F0828DE80FF11D3F
:1013A000858D90E008958FEF9FEF0895FC01918D5A
:1013B000828D981761F0A28DAE0FBF2FB11D5D9683
:1013C0008C91928D9F5F9F73928F90E008958FEF25
:1013D0009FEF0895FC01538D448D252F30E0842F1D
:1013E00090E0821B930B541710F0CF96089501974D
:1013F00008958FE79BE0892B49F080E090E0892BEE
:1014000029F00E947F0B81110E94000080E090E093
:10141000892B49F080E090E0892B29F00E940000A0
:1014200081110E94000080E090E0892B49F080E06B
:1014300090E0892B29F00E94000081110E94000099
:1014400080E090E0892B49F080E090E0892B29F042
:101450000E94000081110C9400000895FC01A48DED
:10146000A80FB92FB11DA35ABF4F2C91848D90E0C6
:1014700001968F739927848FA689B7892C93A089A9
:10148000B1898C91837080648C93938D848D981333
:1014900006C00288F389E02D80818F7D80830895C6
:1014A000CF93DF93EC01888D8823B9F0AA89BB899B
:1014B000E889F9898C9185FD03C0808186FD0DC086
:1014C0000FB607FCF7CF8C9185FFF2CF808185FFA7
:1014D000EDCFCE010E942E0AE9CFDF91CF91089582
:1014E000EF92FF920F931F93CF93DF93EC0181E074
:1014F000888F9B8D8C8D98131AC0E889F98980811B
:1015000085FF15C09FB7F894EE89FF896083E8894D
:10151000F98980818370806480839FBF81E090E03F
:10152000DF91CF911F910F91FF90EF900895F62ECC
:101530000B8D10E00F5F1F4F0F731127E02E8C8D66
:101540008E110CC00FB607FCFACFE889F9898081AB
:1015500085FFF5CFCE010E942E0AF1CFEB8DEC0F67
:10156000FD2FF11DE35AFF4FF0829FB7F8940B8FC8
:10157000EA89FB8980818062CFCFCF92DF92EF92A0
:10158000FF921F93CF93DF93EC016A017B01122F2F
:10159000E889F98982E08083C11481EED806E104EC
:1015A000F104A1F060E079E08DE390E0A7019601FD
:1015B0000E94D91221503109410951095695479588
:1015C00037952795211580E1380798F0E889F98942
:1015D000108260E874E88EE190E0A70196010E9415
:1015E000D91221503109410951095695479537952E
:1015F0002795EC85FD853083EE85FF852083188E49
:10160000EC89FD891083EA89FB8980818061808370
:10161000EA89FB89808188608083EA89FB898081EF
:1016200080688083EA89FB8980818F7D8083DF9158
:10163000CF911F91FF90EF90DF90CF9008951F9270
:101640000F920FB60F9211240BB60F922F938F9318
:101650009F93EF93FF93E0914358F091445880811A
:10166000E0914958F0914A5882FD1DC090818091C7
:101670004C588F5F8F7320914D58821741F0E09145
:101680004C58F0E0ED5CF74A958F80934C58FF91F1
:10169000EF919F918F912F910F900BBE0F900FBEE6
:1016A0000F901F9018958081F2CF1F920F920FB666
:1016B0000F9211240BB60F922F933F934F935F938A
:1016C0006F937F938F939F93AF93BF93EF93FF930A
:1016D00083E398E50E942E0AFF91EF91BF91AF91AD
:1016E0009F918F917F916F915F914F913F912F913A
:1016F0000F900BBE0F900FBE0F901F90189583E3B5
:1017000098E50E94BC0921E0892B09F420E0822F92
:101710000895E3E3F8E51382128288EE93E0A0E0F7
:10172000B0E084839583A683B78380E694E39183B6
:10173000808385EC90E09587848784EC90E09787A0
:10174000868780EC90E0918B808B81EC90E0938B8E
:10175000828B82EC90E0958B848B86EC90E0978B6B
:10176000868B118E128E138E148E089508950E940A
:101770005A090E94B60B0E94D308C9EFD9E00E9413
:10178000DE082097E1F30E94F909F9CFAF92BF92EA
:10179000CF92DF92EF92FF920F931F93CF93DF933D
:1017A0006C017B018B01040F151FEB015E01AE186C
:1017B000BF08C017D10759F06991D601ED91FC918E
:1017C0000190F081E02DC6011995892B79F7C501AB
:1017D000DF91CF911F910F91FF90EF90DF90CF900D
:1017E000BF90AF900895FB0101900020E9F7319779
:1017F000AF01461B570BDC01ED91FC910280F38198
:10180000E02D19946115710511F00C94F30B90E023
:1018100080E00895FC0188279927E89421912032DF
:10182000E9F3293010F02E30C8F32B3241F02D327D
:1018300039F4689404C00E94780C820F911D2191A4
:1018400020532A30C0F31EF4909581959F4F089540
:10185000F8940C9403134EE654E30C94510CFB01E2
:10186000DC0102C001900D9241505040D8F708951C
:10187000FB01DC014150504030F08D910190801906
:1018800019F40020B9F7881B990B0895FC016150E9
:10189000704001900110D8F7809590958E0F9F1F92
:1018A0000895FA01A191B081009719F41097E1F021
:1018B000CD01DC01CD010D90002011F4C00113C059
:1018C000FB012191222319F02015D9F7F3CFFB0159
:1018D0002191201519F41E92119606C02223C1F7FA
:1018E0000D900020A1F7D001FA01A193B0830895D3
:1018F0007AE0979F902D879F802D910D1124089558
:101900000F931F93CF93DF93CDB7DEB72E970FB60C
:10191000F894DEBF0FBECDBF8C01FA0186E08C8348
:101920001A83098377FF02C060E070E86150710993
:101930007E836D83A901BF01CE0101960E941C1018
:101940004D815E8157FD0AC02F81388542175307AC
:101950000CF49A01020F131FF80110822E960FB695
:10196000F894DEBF0FBECDBFDF91CF911F910F91D5
:1019700008955058BB27AA270E94D10C0C94760ECC
:101980000E94680E38F00E946F0E20F039F49F3FDD
:1019900019F426F40C943E0E0EF4E095E7FB0C943B
:1019A000380EE92F0E94870E58F3BA1762077307A3
:1019B0008407950720F079F4A6F50C94A90E0EF48F
:1019C000E0950B2EBA2FA02D0B01B90190010C014F
:1019D000CA01A0011124FF27591B99F0593F50F467
:1019E000503E68F11A16F040A22F232F342F4427BF
:1019F000585FF3CF469537952795A795F0405395B7
:101A0000C9F77EF41F16BA0B620B730B840BBAF086
:101A10009150A1F0FF0FBB1F661F771F881FC2F7F1
:101A20000EC0BA0F621F731F841F48F48795779505
:101A30006795B795F7959E3F08F0B0CF9395880FBF
:101A400008F09927EE0F9795879508950E94140E38
:101A500008F481E008950E943F0D0C94760E0E94D8
:101A60006F0E58F00E94680E40F029F45F3F29F095
:101A70000C94380E51110C94AA0E0C943E0E0E9438
:101A8000870E68F39923B1F3552391F3951B550BFA
:101A9000BB27AA2762177307840738F09F5F5F4F41
:101AA000220F331F441FAA1FA9F335D00E2E3AF080
:101AB000E0E832D091505040E695001CCAF72BD098
:101AC000FE2F29D0660F771F881FBB1F26173707E9
:101AD0004807AB07B0E809F0BB0B802DBF01FF271B
:101AE00093585F4F3AF09E3F510578F00C94380EB2
:101AF0000C94AA0E5F3FE4F3983ED4F38695779555
:101B00006795B795F7959F5FC9F7880F911D9695D3
:101B1000879597F90895E1E0660F771F881FBB1F2F
:101B2000621773078407BA0720F0621B730B840BDC
:101B3000BA0BEE1F88F7E095089529F416F00C947F
:101B4000380E0C94A90E0C943E0E0E948F0EA8F332
:101B50009638A0F707F80F92E8942BE33AEA48EB9F
:101B60005FE70E94910F0F920F920F924DB75EB7F1
:101B70000F920E94470FE4EEF0E00E94410E4F9159
:101B80005F91EF91FF91E595EE1FFF1F49F0FE5722
:101B9000E0684427EE0F441FFA95E1F74195550B95
:101BA0000E94C10E0F9007FE0C94B50E0895E894A4
:101BB00009C097FB3EF490958095709561957F4F95
:101BC0008F4F9F4F9923A9F0F92F96E9BB27939543
:101BD000F695879577956795B795F111F8CFFAF453
:101BE000BB0F11F460FF1BC06F5F7F4F8F4F9F4F84
:101BF00016C0882311F096E911C0772321F09EE8E2
:101C0000872F762F05C0662371F096E8862F70E047
:101C100060E02AF09A95660F771F881FDAF7880F21
:101C20009695879597F90895990F0008550FAA0B77
:101C3000E0E8FEEF16161706E807F907C0F01216DF
:101C40001306E407F50798F0621B730B840B950BE2
:101C500039F40A2661F0232B242B252B21F4089537
:101C60000A2609F4A140A6958FEF811D811D0895D4
:101C700097F99F6780E870E060E008959FEF80EC3F
:101C80000895DF93CF931F930F93FF92EF92DF920C
:101C90007B018C01689406C0DA2EEF010E948E0F42
:101CA000FE01E894A5912591359145915591A6F3B2
:101CB000EF010E94D10CFE019701A801DA9469F7A7
:101CC000DF90EF90FF900F911F91CF91DF910895DA
:101CD00000240A941616170618060906089500240B
:101CE0000A9412161306140605060895092E039485
:101CF000000C11F4882352F0BB0F40F4BF2B11F4F9
:101D000060FF04C06F5F7F4F8F4F9F4F089557FD57
:101D10009058440F551F59F05F3F71F04795880F59
:101D200097FB991F61F09F3F79F0879508951216F0
:101D300013061406551FF2CF4695F1DF08C016169C
:101D400017061806991FF1CF86957105610508944D
:101D50000895E894BB2766277727CB0197F9089564
:101D60000E94140E08F48FEF08959B01AC0160E00F
:101D700070E080E89FE30C942B0D0C94380E0C94CB
:101D8000B7120E948F0ED8F39923C9F3940F511DF7
:101D9000A3F39150504094F059F0882332F0660F2D
:101DA000771F881F91505040C1F79E3F51052CF777
:101DB000880F911D9695879597F908955F3FACF030
:101DC000983E9CF0BB27869577956795B79508F464
:101DD000B1609395C1F7BB0F58F711F460FFE8CFDE
:101DE0006F5F7F4F8F4F9F4FE3CF0C94AA0E16F07B
:101DF0000C94B7120C943E0E68940C94380E0E940A
:101E00008F0EA8F39923C1F3AEF3DF93CF931F9303
:101E10000F93FF92C92FDD2788232AF02197660FA1
:101E2000771F881FDAF720E030E040E85FEB9FE3A0
:101E3000883920F0803E38F021968F770E94BA0CC6
:101E4000ECE0F1E004C00E94BA0CE9E3F1E00E948A
:101E5000410E8B01BE01EC01FB2E6F577109759588
:101E6000771F880B990B0E94D90D28E132E741E3D7
:101E70005FE30E948E0FAF2D9801AE01FF900F918E
:101E80001F91CF91DF910E94D10C0C94760EFA0134
:101E9000DC01AA0FBB1F9B01AC01BF5728F422270E
:101EA00033274427507820C0B75190F4AB2F00243B
:101EB000469537952795011CA395D2F3002071F024
:101EC000220F331F441FB395DAF30ED00C94B90CD4
:101ED00061307105A0E88A07B94630F49B01AC0176
:101EE0006627772788279078309621F020833183E2
:101EF0004283538308950E948E0F0C94760E0E94A5
:101F0000680E38F00E946F0E20F0952311F00C94AB
:101F1000380E0C943E0E11240C94AA0E0E94870ECB
:101F200070F3959FC1F3950F50E0551F629FF0012C
:101F3000729FBB27F00DB11D639FAA27F00DB11D45
:101F4000AA1F649F6627B00DA11D661F829F2227CE
:101F5000B00DA11D621F739FB00DA11D621F839F55
:101F6000A00D611D221F749F3327A00D611D231F2B
:101F7000849F600D211D822F762F6A2F11249F5779
:101F800050409AF0F1F088234AF0EE0FFF1FBB1F7C
:101F9000661F771F881F91505040A9F79E3F51053B
:101FA00080F00C94380E0C94AA0E5F3FE4F3983E38
:101FB000D4F3869577956795B795F795E7959F5FE5
:101FC000C1F7FE2B880F911D9695879597F9089577
:101FD0009F939F77FEE380319F0728F4E6E6F1E0C8
:101FE0000E94C51225C0906841E050E00E94C10ED9
:101FF0000E94A50D9F938F937F936F9320E030E015
:1020000040E85FE30E94BA0C2F913F914F915F919E
:102010009F938F937F936F9360E070E080E89FE3DE
:102020000E94B90C2F913F914F915F910E942B0D0F
:102030000F9007FC905808952F923F924F925F9215
:102040006F927F928F929F92AF92BF92CF92DF92C8
:10205000EF92FF920F931F93CF93DF9300D000D0A6
:1020600000D01F921F92CDB7DEB77C013B018A01E1
:10207000FC0117821682838181FFDDC1CE010196AA
:102080005C01F7019381F30193FD859193FF8191A9
:102090003F01882309F453C1853239F493FD8591BA
:1020A00093FF81913F01853229F4B70190E00E94AE
:1020B0002912E7CF912C212C312CFFE1F31538F0B8
:1020C0008B3211F190F4803209F1833229F137FC1F
:1020D0003CC020ED280F2A3050F536FE20C08AE0A3
:1020E000989E200D1124922E06C08D3291F08033DF
:1020F00071F7689430F8F30193FD859193FF819116
:102100003F018111DACF21C0689431F8689432F828
:10211000F2CF689433F8EFCF689434F8ECCFEAE06C
:102120002E9E200D1124222E689435F8E4CF8E3295
:1021300029F436FC04C1689436F8DDCF8C3619F4E6
:10214000689437F8D8CF8836B1F2982F9F7D955490
:102150009330E0F08336A1F18337C1F1833509F084
:1021600063C02801F2E04F0E511CF801C080D180FD
:10217000692D70E036FC02C06FEF7FEFC6010E9450
:102180001E124C01689437F882010AC00C5F1F4F81
:10219000FFE3F98388248394912C6501E89437F850
:1021A00033FE2DC0522C8114910471F5552009F491
:1021B00068CFB70180E290E00E9429125A94F6CFCE
:1021C000F801808189830E5F1F4FE4CF2801F2E080
:1021D0004F0E511CF801C080D180692D70E036FC93
:1021E00002C06FEF7FEFC6010E94460C4C018201D6
:1021F000D5CFB70180E290E00E9429122A942814DA
:10220000190409F0B0F7CECFF60137FC859137FEFF
:1022100081916F01B70190E00E94291251105A94E8
:10222000F1E08F1A9108BFCF843619F0893609F092
:1022300077C0F80137FE6BC0608171818281938124
:102240000C5F1F4FF32DFF763F2E97FF09C090952F
:102250008095709561957F4F8F4F9F4F689437F8A9
:102260002AE030E0A5010E945912C82ECA188C2C11
:10227000432C36FE0CC0E89440F8C91440F434FEF8
:1022800005C032FC03C0F32DFE7E4F2E892C44FE88
:10229000AAC0FE01EC0DF11D8081803309F09CC0C5
:1022A000242D297E422E842D8870582E43FCAAC0EE
:1022B00040FEA4C09C2C821418F42C0C922C98186C
:1022C00044FEA6C0B70180E390E00E94291242FEBE
:1022D00009C088E790E041FE02C088E590E0B701C0
:1022E0000E942912C91408F49FC0CA94D12C9FEFF0
:1022F000C91AD90ACA0CDB1CF60182916F01B70119
:1023000090E00E942912AC14BD04B1F74FCF608158
:102310007181072E000C880B990B0E5F1F4F92CF17
:10232000D32CE894D4F82AE030E08537E1F1232D6E
:10233000297FD22E8F36A9F1F0F4883551F1F701BB
:10234000868197812B960FB6F894DEBF0FBECDBF66
:10235000DF91CF911F910F91FF90EF90DF90CF9081
:10236000BF90AF909F908F907F906F905F904F90B5
:102370003F902F900895803749F0883701F7D4FEB9
:1023800002C06894D2F820E130E00DC06894D4F81F
:10239000F6CF34FE03C0822F8660D82E20E132E0D3
:1023A00002C028E030E0F801D7FE0FC060817181E3
:1023B000828193810C5F1F4FA5010E945912C82E84
:1023C000CA183D2CE89437F852CF6081718190E0B3
:1023D00080E00E5F1F4FF0CF42FC02C0839463CFBA
:1023E0008394839460CF842D867809F45CCFF6CFF4
:1023F000B70180E290E00E94291283948214C0F316
:10240000512C5ECF522C5818821408F459CFF8CFB3
:10241000842D867809F466CF8BE241FE80E247FC8A
:102420008DE2B70190E05CCFB70180E390E00E94BD
:1024300029129A9457CF8FEF9FEF84CFFC0105901C
:10244000615070400110D8F7809590958E0F9F1FB6
:1024500008950F931F93CF93DF93182F092FEB014C
:102460008B8181FD09C01FEF0FEF812F902FDF912E
:10247000CF911F910F91089582FF14C02E813F814B
:102480008C819D81281739073CF4E881F981CF01BF
:1024900001969983888310838E819F8101969F8303
:1024A0008E83E3CFE885F985812F1995892BA1F3D8
:1024B000DACFFA01AA27283051F1203181F1E894CE
:1024C0006F936E7F6E5F7F4F8F4F9F4FAF4FB1E027
:1024D0003ED0B4E03CD0670F781F891F9A1FA11D22
:1024E000680F791F8A1F911DA11D6A0F711D811D23
:1024F000911DA11D20D009F468943F912AE0269FE8
:1025000011243019305D3193DEF6CF010895462F46
:102510004770405D4193B3E00FD0C9F7F6CF462F27
:102520004F70405D4A3318F0495D31FD4052419390
:1025300002D0A9F7EACFB4E0A6959795879577954D
:102540006795BA95C9F700976105710508959B01D4
:10255000AC010A2E06945795479537952795BA955D
:10256000C9F7620F731F841F951FA01D08959F3F19
:1025700031F0915020F4879577956795B795880F3E
:10258000911D9695879597F908959F938F937F93C3
:102590006F93FF93EF939B01AC010E947B0FEF9130
:1025A000FF910E94410E2F913F914F915F910C94AA
:1025B0007B0FA1E21A2EAA1BBB1BFD010DC0AA1F97
:1025C000BB1FEE1FFF1FA217B307E407F50720F09C
:1025D000A21BB30BE40BF50B661F771F881F991F17
:1025E0001A9469F760957095809590959B01AC0160
:1025F000BD01CF010895EE0FFF1F881F8BBF07900D
:0A260000F691E02D1994F894FFCF35
:10260A0003000000BC06164F5246310200006D2D31
:10261A00696E69742D646F6E650D0A006D2D7265A1
:10262A006164790D0A006D2D7761726D75702D7375
:10263A00746172742D25640D0A006D2D7761726DB7
:10264A0075702D646F6E650D0A006D2D696E666575
:10265A00722D73746172742D25640D0A006D2D6CD0
:10266A0061702D75732D256C750D0A006D2D696EBF
:10267A006665722D646F6E650D0A00646200200043
:10268A00652D5B436F6D6D616E6420276462272040
:10269A007265717569726573206120737562636F03
:1026AA006D6D616E645D0D0A006C6F616400652D6D
:1026BA005B436F6D6D616E6420276462206C6F618D
:1026CA006427207265717569726573207468652064
:1026DA0023206F662062797465735D0D0A00652D8B
:1026EA005B436F6D6D616E6420276462206C6F615D
:1026FA006427206D757374206265203E30206279EC
:10270A007465735D0D0A00537570706C6965642099
:10271A006275666665722073697A6520256420652C
:10272A00786365656473206D6178696D756D206F76
:10273A00662025640A006D2D5B45787065637469AF
:10274A006E672025642062797465735D0D0A0070D6
:10275A0072696E74006D2D6275666665722D00254C
:10276A0030327800652D5B496E73756666696365FC
:10277A006E74206E756D626572206F66206865786A
:10278A00206469676974735D0D0A00652D5B496E83
:10279A0076616C6964206865782064696769742069
:1027AA00272573275D0D0A006D2D6C6F61642D64FA
:1027BA006F6E650D0A0070726F66696C65004D4C2C
:1027CA004D61726B496E6F2056302E302E31006D7E
:1027DA002D70726F66696C652D5B25735D0D0A003D
:1027EA00656D6C6561726E006D2D6D6F64656C2D23
:1027FA005B25735D0D0A006673697A65006D2D6647
:10280A0073697A652D5B25645D0D0A0068656C70D5
:10281A000025730D0A0068656C7020202020202096
:10282A002020203A205072696E74207468697320DF
:10283A00696E666F726D6174696F6E0D0A006E6102
:10284A006D652020202020202020203A2050726907
:10285A006E7420746865206E616D65206F662074E1
:10286A006865206465766963650D0A0074696D653B
:10287A00737473616D702020203A2047656E65720B
:10288A0061746520612074696D657473616D700D82
:10289A000A00646220535542434D44202020203AC6
:1028AA00204D616E6970756C617465206120676581
:1028BA006E65726963206279746520627566666501
:1028CA00720D0A0020206C6F6164204E20202020A7
:1028DA00203A20416C6C6F63617465204E206279E6
:1028EA0074657320616E6420736574206C6F616413
:1028FA0020636F756E7465720D0A00202064622071
:10290A0048485B48485D2A203A204C6F6164203869
:10291A002D62697420686578206279746528732944
:10292A0020756E74696C204E2062797465730D0A85
:10293A000020207072696E74205B4E3D31365D2036
:10294A005B6F66667365743D305D0D0A002020205A
:10295A00202020202020202020203A205072696E3A
:10296A0074204E206279746573206174206F6666E4
:10297A00736574206173206865780D0A00696E6654
:10298A006572204E205B573D305D3A204C6F616482
:10299A0020696E7075742C2065786563757465207E
:1029AA004E20696E666572656E6365732061667432
:1029BA0065722057207761726D7570206C6F6F7029
:1029CA00730D0A00726573756C74732020202020C1
:1029DA00203A2052657475726E207468652072659B
:1029EA0073756C74206670333220766563746F7207
:1029FA000D0A006673697A65202020202020202095
:102A0A003A2052657475726E20696E70757420660C
:102A1A006561747572652073697A6520696E2062D2
:102A2A00797465730D0A00696E66657200652D5BBF
:102A3A00496E666572656E63652069746572617454
:102A4A00696F6E73206D757374206265203E305D08
:102A5A000D0A00652D5B496E666572656E636520B9
:102A6A007761726D7570206D757374206265203E92
:102A7A003D305D0D0A00726573756C7473006E618A
:102A8A006D6500647574006D2D6E616D652D25731D
:102A9A002D5B25735D0D0A0074696D657374616D34
:102AAA007000652D5B556E6B6E6F776E20636F6D70
:102ABA006D616E643A2025735D0D0A000500000001
:102ACA003102000032081E0801000600000005005D
:102ADA000000A6078E07010006000000060000009D
:102AEA00FE06E6060300A9ECB9C0EB5B234194A5F8
:102AFA00B9407D5BD6BFEF0298C063623CC00C2030
:102B0A0024BF8C4A223F317834BF8FE0263EC8D09A
:102B1A00D13D321EE53E9A5F4DBE5709A4BFAEF0C5
:102B2A003EBE2FFB25BE6E18B9BF9D101E4022E384
:102B3A0076402B35F73F11E24A4004E843C0388714
:102B4A0059C02904B2BFECC009BEA14AE9BFF03698
:102B5A00A7BE04AE953F93520D40E1CED5BED7D95C
:102B6A0044BF94C1ED3FA31FB9BFF20C903FE816D2
:102B7A005ABFC6A394BE749912BF7C9ABBBF7DB0DC
:102B8A003CBF4017913FBB0AE93F4358213F8DB7ED
:102B9A00A53E56F3C43E9DD67D3E85B32BBF336D0D
:102BAA00133FD95B3A3F2EABB8BED4299FBE7DD026
:102BBA0083BF4C8821BF855C0DBFC2689EBE2CEFC7
:102BCA0002BF4BEA1F40C68B25BE68CD97BF5D6F1B
:102BDA0017BF637EAEBE70B3F8BEDCD7A9BF40FB99
:102BEA0015BF0EDCFD3F06D6813FF7936D3F4E7D44
:102BFA0014BF359680BF6E69353FD386F3BE948481
:102C0A0018C0F18323BFBE2EEBBE2D93A13E7FF9E0
:102C1A0041C0B01D7C3F7783243F244782BED10741
:102C2A001BBE77F84BBE17D833BEF1680F3FECF6E0
:102C3A00D9BCF98527BE57EAB1BE9510AC3C753BA5
:102C4A005B3EC72E09BF9F94C9BEB1C473BE75212E
:102C5A0016BEC87B05BE643E503E07B319BEAEEF32
:102C6A0043BD275044BC3B38683E8C10D6BE8717FC
:102C7A000C3FF354E7BD753C26BDEE7CBFBD0B9AF5
:102C8A0076BEB553F33C6517CC3DB61345BE46D266
:102C9A00A63E8731893DDE21AD3E2C822FBE0BEC4C
:102CAA0089BE029A183EBC794ABEE4BD6A3EB63075
:102CBA000BBEEF75D23CBA4CCD3DFA7B29BE596C9E
:102CCA00B3BDAEBB793D8E76BCBD47744F3E323D37
:102CDA00613D9698CF3EC4EB7ABDEA067ABE0B45B3
:102CEA008A3EF697B5BE16F8123FCF82D0BC82A9AB
:102CFA00C6BD5AF579BD2B518EBEDCD54B3E81B08F
:102D0A00133DF62410BECDAFE63BABD12BBD6C967E
:102D1A008F3F3830593E5DC49FBEF17EA4BE032763
:102D2A004BBE1976D0BE13BAABBDD2557A3DCA4E48
:102D3A007FBD5262D7BC61E38ABE0F48C2BC1A1A71
:102D4A00EF3D265305BD0B7E5B3DFDDBE5BCF983FC
:102D5A0001BC2384C7BCF98612BEEB1B883EE63D44
:102D6A002E3E5CAF693C59FB1BBE8A91653E0A1335
:102D7A0006BE7CF09A3D2A1E57BEF581C43D5CFF13
:102D8A006E3D734A90BEC9CCC53D1B659D3DB29C44
:102D9A0004BC3273C13D88F11A3E081EDFBCE468E8
:102DAA000E3C016814BE88D7353E100490BE64CF2D
:102DBA001EBE50FB8DBDC02495BDAC19593E63EEB5
:102DCA005ABE3DB9363EBC78FF3D435978BD27DE31
:102DDA00013E08ACFC3D94DEFF3E333288BE601FE4
:102DEA003DBE7310643EBE692ABE477710BD89B3E3
:102DFA0022BDDE3C553DAF5A113FA890BBBED3134E
:102E0A008EBE5D3123BDCBBFBEBE4F3D063FC1A7BF
:102E1A00793D0B09C0BE026749BE7A38E1BE62BA83
:102E2A00043F0F43EBBDA4E3E2BE8B170B3D488B77
:102E3A00933ED36A58BE26C6D23D1EFBD93D52B92F
:102E4A00893D40DAFF3B76F9B63D844886BB795D19
:102E5A003FBA8998F23D861E51BEAF5A193DDB6BC7
:102E6A00993E8DB67ABE176621BDA983BCBE170FDF
:102E7A00EF3CA4DEF3BD2312853DBB4475BDD1E909
:102E8A00B93DA93086BE3869DABD118F44BDB4CACE
:102E9A00AC3D546EE2BDA65F623DAFE9813D7C9BCD
:102EAA007E3B4D1100BEFD161D3DEBABA33E37FE2A
:102EBA00043D73649DBEFEF023BE7921F5BE8BA945
:102ECA0074BD8753E63EFB57F6BD71E6D7BC61A7D2
:102EDA00483E4C88A1BE1A89B03DA705AFBD11E195
:102EEA000F3E6E680ABD520B953E5C5691BEC1FDFF
:102EFA00A03DF0882A3E376F3CBE73B9013D15C725
:102F0A00C13DBCE92E3FB76081BEB7EFB1BE6B10C1
:102F1A0042BFCDAFCE3E343012BEF8A6913E19AEB6
:102F2A0084BF7863993EEBC5C0BE23BE073FAD168A
:102F3A00583C44C382BDE57A5B3BE10A48BF45BBC6
:102F4A002EBF376F04BF417E063F200DA73DA4A9BF
:102F5A00323F0E862EBFF626ECBF9221C73FC976B6
:102F6A00D63ED7A215BE3BA844BE1991083E427868
:102F7A00CABF8DB4B43D9087AA3F2101233DBE88C4
:102F8A00F63D13F106BEF6D40ABE19AE9E3E26E2FF
:102F9A00EDBE7FA02C3E7156543E22E2663DB43E01
:102FAA0015BE6A4E6EBEDD60C83D828C80BB56621D
:102FBA001EBE7766B23E399938BC42EC0C3D4DD6FE
:102FCA00683E6C5C7FBEFBAEC83DD59400BF4832FC
:102FDA00833E06804A3EDDCEBEBCE6408FBDA20ED1
:102FEA000BBEB9FAB13C87A3EB3D763664BED6FC7C
:102FFA00D03EC66B0EBE1F308F3D67F0473EECBE1B
:10300A00C3BEBD73683DB55240BFE350F9BFC1A806
:10301A00BC3FD6A7D43EF39114BDC6FB89BE67D583
:10302A00673E7C46CEBFFA5F6E3D4E7AA73F994A0D
:10303A001F3E2B163F3D47CB01BD99F31CBE689638
:10304A00DC3EB7972CBF41F4E4BF35ECC13FD578DD
:10305A00D93E39F240BDA0DE2CBE982F0F3E1C0986
:10306A00CABF92CE00BD95F3973F519FA43D211D43
:10307A009EBCBAA42ABD813F9CBD32ADFD3E4DC067
:10308A002FBCE3C2D9BE9B1B973F058842BEDA1A02
:10309A00A93E314555BF71AEC7BFC11AA73FF08AD5
:1030AA00E83ED21998BE643A963F67EDB83FEA5AAD
:1030BA0033BF50C31FBFDF8A543ECB2CC23E753D7F
:1030CA00B13F2A919CBFBDAA33BEF819073EE3A4BB
:1030DA0030BFA3E7163E1805E13DF6287C3E6AC0DC
:1030EA0040BE616C21BD9ACC283E39D57A3E2A8DE4
:1030FA0028BE0B47103E97390DBE3B8C09BE2E7673
:10310A004B3E15E582BEAA66D6BDA9680C3FD8D645
:10311A00EF3E7A89D13E1E87D1BEBB0F003EAD3548
:10312A00E43E24D577BD493005BF01DB49BFE2043F
:10313A00A03FD09889BEF33977BE6B7EAC3EB360B0
:10314A00E2BC2B170EBFBD3934BFCBA0DABC5F255A
:10315A000F3E02BBAA3EC6E12C3E2E90C83E8578A1
:10316A0024BDF1B7DDBDD59319BEEFE20DBEF94E10
:10317A009CBE4C8DD03D02D96B3D41F0383DD66F97
:10318A00863E001B903C64CBB2BD868D223E6458BD
:10319A008D3E2FA5C6BE55DB4DBEC9915EBE3963B5
:1031AA0080BE2192C93E5E6658BC486C873E8B54ED
:1031BA00903ED0ED453E73B8B6BE05F9D9BA15585A
:1031CA0060BE2EC610BE4B765CBE156FAC3E232C7D
:1031DA008A3D41D3023E857ABA3D3D0A773E191CA3
:1031EA0075BE61374C3E207DB33DC590943E75CC8B
:1031FA0069BE8CDC033EA168A6BE65A6F4BD946DCB
:10320A00A0BE419D023E95B939BD9547273E344738
:10321A00B63DCDE6A13E9F5BE8BD41D7DE3D2462C7
:10322A00AABE946819BEC5C97DBE7AC5533E40BDC3
:10323A00D9BD2E8C643ED00A8C3C40A2993EFA0934
:10324A00C7BEC442AD3DB7ED3BBE46EA0D3EB42112
:10325A007F3EC344C33D1DE889BEE5ECFD3D85B50F
:10326A0099BE1B9F09BD36CAFA3DD103FFBD884CE2
:10327A00193FB62F203C27840EBD58E407BE100222
:10328A00F23D2D9818BE919AF6BD912A0A3D74B75F
:10329A00CB3DA4E0A9BD4B91FC3CE2ABDD3D54E043
:1032AA00E43DED4875BD6CEABCBC76C0353E5017AE
:1032BA00293E8467823D7E3888BD1F675A3E67472C
:1032CA00EABDB85B12BD198DBCBD2D794CBE1CB5CB
:1032DA00323EB03DD3BD32CAB3BCEAEC24BD63F082
:1032EA0020BE78F17E3EA72275BEC139533E4CDE20
:1032FA0080BC89428BBD963E043E7C6192BD8EACF9
:10330A009C3D4B74F63DC0415BBEEF54983EC36191
:10331A0009BE412A853D5551BCBC8E5956BE2FDE89
:10332A002F3E01DE32BE2272FABEE0BB0DBE322251
:10333A00113DE755013FBDE5DABE9351A53D8AAF80
:10334A0036BDDEE7383DDD7A853E0B2A2ABEE84CDB
:10335A00823E77DB553E795848BEF90FE93D2C0E7F
:10336A00DFBE053590BFE25847BE124CD5BDBB261D
:10337A009C3E05FAA4BDD8D223BDDA55C83D2CD748
:10338A00DB3C810A87BE7974A3BC5796283E745DDC
:10339A00783CE2E5393E4F22AABE8F72B83E9BE3E3
:1033AA001C3DF71F993D6B4731BDC250E73DBC59E3
:1033BA0013BED0647FBB50AA7D3DC806D23CE92922
:1033CA00B23D46CE12BE0DA8073E4AB20EBD7BD70D
:1033DA0040BEC8D2873DA85233BDF832013EEBAA9F
:1033EA00603E1D9400BEB3B4D33C6B9994BE2D9934
:1033FA00BB3EDE02C93DB62B743C787D363E185D75
:10340A001EBE4CE0D63DA4FF653D973842BE98C328
:10341A000E3E3D0E433DE2C8033DE57A5B3EF6278C
:10342A0099BEFB1F983E7C9A93BEEC4F82BD8A726E
:10343A00E93CB2D8A6BED74B073FACE378BD36E528
:10344A003ABED7C22CBD04AD403B069D183F62BBB5
:10345A002BBE92CC8ABDC573B63A054FE1BE0ED8D3
:10346A00253F91994B3D49BD8FBE983531BDB1E09D
:10347A009E3EA0C48FBEFB22213CAC3980BE97E39E
:10348A0015BEFD6BF93EA376FF3DFED4783D467B23
:10349A0094BE438F18BD94DBAE3EADA455BD747B7C
:1034AA00C93D82C995BE39D6453CD1EA64BBBB4603
:1034BA004BBCE6B1263D7D58CF3D8C15453EE29189
:1034CA00483EFD3258BE043978BE4FCEB03E9A7798
:1034DA001C3C57EB843ED0D07FBEFC6D8FBEAD1531
:1034EA00AD3D21B0D23D50FD43BD1212093ECC087C
:1034FA00AF3D9AEF803D21E46CBE5F440B3F6936D5
:10350A000FBE77491CBFEC3151BD87F8073C43A970
:10351A00ED3E18E965BE151ED4BD8543EFBEC4B1A4
:10352A007E3E60769F3E8332A53E12120DBF8F8D7E
:10353A0020BEA65FA23C39D1AE3E6FF28B3E3B1B4A
:10354A0032BE1C07BEBE698F8F3ED78AD6BD74EEC7
:10355A00063E782A80BE7F122BBFACE54E3D9B8F7C
:10356A000FBFF662043F3DD5B9BE23F48BBF454871
:10357A005DBDFD3387BFF1A02D3F2E910BBE69E3E0
:10358A00803E425DA4BDCDE546BD889DB9BE10AE64
:10359A00443F215B463ED89D6E3DF20A443D904C25
:1035AA00C7BD4C188DBE1408A3BE906777BEA08B0A
:1035BA00AE3E36933F3EE738F7BD27888A3E4B93A7
:1035CA00223EE78BAD3E4F06A73D674835BE1D211B
:1035DA00D33E73BB07BE991033BDD95BCA3D36AC27
:1035EA00E9BE7715523D8257AB3DC82691BE000110
:1035FA00933EA14C53BE2843853E9FE78F3DDD781D
:10360A00B7BDE273673DE1B636BB3CBEFD3DF1BDD9
:10361A003FBD27F5A53D7DE7573EDFFBCBBE5F25C6
:10362A009F3C61C4BE3D0D6DA0BE2CF28B3E4DBACF
:10363A009DBE419FD83E2B2F293E58702FBE9C35E8
:10364A0098BD6D1FF23C520F553F62F8483DE2208B
:10365A00A13DD07D79BE0E4AB0BE32CA333E204368
:10366A00A7BD22C5A0BDD5083D3D352AD0BD7347AB
:10367A00DF3E06D41B3EF4311FBE8ECD4E3D36B121
:10368A00C0BCE448EFBE0E2D723D487003BE96CD15
:10369A00DC3D7ADF783ECB119ABE41444ABE2DCE3C
:1036AA00983CC713813DF354073C43E2D63E0F7E54
:1036BA00323E20EDBF3D838696BEDDEA893EEF3B72
:1036CA00663EBB9BA7BC855EBFBE7175A83E18EA65
:1036DA0030BDB82106BE35B326BEAE11E1BD86C9DE
:1036EA00A43E6A1678BE280F4B3DE3AA023EF1BCFF
:1036FA00F4BDA9F81F3E5B5E59BEB0ABA93D823945
:10370A00FA3DF5824FBD5BCE25BE76529F3D47CA34
:10371A0036BE3E0435BEB6DB2EBDFC38EA3E01DDC0
:10372A00FFBE6744493E7C9928BDA3AF88BEDDB27F
:10373A00633EAB7883BE8389673FF965403E2E5767
:10374A002FBEA4FCA4BECF101E3E0E8315BFAABA7C
:10375A00473EAB092A3F3EB3343F5A29B2BF2367DB
:10376A00093FC4D230BE97AA14BE1493773D59A517
:10377A0034BD55889FBE47CA26BE906B33BE23D739
:10378A001D3F8D7C863E1E521C3EC022FFBDE15E5F
:10379A007DBF10CCF1BE1A31CB3FD7F88C3DE6760F
:1037AA000F3E6C265F3EC45E883ED89B00BF19ABB5
:1037BA00DDBE5A9DFCBD1E4E483F16A4B93EB5C695
:1037CA002CBF4CA7EDBE32AE28BE3CA2C2BC2E55C1
:1037DA00693D840DCFBDB9E2DA3E4CC46B3E6189C6
:1037EA00373F5F5DCDBE6FBBD0BEDA73993B8B8727
:1037FA00F7BCE14048BE2768633E185C333E9546F5
:10380A0084BE484E263D3B7244BEBAC0A53DEF3940
:10381A00903EED830CBF236771BE5E81283EE35361
:10382A00A03EBDFD21BF58E7903E9C35783E8508F5
:10383A00803E8D6314BFA395DB3D37DE1D3DEA7ADA
:10384A0002BE833087BE9294EC3E702450BB2D5B3F
:10385A00F3BEF4C5DE3D012F233EB80335BD7DE935
:10386A001DBEEE3F42BFD4D5BDBDF3C7AC3E1E6DF3
:10387A00FC3E81D0D2BE3E24683FB0204D3C4793E7
:10388A00073F024B66BFDC9E983E172EB3BE1970E7
:10389A00B6BD5A46EABE5987233D4353D63E7A718E
:1038AA00E23E09A7353F8E3DA3BE7369BC3DCE8C6F
:1038BA0032BF1B2AC63DBE686FBE5A9B063D09A78A
:1038CA0085BC19E78F3D185E09BEBC3FBEBDCDAFB2
:1038DA0066BC328FFC3D658E65BDAA0B38BDADDE78
:1038EA00A13D54FEB5BC9C6A8D3DFF91693D4D2FAB
:1038FA00913D11A8DE3DA81BA8BC09FB563E01FA62
:10390A00FDBCEEB435BDFF78CF3D3BAA1A3BFCC4E3
:10391A00213E4EB70CBEA98695BE155795BD056CBE
:10392A0037BE460CDB3E9F398BBDBEA1983E41B8DF
:10393A00423EA6F060BD40DAFF3CEF556BBD007415
:10394A00983CED46DF3DEF379ABDD506473E880FD6
:10395A000CBEB9E2F2BEFFAEAFBD12F823BEBEBFC7
:10396A00113FB821A6BD323ECC3E118CB33E6E1833
:10397A00453D240B18BDEDBB62BD3A93D6BE931AE2
:10398A005ABC603E593D6F9CB43EEDB6CBBD9CC25D
:10399A0006BFADA66B3CF8A413BD31EA063F00038F
:1039AA0001BE5681FABD0C7643BD67804BBED0D3AB
:1039BA0000BEC1FFF63DFAEF51BE9FE343BE2EAAF9
:1039CA00A53D9948C9BDB341363EC7F2F6BEB37D9F
:1039DA00A8BD2BDC723C6BD699BC37FC8EBDF77741
:1039EA0006BEE2AB9D3D016E16BEEEB2973E5B5D32
:1039FA00AEBD9D7FFB3D26E4C33D80D6FCBA1D1DAE
:103A0A0097BD3D277D3EC02029BD7D043E3E1BA0BB
:103A1A00D4BDD4B78C3D5E9E8EBD16A7D2BE933759
:103A2A00C0BDC22FB5BD4B57803E4089CF3D16154C
:103A3A00213FE2E48E3EB8E7F9BC732E45BC433918
:103A4A0051BD2DE85DBE12898A3E1BF445BE076250
:103A5A00C13EC6FB21BED1901DBF71CB073D2C488C
:103A6A0073BE395F243F5B5F94BE87BFBEBEC7F299
:103A7A002E3D96E9813F10CB523F5BCE89BFFE4770
:103A8A00E6BD8DB6EA3D0933CDBE8924063F8125C0
:103A9A00573D5AB8AC3D0A11D0BDC495F3BD6A3141
:103AAA00D83E8D2A23BE87F8133F17450FBD813FA5
:103ABA0088BF20D530BF6364C33F3221163F05F962
:103ACA00793EAD859DBF6DE36FBE10218A3FD7DB7E
:103ADA00663EA2B251BE5F9804BFD3A389BDCA3362
:103AEA00673F7DEB83BD2C6614BE4B22FB3BECDCAF
:103AFA00F43DF2B11B3EF3AC383F300EEE3DEE23FF
:103B0A00133F5FB423BF87FAA5BEEB8F643F0E1243
:103B1A00CA3E9296A23E733013BF5DE278BEB60FDC
:103B2A00F9BC36943A3E8126523E1DCCE6BDCC28DD
:103B3A00163C5115033EE1B4D83EADA61F3FE1ED58
:103B4A00C1BC61C1C5BE297B433F2E1D8B3E51BE00
:103B5A00603DE16057BF5951B33E03B56C3FCC9904
:103B6A006DBC22DE06BF427709BD1DE8513E0E1527
:103B7A00633D645C213E4963B4BD86E860BE1C793E
:103B8A00703EAB0962BDA48BEDBD80D2983EB77E74
:103B9A00BABD55A5B5BE821E76BF89EE09BEE73706
:103BAA0044BF2DCE303F4963F43E8C4AA6BF118AEA
:103BBA00FDBEBB611BBEA0FF2E3FD751C5BE23BAB7
:103BCA0027BFEF56BEBE132D19BEF8371C3FCEC213
:103BDA0016BFD55A283E2FDF7ABA64E682BDD506CB
:103BEA00773E65FD36BEEB1B983E312552BEF6CFB9
:103BFA0053BC7DCB2CBE69C8D8BD5BE9853ED0D20B
:103C0A00F5BDA7EA9E3D558932BC8DF171BE7C4750
:103C1A009D3EABB30ABE572250BD1A35BFBD5BCD20
:103C2A00DABD0916473ED5CDA53D399B9EBEE58036
:103C3A00DD3E029E54BEB3CDCD3D5F7990BB0A2DC9
:103C4A00ABBDE7E0813EA795A2BD2D3EA5BDE50926
:103C5A0054BE52D5E4BD5FD2B83D90F8D5BD809C24
:103C6A0040BE55DECEBD9E0C4EBD463F5A3E410E6D
:103C7A008ABD8ECCA3BDD53F88BB643C7ABEDAE44C
:103C8A00F83E526257BD33A40ABF404C9A3E895D42
:103C9A001B3D069D983EDC0D123E4837823EA5DB51
:103CAA0002BE0FEFB93C9F8F42BE80643ABDD976FF
:103CBA00823E7CD3F4BC45BD603DB493C1BDF94995
:103CCA00353D91D6283E6DC8DF3D6FF025BE76FAA8
:103CDA00C1BD7B690ABAABAE533E684108BE56BC49
:103CEA0021BEE71D873E771241BE53AE883EA7022A
:103CFA00EEBCCFDB18BD30D5CCBB908889BD191C72
:103D0A00653E1EFAAEBDDDEEE53C9738F23B971BE9
:103D1A008CBD78D0AC3E3AADDB3BDAE646BB95BA11
:103D2A00A4BD79213DBE26C8583E5C574C3BC155BF
:103D3A00BEBE9831953EB53502BEB6A1623E5D184B
:103D4A00693CCB1017BEB3CF533E8AAE1BBE15E2F9
:103D5A00113DC02079BEF183F33CAC704B3E246424
:103D6A0030BE583829BEB6B931BD93E198BDCAFBF9
:103D7A00F83D73DA53BD2925043DC5FE923D7E37D1
:103D8A002DBEF032EB3ECBDA86BD87151ABF5740FF
:103D9A00013E0070EC3DB9C1503E0247A23D098A7E
:103DAA00A73E74D1A0BE12A59DBD9C1A28BD079638
:103DBA0063BE97FF303EF8A619BE0A2CE03D1D01EE
:103DCA00DCBCF27B9BBC39F2403E88694F3E062A36
:103DDA00C3BD58AB16BE587596BD7B4DAF3DF96451
:103DEA00C5BB5DC532BE47C96B3E8881CEBDC8948E
:103DFA003FBE16FB0B3D672703BCBE13CB3EA29604
:103E0A0016BE97E27ABE4F05BCBDB329D7BD4F781F
:103E1A00D13ED61F81BEE083073E266D6A3D18B0AB
:103E2A00243D062F6A3ED75115BE006F01BDC22F31
:103E3A00453E360487BDB7296E3EEE9323BBA67D69
:103E4A00D33D488787BC977369BDC1E5713EB0739E
:103E5A00B3BDE2EA803D621058BD3A58FFBD26C59F
:103E6A00073DE2784EBE4ED307BE82E6D3BD84F448
:103E7A00D4BDC782CA3E9AB4C1BE3BA814BE1A6F4B
:103E8A008BBD242753BEFB04D03E76FD22BEF67DB1
:103E9A0038BD97E10F3E26FFE33E11726EBE99D9F7
:103EAA00673DF88D0F3E05BF4DBD64CDC83D6474B6
:103EBA00E03D3909253C984FA6BE079829BE6F9C5C
:103ECA0014BDA6ED1F3EC40AD7BD9143443EAD3092
:103EDA00FDBCDAC702BF978F24BCD28FAE3EA5A421
:103EEA00E73D4E5EE4BC3258A9BE4DF79A3EDBA5CB
:103EFA00ADBD8B355C3E16855D3DB308C5BC6CAF68
:103F0A00053E9BAAABBE83DF06BCCB84DFBCFDBBF0
:103F1A007EBD5227303EBCAD34BE6B9A033F7577E7
:103F2A009D3C10762ABE14E9BEBD957C84BEFEEE89
:103F3A009D3EC154033EB83C96BE6ABD2F3EA0C208
:103F4A00F13D2AAB693DE7C674BB6D537CBEB840F0
:103F5A00AA3EE8DB22BEAA9B8BBD2E02A3BD0306A6
:103F6A00A9BD97C4B93DD02702BE0D532BBE2B6DF8
:103F7A00313DF110AEBE3909BD3E23F49BBEB4916A
:103F8A007BBE55C1683DB8590CBEFF1F133F3B8F1E
:103F9A000ABED68E32BEEB01F3BBD6C9593D02D951
:103FAA00AB3DCCD2AE3EA60A263E4B39BF3D7A6E19
:103FBA00C1BD7F8722BB37719ABE3CBE3DBDCFA42F
:103FCA000D3DD28A3F3E0C3ECDBC4149513EF79150
:103FDA00BBBDF4FAC3BECB8675BE9A60083EF2CE6C
:103FEA0089BE0872D0BD8A76553EF629C7BB2AC754
:103FFA00843E5AF032BE3A08BABC8105003E912A84
:10400A000A3CA7CBC23DFC00A4BC97007CBD97E547
:10401A003B3E94A516BD5D18593E2384E7BD90DD4D
:10402A0015BE1E1B01BD6CCDD63CEA240B3E503694
:10403A0015BECA6ADA3D8A94663EFF41A4BD802D48
:10404A000F3E55F99EBD4F5AB8BC5053AB3D9D82A9
:10405A00FCBD350B343E1A8950BDC1745A3D40151A
:10406A00773E371B6BBD3F00E93D22C2BF3C4F90F4
:10407A00B8BDE57C313EB0389CBC4911A93E3B37FE
:10408A004DBE471C02BE0938043DE5D0C23D83340B
:10409A001F3F5BE9B5BE03CDC73E0C02CB3DF65EC2
:1040AA00C43E0420DEBE527FBD3C012F03BE1897DA
:1040BA00EA3D035F89BE2A8BE23D9B8F0BBEC0CDD2
:1040CA0022BE1FF828BEA1142DBB240F8C3E3A76BF
:1040DA0000BE5EBD8ABDEECE1ABD179A3BBE7D3EBE
:1040EA00CABBC4D2D83E030ACD3E3196E93CAD6B79
:1040FA0004BE50E4093D8FFE87BE371B2BBD333407
:10410A009E3BDCA161BE79AF6A3E124F36BDE99B88
:10411A00F43D151D493CF67D38BE8E90413E4B5A02
:10412A0061BEC2DA103F2A7288BD6C2108BD5BB13C
:10413A007FBDA0A51BBE5C3AE63CE659C93CBB7BE9
:10414A0080BD9069953E5B3F7D3D679A203E2F3347
:10415A008CBD6BF42ABEB1F80D3E7502A2BE64CBCB
:10416A000A3F35B22BBDEF2036BE43E389B9CC25D1
:10417A0005BE0723363DDEFF473D70D284BE40159B
:10418A00773E0FB4023D08559A3E8B7013BCD4801B
:10419A0011BEB802923E2EC71BBE69AD083FE16050
:1041AA000FBE93C6C8BD06D4BBBD310967BE4E7EDD
:1041BA000BBC508D973D51FA02BD0613973E81B054
:1041CA00133E74B6E83EBFD15EBEF45251BED39FD1
:1041DA004D3E56B835BE815D0D3DD1CF04BEC8D225
:1041EA0057BEF46DC13C020EC1BDD38598BD21AF47
:1041FA00A73D2BDB87BD784405BD9411973D721A04
:10420A009A3EB16C063EEC3327BDA5F5F7BDBF2C2F
:10421A006DBC14238B3E91EE67BDC18CA9BDCB4BFF
:10422A00FE3D807D14BEB131CF3DC3B83BBEBC77E5
:10423A00D43B6BF3FF3B624999BEC72ED13C889EA3
:10424A00143DD5268EBDA65E473E7EE1553D7C9B3C
:10425A001E3E82026FBCEBC811BD96B3B73D486DD6
:10426A00BABE685A123EB0C8AFBC973812BE0DC665
:10427A00A83D2D27E1BDDAE7D93EB2F24B3C2DE944
:10428A0008BEBD01863D69E4F3BCAC1B3F3ECBA032
:10429A003A3E7AC8F4BD5473393EFCE222BE54FD5C
:1042AA008A3D6ADF1CBD909EA2BD7B4A9E3EBCB180
:1042BA0040BE74623FBE5CAA123D4F03C63D27BE94
:1042CA000A3F99F497BE804A95BBD1CD7EBBD732BF
:1042DA00B1BEA08CC13E072667BEB5A699BE3D9C5D
:1042EA00003DD3F9703E5F4631BBE2CC6F3EFDD84C
:1042FA00843D12F552BECF15C5BEBDA89D3D30D432
:10430A00613E6E8B123E616FE23D304C66BEBF2845
:10431A00C1BD1E5076BDC9CA43BFAFCDC63D5ABD49
:10432A00033E52491D3D912C403EF19B12BE218F06
:10433A00E03D3A5B503E7D1F3EBE4641003E62670D
:10434A001EBFDA1B5C3E6DE1393ED9B4923D1D1E9B
:10435A0052BE7105403F98301ABCB80430BE467D43
:10436A0022BE51A47B3E19C5263F037D623E6631BB
:10437A00D1BDB7EB8DBEA96C283E9832B0BDCD95A4
:10438A00893E902FB13E5A2B6ABE20B2C0BE3B1A5C
:10439A0047BD5F62DC3E4582A93E29925FBEA18588
:1043AA00ACBE3046A43C3A93F6BD51A5863DB090CA
:1043BA00793D5D1849BE90F8B53E116FBDBD64796F
:1043CA00173EC7F50FBECB9C3EBE3E5A0CBEB5FC8F
:1043DA0080BECE6D123E4D848D3DAE2950BE7EE527
:1043EA00713E255C68BE2448A5BC7CED193C739ED1
:1043FA0031BD9B54343E3B8C913E2BA4FC3C307F18
:10440A0085BC3205EB3C711FB9BDB422EA3CE220FF
:10441A00A1BD3F8EE63AAEEF13BE2B18353E90A2F1
:10442A004E3B672618BDA513093DFD6993BE9A77D1
:10443A001CBD308226BEB6114FBD30BD7D3C810504
:10444A0000BEE3C542BAC6C220BE8FC2D5BDBEF900
:10445A004DBD00AD79BE4C8B2A3ECC798EBE4D1334
:10446A00B6BD30125ABCD39F4DBE08914C3DEBC429
:10447A0045BEE337A53D72DD243ECA522BBEE27427
:10448A00123E3813433E71AEE1BC645B463DABED70
:10449A00663D2601CA3DFE286A3CDDCEBE3BA33AF4
:1044AA00BD3DC30F86BEDAAAA43C045428BE848349
:1044BA003D3C87C17C3C1EFD7FBE8331C23D36EA4E
:1044CA00A9BE936F36BD6631F13DC5FF95BE66162E
:1044DA00213C52107C3D4EF04D3DB3071ABDDBA383
:1044EA0047BE9CC4303E9E44143E5F404FBE435676
:1044FA0037BC7C478D3E034085BE87A6CCBDC268CB
:10450A0056BD215AA33E751E15BD8B34F1BCF06908
:10451A002E3E022CD2BD601FBD3DF0DD663D8E757C
:10452A00513EAA2B8F3E302A69BD5EF32A3C94D9AC
:10453A00C03D8F8A7FBEAA9C363DCF4ADABC26E3AD
:10454A00283E863896BD37399C3DBEF6CCBC9E6265
:10455A00D5B9564A4FBD9F03CBBDCBBE0B3EF8DF44
:10456A008A3D95F10FBE97003CBD49DA0D3D72C2F6
:10457A00C4BD0551973DEA3F1BBEAF5A193A0FB960
:10458A00D93DAEF4BA3D5F79003E8E04DABDF0142F
:10459A00F23DDA90DF3DF7E9F83D83F98B3D1C0CDB
:1045AA00F53CB779833D0117243D65C26FBD5111B2
:1045BA00A7BC7AC30DBE6EC0A73D0B604A3D996782
:1045CA00853D4AECDABB176235BD8600603B8A211D
:1045DA00F93DC6BEE43C16C315BD8CF347BEE146A1
:1045EA003A3E0FB6283E8316323E6BF4EA3D5870C7
:1045FA00BFBC0248ED3CBEDD923C36C8243D0CE807
:10460A0075BE89B227BE64B17D3ECE1901BE81B1A5
:10461A009EBD732B543EA56825BE6A6B443E01516C
:10462A00B0BEFA294E3D6CCE013DD5EA2BBEF8DF6D
:10463A006A3E28D102BEA586263ECE33063E226CAD
:10464A00F83CF261F63CDD5D07BED732993C411178
:10465A000B3ECC25D5BDC4271D3D066655BEC2DB23
:10466A00833A11A713BD446CB03A94313E3EFDC063
:10467A0055BEA052C5BD5B091DBD2DAF1CBED2AA39
:10468A0016BC255D83BE541EDD3AF9A1D2BD9274D3
:10469A00CDBD39D3A43D470463BAEFABD23DB9FAD5
:1046AA0031BD4FB05FBEBD558F3E65E399BEBB5F5E
:1046BA00E53D42D0213E607825BDC26DCD3DCEFD9F
:1046CA0005BE7F3246BCDB52073EB935E9BC793BB1
:1046DA00123E44A8B2BE8AADA03CEB711F3D4F5CAE
:1046EA008EBDE0F3C3BBA4524CBE12A4D23C4F759C
:1046FA0038BEB91C8FBD3064453E5F7BB6BEF94EED
:10470A002C3E598B1F3EBC792ABCF0DFBC3A617043
:10471A006DBEE432B63EF585B0BDB30C313DE487DB
:10472A004A3E8FA92BBE07EC2ABD68EAF53C2060F9
:10473A001DBE0A4AA93ED09819BE8CF763BC062A48
:10474A00133E5760E8BD8D24913EBB095EBE26A983
:10475A00CC3D309D963D13B594BD7EAB153E31CF11
:10476A006ABE2FA7243E0DC3C7BC9A7B88BD35B746
:10477A00923E7A172FBD1EE134BA7504103ED31249
:10478A000BBEE7C38B3E121344BE39D10E3E90A333
:10479A00393D7102B3BD23F83F3EEFE328BE7FF6F1
:1047AA00033E17D8C3BDBD1D51BEC30E233EB1A6DD
:1047BA0022BE96E82C3D8997173E809E96BE90BEF3
:1047CA00993EC72F94BE066324BEA33C53BE3469E8
:1047DA00D3BD185F643E096E24BE09FA1B3E12BDA2
:1047EA000CBD8CDB88BD3124073E0C06D7BB9B0071
:1047FA00133E4B5A913DD33084BEA699863E6496A9
:10480A008DBE3354A5BD596992BD546E82BD8BA528
:10481A00883EB57099BD548BE83D0379D63D503634
:10482A0065BC83E0013E070ABC3C0036503ED443D7
:10483A00943D878B5CBCDE013E3E642300BEB22AF7
:10484A00423DF774F53C65389EBCD331873EA19D45
:10485A0043BEFA9A053E15C480BD5CACA8BC698A01
:10486A00103E5CFF8EBD1E36413E73D5BCBD3F5522
:10487A00E5BDD38382BBD7BE40BD1217303EC138D7
:10488A00383E683FF2BD56D84C3D37397CBE51D9C7
:10489A00303E27A3CA3D151E34BDC9580D3E88496E
:1048AA00B8BDAFB296BD2AAD3F3DA246A13C29266E
:1048BA002F3E621484BD91B41BBEA60E323DF4FC99
:1048CA0029BEEF708B3EB91B54BE5916CC3DE4BCD1
:1048DA00DFBD11DF093D6EDFA33E776983BEF8377E
:1048EA0038BEBEDD12BD3E2527BDD5ED003FE36BC8
:1048FA005FBE2D0950BD2448A53B849B3CBEFF5B8F
:10490A00053F882E68BE3A9637BFCF4C40BEC55881
:10491A008E3E90DC2A3EC8ED97BC3143BB3E6D719A
:10492A00C53E7E6FB33D04C61ABE2639E0BD4F3C74
:10493A00EFBE0987DE3D1EC11D3E88B8B93C446FF3
:10494A00F1BABBF053BE95BB3F3E6902D53E4469FE
:10495A0097BE32716B3D08E79B3E51F4403EB30669
:10496A00AF3E75E6DEBE333559BED82E25BFCC968E
:10497A00ACBCCCEDE63E43C9643DBB0D3ABE323D0C
:10498A00E13C336E3ABE73F29ABE2FC1A93E7B85D3
:10499A0015BE616B8E3EF2B3A1BEDA1A11BD780B59
:1049AA00343E185CABBE40BD19BD32CA63BE397E07
:1049BA00C8BD31D3C63E2672C13C3FE081BCF7B1C7
:1049CA0002BE931ADABDE0A2F33D10CA9BBDCEFC2B
:1049DA00BA3E58FFC7BD795B09BE45A02A3EAD5114
:1049EA001FBEB550223E7DEB033D687AC9BD6FD824
:1049FA00363E986C5CBE753A2CBFA419ABBE10B398
:104A0A00173C9B00BB3E857CF0BE14B4B13E7AA92C
:104A1A0018BE26361F3D81CEA4BD5A7FABBDB891C4
:104A2A00823E51FA823E725042BCBB9ADCBD0D33C3
:104A3A00F43D3066ABBDA08C713EFE0BA43DA68151
:104A4A005F3D54362C3CF0A5F03CFF3D483EADC1DD
:104A5A003BBD6B81BD3C8203DABD72C08E3EB4CAD7
:104A6A00CCBC2101A3BC223999BD24619FBDED4470
:104A7A0009BD88DA963DEEB009BC40F7653D1C27B2
:104A8A00A5BD4AF1113EF9D7723CEA7A223C84D993
:104A9A0084BD5A0E34BDA1F716BEF60C91BEDFE1F5
:104AAA00763D5CE5293E759318BEF739DE3DBEA01A
:104ABA009D3E75AE683DD26E74BC8752FBBC53AE48
:104ACA00003E4A404C3DF0181E3D4E458ABD6E8B55
:104ADA0032BEA514743D62F9933D0DC7B33DB5FBD3
:104AEA00D53DF37624BEBA66123E5455E8BC8C66B0
:104AFA00E53CBF9EAF3C5DDDD1BD4371E7BDCF4E06
:104B0A00463D425D24BD575C1C3D55F823BE2461D9
:104B1A00FF3DFC6FA5BDA4AA09BEF0A7863D704063
:104B2A00EB3D1442173EF81711BE003620BDFBCEEE
:104B3A006F3D8C3190BDC1A799BD63D1343E336FAF
:104B4A00D5BD611BD13D65E16BBD7172FF3DD141A0
:104B5A00273E4E7F763CED7FA03DAE83433DC0921B
:104B6A00AB3A6B9AF73C8924FA3C74B5B5BD21037C
:104B7A00793D6EC027BDFB58413DAED90ABD051926
:104B8A00413DD3FABBBD5820BA3D02F4BB3DA0A6B5
:104B9A0016BE67282E3DA1F5D0BD5AF4CEBCCCB2C4
:104BAA00E73D174725BD5AB82C3D295FD0BD0B41BB
:104BBA001E3EFB7828BE2369D7BD4E64663DD38866
:104BCA00B9BDA4C7AF3D1399393E990C473CFBCDFB
:104BDA00643E9C53C93776C336BCF8FEA63DC9204D
:104BEA0037BD1F6ADB3B672CFABD1591E13C4B04CC
:104BFA006A3D363B52BDEE5AE23D12F582BD92EC59
:104C0A00913DE886263B59FD11BE7E8F3ABD00E5EF
:104C1A00AF3D6361883B7D20D93DDC47EE3C9CE19A
:104C2A00063E6FD4EABD061115BFB3D06EBE1F3162
:104C3A00BABD00AAE03E91D51DBEAD329B3EA1B9D8
:104C4A008E3E57044FBE8A3B5EBB87C47DBE73A2AD
:104C5A001D3E880DD63DF11191BD6F47B8BCE6598E
:104C6A0091BE2559873C753FE73DDF373E3C7C992D
:104C7A00A8BD44E080BE01C287BD7590D73D2BFC1C
:104C8A00D9BDB134F03CE9EEA2BEF94C463E5F46CE
:104C9A00313DF7CD7DBDB53477BD4A979EBE59DB10
:104CAA00143D76FC17BDCCCF8DBD2F185C3D58CA7C
:104CBA0072BEC9AC0E3EC217063EF12FE2BDE3C179
:104CCA00963C75054BBE33DF813DB9C6A73D8B3592
:104CDA005CBDA0C03B3E68CF95BE5226053E2B3434
:104CEA00903D01A5E1BD5DFAF73D809E96BE202864
:104CFA00773D9CA5043EAD18AEBC39D304BD7905F9
:104D0A0092BEB1C0D7BC643F8B3DDA3B23BCF5B839
:104D1A002F3E53B327BE36CC903D7DEA583E8B4E8C
:104D2A0096BDFC70903D17B69EBE85EE423E6C0461
:104D3A00823DF3E505BDC0AE26BD3F531FBE7E1EB4
:104D4A00AB3EFD14C73D2A8BC2BB33DD6B3D7521DB
:104D5A0056BE02F4DB3D376C5B3D97E4E0BDBA30EA
:104D6A00623E9AEC6FBE54C6A73EA933D73D952A38
:104D7A0051BDF84F373DC00905BCBAF3AC3EB3B1DB
:104D8A0092BC3D0CCDBDB29EFA3D3274F4BE3BE3FB
:104D9A000B3E9A7CB3BD96AF8BBE5BEF873E6A141F
:104DAA009ABE3562963E9489BB3D454918BE6781D5
:104DBA00963D3E22A6BB5B5C533E0A4CE7BD022DE4
:104DCA005DBDBFB7093E0B43E4BE3F37743D9D66E8
:104DDA00013E32C732BE3CBC673E3BE05ABE8D5DE7
:104DEA00123ED140ACBD2FFACABDA9D9E33DEA5A59
:104DFA007BBDE0BE0E3DF6EB86BEDAFF00BD0B269C
:104E0A009E3E21AE1CBFD575683DA5A4C7BDE7A7C8
:104E1A0080BE3BACC83ED5EDACBE2E8EC23E0EDD8A
:104E2A00CC3DFC89CABDA4A893BDE5D5193ED7F9E6
:104E3A0077BDB03A02BE76C6973DD8F3053EDAAAE8
:104E4A008CBE543797BC0685E13D94F8B4BEE84B56
:104E5A008F3ED503E63C6344A23B3BE03ABE63285F
:104E6A0097BE5A7F3BBE3AAD6B3EB2D9513EDBC3C9
:104E7A005E3DDF342DBE30F2B23D69A96CBEC57409
:104E8A0021BD85B694BEDD5DE7BDBFB5F33DFC50DF
:104E9A0099BECF138F3D3D47643D849AE1BD42944C
:104EAA00EF3DA06B2FBE1ADB0B3E0401123E7B3393
:104EBA000ABEDBFD6ABDA7CAF73DA834163F88F4CF
:104ECA00AB3EE9B9453DDDCFA9BCAC90323E13817A
:104EDA00BA3EF2779F3E42EDB7BDA9DAAEBD75ACD8
:104EEA00D2BD5858D03E425AE33C234B66BC151CEF
:104EFA001E3D8C11893D5185DF3D662F1B3E126890
:104F0A003C3F31CE1F3ECBF857BF47E3B03DEB568F
:104F1A004F3C22A5A9BEF851C53EEA068A3CE06587
:104F2A00C63D3D480FBDAC3C81BC1D20483ED97BE7
:104F3A0091BD0C1F89BEAE2E07BEE750E63DECC1FF
:104F4A0024BBFB3DB13D54FD8ABEE8FA3E3D4FCC41
:104F5A00DA3D73DAA33E8849B8BEA67F1DBF0FD2D9
:104F6A00BBBE779D8DBD8FC40B3F834C1ABF12BC4D
:104F7A0081BDF66052BDA1D842BF335104BCC426DC
:104F8A00C23F4B3F21BD61C1B53EE86CF93E19C82D
:104F9A00333C5EF65BBE4C6F4FBE7D24A53D35614A
:104FAA009BBE8D9BBABD54E3E53DB0AFD53DEDB98F
:104FBA003C3E602133BECC0C9B3D7AE04BBFE6758C
:104FCA00643EC5533F3E4C6C0ABF6B2B063ECF82F4
:104FDA0080BEB516663E1A168BBEE7FECABDD289DA
:104FEA00343E4FE895BDAD4F253F0397E7BD66D9DF
:104FFA0093BA577817BE4DF960BE39260BBC32906A
:10500A0017BEB551BDBD2BF732BE79790A3F2B3198
:10501A00CF3DB724E7BDC5733639190145BE50FBEC
:10502A00E53EB8ACE2BD50A897BEDCBA1BBD2D5B0D
:10503A003B3E2460CCBECF2DF43CD68BA93EFB5A16
:10504A00D7BD92AFA43D0AD6083EC9CB5A3DB5C2D8
:10505A00A43E56F572BD997E49BDAABB923E5F46F3
:10506A0091BDDD7B38BB93FD733C1CEF0E3B18ED05
:10507A00613EB37A07BD0F435BBE037DC23D9A977B
:10508A00C3BD9A0A713D0A86A3BECB9D09BE69C3F8
:10509A0081BD8962323EB70D83BD25B21F3EBF9BDB
:1050AA00AEBD93FC08BC3D9DCBBD276CBF3CB80789
:1050BA00013EB0203DBEBBF16E3D4FB2D5BCB08EB5
:1050CA00633CDAC9E0BB7AAA43BE747933BDF9F707
:1050DA00F93D44A38BBE5AF2783D4B946D3E445140
:1050EA00A03C639BB43D6748BD3EA3403FBE302B06
:1050FA00F4BD6E88F1BBE206DC3D3F389F3B16C12A
:10510A00FF3B45BA5FBE62BE3C381004483BEA3FEB
:10511A00EBBC64AD213DBCE966BE384A0EBE78EDF3
:10512A00723E2D779EBE3F1F25BD931E16BE8E95DD
:10513A00583D662D853CFB03A53DFB3C36BE50E041
:10514A003DBEE9F060BE41836D3EC9E9CBBE2F6A20
:10515A00273EAF96933E4F3E3DBD70B162BE899ADF
:10516A0088BD0E1107BE8AC8403E957CEC3C6DE6B0
:10517A00903B9147B0BDAA66F63D950D3B3EE58052
:10518A00DD3D601EF2BDF8E1A03C52F27A3EADA6CA
:10519A006BBC800D08BB8EE59DBD2BF7E2BD7F6819
:1051AA0026BEA018D93CD04513BE60040D3D399DDA
:1051BA00A4BD6C22133EFC56EB3DB9FB1CBEA8579E
:1051CA00AA3DC21425BD8596153E4AB63A3EEA2244
:1051DA0085BD4F4093BDABE9FABC0B082D3D6E313E
:1051EA00DF3D452A5CBE713A693E6021D3BE555106
:1051FA007CBD46B12C3E8B1981BDC7651CBD8C2D6B
:10520A00443D01A175BA54E2BABCCD7770BD95B7D9
:10521A00C3BDC11B92BDE1CE253ECB9E043D698D27
:10522A0001BE3F8EE63C6D54C7BDD6C5AD3D601E7E
:10523A00B23D594F6DBE037A013E865A73BE34821F
:10524A00ED3DB404293E70EFBA3DEE0516BE60EAA4
:10525A00A73D0C75D83CF7AFAC3B95490DBEED4662
:10526A005F3D1B2E723DC34A753E7F2E5ABE26A64F
:10527A00EBBDE8A0EBBDD5EDACBDC8B3E33EFE7C0B
:10528A007B3EE318C93C8BDF84BEC971573E341399
:10529A00AC3D1E1B813C8880033EDC4859BD813FE2
:1052AA009C3DAA7C0FBDA3ACFFBD6005F83BA5D70A
:1052BA00A6BDF17EDCBC753B3BBD4A9598BE001F7E
:1052CA003C3D51A00F3D2024AB3D75E488BE465EAF
:1052DA0046BE9A0A71BD9623243EE6916F3E7A171E
:1052EA00CF3DE4BB84BEEACFBEBD87FE39BEE3A68E
:1052FA00463E4628763D3D10993DFB7612BE014C4E
:10530A0059BDE1968F3CFBAFBB3E6A12DC3D48A615
:10531A0083BD54E593BE51A4833E4A0AACBCD28EE7
:10532A007BBE15E487BD7FDAC8BD22C4F53D473A86
:10533A0023BE73B866BE2D940CBDE25817BDD8289B
:10534A001B3E0932923E3881893DE59A42BDF06E94
:10535A0065BD21AFA73D64E8B83D68CE1ABE9F3D42
:10536A0017BCD0EEF0BD56B7FA3C3D275D3E5DC195
:10537A00F6BD9B02593DECA092BC5DA646BE1DE55A
:10538A00D03EE200DABDFBAF33BD890744BEF2EA84
:10539A00DCBD6B9AE73E4B1D04BE05C4643DD5B027
:1053AA00FFBD7EFF06BE4E5F873EBF9B5EBEC9AE97
:1053BA00943D2B8A57BD2BFAE3BD51D930BED78411
:1053CA00643EE63C63BD46EC23BED1CE813E0A4D27
:1053DA00AA3EB420943C7808C3BD793F6EBD863B93
:1053EA0067BE666B9DBDB39612BE302F803D865553
:1053FA00DC3D881285BED3C04F3EFB022ABEE43193
:10540A00C3BD739CDB3D724D21BE25CF453E22189C
:10541A0007BE15FE8CBD08CD4E3EED2D65BE40F68D
:10542A009ABED74DA9BD8F71E53D49D5CE3E62667C
:10543A001F3C34661EBFC3B81B3DA7757B3EE4F60E
:10544A007B3EF5F28B3E363C4D3E38DBDC3B6EC391
:10545A0018BE499DD0BE34109B3E7174953C9B3B4F
:10546A007A3C410CB4BD3BC665BEFA258A3E9F1EF6
:10547A005B3CFE64ACBD16DE15BE7C0A403E9BAEAC
:10548A0067BEAE6467BE6B0D65BDE8BCC6BCD55CC5
:10549A00C63E0DFF89BE282C91BE10945BBC721AC1
:1054AA00C2BD7288C03E943299BEEAE9633D412E7C
:1054BA0011BEDBF7A8BDE739723EEB727ABE53E93B
:1054CA00373E22C61B3E12878CBD1B0E0B3E13EFC6
:1054DA0040BDC4D0AABD7F3286BD4BB1C3BDC9C7CA
:1054EA004E3EA9DB19BE03D133BE287F773C0AD6CC
:1054FA00B8BC5ABB8D3E1E1A76BE9F56C1BE2C0E34
:10550A00E7BDCE88523C7FA3F53EF45156BEB0703B
:10551A0052BD38F501BD8126C2BB06BAE63E65E03A
:10552A0088BEA357333E992B43BE40FC7CBD86E51B
:10553A000FBDCF6B6C3D1958073D1976783E6B82CB
:10554A0028BD390965BD529DEE3D761B14BF85B64F
:10555A004CBE4320973DFDC0013FA7CED3BE157474
:10556A006BBE6A6B04BDD89B183E8FFC313ED1B22C
:10557A00BEBE882E183E1D3E393E7F17B63BE44C10
:10558A00133DAF236EBEC808803ED02BDEBD4D4C06
:10559A0017BE1C293B3EB421CFBE1F2E393E278998
:1055AA00853D36212DBE77D8643E2123A0BE3AEB35
:1055BA0013BD247C8FBD4B3C30BEB266743E9ED276
:1055CA0001BFB266A4BDE7FFB53DF4174ABEE94480
:1055DA0082BDACABE23DE4A16F3CAB05463EC520C3
:1055EA00B0BD3D46693E184424BE0EF6A6BC1C96C4
:1055FA0006BDE3C7D8BDA1868F3DE6AC9FBE16BDEA
:10560A00CB3EBF7C523ECAA4E6BD7B31B4BD84BD4D
:10561A00E9BDF6D294BCE10C3EBDD0F026BD52B72E
:10562A00E33E07B123BEF4C09F3E838523BEADBFD0
:10563A00A5BE9339163E3FFF9DBDF10EF8BE8E21E1
:10564A00203E68E95A3E2061B83E12FB843CB3060C
:10565A003FBE7479BBBE59FA30BE942E7DBDC7D405
:10566A001DBD6EDBB7BDB7082CBE7846ABBE2D9507
:10567A0037BE392B823DA662633D70074A3E5BB650
:10568A00063E9E25A83D66C029BE95B8AEBDFB2143
:10569A00063E5DC5A23D9A96A03ED2E006BE0E82A7
:1056AA005EBEA472533DE352953B9E97923EA67C02
:1056BA00A8BD901150BD03781B3E1BBB243EBC0302
:1056CA00DC3DC361E9BD1A177E3EF2EA9C3DB96E24
:1056DA00CABC1765B63DC03D0FBD2FFACA3DCBD82F
:1056EA00B03DB8955EBD2925C43D77F40FBE498308
:1056FA003BBE15A845BB1900AABA3128733E20291A
:10570A00A23C0CCE20BEF964C5BC433B673D0B0DE1
:10571A009C3E65E0A0BD1AC39CBA1E54E23D4E9C55
:10572A004C3EFA7B913EBEF9BDBEBA3092BD170E11
:10573A00243E1EC5813E02BAEF3D5E2F9DBEA6984D
:10574A0053BEB2BA15BE772B1B3EB3B1423EAA9CDA
:10575A00C6BE591521BE1078E0BCFED4183E861F7D
:10576A00BCBD68E7003F111926BED977453DAF3F5A
:10577A00D13EC68AFABD4DDCBA3E9696D1BD804569
:10578A009E3D68EC5BBE9B8DB53D6214843C2F6DDB
:10579A00F8BD9599D2BD0BB3903D5F074EBC20B5BD
:1057AA00093D72335CBA0BB8C7BD6403813EBDE3E1
:1057BA00B43D700988BECEFF6B3EF0FC22BCF832C5
:1057CA00113E7DCC47BD3CA593BEB266503FB9346D
:1057DA00E83F54C3A0BFCE1812BF516C653E01E02A
:1057EA00283E5FB4BFBE1170BE3F8526E93DF0DF9B
:1057FA0092BF9ACF49BE0726D7BD3FAC073E484F56
:10580A0011BCD34BACBE6D2D74696D657374616D3B
:10581A00702D6D6F64652D706572666F726D616E45
:10582A0063650D0A00496E707574206462206861B0
:10583A007320256420656C656D656E7465642C2023
:10584A0065787065637465642025640A006D2D723D
:10585A006573756C74732D5B00256400000000008D
:0E586A00700AC60BEA09500ABC09D609C80923
:00000001FF
